:100000000C944C050C9474050C9474050C941E0E01
:100010000C941E0E0C941E0E0C9474050C94740516
:100020000C9474050C9474050C9474050C9474056C
:100030000C9474050C9474050C9474050C9474055C
:100040000C94CB1A0C9474050C94EC0D0C94C60D06
:100050000C9474050C9474050C9474050C9474053C
:100060000C94600F0C94740500000008000201005D
:100070000003040700000000000000000001030767
:100080000F1F3F7F0080C0E0F0F8FCFE0000000082
:10009000003E5B4F5B3E3E6B4F6B3E1C3E7C3E1C0E
:1000A000183C7E3C181C577D571C1C5E7F5E1C0054
:1000B000183C1800FFE7C3E7FF0018241800FFE70B
:1000C000DBE7FF30483A060E2629792926407F05CE
:1000D0000507407F05253F5A3CE73C5A7F3E1C1CE4
:1000E00008081C1C3E7F14227F22145F5F005F5FA4
:1000F00006097F017F006689956A60606060609490
:10010000A2FFA29408047E040810207E2010080894
:100110002A1C08081C2A08081E101010100C1E0C9F
:100120001E0C30383E3830060E3E0E060000000031
:100130000000005F00000007000700147F147F1418
:10014000242A7F2A1223130864623649562050005D
:1001500008070300001C2241000041221C002A1C49
:100160007F1C2A08083E0808008070300008080834
:100170000808000060600020100804023E51494554
:100180003E00427F400072494949462141494D3372
:100190001814127F1027454545393C4A49493141D9
:1001A000211109073649494936464949291E0000A7
:1001B00014000000403400000008142241141414FC
:1001C0001414004122140802015909063E415D59E8
:1001D0004E7C1211127C7F494949363E41414122F1
:1001E0007F4141413E7F494949417F090909013E1B
:1001F000414151737F0808087F00417F4100204042
:10020000413F017F081422417F404040407F021C53
:10021000027F7F0408107F3E4141413E7F0909096A
:10022000063E4151215E7F09192946264949493236
:1002300003017F01033F4040403F1F2040201F3FFC
:100240004038403F63140814630304780403615981
:10025000494D43007F4141410204081020004141C3
:10026000417F04020102044040404040000307086F
:100270000020545478407F2844443838444444286B
:10028000384444287F385454541800087E09021812
:10029000A4A49C787F0804047800447D400020409A
:1002A000403D007F1028440000417F40007C0478DE
:1002B00004787C080404783844444438FC18242426
:1002C0001818242418FC7C080404084854545424A6
:1002D00004043F44243C4040207C1C2040201C3C23
:1002E0004030403C44281028444C9090907C44641A
:1002F000544C4400083641000000770000004136AD
:10030000080002010204023C2623263C1EA1A16132
:10031000123A4040207A3854545559215555794164
:100320002254547842215554784020545579400C39
:100330001E5272123955555559395454545939551C
:100340005454580000457C410002457D420001455F
:100350007C407D1211127DF0282528F07C545545F3
:10036000002054547C547C0A097F4932494949325F
:100370003A4444443A324A4848303A4141217A3A70
:1003800042402078009DA0A07D3D4242423D3D403C
:1003900040403D3C24FF2424487E4943662B2FFCEB
:1003A0002F2BFF0929F620C0887E09032054547999
:1003B000410000447D413048484A32384040227A6A
:1003C000007A0A0A727D0D19317D2629292F2826E7
:1003D0002929292630484D402038080808080808EF
:1003E0000808382F10C8ACBA2F102834FA00007B48
:1003F000000008142A142222142A1408550055005B
:1004000055AA55AA55AAFF55FF55FF000000FF0049
:10041000101010FF00141414FF001010FF00FF1044
:1004200010F010F0141414FC001414F700FF000076
:10043000FF00FF1414F404FC141417101F10101FF5
:10044000101F1414141F00101010F0000000001FE3
:10045000101010101F10101010F010000000FF10EE
:100460001010101010101010FF10000000FF1400EA
:1004700000FF00FF00001F10170000FC04F414141C
:100480001710171414F404F40000FF00F7141414E8
:1004900014141414F700F7141414171410101F1068
:1004A0001F141414F4141010F010F000001F101F8B
:1004B0000000001F14000000FC140000F010F010F9
:1004C00010FF10FF141414FF141010101F00000070
:1004D00000F010FFFFFFFFFFF0F0F0F0F0FFFFFF74
:1004E0000000000000FFFF0F0F0F0F0F38444438CB
:1004F00044FC4A4A4A347E02020606027E027E021A
:1005000063554941633844443C04407E201E200624
:10051000027E020299A5E7A5991C2A492A1C4C7261
:1005200001724C304A4D4D303048784830BC625AE8
:10053000463D3E494949007E0101017E2A2A2A2A78
:100540002A44445F444440514A444040444A514054
:100550000000FF0103E080FF000008086B6B083615
:1005600012362436060F090F060000181800000086
:100570001010003040FF0101001F01011E00191D75
:100580001712003C3C3C3C00000000000000000052
:10059000240027002A00DB40A4A62EAFDA0281DA6D
:1005A0001281DA02818F2000A1C8D300408DAED520
:1005B00080A80000600000000000000000000000B3
:1005C000000000E00000000000000000000000004B
:1005D0000001E0000000000000000000000000003A
:1005E00001F0000000000000000000000000000317
:1005F000F00000000000000000000000000007F014
:100600000000000000000000000000000007F800EB
:100610000000000000000000000000000FF80000D3
:100620000003C0007E000001E0007F0FF800000022
:1006300003C000FE000001E000FFEFF8000000032F
:10064000C000FE000001E000FFFFF800000003C052
:1006500000F00000000F007FFE7FC0000003C0001C
:10066000F00000000F003FFE7FF83FF1FBCFFCFEE3
:10067000F3BC3DEFE01FFE7FFF7FFBFFDFFEFEFFD1
:10068000BC3DEFE01FC6FFFF7FFBFFDFFEFEFFBCB0
:100690003DEFE00FE3C7FE787BC3DE1EF0FFBC3DFD
:1006A000EF0007FF87FC787BC3DE1EF0F83C3DEFD0
:1006B0000001FFFFF0007BC3C01EF0F03C3DEF00E7
:1006C00001F37FE03FFBC3CFFEF0F03C3DEF0003C2
:1006D000E33F807FFBC3DFFEF0F03C3DEF0007E728
:1006E0003C00787BC3DE1EF0F03C3DEF0007FFBE10
:1006F00000787BC3DE1EF0F03C3DEF0007FFFE00FC
:10070000787BC3DE1EF0F03C3DEF000FFFFE007F64
:10071000FBFFDFFEF0F03FFDEFE00FFFFF007FFB90
:10072000FFDFFEF0F03FFDEFE00FF9FF003E79F94B
:10073000CF9EF0F01F3DE7E01FF1FF00000000003A
:10074000000000000000001F80FF007FFFFFFFFF90
:10075000FFFFFFFFFFE01C007F007FFFFFFFFEB4F5
:100760006D888D18E000001F007FFFFFFFFE95AD34
:100770007DB577E000000F007FFFFFFFFEA5AD9D78
:100780008D19E0000006007FFFFFFFFEB5ADEDB55F
:100790007EE000000000000180000000000000007A
:1007A0000000038000000000000000000007C000FF
:1007B000000000000000000007C000000000000072
:1007C0000000000FC00000000000000000001FE05B
:1007D0000000000000000000001FE000000000001A
:1007E000000000003FE00000000000000000003FAB
:1007F000F00000000000000000007FF0000000009A
:100800000000001FF87FF0000000000000003FFE25
:100810007FF0000000000000003FFF7FF0000000BC
:10082000000000001FFFFBE0000000000000000FC0
:10083000FFF9FFC00000000000000FFFF9FFF80003
:10084000000000000007FFF1FFFF000000000000B3
:1008500003FC73FFFF80000000000001FE3FFFFF6C
:1008600080000000000000FF1E0FFF0000000000DD
:1008700000007FFE1FFC000000000000003FFFFFA3
:10088000F8000000000000000FDFFFE000000000A3
:100890000000001F19FFC0000000000000003F3CE6
:1008A000FF00000000000000007E7CF80000000057
:1008B000000000007FFE7C0000000000000000FF40
:1008C000FFFC0000000000000000FFFFFE00000031
:1008D0000000000000FFFFFE00000000000000011B
:1008E000FFEFFE0000000000000001FFCFFE00004F
:1008F000000000000003FF07FE00000000000000F1
:1009000003FC07FE0000000000000003F003FE00EF
:10091000000000000000018000FE00000000000058
:10092000000000007E000000000000000000003E0B
:10093000000000000000000000000C0000000000AB
:1009400000078000FC000003C0000000078001FCDD
:10095000000003C0000000078001FC000003C0008D
:100960000000078001E00000001E00000007800179
:10097000E00000001E007FE3F79FF9FDE7787BDFD2
:10098000C0FFF7FFBFFDFDFF787BDFC0FFF7FFBFB4
:10099000FDFDFF787BDFC0F0F787BC3DE1FF787B92
:1009A000DE00F0F787BC3DE1F0787BDE0000F787E2
:1009B000803DE1E0787BDE007FF7879FFDE1E07816
:1009C0007BDE00FFF787BFFDE1E0787BDE00F0F71C
:1009D00087BC3DE1E0787BDE00F0F787BC3DE1E0DD
:1009E000787BDE00F0F787BC3DE1E0787BDE00FF3E
:1009F000F7FFBFFDE1E07FFBDFC0FFF7FFBFFDE1D9
:100A0000E07FFBDFC07CF3F39F3DE1E03E7BCFC0A6
:100A10000000000000000000000000FFFFFFFFFFDB
:100A2000FFFFFFFFFFC0FFFFFFFFFD68DB111A3173
:100A3000C0FFFFFFFFFD2B5AFB6AEFC0FFFFFFFF68
:100A4000FD4B5B3B1A33C0FFFFFFFFFD6B5BDB6AB7
:100A5000FDC02200FF210000000000230026002925
:100A60000000000000250028002B000404040404FA
:100A7000040404020202020202030303030303014B
:100A80000204081020408001020408102001020422
:100A9000081020004F1B151B11241FBECFEFD8E0FC
:100AA000DEBFCDBF12E0A0E0B1E0ECEFF7E402C0A2
:100AB00005900D92A034B107D9F724E0A0E4B2E08C
:100AC00001C01D92A636B207E1F715E0CBE4D5E0F0
:100AD00004C02197FE010E94DF21CA34D107C9F763
:100AE0000E948B1C0C94F1230C9400000895CF926B
:100AF000DF92EF92FF920F931F93CF93DF936C01DE
:100B00007A018B01C0E0D0E0CE15DF0581F0D8017D
:100B10006D918D01D601ED91FC910190F081E02D58
:100B2000C6010995892B11F02196EECF7E01C701F0
:100B3000DF91CF911F910F91FF90EF90DF90CF90B9
:100B40000895FC01538D448D252F30E0842F90E0D3
:100B5000821B930B541710F0CF96089501970895B8
:100B6000FC01918D828D981761F0828DDF01A80FB5
:100B7000B11D5D968C91928D9F5F9F73928F90E0D7
:100B800008958FEF9FEF0895FC01918D828D981746
:100B900031F0828DE80FF11D858D90E008958FEF83
:100BA0009FEF0895FC01918D228D892F90E0805C4C
:100BB0009F4F821B91098F739927089589E393E0D2
:100BC0000E94D20521E0892B09F420E0822F0895AC
:100BD000FC01848DDF01A80FB11DA35ABF4F2C91DA
:100BE000848D90E001968F739927848FA689B789A9
:100BF0002C93A089B1898C91837080648C93938DA0
:100C0000848D981306C00288F389E02D80818F7D42
:100C100080830895EF92FF920F931F93CF93DF93FA
:100C2000EC0181E0888F9B8D8C8D981305C0E8893D
:100C3000F989808185FD26C0F62E0B8D10E00F5FAF
:100C40001F4F0F731127E02E8C8DE8120CC00FB6CA
:100C500007FCFACFE889F989808185FFF5CFCE01BD
:100C60000E94E805F1CF8B8DFE01E80FF11DE35ADC
:100C7000FF4FF0829FB7F8940B8FEA89FB89808140
:100C800080620AC09FB7F894EE89FF896083E88983
:100C9000F98980818370806480839FBF81E090E0C8
:100CA000DF91CF911F910F91FF90EF900895CF9317
:100CB000DF93EC01888D8823C9F0EA89FB89808164
:100CC00085FD05C0A889B9898C9186FD0FC00FB636
:100CD00007FCF5CF808185FFF2CFA889B9898C9177
:100CE00085FFEDCFCE010E94E805E7CFDF91CF91E0
:100CF000089580E090E0892B29F00E94DE058111A3
:100D00000C940000089520915A0430915B04281738
:100D1000390771F49091580480915904981741F063
:100D2000E0915804F0E0ED55FD4F808190E008958A
:100D30008FEF9FEF089508951F93CF93DF93DC010A
:100D40005C968D919C915D97009739F421E030E09D
:100D500013963C932E9312973BC05196ED91FC91C4
:100D6000529750962C915097322F30951FB75E9620
:100D70004C915E97742F727041FD6095F89440819C
:100D8000772311F0422B01C043234083EC012197CC
:100D9000F1F748E0508160FF02C0522B01C053239D
:100DA0005083EC012197F1F76695415099F78081C6
:100DB000772319F08323808302C0282B20831FBF51
:100DC0005C968D919C915D970197F1F781E090E0A1
:100DD000DF91CF911F91089520915A0430915B04C7
:100DE0002817390771F4809159042091580490E034
:100DF000805C9F4F821B910960E470E00E94B721E4
:100E0000089580E090E0089520915A0430915B04A9
:100E100028173907B9F4909158048091590498170C
:100E200089F0E0915804F0E0ED55FD4F808120916C
:100E3000580430E02F5F3F4F2F733327209358041F
:100E400090E008958FEF9FEF0895FC0177FDB9C002
:100E500080859185681779070CF0B3C057FDB1C044
:100E600082859385481759070CF00895858982304B
:100E700079F484819581DC01A61BB70BBD0161501B
:100E8000710986819781DC01A41BB50BAD010EC0F1
:100E9000833009F084C064277527CA018627972705
:100EA0006827792746815781481B590B41505109C2
:100EB0002130310531F048F12230310509F44AC0C2
:100EC0000895CA0157FD07969C01A3E03595279523
:100ED000AA95E1F7A481B5812A9FC0012B9F900DAF
:100EE0003A9F900D1124680F791F068CF78DE02D25
:100EF000E60FF71F4770552781E090E001C0880F8B
:100F00004A95EAF79081892B48C0CA0157FD079698
:100F10009C0193E0359527959A95E1F7A481B581D9
:100F20002A9FC0012B9F900D3A9F900D1124680FAE
:100F3000791F068CF78DE02DE60FF71F47705527B8
:100F400081E090E001C0880F4A95EAF78095908192
:100F5000892323C0CA0157FD07969C0183E035957C
:100F600027958A95E1F7A481B5812A9FC0012B9F1F
:100F7000900D3A9F900D1124680F791F068CF78D04
:100F8000E02DE60FF71F4770552781E090E001C084
:100F9000880F4A95EAF790818927808308958130E8
:100FA00009F086CF642775274627572764277527BA
:100FB00084819581DC01A61BB70BBD0161507109CD
:100FC00077CF08950895FC016370658B84819581C6
:100FD00026813781613039F0633029F0918780872D
:100FE00033872287089531872087938782870895E2
:100FF0006F927F928F929F92AF92BF92CF92DF9229
:10100000EF92FF920F931F93CF93DF93EC014B016D
:101010005A0169013801E881F9810284F385E02DE4
:101020000995E881F9810288F389E02D870196010D
:10103000A501B401CE010995A501460D571D4150EA
:101040005109E881F9810288F389E02D9601B40104
:10105000CE010995E881F9810088F189E02D93019D
:10106000A501B401CE010995C80CD91CB601615087
:101070007109E881F9810088F189E02D9301A501CA
:10108000CE010995E881F9810688F789E02DCE0126
:10109000DF91CF911F910F91FF90EF90DF90CF9054
:1010A000BF90AF909F908F907F906F9009948F9298
:1010B0009F92AF92BF92CF92DF92EF92FF920F93E7
:1010C0001F93CF93DF934C016B015A01E901DC01BF
:1010D000ED91FC916217730781F40417150724F44E
:1010E0008B2D5801042F182F0A191B0998012F5F07
:1010F0003F4F048CF58DE02D12C04017510709F5C4
:101100002617370724F48D2D6901C62FD82F9E018D
:101110002C193D092F5F3F4F068CF78DE02D87017D
:10112000A501B601C4010995DF91CF911F910F91DF
:10113000FF90EF90DF90CF90BF90AF909F908F90F7
:1011400008950284F385E02D0995D401ED91FC9179
:101150000488F589E02D9E01A501B601C401099519
:10116000D401ED91FC910688F789E02DC401DF914F
:10117000CF911F910F91FF90EF90DF90CF90BF9094
:10118000AF909F908F900994EF92FF920F931F93CF
:10119000DC011A960D911C911B9718962D913C918C
:1011A0001997ED91FC9100A0F1A1E02D7B0140E0A9
:1011B00050E060E070E009951F910F91FF90EF9073
:1011C00008954F925F926F927F928F929F92AF920B
:1011D000BF92CF92DF92EF92FF920F931F93CF9324
:1011E000DF936C012B015A0139014801DC01ED91BB
:1011F000FC910284F385E02D0995E201640C751CD5
:10120000D601ED91FC91C615D7055CF40088F189F3
:10121000E02D87019401A501BE01C6010995219623
:10122000EFCF0688F789E02DC601DF91CF911F919E
:101230000F91FF90EF90DF90CF90BF90AF909F9075
:101240008F907F906F905F904F9009948F929F92B4
:10125000AF92BF92CF92DF92EF92FF920F931F93C4
:10126000CF93DF93EC015B014A016901E881F981C9
:101270000284F385E02D099595012C0D3D1D21502B
:101280003109E881F9810488F589E02D780184012C
:10129000A401B501CE010995E881F9810688F78995
:1012A000E02DCE01DF91CF911F910F91FF90EF9034
:1012B000DF90CF90BF90AF909F908F9009948F92C6
:1012C0009F92AF92BF92CF92DF92EF92FF920F93D5
:1012D0001F93CF93DF93EC015B014A016901780111
:1012E000E881F9810284F385E02D0995C80CD91CA9
:1012F000860101501109E881F9810488F589E02D02
:101300009501A401B501CE010995E881F98106880E
:10131000F789E02DCE01DF91CF911F910F91FF90C2
:10132000EF90DF90CF90BF90AF909F908F900994F7
:10133000EF92FF920F931F93DC01ED91FC9100A0BF
:10134000F1A1E02D09951F910F91FF90EF90089565
:101350000F931F93DC01ED91FC91068CF78DE02D2E
:1013600009951F910F9108950F931F93DC01ED9143
:10137000FC91048CF58DE02D09951F910F91089536
:10138000DC01ED91FC910084F185E02D09942F9210
:101390003F924F925F926F927F928F929F92AF9205
:1013A000BF92CF92DF92EF92FF920F931F93CF9352
:1013B000DF9300D000D000D0CDB7DEB72C017E8304
:1013C0006D836A015901C801FC82EB824801841ACD
:1013D000950A97FE03C091948194910835012D815F
:1013E0003E81621A730A77FE03C07194619471089A
:1013F000681479045CF43A2D2B2D5C01832F922F15
:101400003D812E81DE82CD82C32ED22EAD81BE8162
:10141000AA16BB065CF43C2D2D2D6C01832F922F58
:101420003D812E81BE82AD82A32EB22E85012D81FB
:101430003E81021B130B1C012C183D0837FE03C014
:10144000319421943108780117FF03C03FEFE31A6C
:10145000F30AF594E794C816D9062CF08FEF9FEFA6
:101460009A83898304C0A1E0B0E0BA83A9832D8167
:101470003E81A216B30624F1D201ED91FC910484C1
:10148000F585E02D2B813C816814790424F44D818D
:101490005E81B60103C0A6016D817E81C2010995FE
:1014A000E218F308F7FE06C029813A81C20ED31E66
:1014B000E00EF11E8D819E8101969E838D83D7CF94
:1014C00026960FB6F894DEBF0FBECDBFDF91CF9149
:1014D0001F910F91FF90EF90DF90CF90BF90AF9052
:1014E0009F908F907F906F905F904F903F902F9044
:1014F000089585ED8093BC008091BC0084FDFCCFF5
:1015000010921403089540918002262F30E0240F9A
:10151000311D21323105DCF4209114032430C9F44B
:10152000FC0180E090E0861758F430918002219110
:10153000DC01A05ABD4FA30FB11D2C930196F3CF30
:1015400080918002680F6093800280E0089581E0BE
:10155000089582E0089508950895E091E802809149
:10156000E702E81730F4F0E0E05CFD4F808190E0A6
:1015700008958FEF9FEF08959091E8028091E70220
:10158000981750F4E92FF0E0E05CFD4F208130E047
:101590009F5F9093E80202C02FEF3FEFC9010895CB
:1015A0008091E70290E02091E802821B9109089562
:1015B000CF92DF92EF92FF920F931F93CF93DF931F
:1015C0007C01CB018A0120911503222389F0EB01D4
:1015D0006B01C40ED51ECC15DD0569F06991D701EC
:1015E000ED91FC910190F081E02DC7010995F3CFB9
:1015F000642F0E94830AC801DF91CF911F910F9140
:10160000FF90EF90DF90CF900895CF93DF931F92DC
:10161000CDB7DEB76983209115032223D1F0209145
:101620003803203240F021E030E0FC013383228394
:1016300080E090E015C080911603E82FF0E0E95EAD
:10164000FC4F998190838F5F8093160380933803BA
:1016500005C061E0CE0101960E94830A81E090E01E
:101660000F90DF91CF91089580E090E008950F935F
:101670001F93CF93DF93EC0188819981009729F024
:101680002A813B812617370788F48B016F5F7F4FD4
:101690000E940623009761F0998388831B830A8345
:1016A0002C813D81232B11F4FC01108281E001C0CB
:1016B00080E0DF91CF911F910F9108950F931F93B9
:1016C000CF93DF93DC015596EC915597E23071F0A2
:1016D000E330E9F0E13079F5FB0114960D90BC910F
:1016E000A02DA41BB50BA21BB30B18C0EC01EC8101
:1016F000FD81E61BF70BBF0161507109EE81FF818F
:10170000DF01A41BB50BAD01421B530B14C0DA0162
:10171000EC01EE81FF81E61BF70B3197F7FD0DC061
:10172000EC014E815F81E417F5073CF4AF01BD0188
:101730000E94C61202C00E942D13DF91CF911F910B
:101740000F9108950F931F93DC015596EC915597D7
:10175000E23061F0E33009F1E13081F51496ED916A
:10176000FC911597E41BF50B319723C0DC0114960F
:10177000ED91FC911597DF01A61BB70BBD01DC01B4
:101780001696ED91FC911797DF01A41BB50BAD01E7
:1017900041505109621B730B11C0FA01DC0116960E
:1017A0004D915C911797DA01A61BB70BBD01621B27
:1017B000730BAB01BF010E942D130CC057FD0AC073
:1017C000DC011696ED91FC9117974E175F0714F404
:1017D0000E94C6121F910F910895AF92BF92CF92AF
:1017E000EF92FF920F931F93CF93DF93EC01262F7D
:1017F000888D998D009709F040C06A3059F41D8694
:101800001C862C898E859F8538E0239F800D911D35
:10181000112441C06D3009F4AAC08E898823C1F01B
:101820003C898C859D8546E0349F800D911D112457
:1018300048855985481759075CF41D861C868E8596
:101840009F8548E0349F800D911D11249F878E87CE
:10185000EA88FB88088919894E855F856C857D85B6
:10186000CC88CE010E94AC102C898C859D8536E0F9
:10187000239F800D911D112442C06A3079F41D868A
:101880001C862C89FC013696E4918E859F852E9FBF
:10189000800D911D11249F878E8769C06D3009F4DA
:1018A00066C0FC0134963491631708F460C0319629
:1018B000E491E61708F45BC0FC01329665917491DF
:1018C000422F50E0431B510937E0349F5001359FB0
:1018D000B00C1124A60EB71EF50132963491319644
:1018E000E491332311F0E1110DC0F5013496E49138
:1018F0002C898C859D85E29F800D911D11249D87EB
:101900008C8735C0F501359644915E89552311F1D8
:101910006C89E32FF0E0E40FF11D47FDFA956E9F0F
:10192000D0016F9FB00D11244C855D854A0F5B1F60
:10193000E885F985E417F5076CF41D861C86FC0123
:101940003696E4918E859F856E9F800D911D1124A2
:101950009F878E87EA88FB88088919894E855F856D
:101960006C857D85CC88CE010E94AC10BECF81E015
:1019700090E0DF91CF911F910F91FF90EF90CF906A
:10198000BF90AF900895EF92FF920F931F93CF9364
:10199000DF936115710511F480E01CC041155105FC
:1019A000C1F07B01EC018C819D818A01080F191F18
:1019B000B801CE010E94370B882371F32881398149
:1019C0008C819D81B701820F931F0E94EA231D83A2
:1019D0000C8381E0DF91CF911F910F91FF90EF90E9
:1019E0000895CF93DF93EC0188819981009711F0DE
:1019F0000E947D22198218821D821C821B821A82FB
:101A0000DF91CF910895CF93DF93EC01FB014481E7
:101A10005581608171810E94C30C811103C0CE0188
:101A20000E94F10CCE01DF91CF910895EF92FF92C9
:101A30000F931F93CF93DF93EC017B018A01BA01CF
:101A40000E94370B811104C0CE010E94F10C07C027
:101A50001D830C83B701888199810E94EA23CE01FE
:101A6000DF91CF911F910F91FF90EF900895CF9349
:101A7000DF93EC016115710559F0FB010190002025
:101A8000E9F73197AF01461B570B0E94160D02C0B4
:101A90000E94F10CCE01DF91CF910895CF93DF9397
:101AA000EC01FB018617970761F060817181611578
:101AB000710529F0448155810E94160D02C00E94D3
:101AC000F10CCE01DF91CF910895FC0180819181CD
:101AD0000C947D22CF93DF9300D0CDB7DEB7FC010D
:101AE00011821082138212821582148269831A82F3
:101AF000BE016F5F7F4F0E94370D0F900F90DF91F7
:101B0000CF910895FC0111821082138212821582F6
:101B100014820C944E0DFC011182108213821282E9
:101B2000158214826115710551F0FB0101900020AE
:101B3000E9F73197AF01461B570B0C94160D08952A
:101B4000DC01ED91FC910280F381E02D42E050E058
:101B50006DE671E009940F931F93CF93DF93EC012F
:101B6000FB014481558160817181E881F9810280A6
:101B7000F381E02D09958C01CE010E94A00D800F0C
:101B8000911FDF91CF911F910F9108951F920F9296
:101B90000FB60F9211242F933F934F935F936F9340
:101BA0007F938F939F93AF93BF93EF93FF9389E3BB
:101BB00093E00E94E805FF91EF91BF91AF919F9153
:101BC0008F917F916F915F914F913F912F910F90E6
:101BD0000FBE0F901F9018951F920F920FB60F9285
:101BE00011242F938F939F93EF93FF93E0914903D9
:101BF000F0914A038081E0914F03F091500382FD00
:101C000012C09081809152038F5F8F732091530394
:101C1000821751F0E0915203F0E0E75CFC4F958FA2
:101C20008093520301C08081FF91EF919F918F912A
:101C30002F910F900FBE0F901F9018951F920F922B
:101C40000FB60F9211242F933F934F935F936F938F
:101C50007F938F939F93AF93BF93EF93FF93E09105
:101C60005A04F0915B04309709F451C0968DA68513
:101C7000B785858591FF04C09C91892329F447C0CD
:101C80009C91892309F043C0A389B4899C918589DB
:101C9000809589238C93868997890197F1F7608DC8
:101CA000718DA685B785558538E020E0CB01019779
:101CB000F1F7822F90E095958795282F4C91452339
:101CC00009F02068315091F7868D81FD2095809133
:101CD000590490E001968F73992730915804381772
:101CE00049F0A0915904B0E0AD55BD4F2C938093BD
:101CF000590403C0868D8160868F828D938D0197F4
:101D0000F1F7A389B4899C918589892B8C93FF91E4
:101D1000EF91BF91AF919F918F917F916F915F9163
:101D20004F913F912F910F900FBE0F901F901895DC
:101D300008958EBD00000DB407FEFDCF8EB5089549
:101D40001F93CF93DF93FC01848D958D009729F12C
:101D5000162FEF0120A131E03093150320933703B4
:101D60001092160310923803DC01ED91FC91019062
:101D7000F081E02D60E009958C8D9D8DDC01ED9169
:101D8000FC910190F081E02D612F09958C8D9D8D46
:101D9000DF91CF911F910C940817A4A5B5A59C9134
:101DA00082A9809589238C93828D938D892B31F024
:101DB000862FDF91CF911F910C94990E28E030E08F
:101DC00080E8A0A5B1A590A9462F482319F04C9111
:101DD000942B03C04C91909594239C93A2A5B3A5FA
:101DE0004C9191A9942B9C93A2A5B3A54C9191A938
:101DF000909594239C9386952150310911F7DF919A
:101E0000CF911F9108958CBD9DBD08951F93CF93D1
:101E1000DF93EC01162F8C8D9D8D892BB1F02EA9AF
:101E20003FA948AD59AD60E072E18AE790E00E94B9
:101E30008621DA01C9014097A109B109B695A79594
:101E4000979587958093B8000FC08A8D9B8D892BBD
:101E500021F08CA99DA90E94030FEEA5FFA59081FA
:101E60008BA9809589238083111102C066EA01C085
:101E700067EACE010E94A00E8C8D9D8D892BB1F05A
:101E80002AAD3BAD4CAD5DAD60E072E18AE790E01C
:101E90000E948621DA01C9014097A109B109B695CE
:101EA000A795979587958093B80006C0EEA5FFA5E6
:101EB00090818BA9892B8083DF91CF911F91089509
:101EC0001F920F920FB60F9211242F933F934F93AF
:101ED0005F936F937F938F939F93AF93BF93EF9392
:101EE000FF938091B900887F803609F49CC068F523
:101EF000883209F45BC090F4803109F454C038F49E
:101F0000882309F4F6C0883009F44DC0F6C0883142
:101F100009F44CC0803209F45DC0EFC0803409F48C
:101F200068C048F4803309F455C0883309F0E5C02F
:101F300080931203D8C0803509F44FC0883509F466
:101F40005DC0883409F0D9C0D6C0883909F4C7C04B
:101F5000A8F4883709F467C038F4883609F463C0F8
:101F6000803709F460C0C9C0883809F4B8C0803926
:101F700009F45FC0803809F0C0C05BC0803B09F441
:101F800086C038F4803A09F466C0883A09F47FC004
:101F9000B4C0803C09F4A7C0883C09F4A4C0883BC5
:101FA00009F48AC0AAC08091EF0210C09091110379
:101FB00080911003981770F5E091110381E08E0F66
:101FC00080931103F0E0E051FD4F80818093BB00CE
:101FD00085EC86C0809312038EC0E091110381E0EE
:101FE0008E0F809311038091BB00F0E0E051FD4F14
:101FF000808390911103809110036EC0E0911103D2
:1020000081E08E0F809311038091BB00F0E0E051DE
:10201000FD4F80838091130381116DC081E0809317
:10202000EE0284EA61C083E0809314031092A2025E
:10203000CFCF8091A202803208F051C0E091A2027D
:1020400081E08E0F8093A2028091BB00F0E0EE57FA
:10205000FD4F8083BDCF85EC8093BC0010921403AC
:102060008091A202803230F4E091A202F0E0EE57BB
:10207000FD4F10826091A20270E0E091E302F091C6
:10208000E40282E892E009951092A20236C084E050
:10209000809314031092810210928002E091E50275
:1020A000F091E602099580918002811105C081E0DE
:1020B0008093800210926002E091810281E08E0F95
:1020C00080938102F0E0E05AFD4F80818093BB0055
:1020D0009091810280918002981708F479CF85E869
:1020E0008093BC000AC085EC8093BC00109214035E
:1020F00004C0109212030E94790AFF91EF91BF91E0
:10210000AF919F918F917F916F915F914F913F918F
:102110002F910F900FBE0F901F901895CF93DF93C4
:10212000009779F0FC0101900020E9F73197AF01A9
:10213000481B590BBC0186ED93E00E947705EC012A
:1021400002C0C0E0D0E086ED93E00E94A00D8C0FAD
:102150009D1FDF91CF9108952F923F924F925F92F2
:102160006F927F928F929F92AF92BF92CF92DF92A7
:10217000EF92FF920F931F93CF93DF93CDB7DEB70C
:102180006B970FB6F894DEBF0FBECDBF9B8F8A8FC3
:102190005B011A01D22E1F830E833701C982DC0135
:1021A00058962D913C9159972115310509F0E6C0BB
:1021B00018968D919C911997681779070CF0CDC1ED
:1021C0001A968D919C911B97481759070CF0C5C121
:1021D0008C2C912CFB0126E0C29EE00DF11D1124F8
:1021E000FB87EA871E161F060CF0B7C1A40183E027
:1021F000440F551F8A95E1F75D874C87CA01820D10
:10220000931D181619060CF0A8C157968C918111D0
:1022100004C05FEA5D1508F4D394AA8DBB8DED91DF
:10222000FC9111970284F385E02DCD010995B5E06D
:10223000DB9EC0011124F5013596FF87EE87BB8236
:10224000AA8225019C012A193B09398B288BA101FF
:10225000485F5F4F5B8B4A8BE889F989E40DF51D78
:10226000E457FF4F5491588761013D822C82888545
:1022700080FF13C0AA8DBB8DED91FC91B981B13067
:1022800031F40484F585E02D2E813F8116C006844B
:10229000F785E02DEE80FF801AC0EE81FF81E61504
:1022A000F705F1F0AA8DBB8DED91FC91B981B130AC
:1022B00051F40484F585E02D9301A601B2018A8DC5
:1022C0009B8D09950DC00684F785E02D730184016F
:1022D00094014C815D816A817B818A8D9B8D0995FA
:1022E000E885E695E887FFEFCF1ADF0A2C813D816C
:1022F000280D391D3D832C834A895B89C416D50678
:1023000009F0B5CF5FEF451A550A8A819B81880D88
:10231000991D9B838A83AE85BF854A165B0609F0AB
:102320009BCFEE81FF81E615F70509F4F4C0EA8D35
:10233000FB8DA081B181F981F13079F4B5016B5F3A
:102340007F4F5096ED91FC915197830128E030E04A
:10235000A1018A8D9B8D0995DEC06A857B856819F0
:1023600079091E96ED91FC911F9773010C851D85CF
:102370009401A1018A8D9B8D0995CDC0F9013496F8
:10238000E491DE1AF901329685919491B7E0DB9ED3
:10239000800D911D1124F901259134913B8B2A8BDD
:1023A000FC01259134912901FC013296C4903196AB
:1023B00034913E87329614913196D49049814230BF
:1023C00058F0612E012E000C77088D2D0D2C000C7D
:1023D000990B9987888704C019861886612C712CFF
:1023E000AA8DBB8DED91FC9111970284F385E02DB0
:1023F000CD010995B9818B2E912C689CC001699CF7
:10240000900D789C900D1124FC01EA0DFB1DFD87B9
:10241000EC871A82712C612CE12F110FFF0B9501B3
:102420002E0F3F1F3B872A87AC0CB11CA5014E0F16
:102430005F1F5F8B4E8BC1018D0D911DD7FC9A954F
:10244000998F888F9E85691608F065C0862D90E06B
:1024500048855985480F591F489D9001499D300D69
:10246000589D300D1124D101A20FB31FB98BA88B39
:10247000EC85FD85FD83EC83AA84BB84DA80FA8534
:10248000DF1A288D398D280F391F3D8B2C8B8D2D10
:102490008A0D4E895F89A416B506C1F1877041F493
:1024A000C2010196EA89FB89E40DF51D74902C01A7
:1024B00077FE21C0AA8DBB8DED91FC91B981B13021
:1024C00061F40484F585E02D2E813F814C895D897E
:1024D000B5018A8D9B8D09950EC00684F785E02D88
:1024E000EE80FF8084019401488959896C817D8147
:1024F0008A8D9B8D0995770CEFEFAE1ABE0A2C8161
:102500003D81280D391D3D832C83C1CF3A813C0D7F
:102510003A83639497CFAA8DBB8DED91FC9111976F
:102520000688F789E02DCD016B960FB6F894DEBFD3
:102530000FBECDBFDF91CF911F910F91FF90EF9014
:10254000DF90CF90BF90AF909F908F907F906F90D3
:102550005F904F903F902F9009946B960FB6F89430
:10256000DEBF0FBECDBFDF91CF911F910F91FF90C6
:10257000EF90DF90CF90BF90AF909F908F907F9023
:102580006F905F904F903F902F9008950F931F93FF
:10259000CF93DF9377FF04C0260F371F60E070E012
:1025A000DC011496CD91DC911597FB01E20FF31F2E
:1025B000CE17DF071CF49E01261B370B12161306DD
:1025C0000CF046C0FA0157FD3796DF01E3E0B59500
:1025D000A795EA95E1F7AC9FF001AD9FF00DBC9F88
:1025E000F00D11246E0F7F1FDC015E96ED91FC91C2
:1025F0005F97E60FF71F4770552781E090E001C015
:10260000880F4A95EAF7482F0130110539F078F024
:1026100002301105E9F42E0F3F1F13C02E0F3F1F8C
:10262000E217F307A9F08081842B8193F9CF80957D
:102630002E0F3F1FE217F30759F0908198239193D3
:10264000F9CFE217F30721F0808184278193F9CF36
:10265000DF91CF911F910F910895EF92FF920F9309
:102660001F93CF93DF93EC0177FDA5C0EC80FD8035
:102670006E157F050CF09FC057FF04C0240F351F57
:1026800040E050E08E819F81FA01E20FF31F8E1728
:102690009F071CF49C01241B350B121613060CF02B
:1026A0008AC0922F842F8695869586958E9DD0011F
:1026B0008F9DB00D11246A0F7B1FAE8DBF8DA60FAD
:1026C000B71F4770B1F188E0841B482F682F70E076
:1026D000FB01EC57FF4FE491281798F4621B710936
:1026E0002FEF30E002C0359527956A95E2F7E22397
:1026F0000130110549F078F00230110509F05BC096
:102700000EC00130110519F48C91E82B0AC001307C
:10271000110508F049C0E0958C91E82302C08C9126
:10272000E827EC93941708F446C02C813D81A20F52
:10273000B31FE92FE41BE830F8F00230110561F413
:102740008E2F9C9190959C932C813D81A20FB31F5D
:1027500088508830B0F70FC081E00115110509F4E9
:1027600080E081959E2F8C932C813D81A20FB31F19
:1027700098509830C0F7E770EE23E9F0F0E0E458A5
:10278000FF4FE4910130110539F048F00230110596
:1027900091F48C91E82706C08C91E82B03C0E0955A
:1027A0008C91E823EC9307C00230110509F4B7CFF0
:1027B000AE0DBF1DBECFDF91CF911F910F91FF9046
:1027C000EF90089590E0FC01E859FF4F2491FC013F
:1027D000E158F54F3491FC01E559F54FE491EE23B2
:1027E00009F43CC0222339F1233091F038F4213030
:1027F000A9F0223001F584B58F7D12C0273091F009
:102800002830A1F02430B9F4809180008F7D03C07E
:10281000809180008F77809380000DC084B58F7782
:1028200084BD09C08091B0008F7703C08091B00053
:102830008F7D8093B000F0E0EE0FFF1FEF59F54F52
:10284000A591B4919FB7F894611104C08C91309513
:10285000382302C0EC913E2B3C939FBF0895CF9349
:10286000DF9390E0FC01E158F54F2491FC01E5591C
:10287000F54F8491882361F190E0880F991FFC0146
:10288000E457FA4FC591D491FC01EF59F54FA5914A
:10289000B491611109C09FB7F89488812095822373
:1028A0008883EC912E230BC0623061F49FB7F894BB
:1028B0008881322F309583238883EC912E2B2C93A3
:1028C0009FBF06C08FB7F894E8812E2B28838FBF57
:1028D000DF91CF9108958F929F92AF92BF92CF9246
:1028E000DF92EF92FF926B017C010E94A61A4B01CE
:1028F0005C01C114D104E104F104F1F00E94A61AB4
:10290000DC01CB0188199909AA09BB09883E9340CB
:10291000A105B10570F321E0C21AD108E108F10860
:1029200088EE880E83E0981EA11CB11CC114D1044E
:10293000E104F10419F7DDCFFF90EF90DF90CF9025
:10294000BF90AF909F908F9008950F931F93CF9358
:1029500080912B0490912C04892B19F5209113045C
:1029600030911404C901079697FD079603E09595E9
:1029700087950A95E1F72091110430911204AC017A
:10298000429FC001439F900D529F900D11240E94C1
:10299000E52190932C0480932B04892B11F480E083
:1029A00033C20E94191820911304309114048091AD
:1029B00011049091120421323105A4F0B901605440
:1029C000710977FF02C06F5F7F4F759567958255DC
:1029D000910997FD019600E410E022E530E042E91C
:1029E00057E013C0B9016052710977FF02C06F5FF1
:1029F0007F4F759567958357910997FD019600E282
:102A000010E023E730E042EB55E0959587950E9472
:102A10008F1882E080932E048091290490912A04DB
:102A2000892BB9F18CE380932D041092E802109267
:102A3000E70210921603109238031092140381E0FB
:102A4000809313031092EE0261E082E10E94E21390
:102A500061E083E10E94E2138091B9008E7F809350
:102A6000B9008091B9008D7F8093B90080E2809396
:102A7000B80085E48093BC008BEA9AE09093E6026C
:102A80008093E5028CEA9AE09093E4028093E3025B
:102A9000BEC061E0809132040E942F1461E08091F9
:102AA00033040E942F1480913204082E000C990BDD
:102AB000FC01E559F54FE491F0E0EE0FFF1FEF59EF
:102AC000F54F2591349130933A0420933904FC0159
:102AD000E158F54FE491E0933F0480913304082ED0
:102AE000000C990BFC01E559F54FE491F0E0EE0F75
:102AF000FF1FEF59F54FA591B491B0933C04A093FB
:102B00003B04FC01E158F54FE491E09340048C91C3
:102B1000E82BEC938091270490912804892B09F4E9
:102B200034C0CFB7F8948091E902811127C0E5E75E
:102B3000FAE08491E9E8FAE09491E82FF0E0EE0FF2
:102B4000FF1FE457FA4FA591B491EC91E92321F4CA
:102B500061E08AE00E94E21361E08AE00E942F14A3
:102B60008CB580618CBD8CB580648CBD61E08DE0DE
:102B70000E942F1461E08BE00E942F148091E902E3
:102B80008F5F8093E902CFBF42C061E08091300443
:102B90000E942F1461E0809131040E942F148091D3
:102BA0003004082E000C990BFC01E559F54FE49117
:102BB000F0E0EE0FFF1FEF59F54F25913491309360
:102BC000360420933504FC01E158F54FE491E0937D
:102BD0003D0480913104082E000C990BFC01E5594D
:102BE000F54FE491F0E0EE0FFF1FEF59F54FA5917F
:102BF000B491B0933804A0933704FC01E158F54F29
:102C0000E491E0933E048C91E095E823EC9380916D
:102C1000340487FD1EC061E00E942F1461E08091A2
:102C200034040E94E21361E070E080E090E00E94D2
:102C30006B1460E0809134040E94E2136AE070E05B
:102C400080E090E00E946B1461E0809134040E9467
:102C5000E2138091290490912A04892BD1F02091CC
:102C6000430430914404409145045091460460E08F
:102C700072E18AE790E00E948621DA01C90140975B
:102C8000A109B109B695A795979587958093B80046
:102C900016C08091270490912804892B31F08091EF
:102CA0004104909142040E94030FE0913B04F09193
:102CB0003C0490818091400480958923808364E066
:102CC0008EEA95E00E9464176091130461508DE0D4
:102CD00094E00E94A00E64E08AEA95E00E946417E6
:102CE00080912E04813011F064E101C060E18DE03B
:102CF00094E00E94A00E64E086EA95E00E946417CA
:102D0000809111049091120480389105E9F480912A
:102D10001304909114048032910531F464E082EA46
:102D200095E00E94641729C08034910531F563E075
:102D30008FE995E00E94641780912E04813011F094
:102D40006FEC17C06FE915C080369105B1F4809122
:102D5000130490911404409781F463E08CE995E0AA
:102D60000E94641780912E04813011F06FEA01C037
:102D700060E18DE094E00E94A00E69ED8DE094E0AA
:102D80000E94A00E80912E04813011F061EF01C0ED
:102D900062E28DE094E00E94A00E66E086E995E094
:102DA0000E9464178091290490912A04892BD1F004
:102DB00020914704309148044091490450914A04BD
:102DC00060E072E18AE790E00E948621DA01C901A1
:102DD0004097A109B109B695A795979587958093D6
:102DE000B80011C0E0913B04F0913C0490818091C7
:102DF0004004892B80838091270490912804892B9B
:102E000011F00E94980E81E0CF911F910F910895CB
:102E100030913803313208F04BC080911403811196
:102E2000FCCF9091370322E02093140321E02093FC
:102E300013032FEF2093120310921103309310030A
:102E4000E7E1F3E0A0EFB2E020E0321721F041919A
:102E50004D932F5FFACF1092EF022091EF02990F5E
:102E6000922B9093EF029091EE02913061F41092C8
:102E7000EE029091EF029093BB009091BC0093FD05
:102E8000F8CF95EC01C095EE9093BC00909114039F
:102E90009230E1F3909112039F3F79F080911203F9
:102EA000803241F080911203803331F084E005C01C
:102EB00081E003C082E001C083E01092160310920B
:102EC0003803109215030895DF92EF92FF920F934B
:102ED0001F93CF93DF93D82ED92FC62F809129042B
:102EE00090912A04009709F454C020912D0431E0F8
:102EF0003093150320933703109216031092380372
:102F0000DC01ED91FC910190F081E02D60E00995EC
:102F1000ED2CFD2E11E0D1E08091290490912A043E
:102F2000CC2371F11032C8F00E94081780912D0453
:102F3000D093150380933703109216031092380331
:102F40008091290490912A04DC01ED91FC9101907B
:102F5000F081E02D60E0099511E0809129049091C5
:102F60002A04F7016491DC01ED91FC910190F0815C
:102F7000E02D09951F5FC150BFEFEB1AFB0ACCCFC4
:102F8000DF91CF911F910F91FF90EF90DF900C9404
:102F90000817E0913904F0913A04908180913F0440
:102FA0008095892380830D2D1D2FCC2309F439C0F2
:102FB000F80184912091270430912804232B31F0CB
:102FC0000E94990EC1500F5F1F4FEFCF28E030E0F5
:102FD00040E8E0913504F091360490913D04582F7B
:102FE000542319F05081952B03C05081909595235F
:102FF0009083E0913704F0913804508190913E0421
:10300000952B9083E0913704F09138045081909192
:103010003E04909595239083469521503109C9F639
:10302000D1CFDF91CF911F910F91FF90EF90DF9063
:1030300008952091130430911404C901079697FD57
:10304000079623E0959587952A95E1F7209111043D
:1030500030911204829FA001839F500D929F500DCA
:10306000112460E070E080912B0490912C040C946A
:10307000DA232FB7F8948091EA029091EB02A091A5
:10308000EC02B091ED022FBF809341039093420375
:10309000A0934303B093440389E393E00E94B005F7
:1030A00097FF26C02FB7F8948091EA029091EB0227
:1030B000A091EC02B091ED022FBF409141035091DD
:1030C00042036091430370914403841B950BA60B4C
:1030D000B70B40913D0350913E0360913F037091C7
:1030E000400384179507A607B707B0F28FEF9FEF4D
:1030F000089520910B0430910C048217930738F443
:1031000020910704309108042115310529F410920B
:103110004B048BE494E00895820F931F08953F922F
:103120004F925F926F927F928F929F92AF92BF92D7
:10313000CF92DF92EF92FF920F931F93CF93DF9383
:1031400000D000D000D0CDB7DEB72C013B014A0142
:103150005901C901079697FD07969C0193E03595A3
:1031600027959A95E1F73C832B83C12CD12CE12C38
:10317000F12C312CC3018E0D9F1D9A838983E0169B
:10318000F106C4F51E821D822D813E812A153B0564
:103190004CF5C90187709927892B11F0330C0EC0AB
:1031A000ED81FE81F7FD379683E0F595E7958A95E9
:1031B000E1F7EC0DFD1DE80DF91D349037FE0CC054
:1031C00021E030E049815A816D817E81640D751D59
:1031D0008DE094E00E94C0098D819E8101969E83BE
:1031E0008D83D2CF9FEFE91AF90A2B813C81C20E61
:1031F000D31EC0CF26960FB6F894DEBF0FBECDBF4C
:10320000DF91CF911F910F91FF90EF90DF90CF90C2
:10321000BF90AF909F908F907F906F905F904F90F6
:103220003F900895CF92DF92EF92FF920F931F93FA
:10323000CF93DF9300D000D000D0CDB7DEB76C01C4
:103240008B010E94191810921A04109219041092FE
:103250001C0410921B0460E871E0CE0101960E94EC
:103260008B0DB801CE0101960E94030D8C0141E047
:1032700050E062E971E00E94C30C882309F451C157
:10328000B8018DE094E00E94AB0DCE0101960E9442
:10329000650DEE24E394F12C07E010E028E730E020
:1032A00047E050E060E070E08DE094E00E94570855
:1032B00010921A041092190488E090E090931C0474
:1032C00080931B04B6018DE094E00E94AB0D8091C9
:1032D000290490912A04892BD1F020914304309144
:1032E0004404409145045091460460E072E18AE74D
:1032F00090E00E948621DA01C9014097A109B10935
:10330000B695A795979587958093B80016C080913C
:10331000270490912804892B31F0809141049091E9
:1033200042040E94030FE0913B04F0913C04908121
:103330008091400480958923808365E082E59AE04E
:103340000E9464176091110461508DE094E00E9426
:10335000A00E2091130430911404C901079697FD23
:10336000079633E0959587953A95E1F720911104FA
:1033700030911204829F7001839FF00C929FF00C99
:10338000112400912B0410912C0480912904909118
:103390002A04E00EF11E009709F44EC020912D047E
:1033A00031E03093150320933703109216031092E7
:1033B0003803DC01ED91FC910190F081E02D60E497
:1033C0000995DD24D394CC24C39480912904909151
:1033D0002A04E016F10669F1BFE1BD15D0F40E94A0
:1033E000081780912D04C092150380933703109223
:1033F0001603109238038091290490912A04DC016D
:10340000ED91FC910190F081E02D60E40995DD24BF
:10341000D3948091290490912A04F80161918F013D
:10342000DC01ED91FC910190F081E02D0995D394A0
:10343000CCCF0E94081743C0E0913904F0913A04C0
:10344000908180913F04892B8083E016F106B9F1C9
:10345000F80181918F012091270430912804232BBA
:1034600019F00E94990EF1CF28E030E040E8E09199
:103470003504F091360490913D04582F542319F0EF
:103480005081952B03C05081909595239083E091B6
:103490003704F0913804508190913E04952B90832D
:1034A000E0913704F0913804508190913E0490955A
:1034B00095239083469521503109C9F6C6CF809156
:1034C000290490912A04892BD1F02091470430914E
:1034D00048044091490450914A0460E072E18AE74F
:1034E00090E00E948621DA01C9014097A109B10943
:1034F000B695A795979587958093B80016C0E091EB
:103500003B04F0913C04908180914004892B80839E
:103510008091270490912804892B39F00E94980EFD
:1035200004C0C8010E94F10CABCE26960FB6F894E9
:10353000DEBF0FBECDBFDF91CF911F910F91FF90E6
:10354000EF90DF90CF9008950E94CC233FB7F8947E
:1035500080915E0490915F04A0916004B091610439
:1035600026B5A89B05C02F3F19F00196A11DB11DDE
:103570003FBFBA2FA92F982F8827820F911DA11D19
:10358000B11DBC01CD0143E0660F771F881F991F55
:103590004A95D1F708951F920F920FB60F921124FA
:1035A0002F933F938F939F93AF93BF938091EA02A2
:1035B0009091EB02A091EC02B091ED0230915D048C
:1035C00026E0230F2D3720F40296A11DB11D05C062
:1035D00029E8230F0396A11DB11D20935D0480935C
:1035E000EA029093EB02A093EC02B093ED0280917B
:1035F0005E0490915F04A0916004B0916104019613
:10360000A11DB11D80935E0490935F04A09360049C
:10361000B0936104BF91AF919F918F913F912F9192
:103620000F900FBE0F901F90189583E391E0909339
:10363000D7038093D60380915A0490915B04865DF2
:10364000934071F4E091E903F091EA039081809155
:10365000EB0380958923808310925B0410925A04B7
:1036600085EF93E00E94650D8BEF93E00E94650D5E
:1036700081E094E00E94650D87E094E00E94650D72
:1036800085E491E090930E0480930D0480912B04C7
:1036900090912C04009711F00C947D220895CF9204
:1036A000DF92EF92FF92CF9310923C0310923B0374
:1036B00098EEC92E93E0D92EE12CF12CC0923D0357
:1036C000D0923E03E0923F03F09240038FE091E0FE
:1036D00090933A038093390385EC90E090934603EE
:1036E0008093450384EC90E09093480380934703D4
:1036F00080EC90E090934A038093490381EC90E042
:1037000090934C0380934B0382EC90E090934E0394
:1037100080934D0386EC90E09093500380934F0389
:1037200010925203109253031092540310925503B7
:1037300010924F0410924E04C0925004D092510443
:10374000E0925204F092530481E291E090934D0490
:1037500080934C041092100410920F0420E830E083
:10376000309312042093110480E290E090931404AB
:103770008093130430931604209315049093180437
:10378000809317041092220410921A0410921904C4
:1037900010921C0410921B04C1E0C09321048FEF0F
:1037A0009FEF9093200480931F0490931E048093B6
:1037B0001D04C09323041092240410922604109236
:1037C000250485E491E090930E0480930D041092FB
:1037D0002804109227048CE494E090932A048093A8
:1037E000290410922C0410922B048FEF8093300444
:1037F00080933104809332048093330480933404A3
:1038000080E580934104C093420460E771E087E063
:1038100094E00E948B0D6FE671E081E094E00E94DD
:103820008B0D6FE671E08BEF93E00E948B0D6FE6DE
:1038300071E085EF93E00E948B0D1092D9031092F6
:10384000D803C092DA03D092DB03E092DC03F0925B
:10385000DD0383E391E09093D7038093D603109226
:10386000ED031092EC031092EF031092EE0310920E
:10387000F1031092F0031092F3031092F20380917F
:10388000F4038E7F8D7F8093F40386958170682F7B
:103890006C2786E00E94E21361E086E00E942F140C
:1038A000E5E8FAE0E491E093E603E1E7FAE0E49189
:1038B000F0E0EE0FFF1FEF59F54F85919491909333
:1038C000E8038093E70360E087E00E942F14809173
:1038D000F40381FD04C061E087E00E94E21387E009
:1038E0008093E203E6E8FAE0E491E093E303E2E7A1
:1038F000FAE0E491F0E0EE0FFF1FE95AF54F8591F1
:1039000094919093E5038093E403CF91FF90EF901F
:10391000DF90CF900895CF93DF93CDB7DEB7E097D8
:103920000FB6F894DEBF0FBECDBF789484B5826029
:1039300084BD84B5816084BD85B5826085BD85B553
:10394000816085BD80916E00816080936E001092D1
:10395000810080918100826080938100809181004C
:1039600081608093810080918000816080938000DD
:103970008091B10084608093B1008091B00081603B
:103980008093B00080917A00846080937A00809167
:103990007A00826080937A0080917A008E7F809393
:1039A0007A0080917A00806880937A001092C1003A
:1039B0000E94A5146FE671E081E094E00E94370D4B
:1039C0000E94191881E08093210421E030E03093B7
:1039D000200420931F0430931E0420931D04809321
:1039E00024041092F1031092F0031092EF0310924E
:1039F000EE031092ED031092EC038DEC90E09093A7
:103A0000F3038093F2039091E203963108F058C0DB
:103A100025E530E03093ED032093EC032BEC30E010
:103A20003093EF032093EE0320E930E03093F1036D
:103A30002093F00340916800983058F031E09E30B8
:103A400008F430E021E0822F01C0880F3A95EAF7B0
:103A500001C084E0842B80936800983038F09E3059
:103A600040F0963148F42CE630E008C02DE630E016
:103A700005C02BE630E002C020E030E03093EA03DE
:103A80002093E903983030F481E001C0880F9A95C3
:103A9000EAF70EC0292F30E09E3018F42850310983
:103AA00002C02E50310981E001C0880F2A95EAF743
:103AB0008093EB038091F2039091F3030197F1F768
:103AC0008091F0039091F103892B49F1E0915A0420
:103AD000F0915B0483E0E63DF80709F1309739F097
:103AE000A389B4899C918589809589238C93809141
:103AF000F4038E7F8093F4031092590410925804BB
:103B000086ED93E090935B0480935A04E091E9037F
:103B1000F091EA0390818091EB03892B808368EE1A
:103B200073E080E090E00E946B140E9485201C8A64
:103B30001B8A1E8A1D8A188E1F8A28EE33E040E0F9
:103B400050E00E941D21DC01CB014AE0BE016F5F05
:103B50007F4F0E94DC20BE016F5F7F4FCE014396F6
:103B60000E94370D64E971E0CE0101960E948B0D31
:103B7000BE016D5E7F4FCE0101960E94030DBC0118
:103B800085EF93E00E944E0DCE0101960E94650DD7
:103B9000CE0143960E94650D8AE991E00E948E1045
:103BA00083EA91E00E948E108CEA91E00E948E10D0
:103BB0008AEB91E00E948E1068EC71E0CE010196D4
:103BC0000E948B0D65EF73E0CE0101960E94030DFC
:103BD000BC0186ED93E00E94AB0DCE0101960E94E0
:103BE000650D80ED91E00E948E10E0914903F09107
:103BF0004A0382E08083E0914503F09146031082FE
:103C0000E0914703F091480387E6808310925103C7
:103C1000E0914D03F0914E0386E08083E0914B03E9
:103C2000F0914C03808180618083E0914B03F0919F
:103C30004C03808188608083E0914B03F0914C03BA
:103C4000808180688083E0914B03F0914C038081F8
:103C50008F7D80836FE671E081E094E00E94370DF4
:103C60000E94A5140E94191881E08093210421E08C
:103C700030E03093200420931F0430931E042093DF
:103C80001D048093240489E090E00E947918FC01CF
:103C90006081CE0101960E946A0D85E090E00E944D
:103CA0007918FC016081CE0143960E946A0D82E082
:103CB00090E00E947918FC016081CE0149960E9433
:103CC0006A0D80E090E00E947918FC016081CE01CD
:103CD00085960E946A0DBE016B5D7F4FCE014F96A7
:103CE0000E94820DBE01675E7F4FCE014F960E94FB
:103CF000030DBE016D5E7F4F0E94030DBE016F5F1D
:103D00007F4F0E94030DBC01CE018B960E94820D55
:103D1000CE014F960E94650DCE0185960E94650DDD
:103D2000CE0149960E94650DCE0143960E94650D15
:103D3000CE0101960E94650D69ED71E0CE010196FC
:103D40000E948B0D6DED71E0CE0143960E948B0DAC
:103D5000BE016F5F7F4FCE0143960E941219CE01C4
:103D600043960E94650DCE0101960E94650DBB240D
:103D7000B39480915C0481116DC120910504309150
:103D800006048091F9039091FA032817390749F541
:103D900080910104909102046091F5037091F60303
:103DA000009719F061157105B9F46115710551F0AD
:103DB000232B09F421C1FB01808190E0919581952D
:103DC00091090CC0009709F417C1232B09F414C101
:103DD000FC01808190E002C00E94E123892B09F45C
:103DE0000BC180910001811121C061E072E0CE0120
:103DF00001960E948B0D65E072E0CE0143960E9411
:103E00008B0DBE016F5F7F4FCE0143960E9412194A
:103E1000CE0143960E94650DCE0101960E94650D6C
:103E20006FE671E081E094E00E94370D89E393E052
:103E30000E94D205181619060CF09BCF6FE671E0B0
:103E4000CE0101960E948B0D0E94391897FD0CC07F
:103E50008B8B1C8A41E050E0BE016D5E7F4FCE012E
:103E600001960E94C30CF0CF8091FB039091FC035C
:103E7000009789F069817A816115710551F040914F
:103E8000FD035091FE032D813E814217530708F038
:103E9000E8C00E947D2289819A819093FC038093DF
:103EA000FB038B819C819093FE038093FD038D81A6
:103EB0009E81909300048093FF031A8219821C82D2
:103EC0001B821E821D82CE0101960E94650D61E05B
:103ED00074E0CE0101960E94820D6BEF73E0CE017B
:103EE00001960E94030DBC0181E094E00E944E0DFA
:103EF000CE0101960E94650DC0900104D09002048D
:103F0000C114D10409F445C00091050410910604C0
:103F100001151105F1F176014701FFEF8F1A9F0A94
:103F2000F7018081082E000C990B0E940121892B3A
:103F300011F07401F1CF015011090C0D1D1DF80194
:103F40008081082E000C990B0E940121892B31F0F1
:103F50000E151F0518F001501109F1CFA8014F5F90
:103F60005F4F4E195F095093060440930504CE1429
:103F7000DF0420F4B701C6010E94D123E0910104BF
:103F8000F09102048091050490910604E80FF91F56
:103F9000108261E072E0CE0101960E948B0D6EE10D
:103FA00072E0CE0149960E948B0D61E074E0CE0173
:103FB00049960E94030DBC01CE0143960E94820DDA
:103FC000BE016F5F7F4FCE0143960E941219CE0152
:103FD00043960E94650DCE0149960E94650DCE0163
:103FE00001960E94650D1092000160ED77E080E07F
:103FF00090E00E946B14BDCE66E272E0CE010196A5
:104000000E948B0D6AE272E0CE0149960E948B0DF0
:10401000BE01655D7F4FCE0149960E94030DBC0134
:10402000CE0143960E94820DBE016F5F7F4FCE018D
:1040300043960E941219CE0143960E94650DCE014F
:1040400049960E94650DCE0101960E94650DB092C1
:104050005C048FCECE018B960E94650D0E9479067E
:10406000FDCF0E94EA238D819E819093000480936E
:10407000FF0327CF8F929F92AF92BF92CF92DF9292
:10408000EF92FF92CF93DF93EC01688179818A816F
:104090009B81611571058105910521F464E279ED3B
:1040A0008BE597E02DE133EF41E050E00E941D21C8
:1040B00049015A019B01AC01A7EAB1E40E943C21ED
:1040C0006B017C01ACEEB4EFA50194010E944A2182
:1040D000DC01CB018C0D9D1DAE1DBF1DB7FF03C0C4
:1040E0000197A109B04888839983AA83BB83BC0147
:1040F000CD019F77DF91CF91FF90EF90DF90CF9030
:10410000BF90AF909F908F9008958F929F92AF92A3
:10411000BF92CF92DF92EF92FF9260910101709176
:1041200002018091030190910401611571058105DF
:10413000910521F464E279ED8BE597E02DE133EF11
:1041400041E050E00E941D2149015A019B01AC0150
:10415000A7EAB1E40E943C216B017C01ACEEB4EF14
:10416000A50194010E944A21DC01CB018C0D9D1D0B
:10417000AE1DBF1DB7FF03C00197A109B0488093D2
:10418000010190930201A0930301B0930401BC01CB
:10419000CD019F77FF90EF90DF90CF90BF90AF90D1
:1041A0009F908F9008956093010170930201809316
:1041B0000301909304010895BB274A3031F49923F9
:1041C00022F4BDE2909581959F4F0C94E820BB2787
:1041D000FB015527AA27880F991FAA1FA41710F0C3
:1041E000A41B83955051B9F7A05DAA3308F0A95DCF
:1041F000A193009779F7B111B1931192CB010C946F
:104200000A2191110C941A21803219F0895085509D
:10421000C8F70895DC01FC01672F71917723E1F75E
:10422000329704C07C916D9370836291AE17BF0783
:10423000C8F30895992788270895052E97FB1EF443
:1042400000940E94342157FD07D00E94862107FC6C
:1042500003D04EF40C94342150954095309521951F
:104260003F4F4F4F5F4F08959095809570956195A2
:104270007F4F8F4F9F4F08950E94A821A59F900DBB
:10428000B49F900DA49F800D911D11240895B7FF38
:104290000C943C210E943C21821B930B08952F9289
:1042A0003F924F925F926F927F928F929F92AF92C6
:1042B000BF92CF92DF92EF92FF920F931F93CF9313
:1042C000DF93CDB7DEB7CA1BDB0B0FB6F894DEBFAA
:1042D0000FBECDBF09942A88398848885F846E84D0
:1042E0007D848C849B84AA84B984C884DF80EE801A
:1042F000FD800C811B81AA81B981CE0FD11D0FB623
:10430000F894DEBF0FBECDBFED010895A1E21A2ED5
:10431000AA1BBB1BFD010DC0AA1FBB1FEE1FFF1F69
:10432000A217B307E407F50720F0A21BB30BE40BB9
:10433000F50B661F771F881F991F1A9469F7609500
:104340007095809590959B01AC01BD01CF010895BA
:10435000A29FB001B39FC001A39F700D811D1124C6
:10436000911DB29F700D811D1124911D089597FB21
:10437000072E16F4009407D077FD09D00E94CB21B8
:1043800007FC05D03EF4909581959F4F0895709558
:1043900061957F4F0895AA1BBB1B51E107C0AA1F5F
:1043A000BB1FA617B70710F0A61BB70B881F991FD6
:1043B0005A95A9F780959095BC01CD010895EE0F0F
:1043C000FF1F0590F491E02D09940F931F93CF9355
:1043D000DF938230910510F482E090E0E091640474
:1043E000F091650420E030E0A0E0B0E0309719F1F2
:1043F000408151810281138148175907C8F0841701
:10440000950769F4109731F012960C931297139652
:104410001C9327C0009364041093650422C02115E7
:10442000310519F04217530718F49A01BD01EF0145
:10443000DF01F801DBCF21153105F9F0281B390B1D
:104440002430310580F48A819B816115710521F04A
:10445000FB019383828304C090936504809364047A
:10446000FE01329644C0FE01E20FF31F8193919347
:1044700022503109398328833AC020916204309157
:104480006304232B41F420910701309108013093FC
:1044900063042093620420910501309106012115E7
:1044A000310541F42DB73EB74091090150910A0101
:1044B000241B350BE0916204F0916304E217F307CB
:1044C000A0F42E1B3F0B2817390778F0AC014E5F84
:1044D0005F4F2417350748F04E0F5F1F509363045A
:1044E000409362048193919302C0E0E0F0E0CF0139
:1044F000DF91CF911F910F910895CF93DF93009794
:1045000009F481C0FC01329713821282A0916404E5
:10451000B0916504109781F420813181820F931F3F
:1045200020916204309163042817390751F5F09304
:104530006304E093620467C0ED0120E030E0CE1731
:10454000DF0740F44A815B819E0141155105F1F07E
:10455000EA01F5CFD383C28340815181840F951F37
:10456000C817D90759F488819981840F951F02963D
:10457000918380838A819B81938382832115310576
:1045800029F4F0936504E09364043DC0E901FB83E2
:10459000EA8349915991C40FD51FEC17FD0761F4C7
:1045A00080819181840F951F0296E9019983888308
:1045B000828193819B838A83E0E0F0E012968D9163
:1045C0009C911397009719F0FD01DC01F7CF8D91B5
:1045D0009C9111979D012E5F3F4F820F931F209159
:1045E0006204309163042817390769F4309729F47D
:1045F000109265041092640402C013821282B09378
:104600006304A0936204DF91CF910895A0E0B0E02D
:10461000ECE0F3E20C945321EC01009721F4CB0180
:104620000E94E521B4C0FC01E60FF71F9C01225057
:104630003109E217F30708F4A8C0D9010D911C91C4
:10464000119706171707B0F00530110508F49BC045
:10465000C80104978617970708F495C002501109FE
:10466000061B170B019311936D937C93CF010E944E
:104670007D2289C05B01A01AB10A4C01800E911EF7
:10468000A0916404B0916504612C712CE12CF12C93
:10469000109709F446C08D919C911197A815B90502
:1046A000B1F56C0142E0C40ED11CCA14DB0478F1F0
:1046B0004C018A189B08640142E0C40ED11C12967A
:1046C000BC9012971396AC91B5E0CB16D10440F094
:1046D000B282A38391828082D9016D937C9309C0B9
:1046E0000E5F1F4F800F911FF90191838083EB2D87
:1046F000FA2FE114F10431F0D7011396FC93EE93F5
:10470000129741C0F0936504E09364043CC06816BE
:10471000790608F43C017D0112960D90BC91A02D04
:10472000B7CF809162049091630488169906E1F4F2
:1047300066167706C8F480910501909106010097EE
:1047400041F48DB79EB74091090150910A01841B35
:10475000950BE817F907C8F4F0936304E09362043B
:10476000F901718360830FC0CB010E94E5217C01B8
:10477000009759F0A801BE010E94D123CE010E94EA
:104780007D22C70104C0CE0102C080E090E0CDB719
:10479000DEB7EEE00C946F2181E090E0F8940C9489
:1047A000F123FB01DC0102C001900D924150504009
:1047B000D8F70895DC0101C06D9341505040E0F7F7
:1047C0000895FB01DC018D91019080190110D9F34E
:1047D000990B0895FB01DC0101900D920020E1F797
:1047E000089515E0CBE4D5E004C0FE010E94DF216E
:0C47F0002196CC34D107C9F7F894FFCF14
:1047FC000101000000000066048000000000000AB7
:10480C00067705A1055706D205B005C405000000C2
:10481C0000050BD80A340B9B06D00ABC0AAD0A0063
:10482C000000009C067705340B9B06EC06040783FE
:10483C000600000000ED0B7705340B760525079B71
:10484C0006C0099809B409A809C7099B06E307061D
:10485C000F5E0BA20BE108C4085708F8070D0A00FD
:10486C004435757A7A63727A346B663233666B00D0
:10487C0054312D4144564552544953494E472020FA
:10488C0020002500647669642D0041542B49424573
:10489C0041300041542B524F4C45300041542B5564
:1048AC005549443078464645300041542B434841E5
:1048BC00523078464645310041542B4E414D45000F
:1048CC0041542B5245534554002020300049206858
:1048DC0061766520636F6E666964656E7469616C80
:1048EC00206D6573736167652E2050617373203F73
:1048FC00002035300057726F6E67207061737377CC
:10490C006F72640A54727920616761696E0050613C
:10491C007373203A20003130300057656C6C206482
:10492C006F6E6521204D657373616765203A2000B9
:107800000C94343C0C94513C0C94513C0C94513CE1
:107810000C94513C0C94513C0C94513C0C94513CB4
:107820000C94513C0C94513C0C94513C0C94513CA4
:107830000C94513C0C94513C0C94513C0C94513C94
:107840000C94513C0C94513C0C94513C0C94513C84
:107850000C94513C0C94513C0C94513C0C94513C74
:107860000C94513C0C94513C11241FBECFEFD8E036
:10787000DEBFCDBF11E0A0E0B1E0EAE8FFE702C063
:1078800005900D92A230B107D9F712E0A2E0B1E065
:1078900001C01D92AD30B107E1F70E942D3D0C945F
:1078A000C33F0C94003C982F95959595959595958B
:1078B000905D8F708A307CF0282F295A8091C0000B
:1078C00085FFFCCF9093C6008091C00085FFFCCF60
:1078D0002093C6000895282F205DF0CF982F809127
:1078E000C00085FFFCCF9093C6000895EF92FF92F1
:1078F0000F931F93EE24FF2487018091C00087FD22
:1079000017C00894E11CF11C011D111D81E2E8164D
:1079100081EAF80687E0080780E0180770F3E09135
:107920000401F091050109958091C00087FFE9CF1E
:107930008091C6001F910F91FF90EF9008950E94D3
:10794000763C982F8091C00085FFFCCF9093C600B5
:1079500091362CF490330CF09053892F089597555D
:10796000892F08951F930E949F3C182F0E949F3CCF
:107970001295107F810F1F9108951F93182F882350
:1079800021F00E94763C1150E1F71F9108951F935A
:10799000182F0E94763C803249F0809103018F5F5E
:1079A000809303018530C1F01F9108958091C0003C
:1079B00085FFFCCF84E18093C6008091C00085FFE5
:1079C000FCCF1093C6008091C00085FFFCCF80E102
:1079D0008093C6001F910895E0910401F091050184
:1079E00009951F9108950E94763C803241F0809164
:1079F00003018F5F80930301853081F008958091AA
:107A0000C00085FFFCCF84E18093C6008091C00058
:107A100085FFFCCF80E18093C6000895E0910401CA
:107A2000F09105010995089548EC50E08823A1F0F4
:107A30002D9A28EE33E0FA013197F1F721503040CA
:107A4000D1F72D9828EE33E0FA013197F1F7215064
:107A50003040D1F7815061F708953F924F925F9285
:107A60006F927F928F929F92AF92BF92CF92DF924E
:107A7000EF92FF920F931F93CF93DF93000082E06A
:107A80008093C00080E18093C4001092C50088E11B
:107A90008093C10086E08093C2005098589A259A3E
:107AA00081E00E94143D24E1F22E9EE1E92E85E959
:107AB000D82E0FE0C02E10E1B12EAA24A394B1E479
:107AC0009B2EA6E58A2EF2E57F2EE0E26E2E79E46B
:107AD000572E63E5462E50E5352E0E94763C8033C6
:107AE000B1F18133B9F1803409F46FC0813409F404
:107AF00076C0823409F485C0853409F488C08035A5
:107B000031F1823521F1813511F1853509F485C0D6
:107B1000863509F48DC0843609F496C0843709F49B
:107B200003C1853709F472C1863709F466C08091B4
:107B300003018F5F80930301853079F6E0910401A2
:107B4000F091050109950E94763C803351F60E9420
:107B5000F33CC3CF0E94763C803249F78091C0004D
:107B600085FFFCCFF092C6008091C00085FFFCCF5E
:107B70009092C6008091C00085FFFCCF8092C60025
:107B80008091C00085FFFCCF7092C6008091C0003C
:107B900085FFFCCF6092C6008091C00085FFFCCFBE
:107BA0005092C6008091C00085FFFCCF4092C60075
:107BB0008091C00085FFFCCF3092C6008091C0004C
:107BC00085FFFCCFB092C60088CF0E94763C8638F5
:107BD00008F4BDCF0E94763C0E94F33C7ECF0E9409
:107BE000763C803809F49CC0813809F40BC1823896
:107BF00009F430C1883909F48FC080E00E94C73C85
:107C00006CCF84E10E94BD3C0E94F33C66CF85E0CE
:107C10000E94BD3C0E94F33C60CF0E94763C809362
:107C200006010E94763C809307010E94F33C55CFE9
:107C30000E94763C803309F411C183E00E94BD3C70
:107C400080E00E94C73C49CF0E94763C80930902A5
:107C50000E94763C8093080280910C028E7F809374
:107C60000C020E94763C853409F409C18091080217
:107C700090910902892B89F000E010E00E94763C87
:107C8000F801E85FFE4F80830F5F1F4F809108026D
:107C9000909109020817190788F30E94763C8032F8
:107CA00009F045CF80910C0280FFF5C0609106017C
:107CB00070910701660F771F7093070160930601AB
:107CC000A0910802B09109021097C9F0E8E0F1E034
:107CD0009B01AD014E0F5F1FF999FECF32BD21BD53
:107CE000819180BDFA9AF99A2F5F3F4FE417F5070B
:107CF00099F76A0F7B1F70930701609306018091CB
:107D0000C00085FFFCCFF092C6008091C00085FFC7
:107D1000FCCFB092C600E1CE83E00E94C73CDDCE2E
:107D200082E00E94C73CD9CE0E94763C8093090233
:107D30000E94763C80930802809106019091070191
:107D4000880F991F90930701809306010E94763C4B
:107D5000853409F49AC080910C028E7F80930C02C6
:107D60000E94763C803209F0B8CE8091C00085FF39
:107D7000FCCFF092C600A0910802B09109021097C2
:107D8000C1F180910C02082F0170182F1695117007
:107D9000E0910601F0910701AF014F5F5F4FBA011B
:107DA00020E030E00023B1F4112339F49491809164
:107DB000C00085FFFCCF9093C6002F5F3F4FCB01E3
:107DC0000196FA012A173B0780F4BC014F5F5F4F11
:107DD000002351F3F999FECFF2BDE1BDF89A90B5B9
:107DE0008091C00085FFFCCFE6CF709307016093C0
:107DF00006018091C00085FDE5CE8091C00085FF21
:107E0000F8CFE0CE81E00E94C73C67CE0E94763C6E
:107E1000803209F08CCE8091C00085FFFCCFF092BB
:107E2000C6008091C00085FFFCCFE092C600809123
:107E3000C00085FFFCCFD092C6008091C00085FFB6
:107E4000FCCFC092C6008091C00085FFFCCFB092ED
:107E5000C60043CE80E10E94C73C3FCE0E94763CE4
:107E60000E94763C182F0E94763C112309F483C0AF
:107E7000113009F484C08FE00E94C73C2ECE80915F
:107E80000C02816080930C02F1CE80910C02816023
:107E900080930C0265CF809107018823880F880B9F
:107EA0008A2180930B028091060190910701880F2F
:107EB000991F90930701809306018091080280FF2B
:107EC00009C08091080290910902019690930902DD
:107ED00080930802F894F999FECF1127E0910601EA
:107EE000F0910701C8E0D1E0809108029091090269
:107EF000103091F40091570001700130D9F303E084
:107F000000935700E8950091570001700130D9F3B4
:107F100001E100935700E8950990199000915700EE
:107F200001700130D9F301E000935700E8951395F3
:107F3000103498F011270091570001700130D9F3E7
:107F400005E000935700E89500915700017001305B
:107F5000D9F301E100935700E8953296029709F0B2
:107F6000C7CF103011F00296E5CF11248091C000E8
:107F700085FFC5CEC8CE8EE10E94C73CAECD85E957
:0A7F80000E94C73CAACDF894FFCF81
:027F8A00800075
:040000030000780081
:00000001FF
