:100000000C9447050C946F050C946F050C946F05C8
:100010000C946F050C946F050C946F050C946F0590
:100020000C946F050C946F050C946F050C946F0580
:100030000C946F050C946F050C946F050C946F0570
:100040000C94ED160C946F050C94110D0C94EB0CA4
:100050000C946F050C946F050C946F050C946F0550
:100060000C940B0E0C946F05000103070F1F3F7FCC
:100070000080C0E0F0F8FCFE00000000003E5B4F96
:100080005B3E3E6B4F6B3E1C3E7C3E1C183C7E3CF8
:10009000181C577D571C1C5E7F5E1C00183C180006
:1000A000FFE7C3E7FF0018241800FFE7DBE7FF3096
:1000B000483A060E2629792926407F050507407F04
:1000C00005253F5A3CE73C5A7F3E1C1C08081C1C77
:1000D0003E7F14227F22145F5F005F5F06097F016D
:1000E0007F006689956A606060606094A2FFA29458
:1000F00008047E040810207E201008082A1C080826
:100100001C2A08081E101010100C1E0C1E0C303873
:100110003E3830060E3E0E06000000000000005F74
:1001200000000007000700147F147F14242A7F2A90
:100130001223130864623649562050000807030052
:10014000001C2241000041221C002A1C7F1C2A089E
:10015000083E080800807030000808080808000001
:1001600060600020100804023E5149453E00427F75
:10017000400072494949462141494D331814127FC4
:100180001027454545393C4A494931412111090764
:100190003649494936464949291E000014000000E5
:1001A00040340000000814224114141414140041B7
:1001B00022140802015909063E415D594E7C121174
:1001C000127C7F494949363E414141227F414141AC
:1001D0003E7F494949417F090909013E4141517327
:1001E0007F0808087F00417F41002040413F017F98
:1001F000081422417F404040407F021C027F7F0460
:1002000008107F3E4141413E7F090909063E4151A8
:10021000215E7F09192946264949493203017F0198
:10022000033F4040403F1F2040201F3F4038403F99
:10023000631408146303047804036159494D4300AF
:100240007F4141410204081020004141417F0402E6
:10025000010204404040404000030708002054547D
:1002600078407F284444383844444428384444285B
:100270007F385454541800087E090218A4A49C78AE
:100280007F0804047800447D40002040403D007F0A
:100290001028440000417F40007C047804787C08EA
:1002A0000404783844444438FC18242418182424BE
:1002B00018FC7C08040408485454542404043F44A3
:1002C000243C4040207C1C2040201C3C4030403CD2
:1002D00044281028444C9090907C4464544C440032
:1002E0000836410000007700000041360800020196
:1002F0000204023C2623263C1EA1A161123A404082
:10030000207A3854545559215555794122545478FE
:1003100042215554784020545579400C1E52721297
:100320003955555559395454545939555454580020
:1003300000457C410002457D420001457C407D1224
:1003400011127DF0282528F07C5455450020545486
:100350007C547C0A097F4932494949323A44444431
:100360003A324A4848303A4141217A3A424020786C
:10037000009DA0A07D3D4242423D3D4040403D3C6D
:1003800024FF2424487E4943662B2FFC2F2BFF0992
:1003900029F620C0887E0903205454794100004486
:1003A0007D413048484A32384040227A007A0A0A71
:1003B000727D0D19317D2629292F282629292926E4
:1003C00030484D4020380808080808080808382F29
:1003D00010C8ACBA2F102834FA00007B00000814B3
:1003E0002A142222142A14085500550055AA55AA89
:1003F00055AAFF55FF55FF000000FF00101010FF29
:1004000000141414FF001010FF00FF1010F010F083
:10041000141414FC001414F700FF0000FF00FF1474
:1004200014F404FC141417101F10101F101F1414C0
:10043000141F00101010F0000000001F101010100A
:100440001F10101010F010000000FF1010101010FE
:1004500010101010FF10000000FF140000FF00FF3C
:1004600000001F10170000FC04F4141417101714D8
:1004700014F404F40000FF00F714141414141414FA
:10048000F700F7141414171410101F101F1414146D
:10049000F4141010F010F000001F101F0000001FD7
:1004A00014000000FC140000F010F01010FF10FF0A
:1004B000141414FF141010101F00000000F010FF9F
:1004C000FFFFFFFFF0F0F0F0F0FFFFFF0000000083
:1004D00000FFFF0F0F0F0F0F3844443844FC4A4A07
:1004E0004A347E02020606027E027E0263554941BC
:1004F000633844443C04407E201E2006027E0202F3
:1005000099A5E7A5991C2A492A1C4C7201724C3006
:100510004A4D4D303048784830BC625A463D3E49DD
:100520004949007E0101017E2A2A2A2A2A44445F81
:10053000444440514A444040444A51400000FF0175
:1005400003E080FF000008086B6B08361236243683
:10055000060F090F060000181800000010100030E8
:1005600040FF0101001F01011E00191D1712003C70
:100570003C3C3C000000000000000000250028007A
:100580002B0000000000240027002A0004040404BB
:10059000040404040202020202020303030303032D
:1005A000010204081020408001020408102001020A
:1005B000040810202200FF2100DB40A4A62EAFDAA1
:1005C0000281DA1281DA02818F2000A1C8D30040B3
:1005D0008DAED580A8000060000000000000000083
:1005E000000000000000E00000000000000000002B
:1005F0000000000001E0000000000000000000001A
:1006000000000001F00000000000000000000000F9
:10061000000003F0000000000000000000000000E7
:100620000007F000000000000000000000000000D3
:1006300007F8000000000000000000000000000FAC
:10064000F800000003C0007E000001E0007F0FF80A
:1006500000000003C000FE000001E000FFEFF80012
:10066000000003C000FE000001E000FFFFF80000F2
:100670000003C000F00000000F007FFE7FC00000FC
:1006800003C000F00000000F003FFE7FF83FF1FBC9
:10069000CFFCFEF3BC3DEFE01FFE7FFF7FFBFFDFE3
:1006A000FEFEFFBC3DEFE01FC6FFFF7FFBFFDFFE4E
:1006B000FEFFBC3DEFE00FE3C7FE787BC3DE1EF01C
:1006C000FFBC3DEF0007FF87FC787BC3DE1EF0F820
:1006D0003C3DEF0001FFFFF0007BC3C01EF0F03C8B
:1006E0003DEF0001F37FE03FFBC3CFFEF0F03C3D68
:1006F000EF0003E33F807FFBC3DFFEF0F03C3DEF04
:100700000007E73C00787BC3DE1EF0F03C3DEF00C5
:1007100007FFBE00787BC3DE1EF0F03C3DEF000714
:10072000FFFE00787BC3DE1EF0F03C3DEF000FFFC4
:10073000FE007FFBFFDFFEF0F03FFDEFE00FFFFF6D
:10074000007FFBFFDFFEF0F03FFDEFE00FF9FF0061
:100750003E79F9CF9EF0F01F3DE7E01FF1FF00006A
:10076000000000000000000000001F80FF007FFF6D
:10077000FFFFFFFFFFFFFFFFE01C007F007FFFFF89
:10078000FFFEB46D888D18E000001F007FFFFFFFA3
:10079000FE95AD7DB577E000000F007FFFFFFFFE07
:1007A000A5AD9D8D19E0000006007FFFFFFFFEB59F
:1007B000ADEDB57EE000000000000180000000000B
:1007C00000000000000380000000000000000000A6
:1007D00007C000000000000000000007C00000008B
:1007E0000000000000000FC000000000000000003A
:1007F000001FE00000000000000000001FE00000FB
:10080000000000000000003FE000000000000000C9
:1008100000003FF00000000000000000007FF0003A
:100820000000000000001FF87FF000000000000042
:10083000003FFE7FF0000000000000003FFF7FF05F
:10084000000000000000001FFFFBE00000000000AF
:1008500000000FFFF9FFC00000000000000FFFF9CB
:10086000FFF800000000000007FFF1FFFF0000009C
:1008700000000003FC73FFFF80000000000001FE89
:100880003FFFFF80000000000000FF1E0FFF000080
:1008900000000000007FFE1FFC00000000000000C0
:1008A0003FFFFFF8000000000000000FDFFFE00046
:1008B0000000000000001F19FFC000000000000041
:1008C000003F3CFF00000000000000007E7CF800BC
:1008D000000000000000007FFE7C0000000000001F
:1008E0000000FFFFFC0000000000000000FFFFFE12
:1008F0000000000000000000FFFFFE0000000000FC
:10090000000001FFEFFE0000000000000001FFCF2B
:10091000FE0000000000000003FF07FE00000000D2
:1009200000000003FC07FE0000000000000003F0D0
:1009300003FE00000000000000018000FE00000037
:10094000000000000000007E000000000000000029
:1009500000003E000000000000000000000C00004D
:1009600000000000078000FC000003C0000000073A
:100970008001FC000003C0000000078001FC0000B3
:1009800003C0000000078001E00000001E0000001E
:10099000078001E00000001E007FE3F79FF9FDE7FC
:1009A000787BDFC0FFF7FFBFFDFDFF787BDFC0FF77
:1009B000F7FFBFFDFDFF787BDFC0F0F787BC3DE1AF
:1009C000FF787BDE00F0F787BC3DE1F0787BDE004E
:1009D00000F787803DE1E0787BDE007FF7879FFDB1
:1009E000E1E0787BDE00FFF787BFFDE1E0787BDEAA
:1009F00000F0F787BC3DE1E0787BDE00F0F787BCD4
:100A00003DE1E0787BDE00F0F787BC3DE1E0787BFC
:100A1000DE00FFF7FFBFFDE1E07FFBDFC0FFF7FF78
:100A2000BFFDE1E07FFBDFC07CF3F39F3DE1E03EF3
:100A30007BCFC00000000000000000000000FFFFAE
:100A4000FFFFFFFFFFFFFFFFC0FFFFFFFFFD68DBB2
:100A5000111A31C0FFFFFFFFFD2B5AFB6AEFC0FFE9
:100A6000FFFFFFFD4B5B3B1A33C0FFFFFFFFFD6B3A
:100A70005BDB6AFDC0000000080002010000030407
:100A8000070000000000000000005617371711246F
:100A90001FBECFEFD8E0DEBFCDBF23E0ACEFB1E0AB
:100AA00001C01D92AF3BB207E1F711E0A0E0B1E059
:100AB000E8E1FFE302C005900D92AC3FB107D9F722
:100AC00015E0C6E4D5E004C02197FE010E946D1D2B
:100AD000C534D107C9F70E94DF170C947F1F0C940F
:100AE00000000895CF92DF92EF92FF920F931F9331
:100AF000CF93DF936C017A018B01C0E0D0E0CE157B
:100B0000DF0581F0D8016D918D01D601ED91FC9149
:100B10000190F081E02DC6010995892B11F02196F5
:100B2000EECF7E01C701DF91CF911F910F91FF9012
:100B3000EF90DF90CF900895FC01538D448D252FC9
:100B400030E0842F90E0821B930B541710F0CF9667
:100B5000089501970895FC01918D828D981761F099
:100B6000828DDF01A80FB11D5D968C91928D9F5FE4
:100B70009F73928F90E008958FEF9FEF0895FC018F
:100B8000918D828D981731F0828DE80FF11D858D42
:100B900090E008958FEF9FEF0895FC01918D228DD5
:100BA000892F90E0805C9F4F821B91098F7399275A
:100BB00008958EEA92E00E94CD0521E0892B09F488
:100BC00020E0822F0895FC01848DDF01A80FB11D64
:100BD000A35ABF4F2C91848D90E001968F73992773
:100BE000848FA689B7892C93A089B1898C91837051
:100BF00080648C93938D848D981306C00288F3894A
:100C0000E02D80818F7D80830895EF92FF920F9376
:100C10001F93CF93DF93EC0181E0888F9B8D8C8DA8
:100C2000981305C0E889F989808185FD26C0F62ED4
:100C30000B8D10E00F5F1F4F0F731127E02E8C8D6F
:100C4000E8120CC00FB607FCFACFE889F989808159
:100C500085FFF5CFCE010E94E305F1CF8B8DFE011C
:100C6000E80FF11DE35AFF4FF0829FB7F8940B8F06
:100C7000EA89FB89808180620AC09FB7F894EE8977
:100C8000FF896083E889F98980818370806480832B
:100C90009FBF81E090E0DF91CF911F910F91FF9076
:100CA000EF900895CF93DF93EC01888D8823C9F0EE
:100CB000EA89FB89808185FD05C0A889B9898C9165
:100CC00086FD0FC00FB607FCF5CF808185FFF2CF00
:100CD000A889B9898C9185FFEDCFCE010E94E305EB
:100CE000E7CFDF91CF91089580E090E0892B29F044
:100CF0000E94D90581110C9400000895FC0177FD34
:100D0000B9C080859185681779070CF0B3C057FD8D
:100D1000B1C082859385481759070CF008958589DD
:100D2000823079F484819581DC01A61BB70BBD016B
:100D30006150710986819781DC01A41BB50BAD015F
:100D40000EC0833009F084C064277527CA01862746
:100D500097276827792746815781481B590B4150AF
:100D600051092130310531F048F12230310509F4C3
:100D70004AC00895CA0157FD07969C01A3E0359526
:100D80002795AA95E1F7A481B5812A9FC0012B9FE1
:100D9000900D3A9F900D1124680F791F068CF78DE6
:100DA000E02DE60FF71F4770552781E090E001C066
:100DB000880F4A95EAF79081892B48C0CA0157FDF0
:100DC00007969C0193E0359527959A95E1F7A481C4
:100DD000B5812A9FC0012B9F900D3A9F900D112441
:100DE000680F791F068CF78DE02DE60FF71F47700F
:100DF000552781E090E001C0880F4A95EAF7809579
:100E00009081892323C0CA0157FD07969C0183E086
:100E1000359527958A95E1F7A481B5812A9FC00170
:100E20002B9F900D3A9F900D1124680F791F068C0F
:100E3000F78DE02DE60FF71F4770552781E090E012
:100E400001C0880F4A95EAF7908189278083089529
:100E5000813009F086CF64277527462757276427F6
:100E6000752784819581DC01A61BB70BBD016150FC
:100E7000710977CF08950895FC016370658B8481B3
:100E8000958126813781613039F0633029F091876F
:100E900080873387228708953187208793878287C9
:100EA00008956F927F928F929F92AF92BF92CF924E
:100EB000DF92EF92FF920F931F93CF93DF93EC019A
:100EC0004B015A0169013801E881F9810284F385F7
:100ED000E02D0995E881F9810288F389E02D8701E9
:100EE0009601A501B401CE010995A501460D571D36
:100EF00041505109E881F9810288F389E02D96017A
:100F0000B401CE010995E881F9810088F189E02DCD
:100F10009301A501B401CE010995C80CD91CB601F5
:100F200061507109E881F9810088F189E02D930110
:100F3000A501CE010995E881F9810688F789E02DA0
:100F4000CE01DF91CF911F910F91FF90EF90DF9035
:100F5000CF90BF90AF909F908F907F906F900994AB
:100F60008F929F92AF92BF92CF92DF92EF92FF92B9
:100F70000F931F93CF93DF934C016B015A01E9014B
:100F8000DC01ED91FC916217730781F404171507DA
:100F900024F48B2D5801042F182F0A191B099801CE
:100FA0002F5F3F4F048CF58DE02D12C04017510785
:100FB00009F52617370724F48D2D6901C62FD82F80
:100FC0009E012C193D092F5F3F4F068CF78DE02DB8
:100FD0008701A501B601C4010995DF91CF911F9149
:100FE0000F91FF90EF90DF90CF90BF90AF909F90C8
:100FF0008F9008950284F385E02D0995D401ED9139
:10100000FC910488F589E02D9E01A501B601C4017B
:101010000995D401ED91FC910688F789E02DC40172
:10102000DF91CF911F910F91FF90EF90DF90CF90C4
:10103000BF90AF909F908F900994EF92FF920F9383
:101040001F93DC011A960D911C911B9718962D91F8
:101050003C911997ED91FC9100A0F1A1E02D7B014D
:1010600040E050E060E070E009951F910F91FF9023
:10107000EF9008954F925F926F927F928F929F921E
:10108000AF92BF92CF92DF92EF92FF920F931F9396
:10109000CF93DF936C012B015A0139014801DC0128
:1010A000ED91FC910284F385E02D0995E201640C39
:1010B000751CD601ED91FC91C615D7055CF400882E
:1010C000F189E02D87019401A501BE01C6010995B2
:1010D0002196EFCF0688F789E02DC601DF91CF91E9
:1010E0001F910F91FF90EF90DF90CF90BF90AF9046
:1010F0009F908F907F906F905F904F9009948F9208
:101100009F92AF92BF92CF92DF92EF92FF920F9396
:101110001F93CF93DF93EC015B014A016901E881E2
:10112000F9810284F385E02D099595012C0D3D1D73
:1011300021503109E881F9810488F589E02D780191
:101140008401A401B501CE010995E881F9810688E1
:10115000F789E02DCE01DF91CF911F910F91FF9084
:10116000EF90DF90CF90BF90AF909F908F900994B9
:101170008F929F92AF92BF92CF92DF92EF92FF92A7
:101180000F931F93CF93DF93EC015B014A01690139
:101190007801E881F9810284F385E02D0995C80C76
:1011A000D91C860101501109E881F9810488F5896B
:1011B000E02D9501A401B501CE010995E881F981E1
:1011C0000688F789E02DCE01DF91CF911F910F9115
:1011D000FF90EF90DF90CF90BF90AF909F908F9057
:1011E00009940895EF92FF920F931F93DC01ED9104
:1011F000FC9100A0F1A1E02D09951F910F91FF90A6
:10120000EF9008950F931F93DC01ED91FC91068CF4
:10121000F78DE02D09951F910F9108950F931F935E
:10122000DC01ED91FC91048CF58DE02D09951F9169
:101230000F910895DC01ED91FC910084F185E02D82
:1012400009942F923F924F925F926F927F928F926A
:101250009F92AF92BF92CF92DF92EF92FF920F9345
:101260001F93CF93DF9300D000D000D0CDB7DEB76F
:101270002C017E836D836A015901C801FC82EB82D7
:101280004801841A950A97FE03C0919481949108AD
:1012900035012D813E81621A730A77FE03C0719475
:1012A00061947108681479045CF43A2D2B2D5C016B
:1012B000832F922F3D812E81DE82CD82C32ED22EAE
:1012C000AD81BE81AA16BB065CF43C2D2D2D6C01B0
:1012D000832F922F3D812E81BE82AD82A32EB22E0E
:1012E00085012D813E81021B130B1C012C183D082A
:1012F00037FE03C0319421943108780117FF03C0F1
:101300003FEFE31AF30AF594E794C816D9062CF0D8
:101310008FEF9FEF9A83898304C0A1E0B0E0BA8386
:10132000A9832D813E81A216B30624F1D201ED914D
:10133000FC910484F585E02D2B813C8168147904AF
:1013400024F44D815E81B60103C0A6016D817E81CA
:10135000C2010995E218F308F7FE06C029813A8117
:10136000C20ED31EE00EF11E8D819E8101969E83DA
:101370008D83D7CF26960FB6F894DEBF0FBECDBFB4
:10138000DF91CF911F910F91FF90EF90DF90CF9061
:10139000BF90AF909F908F907F906F905F904F9095
:1013A0003F902F90089585ED8093BC008091BC0004
:1013B00084FDFCCF10928902089540913C02262FB3
:1013C00030E0240F311D21323105DCF420918902F7
:1013D0002430C9F4FC0180E090E0861758F4309185
:1013E0003C022191DC01A45EBD4FA30FB11D2C93E3
:1013F0000196F3CF80913C02680F60933C0280E03D
:10140000089581E0089582E0089508950895E09197
:10141000B3038091B203E81730F4F0E0E450FE4FDC
:10142000808190E008958FEF9FEF08959091B3032E
:101430008091B203981750F4E92FF0E0E450FE4F8A
:10144000208130E09F5F9093B30302C02FEF3FEF06
:10145000C90108958091B20390E02091B303821BEB
:1014600091090895CF92DF92EF92FF920F931F930D
:10147000CF93DF937C01CB018A0120918A02222342
:1014800089F0EB016B01C40ED51ECC15DD0569F0AA
:101490006991D701ED91FC910190F081E02DC70198
:1014A0000995F3CF642F0E94DD09C801DF91CF9128
:1014B0001F910F91FF90EF90DF90CF900895CF9301
:1014C000DF931F92CDB7DEB7698320918A02222372
:1014D000D1F02091AD02203240F021E030E0FC015B
:1014E0003383228380E090E015C080918B02E82F47
:1014F000F0E0E457FD4F998190838F5F80938B02DA
:101500008093AD0205C061E0CE0101960E94DD0925
:1015100081E090E00F90DF91CF91089580E090E01E
:1015200008950F931F93CF93DF93EC0188819981E6
:10153000009729F02A813B812617370788F48B0111
:101540006F5F7F4F0E94941E009761F0998388839C
:101550001B830A832C813D81232B11F4FC01108213
:1015600081E001C080E0DF91CF911F910F9108953C
:101570000F931F93CF93DF93DC015596EC91559712
:10158000E23071F0E330E9F0E13079F5FB011496D7
:101590000D90BC91A02DA41BB50BA21BB30B18C0C2
:1015A000EC01EC81FD81E61BF70BBF016150710975
:1015B000EE81FF81DF01A41BB50BAD01421B530B74
:1015C00014C0DA01EC01EE81FF81E61BF70B3197C5
:1015D000F7FD0DC0EC014E815F81E417F5073CF487
:1015E000AF01BD010E94951302C00E94FC13DF9160
:1015F000CF911F910F9108950F931F93DC01559682
:10160000EC915597E23061F0E33009F1E13081F57A
:101610001496ED91FC911597E41BF50B319723C0BF
:10162000DC011496ED91FC911597DF01A61BB70B19
:10163000BD01DC011696ED91FC911797DF01A41B0B
:10164000B50BAD0141505109621B730B11C0FA017A
:10165000DC0116964D915C911797DA01A61BB70B2A
:10166000BD01621B730BAB01BF010E94FC130CC0D8
:1016700057FD0AC0DC011696ED91FC9117974E17A5
:101680005F0714F40E9495131F910F910895AF9274
:10169000BF92CF92EF92FF920F931F93CF93DF935E
:1016A000EC01262F888D998D009709F040C06A3093
:1016B00059F41D861C862C898E859F8538E0239FD2
:1016C000800D911D112441C06D3009F4AAC08E898E
:1016D0008823C1F03C898C859D8546E0349F800D30
:1016E000911D112448855985481759075CF41D86BA
:1016F0001C868E859F8548E0349F800D911D1124A6
:101700009F878E87EA88FB88088919894E855F85BF
:101710006C857D85CC88CE010E947B112C898C85BF
:101720009D8536E0239F800D911D112442C06A30B3
:1017300079F41D861C862C89FC013696E4918E85F1
:101740009F852E9F800D911D11249F878E8769C0D4
:101750006D3009F466C0FC0134963491631708F4C7
:1017600060C03196E491E61708F45BC0FC01329644
:1017700065917491422F50E0431B510937E0349F2B
:101780005001359FB00C1124A60EB71EF5013296FC
:1017900034913196E491332311F0E1110DC0F5013C
:1017A0003496E4912C898C859D85E29F800D911D56
:1017B00011249D878C8735C0F501359644915E894B
:1017C000552311F16C89E32FF0E0E40FF11D47FD83
:1017D000FA956E9FD0016F9FB00D11244C855D85E9
:1017E0004A0F5B1FE885F985E417F5076CF41D8641
:1017F0001C86FC013696E4918E859F856E9F800D38
:10180000911D11249F878E87EA88FB880889198992
:101810004E855F856C857D85CC88CE010E947B11CD
:10182000BECF81E090E0DF91CF911F910F91FF90AB
:10183000EF90CF90BF90AF900895EF92FF920F93EB
:101840001F93CF93DF936115710511F480E01CC0E5
:1018500041155105C1F07B01EC018C819D818A010C
:10186000080F191FB801CE010E94910A882371F355
:10187000288139818C819D81B701820F931F0E943D
:10188000781F1D830C8381E0DF91CF911F910F9111
:10189000FF90EF900895CF93DF93EC0188819981B9
:1018A000009711F00E940B1E198218821D821C8263
:1018B0001B821A82DF91CF910895CF93DF93EC01C1
:1018C000FB0144815581608171810E941D0C811151
:1018D00003C0CE010E944B0CCE01DF91CF91089541
:1018E000EF92FF920F931F93CF93DF93EC017B0155
:1018F0008A01BA010E94910A811104C0CE010E949E
:101900004B0C07C01D830C83B701888199810E940D
:10191000781FCE01DF91CF911F910F91FF90EF9033
:101920000895CF93DF93EC01FB018617970761F0D1
:10193000608171816115710529F0448155810E9492
:10194000700C02C00E944B0CCE01DF91CF91089524
:10195000FC01808191810C940B1ECF93DF9300D00A
:10196000CDB7DEB7FC01118210821382128215827C
:10197000148269831A82BE016F5F7F4FFB01019061
:101980000020E9F73197AF01461B570B0E94700CFE
:101990000F900F90DF91CF910895FC01118210827A
:1019A00013821282158214820C94910CFC01118214
:1019B000108213821282158214826115710551F012
:1019C000FB0101900020E9F73197AF01461B570B4F
:1019D0000C94700C08951F920F920FB60F92112461
:1019E0002F933F934F935F936F937F938F939F9327
:1019F000AF93BF93EF93FF938EEA92E00E94E305CB
:101A0000FF91EF91BF91AF919F918F917F916F91D6
:101A10005F914F913F912F910F900FBE0F901F90AC
:101A200018951F920F920FB60F9211242F938F9338
:101A30009F93EF93FF93E091BE02F091BF028081EC
:101A4000E091C402F091C50282FD12C090818091A4
:101A5000C7028F5F8F732091C802821751F0E09107
:101A6000C702F0E0E255FD4F958F8093C70201C099
:101A70008081FF91EF919F918F912F910F900FBED9
:101A80000F901F90189508958EBD00000DB407FEAD
:101A9000FDCF8EB508951F93CF93DF93FC01848D06
:101AA000958D009729F1162FEF0120A131E0309399
:101AB0008A022093AC0210928B021092AD02DC01DC
:101AC000ED91FC910190F081E02D60E009958C8D05
:101AD0009D8DDC01ED91FC910190F081E02D612F55
:101AE00009958C8D9D8DDF91CF911F910C94520F94
:101AF000A4A5B5A59C9182A9809589238C93828DFC
:101B0000938D892B31F0862FDF91CF911F910C940B
:101B1000440D28E030E080E8A0A5B1A590A9462FAB
:101B2000482319F04C91942B03C04C919095942329
:101B30009C93A2A5B3A54C9191A9942B9C93A2A58B
:101B4000B3A54C9191A9909594239C93869521508F
:101B5000310911F7DF91CF911F9108958CBD9DBD83
:101B600008951F93CF93DF93EC01162F8C8D9D8DDD
:101B7000892BB1F02EA93FA948AD59AD60E072E1C3
:101B80008AE790E00E944B1DDA01C9014097A10944
:101B9000B109B695A795979587958093B8000FC022
:101BA0008A8D9B8D892B21F08CA99DA90E94AE0D59
:101BB000EEA5FFA590818BA98095892380831111C3
:101BC00002C066EA01C067EACE010E944B0D8C8D0F
:101BD0009D8D892BB1F02AAD3BAD4CAD5DAD60E084
:101BE00072E18AE790E00E944B1DDA01C90140973B
:101BF000A109B109B695A795979587958093B800E7
:101C000006C0EEA5FFA590818BA9892B8083DF916B
:101C1000CF911F9108951F920F920FB60F9211242A
:101C20002F933F934F935F936F937F938F939F93E4
:101C3000AF93BF93EF93FF938091B900887F803675
:101C400009F49CC068F5883209F45BC090F48031D7
:101C500009F454C038F4882309F4F6C0883009F434
:101C60004DC0F6C0883109F44CC0803209F45DC023
:101C7000EFC0803409F468C048F4803309F455C0DB
:101C8000883309F0E5C080938702D8C0803509F415
:101C90004FC0883509F45DC0883409F0D9C0D6C07A
:101CA000883909F4C7C0A8F4883709F467C038F444
:101CB000883609F463C0803709F460C0C9C0883829
:101CC00009F4B8C0803909F45FC0803809F0C0C099
:101CD0005BC0803B09F486C038F4803A09F466C0E2
:101CE000883A09F47FC0B4C0803C09F4A7C0883C9E
:101CF00009F4A4C0883B09F48AC0AAC08091640298
:101D000010C09091860280918502981770F5E0913D
:101D1000860281E08E0F80938602F0E0EB59FD4F42
:101D200080818093BB0085EC86C0809387028EC043
:101D3000E091860281E08E0F809386028091BB0045
:101D4000F0E0EB59FD4F80839091860280918502EF
:101D50006EC0E091860281E08E0F809386028091B2
:101D6000BB00F0E0EB59FD4F808380918802811128
:101D70006DC081E08093630284EA61C083E0809358
:101D8000890210925E02CFCF80915E02803208F00D
:101D900051C0E0915E0281E08E0F80935E028091DF
:101DA000BB00F0E0E25CFD4F8083BDCF85EC80930B
:101DB000BC001092890280915E02803230F4E09182
:101DC0005E02F0E0E25CFD4F108260915E0270E026
:101DD000E091AE03F091AF038EE392E0099510928B
:101DE0005E0236C084E08093890210923D02109218
:101DF0003C02E091B003F091B103099580913C025F
:101E0000811105C081E080933C0210921C02E09198
:101E10003D0281E08E0F80933D02F0E0E45EFD4FD5
:101E200080818093BB0090913D0280913C02981785
:101E300008F479CF85E88093BC000AC085EC8093D4
:101E4000BC001092890204C0109287020E94D3093C
:101E5000FF91EF91BF91AF919F918F917F916F9182
:101E60005F914F913F912F910F900FBE0F901F9058
:101E70001895CF93DF93FC01448155816081718176
:101E800083E693E00E947205EC0142E050E067E5D2
:101E900071E083E693E00E9472058C0F9D1FDF9135
:101EA000CF9108953091AD02313208F04BC080914E
:101EB00089028111FCCF9091AC0222E0209389022B
:101EC00021E0209388022FEF209387021092860250
:101ED00030938502ECE8F2E0A5E6B2E020E03217AC
:101EE00021F041914D932F5FFACF1092640220911F
:101EF0006402990F922B9093640290916302913047
:101F000061F410926302909164029093BB009091EF
:101F1000BC0093FDF8CF95EC01C095EE9093BC000A
:101F2000909189029230E1F3909187029F3F79F07E
:101F300080918702803241F080918702803331F0B6
:101F400084E005C081E003C082E001C083E010921C
:101F50008B021092AD0210928A020895DF92EF92E6
:101F6000FF920F931F93CF93DF93D82ED92FC62FB5
:101F700080917F0390918003009709F454C02091D1
:101F8000830331E030938A022093AC0210928B02DB
:101F90001092AD02DC01ED91FC910190F081E02DF9
:101FA00060E00995ED2CFD2E11E0D1E080917F03DA
:101FB00090918003CC2371F11032C8F00E94520F2F
:101FC00080918303D0938A028093AC0210928B029B
:101FD0001092AD0280917F0390918003DC01ED911E
:101FE000FC910190F081E02D60E0099511E0809175
:101FF0007F0390918003F7016491DC01ED91FC91E6
:102000000190F081E02D09951F5FC150BFEFEB1AE1
:10201000FB0ACCCFDF91CF911F910F91FF90EF90F2
:10202000DF900C94520FE0918F03F0919003908118
:10203000809195038095892380830D2D1D2FCC23BE
:1020400009F439C0F801849120917D0330917E0319
:10205000232B31F00E94440DC1500F5F1F4FEFCF73
:1020600028E030E040E8E0918B03F0918C03909100
:102070009303582F542319F05081952B03C050819E
:10208000909595239083E0918D03F0918E0350817C
:1020900090919403952B9083E0918D03F0918E03A2
:1020A000508190919403909595239083469521506B
:1020B0003109C9F6D1CFDF91CF911F910F91FF90D8
:1020C000EF90DF9008952091690330916A03C90170
:1020D000079697FD079623E0959587952A95E1F752
:1020E0002091670330916803829FA001839F500D68
:1020F000929F500D112460E070E0809181039091D7
:1021000082030C94681F2FB7F89480915F0290911E
:102110006002A0916102B09162022FBF8093B6026B
:102120009093B702A093B802B093B9028EEA92E0FE
:102130000E94AB0597FF26C02FB7F89480915F02ED
:1021400090916002A0916102B09162022FBF409114
:10215000B6025091B7026091B8027091B902841B27
:10216000950BA60BB70B4091B2025091B302609150
:10217000B4027091B50284179507A607B707B0F2AD
:102180008FEF9FEF089520915B0330915C038217DE
:10219000930738F4209157033091580321153105E6
:1021A00029F41092A10381EA93E00895820F931F0E
:1021B00008953F924F925F926F927F928F929F927B
:1021C000AF92BF92CF92DF92EF92FF920F931F9345
:1021D000CF93DF9300D000D000D0CDB7DEB72C0175
:1021E0003B014A015901C901079697FD07969C01D9
:1021F00093E0359527959A95E1F73C832B83C12C85
:10220000D12CE12CF12C312CC3018E0D9F1D9A8312
:102210008983E016F106C4F51E821D822D813E8160
:102220002A153B054CF5C90187709927892B11F0B8
:10223000330C0EC0ED81FE81F7FD379683E0F595F6
:10224000E7958A95E1F7EC0DFD1DE80DF91D349039
:1022500037FE0CC021E030E049815A816D817E81DA
:10226000640D751D83E693E00E941A098D819E819D
:1022700001969E838D83D2CF9FEFE91AF90A2B81B5
:102280003C81C20ED31EC0CF26960FB6F894DEBF97
:102290000FBECDBFDF91CF911F910F91FF90EF90B7
:1022A000DF90CF90BF90AF909F908F907F906F9076
:1022B0005F904F903F90089590E0FC01E056FA4FF8
:1022C0002491FC01E457FA4F8491882399F090E01F
:1022D000880F991FFC01EE57FA4FA591B491FC01AC
:1022E000E858FA4F859194918FB7F894EC91E22BCE
:1022F000EC938FBF08952F923F924F925F926F920F
:102300007F928F929F92AF92BF92CF92DF92EF9285
:10231000FF920F931F93CF93DF93CDB7DEB76B97E9
:102320000FB6F894DEBF0FBECDBF9B8F8A8F5B01C7
:102330001A01D22E1F830E833701C982DC01589601
:102340002D913C9159972115310509F0E6C0189659
:102350008D919C911997681779070CF0CDC11A9649
:102360008D919C911B97481759070CF0C5C18C2C77
:10237000912CFB0126E0C29EE00DF11D1124FB878C
:10238000EA871E161F060CF0B7C1A40183E0440FB4
:10239000551F8A95E1F75D874C87CA01820D931D11
:1023A000181619060CF0A8C157968C91811104C01B
:1023B0005FEA5D1508F4D394AA8DBB8DED91FC9175
:1023C00011970284F385E02DCD010995B5E0DB9EE0
:1023D000C0011124F5013596FF87EE87BB82AA82E2
:1023E00025019C012A193B09398B288BA101485FE3
:1023F0005F4F5B8B4A8BE889F989E40DF51DE8583E
:10240000FF4F5491588761013D822C82888580FF5F
:1024100013C0AA8DBB8DED91FC91B981B13031F41F
:102420000484F585E02D2E813F8116C00684F78552
:10243000E02DEE80FF801AC0EE81FF81E615F705E2
:10244000F1F0AA8DBB8DED91FC91B981B13051F4C1
:102450000484F585E02D9301A601B2018A8D9B8D40
:1024600009950DC00684F785E02D73018401940160
:102470004C815D816A817B818A8D9B8D0995E88580
:10248000E695E887FFEFCF1ADF0A2C813D81280D02
:10249000391D3D832C834A895B89C416D50609F012
:1024A000B5CF5FEF451A550A8A819B81880D991D2A
:1024B0009B838A83AE85BF854A165B0609F09BCF56
:1024C000EE81FF81E615F70509F4F4C0EA8DFB8D76
:1024D000A081B181F981F13079F4B5016B5F7F4F53
:1024E0005096ED91FC915197830128E030E0A101D5
:1024F0008A8D9B8D0995DEC06A857B85681979096F
:102500001E96ED91FC911F9773010C851D8594011A
:10251000A1018A8D9B8D0995CDC0F9013496E49176
:10252000DE1AF901329685919491B7E0DB9E800D19
:10253000911D1124F901259134913B8B2A8BFC01CB
:10254000259134912901FC013296C4903196349141
:102550003E87329614913196D4904981423058F09A
:10256000612E012E000C77088D2D0D2C000C990B7F
:102570009987888704C019861886612C712CAA8DCA
:10258000BB8DED91FC9111970284F385E02DCD0177
:102590000995B9818B2E912C689CC001699C900D86
:1025A000789C900D1124FC01EA0DFB1DFD87EC8742
:1025B0001A82712C612CE12F110FFF0B95012E0F48
:1025C0003F1F3B872A87AC0CB11CA5014E0F5F1F34
:1025D0005F8B4E8BC1018D0D911DD7FC9A95998F04
:1025E000888F9E85691608F065C0862D90E0488525
:1025F0005985480F591F489D9001499D300D589DA0
:10260000300D1124D101A20FB31FB98BA88BEC851B
:10261000FD85FD83EC83AA84BB84DA80FA85DF1A0A
:10262000288D398D280F391F3D8B2C8B8D2D8A0DD0
:102630004E895F89A416B506C1F1877041F4C201C5
:102640000196EA89FB89E40DF51D74902C0177FE53
:1026500021C0AA8DBB8DED91FC91B981B13061F49F
:102660000484F585E02D2E813F814C895D89B5017B
:102670008A8D9B8D09950EC00684F785E02DEE802E
:10268000FF8084019401488959896C817D818A8DFC
:102690009B8D0995770CEFEFAE1ABE0A2C813D8118
:1026A000280D391D3D832C83C1CF3A813C0D3A83DF
:1026B000639497CFAA8DBB8DED91FC9111970688FD
:1026C000F789E02DCD016B960FB6F894DEBF0FBEF3
:1026D000CDBFDF91CF911F910F91FF90EF90DF90D1
:1026E000CF90BF90AF909F908F907F906F905F90B2
:1026F0004F903F902F9009946B960FB6F894DEBFE1
:102700000FBECDBFDF91CF911F910F91FF90EF9042
:10271000DF90CF90BF90AF909F908F907F906F9001
:102720005F904F903F902F9008950F931F93CF93FA
:10273000DF9377FF04C0260F371F60E070E0DC01F5
:102740001496CD91DC911597FB01E20FF31FCE1784
:10275000DF071CF49E01261B370B121613060CF024
:1027600046C0FA0157FD3796DF01E3E0B595A7951E
:10277000EA95E1F7AC9FF001AD9FF00DBC9FF00D25
:1027800011246E0F7F1FDC015E96ED91FC915F9727
:10279000E60FF71F4770552781E090E001C0880FD2
:1027A0004A95EAF7482F0130110539F078F00230E8
:1027B0001105E9F42E0F3F1F13C02E0F3F1FE21724
:1027C000F307A9F08081842B8193F9CF80952E0F98
:1027D0003F1FE217F30759F0908198239193F9CFA7
:1027E000E217F30721F0808184278193F9CFDF91ED
:1027F000CF911F910F910895EF92FF920F931F9326
:10280000CF93DF93EC0177FDA5C0EC80FD806E15C2
:102810007F050CF09FC057FF04C0240F351F40E018
:1028200050E08E819F81FA01E20FF31F8E179F0700
:102830001CF49C01241B350B121613060CF08AC0E5
:10284000922F842F8695869586958E9DD0018F9D9B
:10285000B00D11246A0F7B1FAE8DBF8DA60FB71F61
:102860004770B1F188E0841B482F682F70E0FB01AE
:10287000E059FF4FE491281798F4621B71092FEF7C
:1028800030E002C0359527956A95E2F7E2230130E2
:10289000110549F078F00230110509F05BC00EC057
:1028A0000130110519F48C91E82B0AC00130110593
:1028B00008F049C0E0958C91E82302C08C91E8278C
:1028C000EC93941708F446C02C813D81A20FB31FEE
:1028D000E92FE41BE830F8F00230110561F48E2F87
:1028E0009C9190959C932C813D81A20FB31F8850A1
:1028F0008830B0F70FC081E00115110509F480E0C0
:1029000081959E2F8C932C813D81A20FB31F9850EF
:102910009830C0F7E770EE23E9F0F0E0E859FF4F98
:10292000E4910130110539F048F00230110591F4BD
:102930008C91E82706C08C91E82B03C0E0958C9120
:10294000E823EC9307C00230110509F4B7CFAE0DB0
:10295000BF1DBECFDF91CF911F910F91FF90EF90E0
:102960000895CF92DF92EF92FF920F931F93CF9330
:10297000DF9300D000D000D0CDB7DEB76C018B0163
:102980000E9463101092700310926F0310927203F2
:102990001092710361E871E0CE0101960E94D60C9D
:1029A000B801CE0101960E945D0C8C0141E050E01F
:1029B00063E971E00E941D0C882309F44DC1C80130
:1029C0000E94390FCE0101960E94A80CEE24E394D8
:1029D000F12C07E010E020E830E047E050E060E054
:1029E00070E083E693E00E94B007109270031092AB
:1029F0006F038AE090E09093720380937103C601A5
:102A00000E94390F80917F0390918003892BD1F030
:102A10002091990330919A0340919B0350919C031C
:102A200060E072E18AE790E00E944B1DDA01C90183
:102A30004097A109B109B695A79597958795809379
:102A4000B80016C080917D0390917E03892B31F0F0
:102A500080919703909198030E94AE0DE0919103AD
:102A6000F0919203908180919603809589238083D1
:102A700065E084EB95E00E94AE0F609167036150C2
:102A800083E693E00E944B0D2091690330916A0325
:102A9000C901079697FD079633E0959587953A9576
:102AA000E1F72091670330916803829F7001839F53
:102AB000F00C929FF00C112400918103109182037D
:102AC00080917F0390918003E00EF11E009709F43E
:102AD0004EC02091830331E030938A022093AC02F0
:102AE00010928B021092AD02DC01ED91FC910190ED
:102AF000F081E02D60E40995DD24D394CC24C394C7
:102B000080917F0390918003E016F10669F1BFE1A7
:102B1000BD15D0F40E94520F80918303C0928A02A7
:102B20008093AC0210928B021092AD0280917F03D1
:102B300090918003DC01ED91FC910190F081E02DFA
:102B400060E40995DD24D39480917F039091800304
:102B5000F80161918F01DC01ED91FC910190F08110
:102B6000E02D0995D394CCCF0E94520F43C0E09141
:102B70008F03F0919003908180919503892B80833E
:102B8000E016F106B9F1F80181918F0120917D03E2
:102B900030917E03232B19F00E94440DF1CF28E0E1
:102BA00030E040E8E0918B03F0918C039091930327
:102BB000582F542319F05081952B03C050819095C4
:102BC00095239083E0918D03F0918E035081909135
:102BD0009403952B9083E0918D03F0918E035081A7
:102BE00090919403909595239083469521503109B7
:102BF000C9F6C6CF80917F0390918003892BD1F0D5
:102C000020919D0330919E0340919F035091A0031A
:102C100060E072E18AE790E00E944B1DDA01C90191
:102C20004097A109B109B695A79597958795809387
:102C3000B80016C0E0919103F091920390818091C9
:102C40009603892B808380917D0390917E03892B4D
:102C500039F00E94430D04C0C8010E944B0CAFCE56
:102C600026960FB6F894DEBF0FBECDBFDF91CF9191
:102C70001F910F91FF90EF90DF90CF90089590E01B
:102C8000FC01EB58F54F2491FC01E056FA4F3491CA
:102C9000FC01E457FA4FE491EE2309F43CC02223EF
:102CA00039F1233091F038F42130A9F0223001F5C8
:102CB00084B58F7D12C0273091F02830A1F02430E8
:102CC000B9F4809180008F7D03C0809180008F7760
:102CD000809380000DC084B58F7784BD09C080913A
:102CE000B0008F7703C08091B0008F7D8093B000DB
:102CF000F0E0EE0FFF1FE858FA4FA591B4919FB78F
:102D0000F894611104C08C913095382302C0EC9185
:102D10003E2B3C939FBF08953FB7F8948091B70333
:102D20009091B803A091B903B091BA0326B5A89BBE
:102D300005C02F3F19F00196A11DB11D3FBFBA2F4D
:102D4000A92F982F8827820F911DA11DB11DBC01AD
:102D5000CD0143E0660F771F881F991F4A95D1F771
:102D600008958F929F92AF92BF92CF92DF92EF928F
:102D7000FF926B017C010E948C164B015C01C11417
:102D8000D104E104F104F1F00E948C16DC01CB01C6
:102D900088199909AA09BB09883E9340A105B10584
:102DA00070F321E0C21AD108E108F10888EE880E1C
:102DB00083E0981EA11CB11CC114D104E104F104EC
:102DC00019F7DDCFFF90EF90DF90CF90BF90AF90DD
:102DD0009F908F9008950E945A1F1F920F920FB6D6
:102DE0000F9211242F933F938F939F93AF93BF9391
:102DF00080915F0290916002A0916102B0916202A5
:102E00003091B60326E0230F2D3720F40296A11D42
:102E1000B11D05C029E8230F0396A11DB11D209304
:102E2000B60380935F0290936002A0936102B09317
:102E300062028091B7039091B803A091B903B09159
:102E4000BA030196A11DB11D8093B7039093B803F7
:102E5000A093B903B093BA03BF91AF919F918F91A3
:102E60003F912F910F900FBE0F901F9018958BE4FC
:102E700093E00E94A80C81E593E00E94A80C87E5EE
:102E800093E00E94A80C8DE593E00E94A80C8FE2CD
:102E900091E0909364038093630380918103909108
:102EA0008203009711F00C940B1E0895EEEAF2E0F5
:102EB0001382128248EE53E060E070E04483558351
:102EC000668377838BE091E09183808385EC90E04B
:102ED0009587848784EC90E09787868780EC90E0E4
:102EE000918B808B81EC90E0938B828B82EC90E0D5
:102EF000958B848B86EC90E0978B868B118E128E4F
:102F0000138E148EA2EAB3E013961C921E921297AF
:102F100014964D935D936D937C9317978DE191E09B
:102F200011969C938E93E3E6F3E01382128220E8DD
:102F300030E03583248380E290E097838683318775
:102F4000208793878287158A1586148617861686AA
:102F500091E0948B2FEF3FEF338B228B318B208BC3
:102F6000968B178A118E108E2FE231E031832083E9
:102F7000138E128EB58FA48F178E168E8FEF83A3AC
:102F800084A385A386A387A380E584AB95AB6AE57C
:102F900071E08DE593E00E94D60C68E671E087E56C
:102FA00093E00E94D60C69E571E081E593E00E9410
:102FB000D60C69E571E08BE493E00C94D60CCF93CA
:102FC000DF93CDB7DEB7E6970FB6F894DEBF0FBE3E
:102FD000CDBF789484B5826084BD84B5816084BDA2
:102FE00085B5826085BD85B5816085BD80916E00A7
:102FF000816080936E0010928100809181008260D8
:103000008093810080918100816080938100809114
:1030100080008160809380008091B1008460809303
:10302000B1008091B00081608093B00080917A00FF
:10303000846080937A0080917A00826080937A0025
:1030400080917A008E7F80937A0080917A008068E8
:1030500080937A001092C100E091BE02F091BF020D
:1030600082E08083E091BA02F091BB021082E0918D
:10307000BC02F091BD0287E680831092C602E09107
:10308000C202F091C30286E08083E091C002F09119
:10309000C102808180618083E091C002F091C10211
:1030A000808188608083E091C002F091C1028081BC
:1030B00080688083E091C002F091C10280818F7DA1
:1030C000808340E050E069E571E081E593E00E9493
:1030D000700C8091810390918203892B11F52091CE
:1030E000690330916A03C901079697FD079623E0AB
:1030F000959587952A95E1F72091670330916803AC
:10310000AC01429FC001439F900D529F900D11242E
:103110000E94731D9093820380938103892B09F48D
:103120000FC10E9463102091690330916A0380915E
:10313000670390916803213231050CF443C3B90150
:103140006054710977FF02C06F5F7F4F7595679577
:103150008255910997FD019600E410E022E530E0E8
:1031600045EB57E0959587950E94D91082E08093B2
:10317000840380917F0390918003892B09F436C3E7
:103180008CE3809383031092B3031092B2031092E6
:103190008B021092AD021092890281E08093880226
:1031A0001092630261E082E10E943F1661E083E1D8
:1031B0000E943F168091B9008E7F8093B900809164
:1031C000B9008D7F8093B90080E28093B80085E4D8
:1031D0008093BC0085E09AE09093B1038093B003A4
:1031E00086E09AE09093AF038093AE0380918A03C8
:1031F00087FD1DC00E945C1161E080918A030E94DE
:103200003F1661E070E080E090E00E94B11660E05F
:1032100080918A030E943F166AE070E080E090E0AF
:103220000E94B11661E080918A030E943F1680914E
:103230007F0390918003892B09F48FC32091990318
:1032400030919A0340919B0350919C0360E072E19E
:103250008AE790E00E944B1DDA01C9014097A1095D
:10326000B109B695A795979587958093B80064E0C6
:1032700081ED95E00E94AE0F60916903615083E695
:1032800093E00E944B0D64E08DEC95E00E94AE0F40
:1032900080918403813009F077C360E183E693E095
:1032A0000E944B0D64E089EC95E00E94AE0F809186
:1032B0006703909168038038910509F078C3809185
:1032C000690390916A038032910509F05FC364E05D
:1032D00085EC95E00E94AE0F69ED83E693E00E94D5
:1032E0004B0D80918403813009F07DC362E283E657
:1032F00093E00E944B0D66E089EB95E00E94AE0FD3
:1033000080917F0390918003892B09F46EC32091F3
:103310009D0330919E0340919F035091A00360E074
:1033200072E18AE790E00E944B1DDA01C9014097E3
:10333000A109B109B695A795979587958093B8008F
:103340000E94631081E08093770321E030E03093A6
:103350007603209375033093740320937303809353
:103360007A0383E190E00E94C310FC016081CE01EA
:1033700001960E94AD0C82E190E00E94C310FC0116
:103380006081CE0107960E94AD0C8DE090E00E9416
:10339000C310FC016081CE010D960E94AD0C89E046
:1033A00090E00E94C310FC016081CE0143960E9410
:1033B000AD0C85E090E00E94C310FC016081CE015D
:1033C00049960E94AD0C82E090E00E94C310FC017F
:1033D0006081CE014F960E94AD0C80E090E00E948B
:1033E000C310FC016081CE018B960E94AD0CBE0122
:1033F000655D7F4FCE0185960E94CD0CBE01615E5A
:103400007F4FCE0185960E945D0CBE01675E7F4FA7
:103410000E945D0CBE016D5E7F4F0E945D0CBE017F
:10342000635F7F4F0E945D0CBE01695F7F4F0E940A
:103430005D0CBE016F5F7F4F0E945D0CBC01CE0131
:10344000C1960E94CD0CCE0185960E94A80CCE019B
:103450008B960E94A80CCE014F960E94A80CCE011C
:1034600049960E94A80CCE0143960E94A80CCE015A
:103470000D960E94A80CCE0107960E94A80CCE01C2
:1034800001960E94A80C65E971E0CE0101960E94A8
:10349000D60C69E971E0CE0107960E94D60CBE01F8
:1034A0006F5F7F4FCE0107960E94B114CE01079641
:1034B0000E94A80CCE0101960E94A80CBB24B394D4
:1034C0008091B503811177C1209155033091560346
:1034D00080916103909162032817390749F5809123
:1034E00051039091520360915D0370915E030097C8
:1034F00019F061157105B9F46115710551F0232BAF
:1035000009F42BC1FB01808190E09195819591098F
:103510000CC0009709F421C1232B09F41EC1FC0142
:10352000808190E002C00E946F1F892B09F415C1B1
:1035300080910001811123C06DEB71E0CE010196F5
:103540000E94D60C61EC71E0CE0107960E94D60C69
:10355000BE016F5F7F4FCE0107960E94B114CE016E
:1035600007960E94A80CCE0101960E94A80C40E08C
:1035700050E069E571E081E593E00E94700C8EEA0D
:1035800092E00E94CD05181619060CF099CF69E556
:1035900071E0CE0101960E94D60C0E94831097FD27
:1035A0000CC08F83188641E050E0BE01695F7F4FF9
:1035B000CE0101960E941D0CF0CF80914B0390919B
:1035C0004C030097C9F069817A816115710591F00A
:1035D00040914D0350914E032D813E814217530778
:1035E00048F00E94781F8D819E81909350038093B4
:1035F0004F0318C00E940B1E89819A8190934C033F
:1036000080934B038B819C8190934E0380934D0359
:103610008D819E819093500380934F031A8219826B
:103620001C821B821E821D82CE0101960E94A80C64
:1036300061E573E0CE0101960E94CD0C6BE473E06E
:10364000CE0101960E945D0CBC0181E593E00E94D1
:10365000910CCE0101960E94A80CC0905103D0900D
:103660005203C114D10409F445C0009155031091CF
:10367000560301151105F1F176014701FFEF8F1A8D
:103680009F0AF7018081082E000C990B0E94081DEB
:10369000892B11F07401F1CF015011090C0D1D1D82
:1036A000F8018081082E000C990B0E94081D892BBF
:1036B00031F00E151F0518F001501109F1CFA801C6
:1036C0004F5F5F4F4E195F09509356034093550368
:1036D000CE14DF0420F4B701C6010E945F1FE09101
:1036E0005103F09152038091550390915603E80FD6
:1036F000F91F10826DEB71E0CE0101960E94D60C8D
:103700006AED71E0CE010D960E94D60C61E573E082
:10371000CE010D960E945D0CBC01CE0107960E9461
:10372000CD0CBE016F5F7F4FCE0107960E94B11492
:10373000CE0107960E94A80CCE010D960E94A80CFF
:10374000CE0101960E94A80C1092000160ED77E076
:1037500080E090E00E94B116B3CE62EE71E0CE013F
:1037600001960E94D60C66EE71E0CE010D960E9485
:10377000D60CBE016F5C7F4FCE010D960E945D0C92
:10378000BC01CE0107960E94CD0CBE016F5F7F4F3A
:10379000CE0107960E94B114CE0107960E94A80C94
:1037A000CE010D960E94A80CCE0101960E94A80C95
:1037B000B092B50385CECE01C1960E94A80C0E949E
:1037C0007406FDCFB9016052710977FF02C06F5FC7
:1037D0007F4F759567958357910997FD019600E294
:1037E00010E023E730E045ED55E0BCCC8091880344
:1037F0000E945C11809189030E945C118091880372
:10380000082E000C990BFC01E457FA4FE491F0E00C
:10381000EE0FFF1FE858FA4F259134913093900333
:1038200020938F03FC01E056FA4FE491E093950357
:1038300080918903082E000C990BFC01E457FA4F84
:10384000E491F0E0EE0FFF1FE858FA4FA591B49114
:10385000B0939203A0939103FC01E056FA4FE491D8
:10386000E09396038C91E82BEC9380917D039091EB
:103870007E03892B89F11FB7F8948091B4038111DD
:1038800024C0E6E9F5E08491EAEAF5E09491E82FB6
:10389000F0E0EE0FFF1FEE57FA4FA591B491EC91B7
:1038A000E92321F461E08AE00E943F168AE00E9449
:1038B0005C118CB580618CBD8CB580648CBD8DE055
:1038C0000E945C118BE00E945C118091B4038F5FB9
:1038D0008093B4031FBF8ACC809186030E945C1141
:1038E000809187030E945C1180918603082E000C52
:1038F000990BFC01E457FA4FE491F0E0EE0FFF1F43
:10390000E858FA4F2591349130938C0320938B0320
:10391000FC01E056FA4FE491E09393038091870312
:10392000082E000C990BFC01E457FA4FE491F0E0EB
:10393000EE0FFF1FE858FA4FA591B491B0938E0394
:10394000A0938D03FC01E056FA4FE491E0939403B9
:103950008C91E095E823EC9349CC80917D03909184
:103960007E03892B31F080919703909198030E94F8
:10397000AE0DE0919103F0919203908180919603B6
:1039800080958923808373CC64E188CC8034910551
:1039900009F0A2CC63E082EC95E00E94AE0F80912A
:1039A0008403813011F46FE919C06FEC17C08036C1
:1039B000910509F091CC8091690390916A03409739
:1039C00009F08ACC63E08FEB95E00E94AE0F809106
:1039D0008403813011F460E101C06FEA83E693E073
:1039E0000E944B0D79CC61EF82CCE0919103F09174
:1039F0009203908180919603892B808380917D032F
:103A000090917E03892B09F49BCC0E94430D98CCA6
:103A100091110C94111D803219F089508550C8F70E
:103A200008959927882708952F923F924F925F9289
:103A30006F927F928F929F92AF92BF92CF92DF92BE
:103A4000EF92FF920F931F93CF93DF93CDB7DEB723
:103A5000CA1BDB0B0FB6F894DEBF0FBECDBF0994B7
:103A60002A88398848885F846E847D848C849B840E
:103A7000AA84B984C884DF80EE80FD800C811B811C
:103A8000AA81B981CE0FD11D0FB6F894DEBF0FBE4B
:103A9000CDBFED010895A1E21A2EAA1BBB1BFD01AB
:103AA0000DC0AA1FBB1FEE1FFF1FA217B307E4071D
:103AB000F50720F0A21BB30BE40BF50B661F771F75
:103AC000881F991F1A9469F7609570958095909555
:103AD0009B01AC01BD01CF010895EE0FFF1F0590C2
:103AE000F491E02D09940F931F93CF93DF938230CD
:103AF000910510F482E090E0E091BD03F091BE03E7
:103B000020E030E0A0E0B0E0309719F14081518131
:103B10000281138148175907C8F08417950769F483
:103B2000109731F012960C93129713961C9327C09E
:103B30000093BD031093BE0322C02115310519F077
:103B40004217530718F49A01BD01EF01DF01F80194
:103B5000DBCF21153105F9F0281B390B2430310555
:103B600080F48A819B816115710521F0FB019383AB
:103B7000828304C09093BE038093BD03FE013296FE
:103B800044C0FE01E20FF31F81939193225031094B
:103B9000398328833AC02091BB033091BC03232B87
:103BA00041F420910301309104013093BC03209330
:103BB000BB0320910101309102012115310541F42F
:103BC0002DB73EB74091050150910601241B350BDE
:103BD000E091BB03F091BC03E217F307A0F42E1BA6
:103BE0003F0B2817390778F0AC014E5F5F4F241761
:103BF000350748F04E0F5F1F5093BC034093BB0343
:103C00008193919302C0E0E0F0E0CF01DF91CF918A
:103C10001F910F910895CF93DF93009709F481C00E
:103C2000FC01329713821282A091BD03B091BE03B2
:103C3000109781F420813181820F931F2091BB0363
:103C40003091BC032817390751F5F093BC03E0937A
:103C5000BB0367C0ED0120E030E0CE17DF0740F482
:103C60004A815B819E0141155105F1F0EA01F5CFD2
:103C7000D383C28340815181840F951FC817D90710
:103C800059F488819981840F951F029691838083CE
:103C90008A819B81938382832115310529F4F093D6
:103CA000BE03E093BD033DC0E901FB83EA83499174
:103CB0005991C40FD51FEC17FD0761F480819181E4
:103CC000840F951F0296E9019983888382819381ED
:103CD0009B838A83E0E0F0E012968D919C9113978C
:103CE000009719F0FD01DC01F7CF8D919C911197A0
:103CF0009D012E5F3F4F820F931F2091BB03309198
:103D0000BC032817390769F4309729F41092BE03D1
:103D10001092BD0302C013821282B093BC03A09321
:103D2000BB03DF91CF910895A0E0B0E0EAE9FEE1A6
:103D30000C94181DEC01009721F4CB010E94731D17
:103D4000B4C0FC01E60FF71F9C0122503109E217B5
:103D5000F30708F4A8C0D9010D911C91119706171B
:103D60001707B0F00530110508F49BC0C80104978F
:103D70008617970708F495C002501109061B170B08
:103D8000019311936D937C93CF010E940B1E89C008
:103D90005B01A01AB10A4C01800E911EA091BD03D7
:103DA000B091BE03612C712CE12CF12C109709F419
:103DB00046C08D919C911197A815B905B1F56C017C
:103DC00042E0C40ED11CCA14DB0478F14C018A18FD
:103DD0009B08640142E0C40ED11C1296BC9012975D
:103DE0001396AC91B5E0CB16D10440F0B282A38318
:103DF00091828082D9016D937C9309C00E5F1F4F21
:103E0000800F911FF90191838083EB2DFA2FE1142C
:103E1000F10431F0D7011396FC93EE93129741C051
:103E2000F093BE03E093BD033CC06816790608F426
:103E30003C017D0112960D90BC91A02DB7CF8091D1
:103E4000BB039091BC0388169906E1F466167706C9
:103E5000C8F48091010190910201009741F48DB75F
:103E60009EB74091050150910601841B950BE81700
:103E7000F907C8F4F093BC03E093BB03F901718325
:103E800060830FC0CB010E94731D7C01009759F025
:103E9000A801BE010E945F1FCE010E940B1EC70138
:103EA00004C0CE0102C080E090E0CDB7DEB7EEE006
:103EB0000C94341D81E090E0F8940C947F1FFB017A
:103EC000DC0102C001900D9241505040D8F7089596
:103ED000DC0101C06D9341505040E0F70895FB01B3
:103EE000DC018D91019080190110D9F3990B08958F
:103EF000FB01DC0101900D920020E1F7089515E02F
:103F0000C6E4D5E004C0FE010E946D1D2196C734B1
:083F1000D107C9F7F894FFCFB7
:103F1800010000BF03800000000000050672059C38
:103F2800055206CD05AB05BF05000000005F0A324B
:103F38000A8E0AF1082A0A160A070A000000004732
:103F48000B72058E0A71057E06F1081A09F2080E31
:103F58000902092109F1083C07B10DB80AFC0A3A1F
:103F6800081D08B00751070D0A0073757033727089
:103F780034737377307264005435757A7A72687A5C
:103F880034746632336C7363636265733131313113
:103F98000054303320486172642E506173732E20B0
:103FA8002020002500202030004920686176652007
:103FB800636F6E666964656E7469616C206D6573A4
:103FC800736167652E2050617373203F0020353080
:103FD8000057726F6E672070617373776F72640A2F
:103FE80054727920616761696E0050617373203A79
:103FF80020003130300057656C6C20646F6E65218D
:0C400800204D657373616765203A20004D
:107800000C94343C0C94513C0C94513C0C94513CE1
:107810000C94513C0C94513C0C94513C0C94513CB4
:107820000C94513C0C94513C0C94513C0C94513CA4
:107830000C94513C0C94513C0C94513C0C94513C94
:107840000C94513C0C94513C0C94513C0C94513C84
:107850000C94513C0C94513C0C94513C0C94513C74
:107860000C94513C0C94513C11241FBECFEFD8E036
:10787000DEBFCDBF11E0A0E0B1E0EAE8FFE702C063
:1078800005900D92A230B107D9F712E0A2E0B1E065
:1078900001C01D92AD30B107E1F70E942D3D0C945F
:1078A000C33F0C94003C982F95959595959595958B
:1078B000905D8F708A307CF0282F295A8091C0000B
:1078C00085FFFCCF9093C6008091C00085FFFCCF60
:1078D0002093C6000895282F205DF0CF982F809127
:1078E000C00085FFFCCF9093C6000895EF92FF92F1
:1078F0000F931F93EE24FF2487018091C00087FD22
:1079000017C00894E11CF11C011D111D81E2E8164D
:1079100081EAF80687E0080780E0180770F3E09135
:107920000401F091050109958091C00087FFE9CF1E
:107930008091C6001F910F91FF90EF9008950E94D3
:10794000763C982F8091C00085FFFCCF9093C600B5
:1079500091362CF490330CF09053892F089597555D
:10796000892F08951F930E949F3C182F0E949F3CCF
:107970001295107F810F1F9108951F93182F882350
:1079800021F00E94763C1150E1F71F9108951F935A
:10799000182F0E94763C803249F0809103018F5F5E
:1079A000809303018530C1F01F9108958091C0003C
:1079B00085FFFCCF84E18093C6008091C00085FFE5
:1079C000FCCF1093C6008091C00085FFFCCF80E102
:1079D0008093C6001F910895E0910401F091050184
:1079E00009951F9108950E94763C803241F0809164
:1079F00003018F5F80930301853081F008958091AA
:107A0000C00085FFFCCF84E18093C6008091C00058
:107A100085FFFCCF80E18093C6000895E0910401CA
:107A2000F09105010995089548EC50E08823A1F0F4
:107A30002D9A28EE33E0FA013197F1F721503040CA
:107A4000D1F72D9828EE33E0FA013197F1F7215064
:107A50003040D1F7815061F708953F924F925F9285
:107A60006F927F928F929F92AF92BF92CF92DF924E
:107A7000EF92FF920F931F93CF93DF93000082E06A
:107A80008093C00080E18093C4001092C50088E11B
:107A90008093C10086E08093C2005098589A259A3E
:107AA00081E00E94143D24E1F22E9EE1E92E85E959
:107AB000D82E0FE0C02E10E1B12EAA24A394B1E479
:107AC0009B2EA6E58A2EF2E57F2EE0E26E2E79E46B
:107AD000572E63E5462E50E5352E0E94763C8033C6
:107AE000B1F18133B9F1803409F46FC0813409F404
:107AF00076C0823409F485C0853409F488C08035A5
:107B000031F1823521F1813511F1853509F485C0D6
:107B1000863509F48DC0843609F496C0843709F49B
:107B200003C1853709F472C1863709F466C08091B4
:107B300003018F5F80930301853079F6E0910401A2
:107B4000F091050109950E94763C803351F60E9420
:107B5000F33CC3CF0E94763C803249F78091C0004D
:107B600085FFFCCFF092C6008091C00085FFFCCF5E
:107B70009092C6008091C00085FFFCCF8092C60025
:107B80008091C00085FFFCCF7092C6008091C0003C
:107B900085FFFCCF6092C6008091C00085FFFCCFBE
:107BA0005092C6008091C00085FFFCCF4092C60075
:107BB0008091C00085FFFCCF3092C6008091C0004C
:107BC00085FFFCCFB092C60088CF0E94763C8638F5
:107BD00008F4BDCF0E94763C0E94F33C7ECF0E9409
:107BE000763C803809F49CC0813809F40BC1823896
:107BF00009F430C1883909F48FC080E00E94C73C85
:107C00006CCF84E10E94BD3C0E94F33C66CF85E0CE
:107C10000E94BD3C0E94F33C60CF0E94763C809362
:107C200006010E94763C809307010E94F33C55CFE9
:107C30000E94763C803309F411C183E00E94BD3C70
:107C400080E00E94C73C49CF0E94763C80930902A5
:107C50000E94763C8093080280910C028E7F809374
:107C60000C020E94763C853409F409C18091080217
:107C700090910902892B89F000E010E00E94763C87
:107C8000F801E85FFE4F80830F5F1F4F809108026D
:107C9000909109020817190788F30E94763C8032F8
:107CA00009F045CF80910C0280FFF5C0609106017C
:107CB00070910701660F771F7093070160930601AB
:107CC000A0910802B09109021097C9F0E8E0F1E034
:107CD0009B01AD014E0F5F1FF999FECF32BD21BD53
:107CE000819180BDFA9AF99A2F5F3F4FE417F5070B
:107CF00099F76A0F7B1F70930701609306018091CB
:107D0000C00085FFFCCFF092C6008091C00085FFC7
:107D1000FCCFB092C600E1CE83E00E94C73CDDCE2E
:107D200082E00E94C73CD9CE0E94763C8093090233
:107D30000E94763C80930802809106019091070191
:107D4000880F991F90930701809306010E94763C4B
:107D5000853409F49AC080910C028E7F80930C02C6
:107D60000E94763C803209F0B8CE8091C00085FF39
:107D7000FCCFF092C600A0910802B09109021097C2
:107D8000C1F180910C02082F0170182F1695117007
:107D9000E0910601F0910701AF014F5F5F4FBA011B
:107DA00020E030E00023B1F4112339F49491809164
:107DB000C00085FFFCCF9093C6002F5F3F4FCB01E3
:107DC0000196FA012A173B0780F4BC014F5F5F4F11
:107DD000002351F3F999FECFF2BDE1BDF89A90B5B9
:107DE0008091C00085FFFCCFE6CF709307016093C0
:107DF00006018091C00085FDE5CE8091C00085FF21
:107E0000F8CFE0CE81E00E94C73C67CE0E94763C6E
:107E1000803209F08CCE8091C00085FFFCCFF092BB
:107E2000C6008091C00085FFFCCFE092C600809123
:107E3000C00085FFFCCFD092C6008091C00085FFB6
:107E4000FCCFC092C6008091C00085FFFCCFB092ED
:107E5000C60043CE80E10E94C73C3FCE0E94763CE4
:107E60000E94763C182F0E94763C112309F483C0AF
:107E7000113009F484C08FE00E94C73C2ECE80915F
:107E80000C02816080930C02F1CE80910C02816023
:107E900080930C0265CF809107018823880F880B9F
:107EA0008A2180930B028091060190910701880F2F
:107EB000991F90930701809306018091080280FF2B
:107EC00009C08091080290910902019690930902DD
:107ED00080930802F894F999FECF1127E0910601EA
:107EE000F0910701C8E0D1E0809108029091090269
:107EF000103091F40091570001700130D9F303E084
:107F000000935700E8950091570001700130D9F3B4
:107F100001E100935700E8950990199000915700EE
:107F200001700130D9F301E000935700E8951395F3
:107F3000103498F011270091570001700130D9F3E7
:107F400005E000935700E89500915700017001305B
:107F5000D9F301E100935700E8953296029709F0B2
:107F6000C7CF103011F00296E5CF11248091C000E8
:107F700085FFC5CEC8CE8EE10E94C73CAECD85E957
:0A7F80000E94C73CAACDF894FFCF81
:027F8A00800075
:040000030000780081
:00000001FF
