:100000000C9447050C946F050C946F050C946F05C8
:100010000C946F050C946F050C946F050C946F0590
:100020000C946F050C946F050C946F050C946F0580
:100030000C946F050C946F050C946F050C946F0570
:100040000C94AE160C946F050C94D50C0C94AF0C5C
:100050000C946F050C946F050C946F050C946F0550
:100060000C94CF0D0C946F05000103070F1F3F7F09
:100070000080C0E0F0F8FCFE00000000003E5B4F96
:100080005B3E3E6B4F6B3E1C3E7C3E1C183C7E3CF8
:10009000181C577D571C1C5E7F5E1C00183C180006
:1000A000FFE7C3E7FF0018241800FFE7DBE7FF3096
:1000B000483A060E2629792926407F050507407F04
:1000C00005253F5A3CE73C5A7F3E1C1C08081C1C77
:1000D0003E7F14227F22145F5F005F5F06097F016D
:1000E0007F006689956A606060606094A2FFA29458
:1000F00008047E040810207E201008082A1C080826
:100100001C2A08081E101010100C1E0C1E0C303873
:100110003E3830060E3E0E06000000000000005F74
:1001200000000007000700147F147F14242A7F2A90
:100130001223130864623649562050000807030052
:10014000001C2241000041221C002A1C7F1C2A089E
:10015000083E080800807030000808080808000001
:1001600060600020100804023E5149453E00427F75
:10017000400072494949462141494D331814127FC4
:100180001027454545393C4A494931412111090764
:100190003649494936464949291E000014000000E5
:1001A00040340000000814224114141414140041B7
:1001B00022140802015909063E415D594E7C121174
:1001C000127C7F494949363E414141227F414141AC
:1001D0003E7F494949417F090909013E4141517327
:1001E0007F0808087F00417F41002040413F017F98
:1001F000081422417F404040407F021C027F7F0460
:1002000008107F3E4141413E7F090909063E4151A8
:10021000215E7F09192946264949493203017F0198
:10022000033F4040403F1F2040201F3F4038403F99
:10023000631408146303047804036159494D4300AF
:100240007F4141410204081020004141417F0402E6
:10025000010204404040404000030708002054547D
:1002600078407F284444383844444428384444285B
:100270007F385454541800087E090218A4A49C78AE
:100280007F0804047800447D40002040403D007F0A
:100290001028440000417F40007C047804787C08EA
:1002A0000404783844444438FC18242418182424BE
:1002B00018FC7C08040408485454542404043F44A3
:1002C000243C4040207C1C2040201C3C4030403CD2
:1002D00044281028444C9090907C4464544C440032
:1002E0000836410000007700000041360800020196
:1002F0000204023C2623263C1EA1A161123A404082
:10030000207A3854545559215555794122545478FE
:1003100042215554784020545579400C1E52721297
:100320003955555559395454545939555454580020
:1003300000457C410002457D420001457C407D1224
:1003400011127DF0282528F07C5455450020545486
:100350007C547C0A097F4932494949323A44444431
:100360003A324A4848303A4141217A3A424020786C
:10037000009DA0A07D3D4242423D3D4040403D3C6D
:1003800024FF2424487E4943662B2FFC2F2BFF0992
:1003900029F620C0887E0903205454794100004486
:1003A0007D413048484A32384040227A007A0A0A71
:1003B000727D0D19317D2629292F282629292926E4
:1003C00030484D4020380808080808080808382F29
:1003D00010C8ACBA2F102834FA00007B00000814B3
:1003E0002A142222142A14085500550055AA55AA89
:1003F00055AAFF55FF55FF000000FF00101010FF29
:1004000000141414FF001010FF00FF1010F010F083
:10041000141414FC001414F700FF0000FF00FF1474
:1004200014F404FC141417101F10101F101F1414C0
:10043000141F00101010F0000000001F101010100A
:100440001F10101010F010000000FF1010101010FE
:1004500010101010FF10000000FF140000FF00FF3C
:1004600000001F10170000FC04F4141417101714D8
:1004700014F404F40000FF00F714141414141414FA
:10048000F700F7141414171410101F101F1414146D
:10049000F4141010F010F000001F101F0000001FD7
:1004A00014000000FC140000F010F01010FF10FF0A
:1004B000141414FF141010101F00000000F010FF9F
:1004C000FFFFFFFFF0F0F0F0F0FFFFFF0000000083
:1004D00000FFFF0F0F0F0F0F3844443844FC4A4A07
:1004E0004A347E02020606027E027E0263554941BC
:1004F000633844443C04407E201E2006027E0202F3
:1005000099A5E7A5991C2A492A1C4C7201724C3006
:100510004A4D4D303048784830BC625A463D3E49DD
:100520004949007E0101017E2A2A2A2A2A44445F81
:10053000444440514A444040444A51400000FF0175
:1005400003E080FF000008086B6B08361236243683
:10055000060F090F060000181800000010100030E8
:1005600040FF0101001F01011E00191D1712003C70
:100570003C3C3C000000000000000000250028007A
:100580002B0000000000240027002A0004040404BB
:10059000040404040202020202020303030303032D
:1005A000010204081020408001020408102001020A
:1005B000040810202200FF2100DB40A4A62EAFDAA1
:1005C0000281DA1281DA02818F2000A1C8D30040B3
:1005D0008DAED580A8000060000000000000000083
:1005E000000000000000E00000000000000000002B
:1005F0000000000001E0000000000000000000001A
:1006000000000001F00000000000000000000000F9
:10061000000003F0000000000000000000000000E7
:100620000007F000000000000000000000000000D3
:1006300007F8000000000000000000000000000FAC
:10064000F800000003C0007E000001E0007F0FF80A
:1006500000000003C000FE000001E000FFEFF80012
:10066000000003C000FE000001E000FFFFF80000F2
:100670000003C000F00000000F007FFE7FC00000FC
:1006800003C000F00000000F003FFE7FF83FF1FBC9
:10069000CFFCFEF3BC3DEFE01FFE7FFF7FFBFFDFE3
:1006A000FEFEFFBC3DEFE01FC6FFFF7FFBFFDFFE4E
:1006B000FEFFBC3DEFE00FE3C7FE787BC3DE1EF01C
:1006C000FFBC3DEF0007FF87FC787BC3DE1EF0F820
:1006D0003C3DEF0001FFFFF0007BC3C01EF0F03C8B
:1006E0003DEF0001F37FE03FFBC3CFFEF0F03C3D68
:1006F000EF0003E33F807FFBC3DFFEF0F03C3DEF04
:100700000007E73C00787BC3DE1EF0F03C3DEF00C5
:1007100007FFBE00787BC3DE1EF0F03C3DEF000714
:10072000FFFE00787BC3DE1EF0F03C3DEF000FFFC4
:10073000FE007FFBFFDFFEF0F03FFDEFE00FFFFF6D
:10074000007FFBFFDFFEF0F03FFDEFE00FF9FF0061
:100750003E79F9CF9EF0F01F3DE7E01FF1FF00006A
:10076000000000000000000000001F80FF007FFF6D
:10077000FFFFFFFFFFFFFFFFE01C007F007FFFFF89
:10078000FFFEB46D888D18E000001F007FFFFFFFA3
:10079000FE95AD7DB577E000000F007FFFFFFFFE07
:1007A000A5AD9D8D19E0000006007FFFFFFFFEB59F
:1007B000ADEDB57EE000000000000180000000000B
:1007C00000000000000380000000000000000000A6
:1007D00007C000000000000000000007C00000008B
:1007E0000000000000000FC000000000000000003A
:1007F000001FE00000000000000000001FE00000FB
:10080000000000000000003FE000000000000000C9
:1008100000003FF00000000000000000007FF0003A
:100820000000000000001FF87FF000000000000042
:10083000003FFE7FF0000000000000003FFF7FF05F
:10084000000000000000001FFFFBE00000000000AF
:1008500000000FFFF9FFC00000000000000FFFF9CB
:10086000FFF800000000000007FFF1FFFF0000009C
:1008700000000003FC73FFFF80000000000001FE89
:100880003FFFFF80000000000000FF1E0FFF000080
:1008900000000000007FFE1FFC00000000000000C0
:1008A0003FFFFFF8000000000000000FDFFFE00046
:1008B0000000000000001F19FFC000000000000041
:1008C000003F3CFF00000000000000007E7CF800BC
:1008D000000000000000007FFE7C0000000000001F
:1008E0000000FFFFFC0000000000000000FFFFFE12
:1008F0000000000000000000FFFFFE0000000000FC
:10090000000001FFEFFE0000000000000001FFCF2B
:10091000FE0000000000000003FF07FE00000000D2
:1009200000000003FC07FE0000000000000003F0D0
:1009300003FE00000000000000018000FE00000037
:10094000000000000000007E000000000000000029
:1009500000003E000000000000000000000C00004D
:1009600000000000078000FC000003C0000000073A
:100970008001FC000003C0000000078001FC0000B3
:1009800003C0000000078001E00000001E0000001E
:10099000078001E00000001E007FE3F79FF9FDE7FC
:1009A000787BDFC0FFF7FFBFFDFDFF787BDFC0FF77
:1009B000F7FFBFFDFDFF787BDFC0F0F787BC3DE1AF
:1009C000FF787BDE00F0F787BC3DE1F0787BDE004E
:1009D00000F787803DE1E0787BDE007FF7879FFDB1
:1009E000E1E0787BDE00FFF787BFFDE1E0787BDEAA
:1009F00000F0F787BC3DE1E0787BDE00F0F787BCD4
:100A00003DE1E0787BDE00F0F787BC3DE1E0787BFC
:100A1000DE00FFF7FFBFFDE1E07FFBDFC0FFF7FF78
:100A2000BFFDE1E07FFBDFC07CF3F39F3DE1E03EF3
:100A30007BCFC00000000000000000000000FFFFAE
:100A4000FFFFFFFFFFFFFFFFC0FFFFFFFFFD68DBB2
:100A5000111A31C0FFFFFFFFFD2B5AFB6AEFC0FFE9
:100A6000FFFFFFFD4B5B3B1A33C0FFFFFFFFFD6B3A
:100A70005BDB6AFDC0000000080002010000030407
:100A8000070000000000000000001317F8161124F2
:100A90001FBECFEFD8E0DEBFCDBF23E0A2E0B2E0C3
:100AA00001C01D92AE3BB207E1F712E0A0E0B1E059
:100AB000E2E7FDE302C005900D92A230B107D9F73D
:100AC00015E0C6E4D5E004C02197FE010E949A1CFF
:100AD000C534D107C9F70E9496170C94AC1E0C942C
:100AE00000000895CF92DF92EF92FF920F931F9331
:100AF000CF93DF936C017A018B01C0E0D0E0CE157B
:100B0000DF0581F0D8016D918D01D601ED91FC9149
:100B10000190F081E02DC6010995892B11F02196F5
:100B2000EECF7E01C701DF91CF911F910F91FF9012
:100B3000EF90DF90CF900895FC01538D448D252FC9
:100B400030E0842F90E0821B930B541710F0CF9667
:100B5000089501970895FC01918D828D981761F099
:100B6000828DDF01A80FB11D5D968C91928D9F5FE4
:100B70009F73928F90E008958FEF9FEF0895FC018F
:100B8000918D828D981731F0828DE80FF11D858D42
:100B900090E008958FEF9FEF0895FC01918D228DD5
:100BA000892F90E0805C9F4F821B91098F7399275A
:100BB000089584EB92E00E94CD0521E0892B09F491
:100BC00020E0822F0895FC01848DDF01A80FB11D64
:100BD000A35ABF4F2C91848D90E001968F73992773
:100BE000848FA689B7892C93A089B1898C91837051
:100BF00080648C93938D848D981306C00288F3894A
:100C0000E02D80818F7D80830895EF92FF920F9376
:100C10001F93CF93DF93EC0181E0888F9B8D8C8DA8
:100C2000981305C0E889F989808185FD26C0F62ED4
:100C30000B8D10E00F5F1F4F0F731127E02E8C8D6F
:100C4000E8120CC00FB607FCFACFE889F989808159
:100C500085FFF5CFCE010E94E305F1CF8B8DFE011C
:100C6000E80FF11DE35AFF4FF0829FB7F8940B8F06
:100C7000EA89FB89808180620AC09FB7F894EE8977
:100C8000FF896083E889F98980818370806480832B
:100C90009FBF81E090E0DF91CF911F910F91FF9076
:100CA000EF900895CF93DF93EC01888D8823C9F0EE
:100CB000EA89FB89808185FD05C0A889B9898C9165
:100CC00086FD0FC00FB607FCF5CF808185FFF2CF00
:100CD000A889B9898C9185FFEDCFCE010E94E305EB
:100CE000E7CFDF91CF91089580E090E0892B29F044
:100CF0000E94D90581110C9400000895FC0177FD34
:100D0000B9C080859185681779070CF0B3C057FD8D
:100D1000B1C082859385481759070CF008958589DD
:100D2000823079F484819581DC01A61BB70BBD016B
:100D30006150710986819781DC01A41BB50BAD015F
:100D40000EC0833009F084C064277527CA01862746
:100D500097276827792746815781481B590B4150AF
:100D600051092130310531F048F12230310509F4C3
:100D70004AC00895CA0157FD07969C01A3E0359526
:100D80002795AA95E1F7A481B5812A9FC0012B9FE1
:100D9000900D3A9F900D1124680F791F068CF78DE6
:100DA000E02DE60FF71F4770552781E090E001C066
:100DB000880F4A95EAF79081892B48C0CA0157FDF0
:100DC00007969C0193E0359527959A95E1F7A481C4
:100DD000B5812A9FC0012B9F900D3A9F900D112441
:100DE000680F791F068CF78DE02DE60FF71F47700F
:100DF000552781E090E001C0880F4A95EAF7809579
:100E00009081892323C0CA0157FD07969C0183E086
:100E1000359527958A95E1F7A481B5812A9FC00170
:100E20002B9F900D3A9F900D1124680F791F068C0F
:100E3000F78DE02DE60FF71F4770552781E090E012
:100E400001C0880F4A95EAF7908189278083089529
:100E5000813009F086CF64277527462757276427F6
:100E6000752784819581DC01A61BB70BBD016150FC
:100E7000710977CF08950895FC016370658B8481B3
:100E8000958126813781613039F0633029F091876F
:100E900080873387228708953187208793878287C9
:100EA00008956F927F928F929F92AF92BF92CF924E
:100EB000DF92EF92FF920F931F93CF93DF93EC019A
:100EC0004B015A0169013801E881F9810284F385F7
:100ED000E02D0995E881F9810288F389E02D8701E9
:100EE0009601A501B401CE010995A501460D571D36
:100EF00041505109E881F9810288F389E02D96017A
:100F0000B401CE010995E881F9810088F189E02DCD
:100F10009301A501B401CE010995C80CD91CB601F5
:100F200061507109E881F9810088F189E02D930110
:100F3000A501CE010995E881F9810688F789E02DA0
:100F4000CE01DF91CF911F910F91FF90EF90DF9035
:100F5000CF90BF90AF909F908F907F906F900994AB
:100F60008F929F92AF92BF92CF92DF92EF92FF92B9
:100F70000F931F93CF93DF934C016B015A01E9014B
:100F8000DC01ED91FC916217730781F404171507DA
:100F900024F48B2D5801042F182F0A191B099801CE
:100FA0002F5F3F4F048CF58DE02D12C04017510785
:100FB00009F52617370724F48D2D6901C62FD82F80
:100FC0009E012C193D092F5F3F4F068CF78DE02DB8
:100FD0008701A501B601C4010995DF91CF911F9149
:100FE0000F91FF90EF90DF90CF90BF90AF909F90C8
:100FF0008F9008950284F385E02D0995D401ED9139
:10100000FC910488F589E02D9E01A501B601C4017B
:101010000995D401ED91FC910688F789E02DC40172
:10102000DF91CF911F910F91FF90EF90DF90CF90C4
:10103000BF90AF909F908F900994EF92FF920F9383
:101040001F93DC011A960D911C911B9718962D91F8
:101050003C911997ED91FC9100A0F1A1E02D7B014D
:1010600040E050E060E070E009951F910F91FF9023
:10107000EF9008954F925F926F927F928F929F921E
:10108000AF92BF92CF92DF92EF92FF920F931F9396
:10109000CF93DF936C012B015A0139014801DC0128
:1010A000ED91FC910284F385E02D0995E201640C39
:1010B000751CD601ED91FC91C615D7055CF400882E
:1010C000F189E02D87019401A501BE01C6010995B2
:1010D0002196EFCF0688F789E02DC601DF91CF91E9
:1010E0001F910F91FF90EF90DF90CF90BF90AF9046
:1010F0009F908F907F906F905F904F9009948F9208
:101100009F92AF92BF92CF92DF92EF92FF920F9396
:101110001F93CF93DF93EC015B014A016901E881E2
:10112000F9810284F385E02D099595012C0D3D1D73
:1011300021503109E881F9810488F589E02D780191
:101140008401A401B501CE010995E881F9810688E1
:10115000F789E02DCE01DF91CF911F910F91FF9084
:10116000EF90DF90CF90BF90AF909F908F900994B9
:101170008F929F92AF92BF92CF92DF92EF92FF92A7
:101180000F931F93CF93DF93EC015B014A01690139
:101190007801E881F9810284F385E02D0995C80C76
:1011A000D91C860101501109E881F9810488F5896B
:1011B000E02D9501A401B501CE010995E881F981E1
:1011C0000688F789E02DCE01DF91CF911F910F9115
:1011D000FF90EF90DF90CF90BF90AF909F908F9057
:1011E00009940895EF92FF920F931F93DC01ED9104
:1011F000FC9100A0F1A1E02D09951F910F91FF90A6
:10120000EF9008950F931F93DC01ED91FC91068CF4
:10121000F78DE02D09951F910F9108950F931F935E
:10122000DC01ED91FC91048CF58DE02D09951F9169
:101230000F910895DC01ED91FC910084F185E02D82
:1012400009942F923F924F925F926F927F928F926A
:101250009F92AF92BF92CF92DF92EF92FF920F9345
:101260001F93CF93DF9300D000D000D0CDB7DEB76F
:101270002C017E836D836A015901C801FC82EB82D7
:101280004801841A950A97FE03C0919481949108AD
:1012900035012D813E81621A730A77FE03C0719475
:1012A00061947108681479045CF43A2D2B2D5C016B
:1012B000832F922F3D812E81DE82CD82C32ED22EAE
:1012C000AD81BE81AA16BB065CF43C2D2D2D6C01B0
:1012D000832F922F3D812E81BE82AD82A32EB22E0E
:1012E00085012D813E81021B130B1C012C183D082A
:1012F00037FE03C0319421943108780117FF03C0F1
:101300003FEFE31AF30AF594E794C816D9062CF0D8
:101310008FEF9FEF9A83898304C0A1E0B0E0BA8386
:10132000A9832D813E81A216B30624F1D201ED914D
:10133000FC910484F585E02D2B813C8168147904AF
:1013400024F44D815E81B60103C0A6016D817E81CA
:10135000C2010995E218F308F7FE06C029813A8117
:10136000C20ED31EE00EF11E8D819E8101969E83DA
:101370008D83D7CF26960FB6F894DEBF0FBECDBFB4
:10138000DF91CF911F910F91FF90EF90DF90CF9061
:10139000BF90AF909F908F907F906F905F904F9095
:1013A0003F902F90089585ED8093BC008091BC0004
:1013B00084FDFCCF10928F02089540914202262FA7
:1013C00030E0240F311D21323105DCF420918F02F1
:1013D0002430C9F4FC0180E090E0861758F4309185
:1013E00042022191DC01AE5DBD4FA30FB11D2C93D4
:1013F0000196F3CF80914202680F6093420280E031
:10140000089581E0089582E0089508950895E09197
:10141000B2038091B103E81730F4F0E0EE5FFD4FC6
:10142000808190E008958FEF9FEF08959091B2032F
:101430008091B103981750F4E92FF0E0EE5FFD4F73
:10144000208130E09F5F9093B20302C02FEF3FEF07
:10145000C90108958091B10390E02091B203821BED
:1014600091090895CF92DF92EF92FF920F931F930D
:10147000CF93DF937C01CB018A012091900222233C
:1014800089F0EB016B01C40ED51ECC15DD0569F0AA
:101490006991D701ED91FC910190F081E02DC70198
:1014A0000995F3CF642F0E94DD09C801DF91CF9128
:1014B0001F910F91FF90EF90DF90CF900895CF9301
:1014C000DF931F92CDB7DEB769832091900222236C
:1014D000D1F02091B302203240F021E030E0FC0155
:1014E0003383228380E090E015C080919102E82F41
:1014F000F0E0EE56FD4F998190838F5F80939102CB
:101500008093B30205C061E0CE0101960E94DD091F
:1015100081E090E00F90DF91CF91089580E090E01E
:1015200008950F931F93CF93DF93EC0188819981E6
:10153000009729F02A813B812617370788F48B0111
:101540006F5F7F4F0E94C11D009761F09983888370
:101550001B830A832C813D81232B11F4FC01108213
:1015600081E001C080E0DF91CF911F910F9108953C
:101570000F931F93CF93DF93DC015596EC91559712
:10158000E23071F0E330E9F0E13079F5FB011496D7
:101590000D90BC91A02DA41BB50BA21BB30B18C0C2
:1015A000EC01EC81FD81E61BF70BBF016150710975
:1015B000EE81FF81DF01A41BB50BAD01421B530B74
:1015C00014C0DA01EC01EE81FF81E61BF70B3197C5
:1015D000F7FD0DC0EC014E815F81E417F5073CF487
:1015E000AF01BD010E94561302C00E94BD13DF91DE
:1015F000CF911F910F9108950F931F93DC01559682
:10160000EC915597E23061F0E33009F1E13081F57A
:101610001496ED91FC911597E41BF50B319723C0BF
:10162000DC011496ED91FC911597DF01A61BB70B19
:10163000BD01DC011696ED91FC911797DF01A41B0B
:10164000B50BAD0141505109621B730B11C0FA017A
:10165000DC0116964D915C911797DA01A61BB70B2A
:10166000BD01621B730BAB01BF010E94BD130CC017
:1016700057FD0AC0DC011696ED91FC9117974E17A5
:101680005F0714F40E9456131F910F910895AF92B3
:10169000BF92CF92EF92FF920F931F93CF93DF935E
:1016A000EC01262F888D998D009709F040C06A3093
:1016B00059F41D861C862C898E859F8538E0239FD2
:1016C000800D911D112441C06D3009F4AAC08E898E
:1016D0008823C1F03C898C859D8546E0349F800D30
:1016E000911D112448855985481759075CF41D86BA
:1016F0001C868E859F8548E0349F800D911D1124A6
:101700009F878E87EA88FB88088919894E855F85BF
:101710006C857D85CC88CE010E943C112C898C85FE
:101720009D8536E0239F800D911D112442C06A30B3
:1017300079F41D861C862C89FC013696E4918E85F1
:101740009F852E9F800D911D11249F878E8769C0D4
:101750006D3009F466C0FC0134963491631708F4C7
:1017600060C03196E491E61708F45BC0FC01329644
:1017700065917491422F50E0431B510937E0349F2B
:101780005001359FB00C1124A60EB71EF5013296FC
:1017900034913196E491332311F0E1110DC0F5013C
:1017A0003496E4912C898C859D85E29F800D911D56
:1017B00011249D878C8735C0F501359644915E894B
:1017C000552311F16C89E32FF0E0E40FF11D47FD83
:1017D000FA956E9FD0016F9FB00D11244C855D85E9
:1017E0004A0F5B1FE885F985E417F5076CF41D8641
:1017F0001C86FC013696E4918E859F856E9F800D38
:10180000911D11249F878E87EA88FB880889198992
:101810004E855F856C857D85CC88CE010E943C110C
:10182000BECF81E090E0DF91CF911F910F91FF90AB
:10183000EF90CF90BF90AF900895EF92FF920F93EB
:101840001F93CF93DF936115710511F480E01CC0E5
:1018500041155105C1F07B01EC018C819D818A010C
:10186000080F191FB801CE010E94910A882371F355
:10187000288139818C819D81B701820F931F0E943D
:10188000A51E1D830C8381E0DF91CF911F910F91E5
:10189000FF90EF900895CF93DF93EC0188819981B9
:1018A000009711F00E94381D198218821D821C8237
:1018B0001B821A82DF91CF910895EF92FF920F93CE
:1018C0001F93CF93DF93EC017B018A01BA010E9441
:1018D000910A811104C0CE010E944B0C07C01D83E8
:1018E0000C83B701888199810E94A51ECE01DF91EA
:1018F000CF911F910F91FF90EF900895CF93DF93B9
:10190000EC01FB018617970761F060817181611519
:10191000710529F0448155810E945D0C02C00E942E
:101920004B0CCE01DF91CF910895FC018081918114
:101930000C94381DFC0111821082138212821582D0
:1019400014826115710551F0FB0101900020E9F747
:101950003197AF01461B570B0C945D0C08951F92F5
:101960000F920FB60F9211242F933F934F935F93D3
:101970006F937F938F939F93AF93BF93EF93FF9357
:1019800084EB92E00E94E305FF91EF91BF91AF914C
:101990009F918F917F916F915F914F913F912F9187
:1019A0000F900FBE0F901F9018951F920F920FB6B9
:1019B0000F9211242F938F939F93EF93FF93E091B6
:1019C000C402F091C5028081E091CA02F091CB027D
:1019D00082FD12C090818091CD028F5F8F73209124
:1019E000CE02821751F0E091CD02F0E0EC54FD4FB1
:1019F000958F8093CD0201C08081FF91EF919F91DF
:101A00008F912F910F900FBE0F901F9018950895F2
:101A10008EBD00000DB407FEFDCF8EB508951F9357
:101A2000CF93DF93FC01848D958D009729F1162FBC
:101A3000EF0120A131E0309390022093B202109286
:101A400091021092B302DC01ED91FC910190F081C2
:101A5000E02D60E009958C8D9D8DDC01ED91FC9170
:101A60000190F081E02D612F09958C8D9D8DDF9186
:101A7000CF911F910C94160FA4A5B5A59C9182A996
:101A8000809589238C93828D938D892B31F0862FBD
:101A9000DF91CF911F910C94080D28E030E080E891
:101AA000A0A5B1A590A9462F482319F04C91942BDD
:101AB00003C04C91909594239C93A2A5B3A54C91FF
:101AC00091A9942B9C93A2A5B3A54C9191A9909513
:101AD00094239C9386952150310911F7DF91CF9182
:101AE0001F9108958CBD9DBD08951F93CF93DF93E3
:101AF000EC01162F8C8D9D8D892BB1F02EA93FA95D
:101B000048AD59AD60E074E284EF90E00E94781C2B
:101B1000DA01C9014097A109B109B695A795979532
:101B200087958093B8000FC08A8D9B8D892B21F0FB
:101B30008CA99DA90E94720DEEA5FFA590818BA98D
:101B4000809589238083111102C066EA01C067EA8B
:101B5000CE010E940F0D8C8D9D8D892BB1F02AAD89
:101B60003BAD4CAD5DAD60E074E284EF90E00E946F
:101B7000781CDA01C9014097A109B109B695A7956A
:101B8000979587958093B80006C0EEA5FFA5908134
:101B90008BA9892B8083DF91CF911F9108951F928C
:101BA0000F920FB60F9211242F933F934F935F9391
:101BB0006F937F938F939F93AF93BF93EF93FF9315
:101BC0008091B900887F803609F49CC068F588321E
:101BD00009F45BC090F4803109F454C038F48823D0
:101BE00009F4F6C0883009F44DC0F6C0883109F414
:101BF0004CC0803209F45DC0EFC0803409F468C085
:101C000048F4803309F455C0883309F0E5C0809367
:101C10008D02D8C0803509F44FC0883509F45DC005
:101C2000883409F0D9C0D6C0883909F4C7C0A8F4EF
:101C3000883709F467C038F4883609F463C0803700
:101C400009F460C0C9C0883809F4B8C0803909F403
:101C50005FC0803809F0C0C05BC0803B09F486C01B
:101C600038F4803A09F466C0883A09F47FC0B4C0F9
:101C7000803C09F4A7C0883C09F4A4C0883B09F45F
:101C80008AC0AAC080916A0210C090918C02809193
:101C90008B02981770F5E0918C0281E08E0F809393
:101CA0008C02F0E0E559FD4F80818093BB0085EC0C
:101CB00086C080938D028EC0E0918C0281E08E0FF1
:101CC00080938C028091BB00F0E0E559FD4F80834A
:101CD00090918C0280918B026EC0E0918C0281E029
:101CE0008E0F80938C028091BB00F0E0E559FD4F90
:101CF000808380918E0281116DC081E080936902A2
:101D000084EA61C083E080938F0210926402CFCF97
:101D100080916402803208F051C0E091640281E059
:101D20008E0F809364028091BB00F0E0EC5BFD4F6E
:101D30008083BDCF85EC8093BC0010928F02809190
:101D40006402803230F4E0916402F0E0EC5BFD4F1D
:101D500010826091640270E0E091AD03F091AE03F7
:101D600084E492E009951092640236C084E0809386
:101D70008F021092430210924202E091AF03F09161
:101D8000B003099580914202811105C081E08093E2
:101D9000420210922202E091430281E08E0F809372
:101DA0004302F0E0EE5DFD4F80818093BB00909197
:101DB000430280914202981708F479CF85E8809316
:101DC000BC000AC085EC8093BC0010928F0204C056
:101DD00010928D020E94D309FF91EF91BF91AF91B4
:101DE0009F918F917F916F915F914F913F912F9133
:101DF0000F900FBE0F901F901895CF93DF93FC01AB
:101E0000448155816081718183E693E00E9472056F
:101E1000EC0142E050E067E571E083E693E00E9468
:101E200072058C0F9D1FDF91CF9108953091B30201
:101E3000313208F04BC080918F028111FCCF90911C
:101E4000B20222E020938F0221E020938E022FEF36
:101E500020938D0210928C0230938B02E2E9F2E023
:101E6000ABE6B2E020E0321721F041914D932F5FB5
:101E7000FACF10926A0220916A02990F922B9093E6
:101E80006A0290916902913061F410926902909116
:101E90006A029093BB009091BC0093FDF8CF95EC43
:101EA00001C095EE9093BC0090918F029230E1F3C7
:101EB00090918D029F3F79F080918D02803241F0A8
:101EC00080918D02803331F084E005C081E003C051
:101ED00082E001C083E0109291021092B30210924E
:101EE00090020895DF92EF92FF920F931F93CF938A
:101EF000DF93D82ED92FC62F80917F039091800336
:101F0000009709F454C02091830331E0309390028C
:101F10002093B202109291021092B302DC01ED9173
:101F2000FC910190F081E02D60E00995ED2CFD2EF3
:101F300011E0D1E080917F0390918003CC2371F177
:101F40001032C8F00E94160F80918303D093900244
:101F50008093B202109291021092B30280917F039B
:101F600090918003DC01ED91FC910190F081E02DD6
:101F700060E0099511E080917F0390918003F70163
:101F80006491DC01ED91FC910190F081E02D0995C7
:101F90001F5FC150BFEFEB1AFB0ACCCFDF91CF918F
:101FA0001F910F91FF90EF90DF900C94160FE0912E
:101FB0008F03F09190039081809195038095892300
:101FC00080830D2D1D2FCC2309F439C0F801849195
:101FD00020917D0330917E03232B31F00E94080D68
:101FE000C1500F5F1F4FEFCF28E030E040E8E09195
:101FF0008B03F0918C0390919303582F542319F085
:102000005081952B03C05081909595239083E0914A
:102010008D03F0918E03508190919403952B9083C2
:10202000E0918D03F0918E035081909194039095EF
:1020300095239083469521503109C9F6D1CFDF9180
:10204000CF911F910F91FF90EF90DF900895CF9364
:10205000DF93EC01FB0144815581608171810E9415
:102060001D0C811103C0CE010E944B0CCE01DF91EB
:10207000CF9108952091690330916A03C9010796B1
:1020800097FD079623E0959587952A95E1F720918E
:10209000670330916803829FA001839F500D929F38
:1020A000500D112460E070E08091810390918203D3
:1020B0000C94951E2FB7F89480916502909166025A
:1020C000A0916702B09168022FBF8093BC029093E9
:1020D000BD02A093BE02B093BF0284EB92E00E94C7
:1020E000AB0597FF26C02FB7F894809165029091B9
:1020F0006602A0916702B09168022FBF4091BC02B6
:102100005091BD026091BE027091BF02841B950B7D
:10211000A60BB70B4091B8025091B9026091BA0278
:102120007091BB0284179507A607B707B0F28FEF2F
:102130009FEF08953F924F925F926F927F928F929E
:102140009F92AF92BF92CF92DF92EF92FF920F9346
:102150001F93CF93DF9300D000D000D0CDB7DEB770
:102160002C013B014A015901C901079697FD0796C9
:102170009C0193E0359527959A95E1F73C832B8355
:10218000C12CD12CE12CF12C312CC3018E0D9F1DC3
:102190009A838983E016F106C4F51E821D822D8183
:1021A0003E812A153B054CF5C90187709927892B7B
:1021B00011F0330C0EC0ED81FE81F7FD379683E000
:1021C000F595E7958A95E1F7EC0DFD1DE80DF91DF4
:1021D000349037FE0CC021E030E049815A816D8196
:1021E0007E81640D751D83E693E00E941A098D813E
:1021F0009E8101969E838D83D2CF9FEFE91AF90AC3
:102200002B813C81C20ED31EC0CF26960FB6F89408
:10221000DEBF0FBECDBFDF91CF911F910F91FF9019
:10222000EF90DF90CF90BF90AF909F908F907F9076
:102230006F905F904F903F90089590E0FC01E056C2
:10224000FA4F2491FC01E457FA4F8491882399F0C6
:1022500090E0880F991FFC01EE57FA4FA591B491B9
:10226000FC01E858FA4F859194918FB7F894EC915E
:10227000E22BEC938FBF08952F923F924F925F9283
:102280006F927F928F929F92AF92BF92CF92DF9286
:10229000EF92FF920F931F93CF93DF93CDB7DEB7EB
:1022A0006B970FB6F894DEBF0FBECDBF9B8F8A8FA2
:1022B0005B011A01D22E1F830E833701C982DC0114
:1022C00058962D913C9159972115310509F0E6C09A
:1022D00018968D919C911997681779070CF0CDC1CC
:1022E0001A968D919C911B97481759070CF0C5C100
:1022F0008C2C912CFB0126E0C29EE00DF11D1124D7
:10230000FB87EA871E161F060CF0B7C1A40183E005
:10231000440F551F8A95E1F75D874C87CA01820DEE
:10232000931D181619060CF0A8C157968C918111AF
:1023300004C05FEA5D1508F4D394AA8DBB8DED91BE
:10234000FC9111970284F385E02DCD010995B5E04C
:10235000DB9EC0011124F5013596FF87EE87BB8215
:10236000AA8225019C012A193B09398B288BA101DE
:10237000485F5F4F5B8B4A8BE889F989E40DF51D57
:10238000E858FF4F5491588761013D822C8288851F
:1023900080FF13C0AA8DBB8DED91FC91B981B13046
:1023A00031F40484F585E02D2E813F8116C006842A
:1023B000F785E02DEE80FF801AC0EE81FF81E615E3
:1023C000F705F1F0AA8DBB8DED91FC91B981B1308B
:1023D00051F40484F585E02D9301A601B2018A8DA4
:1023E0009B8D09950DC00684F785E02D730184014E
:1023F00094014C815D816A817B818A8D9B8D0995D9
:10240000E885E695E887FFEFCF1ADF0A2C813D814A
:10241000280D391D3D832C834A895B89C416D50656
:1024200009F0B5CF5FEF451A550A8A819B81880D67
:10243000991D9B838A83AE85BF854A165B0609F08A
:102440009BCFEE81FF81E615F70509F4F4C0EA8D14
:10245000FB8DA081B181F981F13079F4B5016B5F19
:102460007F4F5096ED91FC915197830128E030E029
:10247000A1018A8D9B8D0995DEC06A857B856819CF
:1024800079091E96ED91FC911F9773010C851D85AE
:102490009401A1018A8D9B8D0995CDC0F9013496D7
:1024A000E491DE1AF901329685919491B7E0DB9EB2
:1024B000800D911D1124F901259134913B8B2A8BBC
:1024C000FC01259134912901FC013296C49031968A
:1024D00034913E87329614913196D490498142309E
:1024E00058F0612E012E000C77088D2D0D2C000C5C
:1024F000990B9987888704C019861886612C712CDE
:10250000AA8DBB8DED91FC9111970284F385E02D8E
:10251000CD010995B9818B2E912C689CC001699CD5
:10252000900D789C900D1124FC01EA0DFB1DFD8798
:10253000EC871A82712C612CE12F110FFF0B950192
:102540002E0F3F1F3B872A87AC0CB11CA5014E0FF5
:102550005F1F5F8B4E8BC1018D0D911DD7FC9A952E
:10256000998F888F9E85691608F065C0862D90E04A
:1025700048855985480F591F489D9001499D300D48
:10258000589D300D1124D101A20FB31FB98BA88B18
:10259000EC85FD85FD83EC83AA84BB84DA80FA8513
:1025A000DF1A288D398D280F391F3D8B2C8B8D2DEF
:1025B0008A0D4E895F89A416B506C1F1877041F472
:1025C000C2010196EA89FB89E40DF51D74902C0186
:1025D00077FE21C0AA8DBB8DED91FC91B981B13000
:1025E00061F40484F585E02D2E813F814C895D895D
:1025F000B5018A8D9B8D09950EC00684F785E02D67
:10260000EE80FF8084019401488959896C817D8125
:102610008A8D9B8D0995770CEFEFAE1ABE0A2C813F
:102620003D81280D391D3D832C83C1CF3A813C0D5E
:102630003A83639497CFAA8DBB8DED91FC9111974E
:102640000688F789E02DCD016B960FB6F894DEBFB2
:102650000FBECDBFDF91CF911F910F91FF90EF90F3
:10266000DF90CF90BF90AF909F908F907F906F90B2
:102670005F904F903F902F9009946B960FB6F8940F
:10268000DEBF0FBECDBFDF91CF911F910F91FF90A5
:10269000EF90DF90CF90BF90AF909F908F907F9002
:1026A0006F905F904F903F902F9008950F931F93DE
:1026B000CF93DF9377FF04C0260F371F60E070E0F1
:1026C000DC011496CD91DC911597FB01E20FF31F0D
:1026D000CE17DF071CF49E01261B370B12161306BC
:1026E0000CF046C0FA0157FD3796DF01E3E0B595DF
:1026F000A795EA95E1F7AC9FF001AD9FF00DBC9F67
:10270000F00D11246E0F7F1FDC015E96ED91FC91A0
:102710005F97E60FF71F4770552781E090E001C0F3
:10272000880F4A95EAF7482F0130110539F078F003
:1027300002301105E9F42E0F3F1F13C02E0F3F1F6B
:10274000E217F307A9F08081842B8193F9CF80955C
:102750002E0F3F1FE217F30759F0908198239193B2
:10276000F9CFE217F30721F0808184278193F9CF15
:10277000DF91CF911F910F910895EF92FF920F93E8
:102780001F93CF93DF93EC0177FDA5C0EC80FD8014
:102790006E157F050CF09FC057FF04C0240F351F36
:1027A00040E050E08E819F81FA01E20FF31F8E1707
:1027B0009F071CF49C01241B350B121613060CF00A
:1027C0008AC0922F842F8695869586958E9DD001FE
:1027D0008F9DB00D11246A0F7B1FAE8DBF8DA60F8C
:1027E000B71F4770B1F188E0841B482F682F70E055
:1027F000FB01E059FF4FE491281798F4621B71091F
:102800002FEF30E002C0359527956A95E2F7E22375
:102810000130110549F078F00230110509F05BC074
:102820000EC00130110519F48C91E82B0AC001305B
:10283000110508F049C0E0958C91E82302C08C9105
:10284000E827EC93941708F446C02C813D81A20F31
:10285000B31FE92FE41BE830F8F00230110561F4F2
:102860008E2F9C9190959C932C813D81A20FB31F3C
:1028700088508830B0F70FC081E00115110509F4C8
:1028800080E081959E2F8C932C813D81A20FB31FF8
:1028900098509830C0F7E770EE23E9F0F0E0E8597F
:1028A000FF4FE4910130110539F048F00230110575
:1028B00091F48C91E82706C08C91E82B03C0E09539
:1028C0008C91E823EC9307C00230110509F4B7CFCF
:1028D000AE0DBF1DBECFDF91CF911F910F91FF9025
:1028E000EF900895CF92DF92EF92FF920F931F9394
:1028F000CF93DF9300D000D000D0CDB7DEB76C010E
:102900008B010E943A101092700310926F03109284
:1029100072031092710368E671E0CE0101960E9485
:102920009A0CB801CE0101960E9427108C0141E05B
:1029300050E06AE771E00E941D0C882309F44DC144
:10294000C8010E94FD0ECE0101960E94950CEE2456
:10295000E394F12C07E010E028E730E047E050E096
:1029600060E070E083E693E00E94B007109270038D
:1029700010926F0388E090E090937203809371034C
:10298000C6010E94FD0E80917F0390918003892BE8
:10299000D1F02091990330919A0340919B0350917B
:1029A0009C0360E074E284EF90E00E94781CDA01FE
:1029B000C9014097A109B109B695A7959795879543
:1029C0008093B80016C080917D0390917E03892B7F
:1029D00031F080919703909198030E94720DE091DD
:1029E0009103F091920390818091960380958923C1
:1029F000808365E084EB95E00E94720F609167032D
:102A0000615083E693E00E940F0D2091690330919D
:102A10006A03C901079697FD079633E09595879558
:102A20003A95E1F72091670330916803829F700126
:102A3000839FF00C929FF00C112400918103109160
:102A4000820380917F0390918003E00EF11E009736
:102A500009F44EC02091830331E03093900220931B
:102A6000B202109291021092B302DC01ED91FC913E
:102A70000190F081E02D60E40995DD24D394CC240D
:102A8000C39480917F0390918003E016F10669F171
:102A9000BFE1BD15D0F40E94160F80918303C09250
:102AA00090028093B202109291021092B302809130
:102AB0007F0390918003DC01ED91FC910190F08106
:102AC000E02D60E40995DD24D39480917F039091FB
:102AD0008003F80161918F01DC01ED91FC9101907F
:102AE000F081E02D0995D394CCCF0E94160F43C0FE
:102AF000E0918F03F0919003908180919503892B51
:102B00008083E016F106B9F1F80181918F012091DF
:102B10007D0330917E03232B19F00E94080DF1CF25
:102B200028E030E040E8E0918B03F0918C03909135
:102B30009303582F542319F05081952B03C05081D3
:102B4000909595239083E0918D03F0918E035081B1
:102B500090919403952B9083E0918D03F0918E03D7
:102B600050819091940390959523908346952150A0
:102B70003109C9F6C6CF80917F0390918003892BDC
:102B8000D1F020919D0330919E0340919F0350917D
:102B9000A00360E074E284EF90E00E94781CDA0108
:102BA000C9014097A109B109B695A7959795879551
:102BB0008093B80016C0E0919103F0919203908148
:102BC00080919603892B808380917D0390917E0371
:102BD000892B39F00E94070D04C0C8010E944B0CDC
:102BE000AFCE26960FB6F894DEBF0FBECDBFDF91F5
:102BF000CF911F910F91FF90EF90DF90CF900895AC
:102C000090E0FC01EB58F54F2491FC01E056FA4F9F
:102C10003491FC01E457FA4FE491EE2309F43CC0EF
:102C2000222339F1233091F038F42130A9F02230F9
:102C300001F584B58F7D12C0273091F02830A1F0C6
:102C40002430B9F4809180008F7D03C08091800092
:102C50008F77809380000DC084B58F7784BD09C0C5
:102C60008091B0008F7703C08091B0008F7D8093FA
:102C7000B000F0E0EE0FFF1FE858FA4FA591B491B5
:102C80009FB7F894611104C08C913095382302C02D
:102C9000EC913E2B3C939FBF08953FB7F8948091F1
:102CA000B6039091B703A091B803B091B90326B5CC
:102CB000A89B05C02F3F19F00196A11DB11D3FBF74
:102CC000BA2FA92F982F8827820F911DA11DB11D02
:102CD000BC01CD0142E0660F771F881F991F4A95FE
:102CE000D1F708958F929F92AF92BF92CF92DF92C9
:102CF000EF92FF926B017C010E944D164B015C012B
:102D0000C114D104E104F104F1F00E944D16DC017C
:102D1000CB0188199909AA09BB09883E9340A105EE
:102D2000B10570F321E0C21AD108E108F10888EE7C
:102D3000880E83E0981EA11CB11CC114D104E104CB
:102D4000F10419F7DDCFFF90EF90DF90CF90BF90A7
:102D5000AF909F908F9008950E94871E1F920F92B0
:102D60000FB60F9211242F933F938F939F93AF939E
:102D7000BF938091650290916602A0916702B09125
:102D800068023091B50323E0230F2D3720F401961C
:102D9000A11DB11D05C026E8230F0296A11DB11D7E
:102DA0002093B5038093650290936602A093670217
:102DB000B09368028091B6039091B703A091B803D5
:102DC000B091B9030196A11DB11D8093B6039093F4
:102DD000B703A093B803B093B903BF91AF919F918C
:102DE0008F913F912F910F900FBE0F901F901895CC
:102DF00081E593E00E94950C87E593E00E94950C95
:102E00008DE593E00E94950C8FE291E0909364032E
:102E1000809363038091810390918203009711F066
:102E20000C94381D0895E4EBF2E01382128248EE10
:102E300053E060E070E044835583668377838BE0E2
:102E400091E09183808385EC90E09587848784EC82
:102E500090E09787868780EC90E0918B808B81EC67
:102E600090E0938B828B82EC90E0958B848B86EC48
:102E700090E0978B868B118E128E138E148EA1EAA2
:102E8000B3E013961C921E92129714964D935D9385
:102E90006D937C9317978DE191E011969C938E939F
:102EA000E3E6F3E01382128220E830E035832483E6
:102EB00080E290E09783868331872087938782879B
:102EC000158A158614861786168681E0848B2FEF67
:102ED0003FEF338B228B318B208B868B178A118EA1
:102EE000108E8FE291E091838083138E128EB58FC6
:102EF000A48F178E168E8FEF83A384A385A386A33A
:102F000087A380E584AB15AA6AE571E08DE593E0BF
:102F10000E949A0C69E571E087E593E00E949A0CA3
:102F200069E571E081E593E00C949A0CCF93DF930F
:102F3000CDB7DEB762970FB6F894DEBF0FBECDBF38
:102F4000789484B5826084BD84B5816084BD85B584
:102F5000826085BD85B5816085BD80916E00816090
:102F600080936E0010928100809181008260809336
:102F70008100809181008160809381008091800038
:102F80008160809380008091B10084608093B10063
:102F90008091B00081608093B00080917A0084605D
:102FA00080937A0080917A00826080937A00809189
:102FB0007A00816080937A0080917A0080688093A3
:102FC0007A001092C100E091C402F091C50282E043
:102FD0008083E091C002F091C1021082E091C202B0
:102FE000F091C3028FEC80831092CC02E091C80272
:102FF000F091C90286E08083E091C602F091C70299
:10300000808180618083E091C602F091C702808157
:1030100088608083E091C602F091C7028081806859
:103020008083E091C602F091C70280818F7D80830A
:103030008091810390918203892B11F5209169037E
:1030400030916A03C901079697FD079623E095958D
:1030500087952A95E1F72091670330916803AC01C9
:10306000429FC001439F900D529F900D11240E94DA
:10307000A01C9093820380938103892B09F40FC1D4
:103080000E943A102091690330916A03809167038E
:1030900090916803213231050CF4C1C2B90160542A
:1030A000710977FF02C06F5F7F4F759567958255F5
:1030B000910997FD019600E410E022E530E045EB30
:1030C00057E0959587950E949A1082E0809384033B
:1030D00080917F0390918003892B09F4B4C28CE323
:1030E000809383031092B2031092B1031092910265
:1030F0001092B30210928F0281E080938E021092A0
:10310000690261E082E10E94001661E083E10E94B1
:1031100000168091B9008E7F8093B9008091B9002C
:103120008D7F8093B90088E48093B80085E4809314
:10313000BC0085E09AE09093B0038093AF0386E0F3
:103140009AE09093AE038093AD0380918A0387FD4C
:103150001DC00E941D1161E080918A030E9400162B
:1031600061E070E080E090E00E94721660E0809183
:103170008A030E9400166AE070E080E090E00E94FE
:10318000721661E080918A030E94001680917F038D
:1031900090918003892B09F40DC3209199033091FC
:1031A0009A0340919B0350919C0360E074E284EF8A
:1031B00090E00E94781CDA01C9014097A109B10989
:1031C000B695A795979587958093B80064E081EDB3
:1031D00095E00E94720F60916903615083E693E06D
:1031E0000E940F0D64E08DEC95E00E94720F8091BB
:1031F0008403813009F0F5C260E183E693E00E9428
:103200000F0D64E089EC95E00E94720F80916703D6
:10321000909168038038910509F0F6C280916903A6
:1032200090916A038032910509F0DDC264E085EC7B
:1032300095E00E94720F69ED83E693E00E940F0D06
:1032400080918403813009F0FBC262E283E693E05F
:103250000E940F0D66E089EB95E00E94720F80914D
:103260007F0390918003892B09F4ECC220919D0388
:1032700030919E0340919F035091A00360E074E25F
:1032800084EF90E00E94781CDA01C9014097A109FF
:10329000B109B695A795979587958093B80040E0BA
:1032A00050E069E571E087E593E00E945D0C0E94C3
:1032B0003A1081E08093770321E030E03093760389
:1032C00020937503309374032093730380937A03E0
:1032D0006CE771E0CE0101960E949A0C60E871E003
:1032E000CE0107960E949A0CBE016F5F7F4FCE0100
:1032F00007960E947214CE0107960E94950CCE018B
:1033000001960E94950CBB24B3948091B403811163
:1033100083C120915B0330915C03809161039091A4
:1033200062032817390749F5809157039091580394
:1033300060915D0370915E03009719F0611571054E
:10334000B9F46115710551F0232B09F447C1FB0154
:10335000808190E09195819591090CC0009709F4C6
:103360003DC1232B09F43AC1FC01808190E002C0E9
:103370000E949C1E892B09F431C1809100018111AA
:1033800023C065EB71E0CE0101960E949A0C69EBB7
:1033900071E0CE0107960E949A0CBE016F5F7F4FCD
:1033A000CE0107960E947214CE0107960E94950CDA
:1033B000CE0101960E94950C40E050E069E571E075
:1033C00087E593E00E945D0C44E050E062ED71E01F
:1033D00084EB92E00E94720542E050E067E571E004
:1033E00084EB92E00E94720584EB92E00E94CD058E
:1033F000181619060CF089CF69E571E0CE01019627
:103400000E949A0C0E945A1097FD0CC08F83188658
:1034100041E050E0BE01695F7F4FCE0101960E94FE
:103420001D0CF0CF80915103909152030097C9F089
:1034300069817A816115710591F040915303509132
:1034400054032D813E814217530748F00E94A51E68
:103450008D819E81909356038093550318C00E94DE
:10346000381D89819A8190935203809351038B81F7
:103470009C8190935403809353038D819E819093FC
:103480005603809355031A8219821C821B821E8266
:103490001D82CE0101960E94950C1A8219821C820F
:1034A0001B821E821D8267E573E0CE0101960E9499
:1034B0007E0C61E573E0CE0101960E942710BC01ED
:1034C00087E593E00E947E0CCE0101960E94950C48
:1034D000C0905703D0905803C114D10409F445C0DB
:1034E00000915B0310915C0301151105F1F1760168
:1034F0004701FFEF8F1A9F0AF7018081082E000C09
:10350000990B0E94351C892B11F07401F1CF0150E9
:1035100011090C0D1D1DF8018081082E000C990B5E
:103520000E94351C892B31F00E151F0518F0015033
:103530001109F1CFA8014F5F5F4F4E195F095093FA
:103540005C0340935B03CE14DF0420F4B701C60193
:103550000E948C1EE0915703F091580380915B0309
:1035600090915C03E80FF91F108265EB71E0CE01CA
:1035700001960E949A0C67ED71E0CE010D960E94B3
:103580009A0C67E573E0CE010D960E94271018860D
:103590001F821A8619861C861B86BC01CE010796DF
:1035A0000E947E0CBE016F5F7F4FCE0107960E9486
:1035B0007214CE0107960E94950CCE010D960E94C2
:1035C000950CCE0101960E94950C1092000160EDC1
:1035D00077E080E090E00E94721697CE6FED71E088
:1035E000CE0101960E949A0C63EE71E0CE0107961F
:1035F0000E949A0CBE016F5F7F4FCE0107960E941A
:103600007214CE0107960E94950CCE0101960E947D
:10361000950CB092B40379CE0E947406FDCFB90127
:103620006052710977FF02C06F5F7F4F7595679594
:103630008357910997FD019600E210E023E730E0FF
:1036400045ED55E03ECD809188030E941D1180918B
:1036500089030E941D1180918803082E000C990B8C
:10366000FC01E457FA4FE491F0E0EE0FFF1FE85839
:10367000FA4F259134913093900320938F03FC01EE
:10368000E056FA4FE491E093950380918903082E68
:10369000000C990BFC01E457FA4FE491F0E0EE0FB7
:1036A000FF1FE858FA4FA591B491B0939203A093ED
:1036B0009103FC01E056FA4FE491E09396038C915C
:1036C000E82BEC9380917D0390917E03892B89F107
:1036D0001FB7F8948091B303811124C0E6E9F5E0A7
:1036E0008491EAEAF5E09491E82FF0E0EE0FFF1FF5
:1036F000EE57FA4FA591B491EC91E92321F461E0E2
:103700008AE00E9400168AE00E941D118CB580613B
:103710008CBD8CB580648CBD8DE00E941D118BE04A
:103720000E941D118091B3038F5F8093B3031FBF6D
:103730000CCD809186030E941D11809187030E9409
:103740001D1180918603082E000C990BFC01E45793
:10375000FA4FE491F0E0EE0FFF1FE858FA4F259181
:10376000349130938C0320938B03FC01E056FA4F85
:10377000E491E093930380918703082E000C990B4A
:10378000FC01E457FA4FE491F0E0EE0FFF1FE85818
:10379000FA4FA591B491B0938E03A0938D03FC01D1
:1037A000E056FA4FE491E09394038C91E095E8237E
:1037B000EC93CBCC80917D0390917E03892B31F0EB
:1037C00080919703909198030E94720DE09191036C
:1037D000F091920390818091960380958923808354
:1037E000F5CC64E10ACD8034910509F024CD63E085
:1037F00082EC95E00E94720F80918403813011F475
:103800006FE919C06FEC17C08036910509F013CD30
:103810008091690390916A03409709F00CCD63E0B1
:103820008FEB95E00E94720F80918403813011F438
:1038300060E101C06FEA83E693E00E940F0DFBCCCC
:1038400061EF04CDE0919103F0919203908180911A
:103850009603892B808380917D0390917E03892B31
:1038600009F41DCD0E94070D1ACD91110C943E1C38
:10387000803219F089508550C8F708959927882714
:1038800008952F923F924F925F926F927F928F9204
:103890009F92AF92BF92CF92DF92EF92FF920F93DF
:1038A0001F93CF93DF93CDB7DEB7CA1BDB0B0FB6E9
:1038B000F894DEBF0FBECDBF09942A8839884888A6
:1038C0005F846E847D848C849B84AA84B984C8843C
:1038D000DF80EE80FD800C811B81AA81B981CE0F33
:1038E000D11D0FB6F894DEBF0FBECDBFED01089518
:1038F000A1E21A2EAA1BBB1BFD010DC0AA1FBB1FF4
:10390000EE1FFF1FA217B307E407F50720F0A21B65
:10391000B30BE40BF50B661F771F881F991F1A94D2
:1039200069F760957095809590959B01AC01BD01FC
:10393000CF010895EE0FFF1F0590F491E02D09943B
:103940000F931F93CF93DF938230910510F482E0A1
:1039500090E0E091BC03F091BD0320E030E0A0E0F6
:10396000B0E0309719F140815181028113814817ED
:103970005907C8F08417950769F4109731F012962B
:103980000C93129713961C9327C00093BC031093BB
:10399000BD0322C02115310519F04217530718F451
:1039A0009A01BD01EF01DF01F801DBCF21153105DF
:1039B000F9F0281B390B2430310580F48A819B8172
:1039C0006115710521F0FB019383828304C09093FC
:1039D000BD038093BC03FE01329644C0FE01E20F9A
:1039E000F31F8193919322503109398328833AC080
:1039F0002091BA033091BB03232B41F420910301A2
:103A0000309104013093BB032093BA03209101014C
:103A1000309102012115310541F42DB73EB7409197
:103A2000050150910601241B350BE091BA03F0917A
:103A3000BB03E217F307A0F42E1B3F0B281739072F
:103A400078F0AC014E5F5F4F2417350748F04E0FFA
:103A50005F1F5093BB034093BA038193919302C0BD
:103A6000E0E0F0E0CF01DF91CF911F910F91089539
:103A7000CF93DF93009709F481C0FC013297138242
:103A80001282A091BC03B091BD03109781F42081F4
:103A90003181820F931F2091BA033091BB03281705
:103AA000390751F5F093BB03E093BA0367C0ED010A
:103AB00020E030E0CE17DF0740F44A815B819E01B1
:103AC00041155105F1F0EA01F5CFD383C28340815E
:103AD0005181840F951FC817D90759F4888199819E
:103AE000840F951F0296918380838A819B819383A3
:103AF00082832115310529F4F093BD03E093BC03C3
:103B00003DC0E901FB83EA8349915991C40FD51F58
:103B1000EC17FD0761F480819181840F951F029657
:103B2000E90199838883828193819B838A83E0E082
:103B3000F0E012968D919C911397009719F0FD017A
:103B4000DC01F7CF8D919C9111979D012E5F3F4F26
:103B5000820F931F2091BA033091BB0328173907B6
:103B600069F4309729F41092BD031092BC0302C08F
:103B700013821282B093BB03A093BA03DF91CF915B
:103B80000895A0E0B0E0E7ECFDE10C94451CEC01E9
:103B9000009721F4CB010E94A01CB4C0FC01E60FE9
:103BA000F71F9C0122503109E217F30708F4A8C05F
:103BB000D9010D911C91119706171707B0F0053028
:103BC000110508F49BC0C80104978617970708F4ED
:103BD00095C002501109061B170B019311936D93A9
:103BE0007C93CF010E94381D89C05B01A01AB10AE5
:103BF0004C01800E911EA091BC03B091BD03612CBD
:103C0000712CE12CF12C109709F446C08D919C91F8
:103C10001197A815B905B1F56C0142E0C40ED11C8D
:103C2000CA14DB0478F14C018A189B08640142E055
:103C3000C40ED11C1296BC9012971396AC91B5E0AD
:103C4000CB16D10440F0B282A38391828082D90145
:103C50006D937C9309C00E5F1F4F800F911FF90178
:103C600091838083EB2DFA2FE114F10431F0D70119
:103C70001396FC93EE93129741C0F093BD03E0932B
:103C8000BC033CC06816790608F43C017D0112961D
:103C90000D90BC91A02DB7CF8091BA039091BB033A
:103CA00088169906E1F466167706C8F4809101013A
:103CB00090910201009741F48DB79EB740910501A4
:103CC00050910601841B950BE817F907C8F4F0938F
:103CD000BB03E093BA03F901718360830FC0CB018A
:103CE0000E94A01C7C01009759F0A801BE010E940F
:103CF0008C1ECE010E94381DC70104C0CE0102C037
:103D000080E090E0CDB7DEB7EEE00C94611C81E07E
:103D100090E0F8940C94AC1EFB01DC0102C0019011
:103D20000D9241505040D8F70895DC0101C06D93C9
:103D300041505040E0F70895FB01DC018D91019066
:103D400080190110D9F3990B0895FB01DC01019052
:103D50000D920020E1F7089515E0C6E4D5E004C017
:103D6000FE010E949A1C2196C734D107C9F7F89426
:023D7000FFCF83
:103D7200010000BE03800000000000050672059CE1
:103D8200055206CD05AB05BF05000000005F0A32F3
:103D92000A8E0AF1082A0A160A070A0000000047DA
:103DA2000B72058E0A71057E06F1081A09F2080ED9
:103DB2000902092109F1083C07750DB80AFC0A3A03
:103DC200081D08B00751070D0A0073757033727031
:103DD20034737377307264005430312048617264F6
:103DE2002E506173732E20202000250020203000E9
:103DF200412075736566756C20696E666F726D61C0
:103E020074696F6E2069732068617264636F6465A0
:103E1200642C2046696E6420697420746F20756E6C
:103E22006C6F636B002035300057726F6E672070C5
:103E3200617373776F72640A547279206167616982
:103E42006E00746573740050617373203A20003100
:103E520030300057656C6C20646F6E652021204302
:103E620068616C6C656E676520756E6C6F636B65FF
:023E72006400EA
:00000001FF
