:100000000C9447050C946F050C946F050C94B11477
:100010000C94B1140C94B1140C946F050C946F05EE
:100020000C946F050C946F050C946F050C946F0580
:100030000C946F050C946F050C946F050C946F0570
:100040000C9467140C946F050C946F050C946F0559
:100050000C946F050C946F050C946F050C946F0550
:100060000C9429150C946F0500000000003E5B4FB6
:100070005B3E3E6B4F6B3E1C3E7C3E1C183C7E3C08
:10008000181C577D571C1C5E7F5E1C00183C180016
:10009000FFE7C3E7FF0018241800FFE7DBE7FF30A6
:1000A000483A060E2629792926407F050507407F14
:1000B00005253F5A3CE73C5A7F3E1C1C08081C1C87
:1000C0003E7F14227F22145F5F005F5F06097F017D
:1000D0007F006689956A606060606094A2FFA29468
:1000E00008047E040810207E201008082A1C080836
:1000F0001C2A08081E101010100C1E0C1E0C303884
:100100003E3830060E3E0E06000000000000005F84
:1001100000000007000700147F147F14242A7F2AA0
:100120001223130864623649562050000807030062
:10013000001C2241000041221C002A1C7F1C2A08AE
:10014000083E080800807030000808080808000011
:1001500060600020100804023E5149453E00427F85
:10016000400072494949462141494D331814127FD4
:100170001027454545393C4A494931412111090774
:100180003649494936464949291E000014000000F5
:1001900040340000000814224114141414140041C7
:1001A00022140802015909063E415D594E7C121184
:1001B000127C7F494949363E414141227F414141BC
:1001C0003E7F494949417F090909013E4141517337
:1001D0007F0808087F00417F41002040413F017FA8
:1001E000081422417F404040407F021C027F7F0470
:1001F00008107F3E4141413E7F090909063E4151B9
:10020000215E7F09192946264949493203017F01A8
:10021000033F4040403F1F2040201F3F4038403FA9
:10022000631408146303047804036159494D4300BF
:100230007F4141410204081020004141417F0402F6
:10024000010204404040404000030708002054548D
:1002500078407F284444383844444428384444286B
:100260007F385454541800087E090218A4A49C78BE
:100270007F0804047800447D40002040403D007F1A
:100280001028440000417F40007C047804787C08FA
:100290000404783844444438FC18242418182424CE
:1002A00018FC7C08040408485454542404043F44B3
:1002B000243C4040207C1C2040201C3C4030403CE2
:1002C00044281028444C9090907C4464544C440042
:1002D00008364100000077000000413608000201A6
:1002E0000204023C2623263C1EA1A161123A404092
:1002F000207A38545455592155557941225454780F
:1003000042215554784020545579400C1E527212A7
:100310003955555559395454545939555454580030
:1003200000457C410002457D420001457C407D1234
:1003300011127DF0282528F07C5455450020545496
:100340007C547C0A097F4932494949323A44444441
:100350003A324A4848303A4141217A3A424020787C
:10036000009DA0A07D3D4242423D3D4040403D3C7D
:1003700024FF2424487E4943662B2FFC2F2BFF09A2
:1003800029F620C0887E0903205454794100004496
:100390007D413048484A32384040227A007A0A0A81
:1003A000727D0D19317D2629292F282629292926F4
:1003B00030484D4020380808080808080808382F39
:1003C00010C8ACBA2F102834FA00007B00000814C3
:1003D0002A142222142A14085500550055AA55AA99
:1003E00055AAFF55FF55FF000000FF00101010FF39
:1003F00000141414FF001010FF00FF1010F010F094
:10040000141414FC001414F700FF0000FF00FF1484
:1004100014F404FC141417101F10101F101F1414D0
:10042000141F00101010F0000000001F101010101A
:100430001F10101010F010000000FF10101010100E
:1004400010101010FF10000000FF140000FF00FF4C
:1004500000001F10170000FC04F4141417101714E8
:1004600014F404F40000FF00F7141414141414140A
:10047000F700F7141414171410101F101F1414147D
:10048000F4141010F010F000001F101F0000001FE7
:1004900014000000FC140000F010F01010FF10FF1A
:1004A000141414FF141010101F00000000F010FFAF
:1004B000FFFFFFFFF0F0F0F0F0FFFFFF0000000093
:1004C00000FFFF0F0F0F0F0F3844443844FC4A4A17
:1004D0004A347E02020606027E027E0263554941CC
:1004E000633844443C04407E201E2006027E020203
:1004F00099A5E7A5991C2A492A1C4C7201724C3017
:100500004A4D4D303048784830BC625A463D3E49ED
:100510004949007E0101017E2A2A2A2A2A44445F91
:10052000444440514A444040444A51400000FF0185
:1005300003E080FF000008086B6B08361236243693
:10054000060F090F060000181800000010100030F8
:1005500040FF0101001F01011E00191D1712003C80
:100560003C3C3C0000000000000103070F1F3F7FE0
:100570000080C0E0F0F8FCFEDB40A4A62EAF200017
:10058000A1C8D300408DAED580A800006000000057
:100590000000000000000000000000E0000000007B
:1005A00000000000000000000001E000000000006A
:1005B000000000000000000001F00000000000004A
:1005C0000000000000000003F00000000000000038
:1005D00000000000000007F0000000000000000024
:1005E000000000000007F80000000000000000000C
:1005F000000000000FF800000003C0007E000001B2
:10060000E0007F0FF800000003C000FE000001E0E2
:1006100000FFEFF800000003C000FE000001E00052
:10062000FFFFF800000003C000F00000000F007F93
:10063000FE7FC0000003C000F00000000F003FFE7E
:100640007FF83FF1FBCFFCFEF3BC3DEFE01FFE7FE8
:10065000FF7FFBFFDFFEFEFFBC3DEFE01FC6FFFF9D
:100660007FFBFFDFFEFEFFBC3DEFE00FE3C7FE7840
:100670007BC3DE1EF0FFBC3DEF0007FF87FC787BED
:10068000C3DE1EF0F83C3DEF0001FFFFF0007BC32E
:10069000C01EF0F03C3DEF0001F37FE03FFBC3CF15
:1006A000FEF0F03C3DEF0003E33F807FFBC3DFFE45
:1006B000F0F03C3DEF0007E73C00787BC3DE1EF026
:1006C000F03C3DEF0007FFBE00787BC3DE1EF0F07C
:1006D0003C3DEF0007FFFE00787BC3DE1EF0F03CE0
:1006E0003DEF000FFFFE007FFBFFDFFEF0F03FFD60
:1006F000EFE00FFFFF007FFBFFDFFEF0F03FFDEFBD
:10070000E00FF9FF003E79F9CF9EF0F01F3DE7E0E2
:100710001FF1FF0000000000000000000000001FAB
:1007200080FF007FFFFFFFFFFFFFFFFFFFE01C00D8
:100730007F007FFFFFFFFEB46D888D18E000001F73
:10074000007FFFFFFFFE95AD7DB577E000000F0055
:100750007FFFFFFFFEA5AD9D8D19E0000006007F25
:10076000FFFFFFFEB5ADEDB57EE00000000000012B
:100770008000000000000000000003800000000076
:10078000000000000007C0000000000000000000A2
:1007900007C00000000000000000000FC0000000C3
:1007A0000000000000001FE000000000000000004A
:1007B000001FE00000000000000000003FE000001B
:1007C000000000000000003FF000000000000000FA
:1007D00000007FF0000000000000001FF87FF00024
:1007E0000000000000003FFE7FF00000000000005D
:1007F000003FFF7FF0000000000000001FFFFBE053
:10080000000000000000000FFFF9FFC00000000022
:1008100000000FFFF9FFF800000000000007FFF1E3
:10082000FFFF00000000000003FC73FFFF800000DA
:1008300000000001FE3FFFFF80000000000000FFFD
:100840001E0FFF000000000000007FFE1FFC0000E4
:1008500000000000003FFFFFF80000000000000063
:100860000FDFFFE0000000000000001F19FFC000C4
:100870000000000000003F3CFF00000000000000FE
:10088000007E7CF800000000000000007FFE7C007D
:1008900000000000000000FFFFFC0000000000005E
:1008A0000000FFFFFE0000000000000000FFFFFE50
:1008B0000000000000000001FFEFFE00000000004B
:1008C000000001FFCFFE0000000000000003FF0752
:1008D000FE0000000000000003FC07FE0000000016
:1008E00000000003F003FE00000000000000018093
:1008F00000FE000000000000000000007E0000007C
:10090000000000000000003E0000000000000000A9
:1009100000000C000000000000078000FC00000345
:10092000C0000000078001FC000003C000000007B9
:100930008001FC000003C0000000078001E000000F
:10094000001E000000078001E00000001E007FE3A1
:10095000F79FF9FDE7787BDFC0FFF7FFBFFDFDFFE5
:10096000787BDFC0FFF7FFBFFDFDFF787BDFC0F0C6
:10097000F787BC3DE1FF787BDE00F0F787BC3DE107
:10098000F0787BDE0000F787803DE1E0787BDE00D9
:100990007FF7879FFDE1E0787BDE00FFF787BFFDF3
:1009A000E1E0787BDE00F0F787BC3DE1E0787BDEBC
:1009B00000F0F787BC3DE1E0787BDE00F0F787BC14
:1009C0003DE1E0787BDE00FFF7FFBFFDE1E07FFB6C
:1009D000DFC0FFF7FFBFFDE1E07FFBDFC07CF3F38B
:1009E0009F3DE1E03E7BCFC0000000000000000022
:1009F000000000FFFFFFFFFFFFFFFFFFFFC0FFFF43
:100A0000FFFFFD68DB111A31C0FFFFFFFFFD2B5A0E
:100A1000FB6AEFC0FFFFFFFFFD4B5B3B1A33C0FFDC
:100A2000FFFFFFFD6B5BDB6AFDC0000000002400E0
:100A300027002A000000000800020100000304074C
:100A400000000000000000002200FF210000000064
:100A50000023002600290000000000250028002BAC
:100A60000004040404040404040202020202020357
:100A70000303030303010204081020408001020461
:100A8000081020010204081020004816211B112420
:100A90001FBECFEFD8E0DEBFCDBF11E0A0E0B1E0D8
:100AA000E2E1FFE302C005900D92A83DB107D9F73E
:100AB00023E0A8EDB1E001C01D92A338B207E1F731
:100AC00015E0C6E4D5E004C02197FE010E946D1B2D
:100AD000C534D107C9F70E943E170C947C1F0C94B3
:100AE0000000089590E0FC01EC5CF54F2491FC01BE
:100AF000EB58F54F3491FC01EF59F54FE491EE239B
:100B0000C9F0222339F0233001F1A8F4213019F182
:100B1000223029F1F0E0EE0FFF1FE95AF54FA591C1
:100B2000B4918FB7F894EC91611126C030953E23B3
:100B30003C938FBF08952730A9F02830C9F02430A6
:100B400049F7809180008F7D03C0809180008F776E
:100B500080938000DFCF84B58F7784BDDBCF84B5F1
:100B60008F7DFBCF8091B0008F778093B000D2CF84
:100B70008091B0008F7DF9CF3E2BDACFCF93DF93FA
:100B800090E0FC01EB58F54F24918F59954FFC01F3
:100B900084918823D1F090E0880F991FFC01E65DD5
:100BA000F54FA591B491FC01E95AF54FC591D49147
:100BB00061110EC09FB7F8948C91E22FE0958E23BF
:100BC0008C932881E223E8839FBFDF91CF91089522
:100BD0008FB7F894EC91E22BEC938FBFF6CF3FB731
:100BE000F89480910C0390910D03A0910E03B091A5
:100BF0000F0326B5A89B05C02F3F19F00196A11D34
:100C0000B11D3FBFBA2FA92F982F8827BC01CD0156
:100C1000620F711D811D911D43E0660F771F881FB4
:100C2000991F4A95D1F708958F929F92AF92BF92E4
:100C3000CF92DF92EF92FF924B015C010E94EF0591
:100C40006B017C010E94EF056C197D098E099F09DB
:100C5000683E734081059105A8F321E0821A91084E
:100C6000A108B10888EEC80E83E0D81EE11CF11C73
:100C700081149104A104B10429F7FF90EF90DF9053
:100C8000CF90BF90AF909F908F9008950895089552
:100C9000AF92BF92CF92DF92EF92FF920F931F938A
:100CA000CF93DF936C017B018B01040F151FEB01C8
:100CB0005E01AE18BF08C017D10759F06991D6017F
:100CC000ED91FC910190F081E02DC6010995892BF1
:100CD00079F7C501DF91CF911F910F91FF90EF90B0
:100CE000DF90CF90BF90AF9008952091D1023091C6
:100CF000D2022817390771F49091CF028091D00267
:100D0000981741F0E091CF02F0E0E857FD4F808165
:100D100090E008958FEF9FEF0895EF92FF920F9369
:100D20001F93CF93DF93DC015C96ED90FC905D9771
:100D3000E114F10479F481E090E013969C938E9392
:100D4000129790E080E0DF91CF911F910F91FF907B
:100D5000EF9008955196ED91FC91529750968C9199
:100D60005097982F90950FB75E962C915E97122F03
:100D7000127021FD6095F8942081112319F1282B20
:100D80002083E7012197F1F728E0462F50E03081DA
:100D900060FF1AC0382B3083E7012197F1F7BA01C1
:100DA00075956795215089F7112381F080818923FA
:100DB00080830FBF5C968D919C910197F1F781E044
:100DC00090E0C1CF2923DCCF3923E5CF9081892B57
:100DD000EFCF2091D1023091D2022817390761F468
:100DE0008091D0022091CF0290E0805C9F4F821BC7
:100DF00091098F739927089590E080E008952091DC
:100E0000D1023091D20228173907B9F49091CF025C
:100E10008091D002981789F0E091CF02F0E0E85776
:100E2000FD4F80812091CF0230E02F5F3F4F2F7325
:100E300033272093CF0290E008958FEF9FEF08951E
:100E4000EF92FF920F931F93CF93DF93EC01EC800F
:100E5000FD806E157F050CF070C057FF04C0240F95
:100E6000351F50E040E08E819F81FA01E20FF31FB1
:100E70008E179F071CF49C01241B350B12161306BA
:100E80000CF05BC0922F842F8695869586958E9D5B
:100E9000D0018F9DB00D11246A0F7B1FAF8DB8A1BB
:100EA000A60FB71F477049F188E0841B482F682FB1
:100EB00070E0FB01E059FA4FE491281708F063C095
:100EC000621B71092FEF30E002C0359527956A95B6
:100ED000E2F7E2230130110539F0B0F102301105DB
:100EE00061F58C91E82702C08C91E82BEC93941764
:100EF00020F12C813D81A20FB31FE92FE41BE830C4
:100F000078F00230110521F58E2F9C9190959C93DD
:100F10002C813D81A20FB31F88508830B0F7E77055
:100F2000EE2359F0F0E0E859FA4FE4910130110551
:100F3000F9F010F10230110519F1DF91CF911F91F5
:100F40000F91FF90EF900895E0958C91E823CECF1C
:100F500081E00115110509F480E081959E2F8C93A5
:100F60002C813D81A20FB31F98509830C0F7D7CF86
:100F70008C91E82BEC93E1CFE0958C91E823FACFAC
:100F80008C91E827F7CF0130110509F4ADCFE0F2DD
:100F90000230110509F4A5CFAE0DBF1DAECF0F93E2
:100FA0001F93CF93DF9377FF04C0260F371F70E0A6
:100FB00060E0DC011496CD91DC91FB01E20FF31FA0
:100FC000CE17DF071CF49E01261B370B12161306E3
:100FD0004CF5FA0157FD3796A3E0F595E795AA95EC
:100FE000E1F7EC9FD001ED9FB00DFC9FB00D1124F7
:100FF0006A0F7B1FDC015F96ED91FC91E60FF71FF6
:101000004770552781E090E001C0880F4A95EAF7C4
:10101000482F0130110559F0A8F02E0F3F1F023064
:101020001105E1F0DF91CF911F910F9108952E0FDF
:101030003F1FE217F307B1F38191DF011197842B72
:101040008C93F7CF80952E0F3F1FE217F30751F3D4
:101050009191DF01119798239C93F7CFE217F30743
:1010600009F38191DF01119784278C93F7CF0F93B8
:101070001F93FA01DC0156964C9156974230E9F0E5
:101080004330A1F1413061F514964D915C91DA0144
:10109000AE1BBF0BFD01E21BF30B77FD0BC0DC01A8
:1010A00016964D915C916417750724F4AB01BF014E
:1010B0000E94CF071F910F91089514964D915C9156
:1010C000DA01A61BB70BBD0161507109DC01169650
:1010D0004D915C91DA01AE1BBF0BFD01E21BF30BDE
:1010E00077FDE8CFAF010E942007E4CF16964D911F
:1010F0005C91DA01A61BB70BBD0161507109CDCF20
:101100000F931F93FA01DC0156964C91569742308B
:10111000A9F0433091F1413019F514964D915C914D
:10112000DA01AE1BBF0BFD013197F7FD04C0AB0127
:10113000BF010E9420071F910F91089514964D91B1
:101140005C91DA01A61BB70BBD01DC0116964D912F
:101150005C91DA01AE1BBF0BFD013197621B730B73
:10116000F7FDE9CFDC0116964D915C91E417F50788
:1011700014F7AF010E94CF07DECF16964D915C9118
:10118000DA01A61BB70BBD01621B730BCECFFC01AE
:1011900077FD64C080859185681779070CF05EC083
:1011A00057FD5CC082859385481759070CF056C0DF
:1011B00086898230B1F0833029F1813041F4848115
:1011C0009581841B950BAB01BC01615071092130E5
:1011D000310509F108F443C02230310509F463C038
:1011E000089584819581DC01A61BB70BBD01615078
:1011F000710986819781DC01A41BB50BAD014150BB
:101200005109E5CF86819781861B970BBA01AC0106
:1012100041505109DCCFCA0157FD0796A3E09595CF
:101220008795AA95E1F7A481B5818A9F90018B9F4C
:10123000300D9A9F300D1124620F731F078CF0A19F
:10124000E02DE60FF71F4770552721E030E001C081
:10125000220F4A95EAF78081822B80830895CA0184
:1012600057FD079633E0959587953A95E1F7A48168
:10127000B5818A9F90018B9F300D9A9F300D11246C
:10128000620F731F078CF0A1E02DE60FF71F477068
:10129000552781E090E001C0880F4A95EAF78095D4
:1012A00090818923DACFCA0157FD079623E09595EF
:1012B00087952A95E1F7A481B5818A9F90018B9F3C
:1012C000300D9A9F300D1124620F731F078CF0A10F
:1012D000E02DE60FF71F4770552721E030E001C0F1
:1012E000220F4A95EAF780818227B7CF08958EBDF5
:1012F00000000DB407FEFDCF8EB508958CBD9DBDD9
:1013000008950895FC016370668B84819581268120
:101310003781613039F0633029F0918780873387D6
:1013200022870895318720879387828708952F9297
:101330003F924F925F926F927F928F929F92AF9265
:10134000BF92CF92DF92EF92FF920F931F93CF93B2
:10135000DF93CDB7DEB76A970FB6F894DEBF0FBE46
:10136000CDBF9A8F898F7A8369834A01D22E1887DD
:101370000F833701BC2CDC0159962D913C915A9773
:101380002115310509F015C118968D919C91199779
:10139000681779070CF0D7C11A968D919C91481760
:1013A00059070CF0D0C14C2C512CB6E0CB9E600DEF
:1013B000711D11247C876B87161617060CF0C3C1AC
:1013C000EA2DF0E0FA87E98793E0EE0FFF1F9A9588
:1013D000E1F7F88BEF87CF01840F951F18161906D8
:1013E0000CF0B1C1A98DBA8D58968C91811104C0B1
:1013F000BFEABD1508F4D394A98DBA8DED91FC9187
:1014000011970284F385E02DCD010995B5E0DB9EAF
:10141000C0011124E981FA81FC83EB83312C212C5A
:101420009C0128593F4F388F2F8B4A2D50E05E8BFF
:101430004D8BEF89F88DE20DF31D44919E828D82D4
:10144000D12CC12C69817A81620D731D7A8B698BD5
:10145000842F90E09C8B8B8BE98DFA8DA081B181DC
:1014600040FF82C0F1E0BF126FC0AF126DC01C968A
:10147000ED91FC912F813885A4014C0D5D1D69898A
:101480007A89898D9A8D0995EB89FC89F595E7957F
:101490004E2F5FEFC51AD50A6D817E818D899E8999
:1014A000680F791F7E836D8398E0C916D10481F699
:1014B000AFEF2A1A3A0AEB81FC81E40DF51DFC839B
:1014C000EB83F5E02F16310409F0B3CF2F81388577
:1014D00026153705B9F0A98DBA8DED91FC91B1E0D3
:1014E000BB1257C0AB1255C069817A816B5F7F4FC9
:1014F0000088F189E02D830128E030E0A401898D86
:101500009A8D0995A98DBA8DED91FC911197068858
:10151000F789E02DCD016A960FB6F894DEBF0FBEB5
:10152000CDBFDF91CF911F910F91FF90EF90DF9092
:10153000CF90BF90AF909F908F907F906F905F9073
:101540004F903F902F9009941E96ED91FC91EF8063
:10155000F88409851A8592014D815E816B817C81B9
:10156000898D9A8D099590CF2F813885261537055D
:1015700009F48ACF31E0B31207C0A31205C01C964C
:10158000ED91FC91930178CF1E96ED91FC91730142
:10159000E0CF6B857C85641975090684F785E02D9D
:1015A00073010F8518899201A401898D9A8D09957F
:1015B000A9CFF90134969491329745915491D91A53
:1015C000B7E0DB9E400D511D1124F90125913491A6
:1015D0003C8B2B8BFA0125903490FA013296749053
:1015E00031963491398B329664903196449041E033
:1015F0004C1518F04A1508F07FC0662D062C000C1B
:10160000770B7C836B83842D042C000C990B9E83B9
:101610008D83A98DBA8DED91FC9111970284F3858C
:10162000E02DCD010995512CD12CC12CEA2DF0E0F3
:10163000FA87E9872B2D30E03C872B87A401440DE6
:10164000511D47FC5A95588F4F8B69817A81660DE1
:10165000711D67FC7A957E876D877989C71608F0BA
:1016600051CF2C2D30E04D815E81420F531FA98553
:10167000BA854A9FC0014B9F900D5A9F900D11242F
:10168000FC01E80DF91DF88BEF87852D612C4F8942
:10169000588D420F531F5E8B4D8B671408F050C05E
:1016A00044244394480E877041F4C1010196EB89AC
:1016B000FC89E20DF31DD4901C01D7FE19C0A98D41
:1016C000BA8DED91FC91662D70E0B1E0BB1219C0AE
:1016D000AB1217C02D853E85620F731F0484F585FC
:1016E000E02D2F8138854D895E89898D9A8D0995E8
:1016F000DD0C6394842DD1CF1E821D821C821B823F
:1017000088CF4B815C81640F751FAB85BC856A9F58
:10171000C0016B9F900D7A9F900D112469817A8191
:10172000680F791F0684F785E02DEF80F88409851E
:101730001A859D014F855889898D9A8D0995D8CF35
:10174000570CC3948ACF6A960FB6F894DEBF0FBECB
:10175000CDBFDF91CF911F910F91FF90EF90DF9060
:10176000CF90BF90AF909F908F907F906F905F9041
:101770004F903F902F9008958F929F92AF92CF926B
:10178000EF92FF920F931F93CF93DF93EC01262FDD
:10179000898D9A8D009709F051C06A30D1F41D8669
:1017A0001C868D8948E0849F900111248E859F8539
:1017B000820F931F9F878E8781E090E0DF91CF910A
:1017C0001F910F91FF90EF90CF90AF909F908F90CF
:1017D00008956D3089F3CC88AD888F898823C1F056
:1017E0008C859D8536E0C39E800D911D1124488512
:1017F00059854817590764F44E855F851D861C86F8
:1018000038E0A39EC0011124840F951F9F878E8707
:10181000EA88FB88088919894E855F856C857D85F6
:10182000CE010E9497092C898C859D8546E0249FD6
:10183000800D911D11249D878C87BECF6A3069F47D
:101840001D861C86FC013896E4912D898E859F8526
:10185000E29F800D911D1124ADCF6D3009F4ACCF06
:10186000FC0134963491631708F4A6CF3296E491C4
:10187000E61708F4A1CFFC01329685909490462F8C
:10188000431B342F47E0349F800C911C1124F4013A
:10189000329634913196E4913323A9F1EE2399F1F4
:1018A000CC88F4013596E491AD884F89442301F149
:1018B0000E2E000CFF0BE30FF11DCE9EA001CF9E5C
:1018C000500D11246C857D85460F571F68857985DD
:1018D000641775076CF44E855F851D861C86FC01B8
:1018E0003896E491AE9E400D511D11245F874E87BE
:1018F000EA88FB88088919894E855F856C857D8516
:10190000CE010E949709F4013496E4912C898C85CC
:101910009D85E29F800D911D11248DCF6F927F9246
:101920008F929F92AF92BF92CF92DF92EF92FF92EF
:101930000F931F93CF93DF93EC016B015A01390191
:101940004801E881F9810284F385E02D0995E88159
:10195000F9810288F389E02D87019301A501B60181
:10196000CE010995A501480D591D41505109E88145
:10197000F9810288F389E02D9301B601CE01099522
:10198000E881F9810088F189E02D9401A501B60173
:10199000CE010995C60CD71CB60161507109E881CA
:1019A000F9810088F189E02D9401A501CE01099506
:1019B000E881F9810688F789E02DCE01DF91CF918A
:1019C0001F910F91FF90EF90DF90CF90BF90AF905D
:1019D0009F908F907F906F9009946F927F928F92DB
:1019E0009F92AF92BF92CF92DF92EF92FF920F93AE
:1019F0001F93CF93DF935C01EB016A01490138012A
:101A00008701DC01ED91FC916217730719F56416EB
:101A100075062CF0962D872D3A01C92ED82E9601E9
:101A2000261937092F5F3F4F048CF58DE02DA30158
:101A3000BE01C5010995DF91CF911F910F91FF90D4
:101A4000EF90DF90CF90BF90AF909F908F907F905E
:101A50006F9008954615570591F42617370724F01F
:101A6000892D4B01C22FD82F9E01281939092F5FCC
:101A70003F4F068CF78DE02DA601B401DACF02842A
:101A8000F385E02D0995D501ED91FC910488F58948
:101A9000E02D83019401A601BE01C5010995D50180
:101AA000ED91FC910688F789E02DC501DF91CF917A
:101AB0001F910F91FF90EF90DF90CF90BF90AF906C
:101AC0009F908F907F906F900994EF92FF920F9369
:101AD0001F93DC011A960D911C911B9718962D915E
:101AE0003C911997ED91FC9100A0F1A1E02D7B01B3
:101AF00050E040E070E060E009951F910F91FF9089
:101B0000EF9008954F925F926F927F928F929F9283
:101B1000AF92BF92CF92DF92EF92FF920F931F93FB
:101B2000CF93DF936C012B015A0139014801DC018D
:101B3000ED91FC910284F385E02D0995E201640C9E
:101B4000751CD601ED91FC91C615D7055CF4008893
:101B5000F189E02D87019401A501BE01C601099517
:101B60002196EFCF0688F789E02DC601DF91CF914E
:101B70001F910F91FF90EF90DF90CF90BF90AF90AB
:101B80009F908F907F906F905F904F9009948F926D
:101B90009F92AF92BF92CF92DF92EF92FF920F93FC
:101BA0001F93CF93DF93EC015B014A016901E88148
:101BB000F9810284F385E02D099595012C0D3D1DD9
:101BC00021503109E881F9810488F589E02D7801F7
:101BD0008401A401B501CE010995E881F981068847
:101BE000F789E02DCE01DF91CF911F910F91FF90EA
:101BF000EF90DF90CF90BF90AF909F908F9009941F
:101C00008F929F92AF92BF92CF92DF92EF92FF920C
:101C10000F931F93CF93DF93EC015B014A0169019E
:101C20007801E881F9810284F385E02D0995C80CDB
:101C3000D91C860101501109E881F9810488F589D0
:101C4000E02D9501A401B501CE010995E881F98146
:101C50000688F789E02DCE01DF91CF911F910F917A
:101C6000FF90EF90DF90CF90BF90AF909F908F90BC
:101C70000994EF92FF920F931F93DC01ED91FC9179
:101C800000A0F1A1E02D09951F910F91FF90EF9019
:101C900008950F931F93DC01ED91FC91068CF78D55
:101CA000E02D09951F910F9108950F931F93DC016B
:101CB000ED91FC91048CF58DE02D09951F910F910C
:101CC0000895DC01ED91FC910084F185E02D0994EB
:101CD0003F924F925F926F927F928F929F92AF92BC
:101CE000BF92CF92DF92EF92FF920F931F93CF9309
:101CF000DF935C017B014A016901390187E0680ECD
:101D0000711C93E0759467949A95E1F72B01400E4E
:101D1000511E10E000E0312CD0E0C0E0CE01877011
:101D20009927330C892B59F4FE0183E0F595E7954B
:101D30008A95E1F7E00FF11FE80DF91D349037FEA9
:101D40000AC021E030E0A701B5016C0F7D1F8FE3D1
:101D500093E00E94610E2196CC16DD06F9F68FEF16
:101D6000E81AF80A060D171DE414F504A9F6DF9128
:101D7000CF911F910F91FF90EF90DF90CF90BF9088
:101D8000AF909F908F907F906F905F904F903F901B
:101D900008952F923F924F925F926F927F928F920F
:101DA0009F92AF92BF92CF92DF92EF92FF920F93EA
:101DB0001F93CF93DF9300D000D000D0CDB7DEB714
:101DC0003C016A013E832D83FC82EB825801A41AF8
:101DD000B50AB7FE03C0B194A194B1088D809E806E
:101DE000861A970A97FE03C09194819491088A14E9
:101DF0009B045CF0902F812F0D811E819D838E832B
:101E00009C2D8D2D6B01692F782F0C151D055CF015
:101E10009D818E817E836D83692F782F902F812FF6
:101E20008601C92ED82E1601201A310A2B012D81C8
:101E30003E81421A530A57FE03C0519441945108FF
:101E4000710137FE03C03FEFE31AF30AF594E794FC
:101E50008D819E81861797075CF5A1E0B0E0BA837B
:101E6000A983C016D1064CF1D301ED91FC910484F5
:101E7000F585E02D2B813C81A8016D817E818A143E
:101E80009B041CF04D815E81B801C3010995E418E3
:101E9000F508F7FE0AC02D813E8189819A81280FBD
:101EA000391F3E832D83E20CF31C0F5F1F4FD9CFE8
:101EB0002FEF3FEF3A832983D4CF26960FB6F894BD
:101EC000DEBF0FBECDBFDF91CF911F910F91FF906D
:101ED000EF90DF90CF90BF90AF909F908F907F90CA
:101EE0006F905F904F903F902F90089508952091AC
:101EF0003E02260F3327331F21323105ECF42091A7
:101F00006202FC0190E080E0243069F082E00895F4
:101F1000A0913E022191AC01425E5D4FA40FB52F0E
:101F2000B11D2C930196861798F380913E02680F9D
:101F300060933E0280E0089581E00895109262026D
:101F400081E0809364021092630261E082E10E946A
:101F5000720561E083E10E947205E9EBF0E08081A7
:101F60008E7F808380818D7F808380E28093B80024
:101F700085E48093BC000895CF93DF9391E0909324
:101F80001D028823B9F0C091B800D091BA008091A9
:101F9000BC008A7B8093BC0060E082E10E947205F5
:101FA00060E083E10E9472050E949E0FD093BA0008
:101FB000C093B800DF91CF910895E091CE02809157
:101FC000CD02E81730F4F0E0E850FE4F808190E059
:101FD00008958FEF9FEF08959091CE028091CD02EA
:101FE0002FEF3FEF981748F4E92FF0E0E850FE4F4D
:101FF000208130E09F5F9093CE02C90108958091C7
:10200000CD029091CE02891B990B0895CF92DF9259
:10201000EF92FF920F931F93CF93DF937C01CB013D
:102020008A0120911303222389F0EB016B01C40E76
:10203000D51ECC15DD0569F06991D701ED91FC91B4
:102040000190F081E02DC7010995F3CF642F0E9424
:10205000770FC801DF91CF911F910F91FF90EF9003
:10206000DF90CF900895CF93DF931F92CDB7DEB767
:102070006983209113032223F9F020911003203269
:1020800058F021E030E0FC013383228390E080E0CF
:102090000F90DF91CF91089580911103E82FF0E028
:1020A000E852FE4F998190838F5F80931103809354
:1020B000100381E090E0ECCF61E0CE0101960E9438
:1020C000770FF7CFCF92DF92EF92FF920F931F938C
:1020D000CF93DF93D091100381E0D13208F09CC000
:1020E000C09112030E94EF056B017C018091620296
:1020F00081116CC082E08093620281E0809364026F
:102100008FEF8093610210928602D0938502A8ED32
:10211000B1E0E5E6F2E080E0D8138DC010928702CE
:1021200080918702CC0FC82BC093870280916302F5
:10213000813009F084C0109263020E94EF056B01A8
:102140007C01809187028093BB008091190290915D
:102150001A02A0911B02B0911C02892B8A2B8B2B97
:10216000A1F00E94EF050091190210911A0220912E
:102170001B0230911C026C197D098E099F090617FC
:1021800017072807390708F442C08091BC0083FD77
:10219000D8CF85EC8093BC000E94EF056B017C01D9
:1021A00080916202823009F44CC0809161028F3FBD
:1021B00009F469C080916102803209F466C080919F
:1021C0006102803309F463C084E026C08091190263
:1021D00090911A02A0911B02B0911C02892B8A2BAC
:1021E0008B2B09F483CF0E94EF0500911902109107
:1021F0001A0220911B0230911C026C197D098E0974
:102200009F09061717072807390708F06FCF809135
:1022100018020E94BC0F85E0109211031092100367
:1022200010921303DF91CF911F910F91FF90EF90C8
:10223000DF90CF9008959D9191938F5F6DCF85EE44
:10224000A9CF8091190290911A02A0911B02B0911E
:102250001C02892B8A2B8B2B09F4A2CF0E94EF053D
:102260000091190210911A0220911B0230911C0258
:102270006C197D098E099F0906171707280739076A
:1022800008F08ECFC4CF80E0C7CF82E0C5CF83E017
:10229000C3CFEF92FF920F931F93CF93DF937C01F5
:1022A000C62F80915C0390915D03009709F459C09B
:1022B0002091600331E030931303209312031092B6
:1022C000110310921003DC01ED91FC910190F0815B
:1022D000E02D60E009958701EE24E394F12CD1E034
:1022E000C15080915C0390915D03CF3F91F1B0E2CA
:1022F000EB16F104D8F00E94621080915C0390917B
:102300005D0320916003D093130320931203109276
:10231000110310921003DC01ED91FC910190F0810A
:10232000E02D60E00995EE24E394F12C80915C03AC
:1023300090915D03F8016491DC01ED91FC910190B5
:10234000F081E02D0995BFEFEB1AFB0A0F5F1F4FDD
:10235000C7CFDF91CF911F910F91FF90EF900C9419
:102360006210E0916C03F0916D0390818091720393
:102370008095892380838701C15008F438C0F80113
:10238000849120915A0330915B03232B29F00E9402
:1023900077090F5F1F4FF0CF28E030E040E8E09171
:1023A0006803F091690390917003582F5423D9F07A
:1023B0005081952B9083E0916A03F0916B0390819B
:1023C00050917103952B9083E0916A03F0916B0318
:1023D000508190917103909595239083469521505B
:1023E0003109E9F6D6CF508190959523E3CFDF915F
:1023F000CF911F910F91FF90EF9008951F93CF936E
:10240000DF93EC018D8D9E8D009721F1162F29A170
:1024100031E03093130320931203109211031092B2
:102420001003DC01ED91FC910190F081E02D60E062
:1024300009958D8D9E8DDC01ED91FC910190F081CF
:10244000E02D612F09958D8D9E8DDF91CF911F918C
:102450000C946210ADA5BEA59C918BA98095892393
:102460008C938B8D9C8D892B31F0862FDF91CF91B2
:102470001F910C94770928E030E080E8A9A5BAA55F
:1024800099A9462F4823C1F04C91942B9C93ABA55E
:10249000BCA59C914AA9942B9C93ABA5BCA54C913F
:1024A0009AA9909594239C9386952150310931F7F0
:1024B000DF91CF911F9108954C9190959423E6CF91
:1024C000DF92EF92FF920F931F93CF93DF93809150
:1024D0005C0390915D03892B09F498C020917403EB
:1024E00030917503409176035091770360E072E17B
:1024F0008AE790E00E944B1B2051310941095109A4
:1025000056954795379527952093B80065E088E460
:102510009AE00E9449116091430361508FE393E078
:102520000E94FE112091450330914603C901079690
:1025300097FD079633E0959587953A95E1F72091B9
:10254000430330914403829F8001839F100D929F2B
:10255000100D1124C0915E03D0915F0380915C0344
:1025600090915D030C0F1D1F009709F48FC02091FF
:10257000600331E030931303209312031092110390
:1025800010921003DC01ED91FC910190F081E02D9F
:1025900060E40995EE24E394F12CDD24D39480913A
:1025A0005C0390915D030C171D0709F446C0B0E26F
:1025B000EB16F104D8F00E94621080915C039091B8
:1025C0005D0320916003D0921303209312031092B5
:1025D000110310921003DC01ED91FC910190F08148
:1025E000E02D60E40995EE24E394F12C80915C03E6
:1025F00090915D036991DC01ED91FC910190F08176
:10260000E02D0995BFEFEB1AFB0AC9CF80915A0361
:1026100090915B03892B31F080917D0390917E0333
:102620000E947E09E0916E03F0916F03908180918A
:10263000730380958923808369CF0E946210809103
:102640005C0390915D03892B09F461C020917803AC
:102650003091790340917A0350917B0360E072E1FD
:102660008AE790E00E944B1B205131094109510932
:1026700056954795379527952093B800DF91CF91D0
:102680001F910F91FF90EF90DF900895E0916C0300
:10269000F0916D03808190917203892B80830C17D8
:1026A0001D0769F2899120915A0330915B03232B16
:1026B00019F00E947709F3CF28E030E040E8E0917C
:1026C0006803F091690390917003582F5423D9F057
:1026D0005081952B9083E0916A03F0916B03908178
:1026E00050917103952B9083E0916A03F0916B03F5
:1026F0005081909171039095952390834695215038
:102700003109E9F6CCCF508190959523E3CFE09144
:102710006E03F0916F03808190917303892B808306
:10272000ADCF1F93CF93DF93EC01162F8D8D9E8D30
:10273000892BB1F12DA93EA94FA958AD60E072E1F6
:102740008AE790E00E944B1B205131094109510951
:1027500056954795379527952093B80066EA11114D
:1027600067EACE010E94FE118D8D9E8D892B41F16D
:1027700029AD3AAD4BAD5CAD60E072E18AE790E027
:102780000E944B1B2051310941095109569547952B
:10279000379527952093B800DF91CF911F91089529
:1027A0008B8D9C8D892B21F08EAD9FAD0E947E0973
:1027B000EFA5F8A990818CA9809589238083CECF3D
:1027C000EFA5F8A980819CA9892B8083E5CF90E0B3
:1027D00080E008952091450330914603C901079692
:1027E00097FD079623E0959587952A95E1F7209127
:1027F000430330914403829FA001839F500D929F19
:10280000500D112470E060E080915E0390915F03B1
:102810000C949D1C0E94981CFB0101900020E9F77C
:102820003197AF01461B570BDC01ED91FC91028003
:10283000F381E02D09940F931F93CF93DF93EC0165
:102840000E940C148C0166E571E0CE010E940C140C
:10285000800F911FDF91CF911F910F91089585ED0A
:102860008093BC008091190290911A02A0911B02E2
:10287000B0911C020796A11DB11D23E0B695A79546
:10288000979587952A95D1F72091BC0024FD03C028
:102890001092620208954091190250911A026091BB
:1028A0001B0270911C02452B462B472B69F30097A6
:1028B000A105B10541F025E12A95F1F70000019746
:1028C000A109B109E1CF809118020C94BC0F1F92AD
:1028D0000F920FB60F9211242F933F938F939F93D4
:1028E000AF93BF938091080390910903A0910A03CD
:1028F000B0910B033091070326E0230F2D3758F5D5
:102900000296A11DB11D20930703809308039093A5
:102910000903A0930A03B0930B0380910C039091D9
:102920000D03A0910E03B0910F030196A11DB11DDF
:1029300080930C0390930D03A0930E03B0930F03A9
:10294000BF91AF919F918F913F912F910F900FBEAB
:102950000F901F90189529E8230F0396A11DB11D14
:10296000D2CF1F920F920FB60F9211242F933F9345
:102970004F935F936F937F938F939F93AF93BF9387
:10298000EF93FF93E091D102F091D202309749F09A
:10299000A685B7858585968D91FF14C09C91892366
:1029A000A1F4FF91EF91BF91AF919F918F917F9192
:1029B0006F915F914F913F912F910F900FBE0F90AC
:1029C0001F9018959C91892361F7A389B4899C91E4
:1029D0008589809589238C93868997890197F1F75A
:1029E000608D718DA685B785558538E020E0CB01D7
:1029F0000197F1F7822F90E095958795282F4C91BC
:102A0000452309F02068315091F7868D81FD20958E
:102A10008091D00290E001968F7399273091CF0278
:102A2000381799F0A091D002B0E0A857BD4F2C9371
:102A30008093D002828D938D0197F1F7A389B48999
:102A40008C919589892B8C93ACCF868D8160868FF4
:102A5000F1CF1F920F920FB60F9211242F933F9335
:102A60004F935F936F937F938F939F93AF93BF9396
:102A7000EF93FF938091B900887F803609F44AC0B4
:102A8000F0F5883209F4A7C018F5803109F49BC02D
:102A9000B8F4882309F4F9C0883009F494C0FF9190
:102AA000EF91BF91AF919F918F917F916F915F91C6
:102AB0004F913F912F910F900FBE0F901F9018953F
:102AC000883109F488C0803251F78093610214C0C4
:102AD000803409F49DC040F48033B9F38833F9F6AB
:102AE0008093610285ECB0C0803509F485C08835DB
:102AF00009F496C0883499F60E942F14D0CF8839F3
:102B000009F48CC038F5883729F050F4883611F074
:102B1000803729F683E0809362021092600257C0EA
:102B2000883809F47BC0803919F0803809F0B7CFB4
:102B300080916002803208F071C0E091600281E013
:102B40008E0F809360028091BB00F0E0E05CFD4F4F
:102B500080833DC0803B39F0E0F4803A09F479C0CD
:102B6000883A09F09CCF84E08093620210923F0281
:102B700010923E02E091CB02F091CC020995809137
:102B80003E0281110FC081E080933E0210921E022E
:102B900009C0803C09F4A6CF883C09F4A3CF883B48
:102BA00009F07DCFE0913F0281E08E0F80933F02DC
:102BB000F0E0E25EFD4F80818093BB0090913F0288
:102BC00080913E0229C0809187028093BB0085ECF2
:102BD0008093BC0064CF9091860280918502981703
:102BE00058F5E091860281E08E0F80938602F0E036
:102BF000EB59FD4F8081E9CFE091860281E08E0F95
:102C0000809386028091BB00F0E0EB59FD4F8083FA
:102C100090918602809185029817C8F285E8D8CFF6
:102C2000E091860281E08E0F809386028091BB0046
:102C3000F0E0EB59FD4F80838091640281115CCFFD
:102C400081E08093630284EA8093BC001092620268
:102C500026CF85EC8093BC001092620280916002C6
:102C6000803230F4E0916002F0E0E05CFD4F1082D1
:102C70006091600270E0E091C902F091CA0280E4C4
:102C800092E00995109260020ACF1092610234CF4F
:102C90000F931F93109236031092350308EE13E042
:102CA00020E030E00093370310933803209339037A
:102CB00030933A038AE091E0909334038093330396
:102CC000109242031092410340E850E050934403B5
:102CD0004093430380E490E0909346038093450340
:102CE000509348034093470390934A0380934903CA
:102CF0001092550310924C0310924B0310924E0306
:102D000010924D0361E060935403609353038FEF7F
:102D10009FEF9093520380935103909350038093BD
:102D20004F03609356031092570310925903109269
:102D300058038EE291E09093400380933F031092FA
:102D40005B0310925A0383E393E090935D038093B7
:102D50005C0310925F0310925E038FEF8093630316
:102D60008093640380936503809366038093670375
:102D700080E89AE1A6E0B0E0809374039093750335
:102D8000A0937603B093770380EA96E8A1E0B0E0E1
:102D90008093780390937903A0937A03B0937B0395
:102DA00080E580937D0360937E0310921703109259
:102DB0001603009318031093190320931A033093FA
:102DC0001B038CE191E09093150380931403109200
:102DD0002B0310922A0310922D0310922C031092B1
:102DE0002F0310922E031092310310923003809122
:102DF00032038E7F8D7F80933203869581706827A2
:102E000081E00E94720561E081E00E94BE05E6E774
:102E1000FAE0E491E0932403E2E6FAE0E491F0E0E2
:102E2000EE0FFF1FE95AF54F859194919093260379
:102E30008093250360E080E00E94BE05809132030C
:102E400081FD04C061E080E00E94720510922003C1
:102E5000E5E7FAE0E491E0932103E1E6FAE0E491AA
:102E6000F0E0EE0FFF1FE35BF54F85919491909397
:102E70002303809322031F910F910895CF93DF9333
:102E8000CDB7DEB72F970FB6F894DEBF0FBECDBF1C
:102E9000789484B5826084BD84B5816084BD85B535
:102EA000826085BD85B5816085BD80916E00816041
:102EB00080936E00109281008091810082608093E7
:102EC00081008091810081608093810080918000E9
:102ED0008160809380008091B10084608093B10014
:102EE0008091B00081608093B00080917A0084600E
:102EF00080937A0080917A00826080937A0080913A
:102F00007A008E7F80937A0080917A008068809327
:102F10007A001092C10080915E0390915F03892B2B
:102F200011F10E94EA1320914503309146038091EC
:102F3000430390914403213231050CF013C1B901D0
:102F40006052710977FF02C06F5F7F4F759567957B
:102F50008357910997FD019600E210E023E730E0E6
:102F60004AE855E012C12091450330914603C9015A
:102F7000079697FD0796B3E095958795BA95E1F783
:102F80002091430330914403AC01429FC001439F11
:102F9000900D529F900D11240E94731B90935F031C
:102FA00080935E03892B09F0BCCF0E94EA1381E075
:102FB000809353038093540321E030E03093520315
:102FC000209351033093500320934F038093570372
:102FD00069E571E08FE393E00E941B140E94601288
:102FE00010922F0310922E0310922D0310922C0397
:102FF00010922B0310922A038DEC90E090933103F2
:103000008093300390912003963108F047C025E566
:1030100030E030932B0320932A032BEC30E03093E5
:103020002D0320932C0320E930E030932F032093CD
:103030002E032091680084E0983048F031E09E3003
:1030400008F430E081E001C0880F3A95EAF7822B5E
:10305000809368002DE630E0983050F02BE630E0A9
:103060009E3030F02CE630E0963110F030E020E079
:103070003093280320932703292F30E0983008F05D
:1030800067C281E001C0880F9A95EAF7809329030F
:1030900080913003909131030197F1F780912E03D5
:1030A00090912F03892B49F1E091D102F091D20246
:1030B00053E0E431F50709F1309739F0A389B48979
:1030C0009C918589809589238C93809132038E7F92
:1030D000809332031092D0021092CF0284E193E0E9
:1030E0009093D2028093D102E0912703F0912803BC
:1030F000808190912903892B80838BEA9BEA9093AE
:103100000603809305038CE8E82E81E0F82ECE01BB
:1031100001966C0190E0A92E90E0B92E6BE671E06B
:1031200084E193E00E941B1484E193E00E94E9068D
:10313000892BD1F303ED12E084E193E00E94E906CC
:10314000181619060CF011C284E193E00E94FF06E4
:10315000F80181938F0162E070E080E090E00E94CE
:103160001406EACFB9016054710977FF02C06F5F9E
:103170007F4F759567958255910997FD019600E4FB
:1031800010E022E530E04AE657E0959587950E94E9
:10319000680E82E08093610380915C0390915D03EF
:1031A000892B09F4DFC08CE3809360031092CE0278
:1031B0001092CD0210921103109210030E949E0FE4
:1031C00086E496E09093CC028093CB0287E496E06D
:1031D0009093CA028093C9028091670387FD1EC045
:1031E00061E00E94BE0561E0809167030E94720564
:1031F00061E070E080E090E00E94140660E0809161
:1032000067030E9472056AE070E080E090E00E942F
:10321000140661E0809167030E94720580915C034F
:1032200090915D03892B09F45CC120917403309166
:103230007503409176035091770360E072E18AE76D
:1032400090E00E944B1B20513109410951095695CC
:103250004795379527952093B80064E086E895E078
:103260000E9449116091450361508FE393E00E94F1
:10327000FE1164E082E895E00E94491180916103AB
:1032800060E1813009F064E18FE393E00E94FE1178
:1032900064E08EE795E00E9449118FE880937C03FB
:1032A00080914303909144038038910509F032C125
:1032B00080914503909146038034910509F03AC10D
:1032C00080916103813009F023C18FE980937C03F1
:1032D00012E16AED8FE393E00E94FE11612F8FE30C
:1032E00093E00E94FE1161E88FE393E00E94FE11DB
:1032F00060917C038FE393E00E94FE1169ED8FE300
:1033000093E00E94FE118091610362E2813009F036
:1033100061EF8FE393E00E94FE1166E088E795E09D
:103320000E94491180915C0390915D03892B09F4FF
:1033300005C1209178033091790340917A0350912F
:103340007B0360E072E18AE790E00E944B1B205112
:10335000310941095109569547953795279520938D
:10336000B80023CE61E0809165030E94BE0561E054
:10337000809166030E94BE0580916503082E000CB3
:10338000990BFC01EF59F54FE491F0E0EE0FFF1FB0
:10339000E95AF54F2591349130936D0320936C03D6
:1033A000FC01EB58F54FE491E093720380916603C2
:1033B000082E000C990BFC01EF59F54FE491F0E059
:1033C000EE0FFF1FE95AF54FA591B491B0936F032B
:1033D000A0936E03FC01EB58F54FE491E093730367
:1033E0008C91E82BEC9380915A0390915B03892B8D
:1033F00009F434C01FB7F8948091C802811127C026
:10340000EBE6FAE08491EFE7FAE09491E82FF0E040
:10341000EE0FFF1FE65DF54FA591B491EC91E92306
:1034200021F461E08AE00E94720561E08AE00E9476
:10343000BE058CB580618CBD8CB580648CBD61E0AF
:103440008DE00E94BE0561E08BE00E94BE05809188
:10345000C8028F5F8093C8021FBFBECE61E080911B
:1034600063030E94BE0561E0809164030E94BE0573
:1034700080916303082E000C990BFC01EF59F54F66
:10348000E491F0E0EE0FFF1FE95AF54F25913491DA
:103490003093690320936803FC01EB58F54FE491E6
:1034A000E093700380916403082E000C990BFC01DB
:1034B000EF59F54FE491F0E0EE0FFF1FE95AF54F99
:1034C000A591B491B0936B03A0936A03FC01EB58F0
:1034D000F54FE491E09371038C91E095E823EC9330
:1034E0007BCE80915A0390915B03892B31F08091C0
:1034F0007D0390917E030E947E09E0916E03F0911E
:103500006F03908180917303809589238083A5CE7A
:103510008FECDCCE8036910569F480914503909163
:103520004603409739F480916103813029F480E1AA
:1035300080937C0312E0CDCE8FEAFACFE0916E0348
:10354000F0916F03808190917303892B80832DCD3F
:103550009E3040F42850310981E001C0880F2A953F
:10356000EAF794CD2E503109F7CFF80110820E946E
:10357000EA1310924C0310924B0310924E031092D8
:103580004D0363E771E08FE393E00E941B1466E84C
:1035900071E08FE393E00E940C1463ED72E08FE31F
:1035A00093E00E941B14809106038F938091050382
:1035B0008F93FF92EF92DF92CF920E94A41CB601EC
:1035C0008FE393E00E941B140E94601264E670E097
:1035D00080E090E00E9414060F900F900F900F90E3
:1035E0000F900F9080910503909106038B3A9B4AB0
:1035F000D9F00E94EA1310924C0310924B031092E0
:103600004E0310924D0380910503909106036AE9E1
:1036100071E08E3F904C11F069EB71E08FE393E025
:103620000E941B140E94601264E670E080E090E04B
:103630000E941406A114B10409F470CD0E94000088
:103640006DCD8CE191E090931503809314038091EC
:10365000D1029091D2028451934071F4E0912703FA
:10366000F09128039081809129038095892380839C
:103670001092D2021092D1028EE291E09093400318
:1036800080933F0380915E0390915F03009711F058
:103690000C940F1C0895A1E21A2EAA1BBB1BFD015E
:1036A0000DC0AA1FBB1FEE1FFF1FA217B307E40721
:1036B000F50720F0A21BB30BE40BF50B661F771F79
:1036C000881F991F1A9469F7609570958095909559
:1036D0009B01AC01BD01CF010895EE0FFF1F0590C6
:1036E000F491E02D09940F931F93CF93DF938230D1
:1036F000910510F482E090E0E0918103F091820363
:1037000030E020E0B0E0A0E0309799F421153105D9
:1037100009F44AC0281B390B24303105D8F58A81B9
:103720009B816115710589F1FB0193838283FE0101
:1037300011C0408151810281138148175907E0F07F
:103740004817590799F4109761F012960C93129745
:1037500013961C933296CF01DF91CF911F910F9159
:1037600008950093810310938203F4CF211531054E
:1037700051F04217530738F0A901DB019A01BD014E
:10378000DF01F801C1CFEF01F9CF9093820380935D
:103790008103CDCFFE01E20FF31F8193919322505D
:1037A000310939832883D7CF20917F03309180035B
:1037B000232B41F4209102013091030130938003C7
:1037C00020937F03209100013091010121153105E3
:1037D00041F42DB73EB74091040150910501241BDF
:1037E000350BE0917F03F0918003E217F307A0F41B
:1037F0002E1B3F0B2817390778F0AC014E5F5F4F47
:103800002417350748F04E0F5F1F509380034093F5
:103810007F03819391939FCFF0E0E0E09CCFCF9323
:10382000DF930097E9F0FC01329713821282A09196
:103830008103B0918203ED0130E020E01097A1F404
:1038400020813181820F931F20917F03309180036B
:103850002817390709F061C0F0938003E0937F03D4
:10386000DF91CF910895EA01CE17DF07E8F54A818D
:103870005B819E0141155105B1F7E901FB83EA83A4
:1038800049915991C40FD51FEC17FD0761F4808150
:1038900091810296840F951FE90199838883828123
:1038A00093819B838A83F0E0E0E012968D919C9156
:1038B00013970097B9F52D913C911197CD01029680
:1038C000820F931F20917F033091800328173907BF
:1038D00039F6309751F51092820310928103B0931C
:1038E0008003A0937F03BCCFD383C28340815181E7
:1038F000840F951FC817D90761F44E5F5F4F888109
:103900009981480F591F518340838A819B819383FA
:1039100082832115310509F0B0CFF0938203E09343
:1039200081039ECFFD01DC01C0CF13821282D7CF6D
:1039300081E090E0F8940C947C1FDC0101C06D9351
:1039400041505040E0F70895AEE0B0E0EAEAFCE113
:103950000C94531F0D891E8986E08C831A8309837A
:103960008FEF9FE79E838D83AE01475E5F4F6F8928
:10397000788DCE0101960E94C71C2F813885020FD9
:10398000131FF80110822E96E4E00C946F1FABE039
:10399000B0E0EDECFCE10C94451F7C013B018A0199
:1039A000FC0117821682838181FFC8C1CE01019676
:1039B0005C01F7019381F30193FD859193FF819160
:1039C0003F01882309F453C1853239F493FD859171
:1039D00093FF81913F01853229F4B70190E00E9465
:1039E000B71EE7CF912C212C312CFFE1F31538F0D5
:1039F0008B3211F190F4803209F1833229F137FCD6
:103A00003CC020ED280F2A3050F536FE20C08AE059
:103A1000989E200D1124922E06C08D3291F0803395
:103A200071F7689430F8F30193FD859193FF8191CC
:103A30003F018111DACF21C0689431F8689432F8DF
:103A4000F2CF689433F8EFCF689434F8ECCFEAE023
:103A50002E9E200D1124222E689435F8E4CF8E324C
:103A600029F436FC04C1689436F8DDCF8C3619F49D
:103A7000689437F8D8CF8836B1F2982F9F7D955447
:103A80009330E0F08336A1F18337C1F1833509F03B
:103A900063C02801F2E04F0E511CF801C080D180B4
:103AA000692D70E036FC02C06FEF7FEFC6010E9407
:103AB000A11E4C01689437F882010AC00C5F1F4FA9
:103AC000FFE3F98388248394912C6501E89437F807
:103AD00033FE2DC0522C8114910471F5552009F448
:103AE00068CFB70180E290E00E94B71E5A94F6CFEB
:103AF000F801808189830E5F1F4FE4CF2801F2E037
:103B00004F0E511CF801C080D180692D70E036FC49
:103B100002C06FEF7FEFC6010E94AC1E4C01820114
:103B2000D5CFB70180E290E00E94B71E2A942814F6
:103B3000190409F0B0F7CECFF60137FC859137FEB6
:103B400081916F01B70190E00E94B71E51105A9405
:103B5000F1E08F1A9108BFCF843619F0893609F049
:103B600077C0F80137FE6BC06081718182819381DB
:103B70000C5F1F4FF32DFF763F2E97FF09C09095E6
:103B80008095709561957F4F8F4F9F4F689437F860
:103B90002AE030E0A5010E94E71EC82ECA188C2C2E
:103BA000432C36FE0CC0E89440F8C91440F434FEAF
:103BB00005C032FC03C0F32DFE7E4F2E892C44FE3F
:103BC00095C0FE01EC0DF11D8081803309F087C0A6
:103BD000242D297E422E842D8870582E43FC95C0BA
:103BE00040FE8FC09C2C821418F42C0C922C981838
:103BF00044FE91C0B70180E390E00E94B71E42FEF0
:103C000009C088E790E041FE02C088E590E0B70176
:103C10000E94B71EC91408F48AC0CA94D12C9FEF21
:103C2000C91AD90ACA0CDB1CF60182916F01B701CF
:103C300090E00E94B71EAC14BD04B1F74FCF608175
:103C40007181072E000C880B990B0E5F1F4F92CFCE
:103C5000D32CE894D4F82AE030E0853739F1232DCD
:103C6000297FD22E8F3601F148F48835A9F0F7016B
:103C7000868197812B96E2E10C94611F803749F091
:103C80008837A9F7D4FE02C06894D2F820E130E06A
:103C90000DC06894D4F8F6CF34FE03C0822F86603E
:103CA000D82E20E132E002C028E030E0F801D7FE53
:103CB0000FC060817181828193810C5F1F4FA501CC
:103CC0000E94E71EC82ECA183D2CE89437F867CF2B
:103CD0006081718190E080E00E5F1F4FF0CF42FC69
:103CE00002C0839478CF8394839475CF842D867893
:103CF00009F471CFF6CFB70180E290E00E94B71EC1
:103D000083948214C0F3512C73CF522C5818821410
:103D100008F46ECFF8CF842D867809F47BCF8BE240
:103D200041FE80E247FC8DE2B70190E071CFB70120
:103D300080E390E00E94B71E9A946CCF8FEF9FEFC4
:103D400099CFFC010590615070400110D8F7809523
:103D500090958E0F9F1F0895FC0161507040019057
:103D60000110D8F7809590958E0F9F1F08950F939F
:103D70001F93CF93DF93182F092FEB018B8181FDC8
:103D800009C01FEF0FEF812F902FDF91CF911F916F
:103D90000F91089582FF14C02E813F818C819D81F7
:103DA000281739073CF4E881F981CF0101969983FE
:103DB000888310838E819F8101969F838E83E3CFBA
:103DC000E885F985812F0995892BA1F3DACFFA01CE
:103DD000AA27283051F1203181F1E8946F936E7F4A
:103DE0006E5F7F4F8F4F9F4FAF4FB1E03ED0B4E03B
:103DF0003CD0670F781F891F9A1FA11D680F791F7C
:103E00008A1F911DA11D6A0F711D811D911DA11D8C
:103E100020D009F468943F912AE0269F112430199C
:103E2000305D3193DEF6CF010895462F4770405D37
:103E30004193B3E00FD0C9F7F6CF462F4F70405DE6
:103E40004A3318F0495D31FD4052419302D0A9F741
:103E5000EACFB4E0A6959795879577956795BA953B
:103E6000C9F700976105710508959B01AC010A2E01
:103E700006945795479537952795BA95C9F7620FD8
:103E8000731F841F951FA01D08952F923F924F927C
:103E90005F926F927F928F929F92AF92BF92CF92DA
:103EA000DF92EF92FF920F931F93CF93DF93CDB7E3
:103EB000DEB7CA1BDB0B0FB6F894DEBF0FBECDBF5B
:103EC00009942A88398848885F846E847D848C842C
:103ED0009B84AA84B984C884DF80EE80FD800C8135
:103EE0001B81AA81B981CE0FD11D0FB6F894DEBF18
:103EF0000FBECDBFED01089515E0C6E4D5E004C0C6
:103F0000FE010E946D1B2196C734D107C9F7F894B2
:023F1000FFCFE1
:103F12000000830380000000000033100610E71346
:103F22007105FF0FEC0FDD0F000000008D06480643
:103F3200E7137105E906FF06750600000000BC0BD9
:103F42004806E713760FC7087105610E390E550E44
:103F5200490EC90E71058209911337088008820D36
:103F6200650DED0C8E0C0D0A0053656E64206D65B7
:103F720020736F6D657468696E6700496E70757441
:103F8200203E0053656E64206D6520736F6D65740D
:103F920068696E670A00476F743A200043616E6178
:103FA2007279203D20307825780057656C6C20644A
:103FB2006F6E6520210A49206C696B6520746869FF
:103FC200732063616E617279004F68206E6F2C20DE
:103FD200796F7520736D6173686564206D792063F4
:083FE200616E6172792021007B
:00000001FF
