:100000000C944C050C9474050C9474050C942E0CF3
:100010000C942E0C0C942E0C0C9474050C947405FA
:100020000C9474050C9474050C9474050C9474056C
:100030000C9474050C9474050C9474050C9474055C
:100040000C94AD140C9474050C9474050C94740504
:100050000C9474050C9474050C9474050C9474053C
:100060000C94700D0C94740500000000240027000F
:100070002A0000000008000201000003040700003D
:10008000000000000000000103070F1F3F7F0080F9
:10009000C0E0F0F8FCFE00000000003E5B4F5B3E5D
:1000A0003E6B4F6B3E1C3E7C3E1C183C7E3C181C3D
:1000B000577D571C1C5E7F5E1C00183C1800FFE734
:1000C000C3E7FF0018241800FFE7DBE7FF30483ADA
:1000D000060E2629792926407F050507407F05253C
:1000E0003F5A3CE73C5A7F3E1C1C08081C1C3E7FC4
:1000F00014227F22145F5F005F5F06097F017F008B
:100100006689956A606060606094A2FFA2940804AA
:100110007E040810207E201008082A1C08081C2ACB
:1001200008081E101010100C1E0C1E0C30383E3823
:1001300030060E3E0E06000000000000005F0000CA
:100140000007000700147F147F14242A7F2A12233B
:100150001308646236495620500008070300001C4B
:100160002241000041221C002A1C7F1C2A08083E54
:100170000808008070300008080808080000606067
:100180000020100804023E5149453E00427F4000D5
:1001900072494949462141494D331814127F1027AD
:1001A000454545393C4A49493141211109073649FC
:1001B000494936464949291E0000140000004034D0
:1001C00000000008142241141414141400412214D5
:1001D0000802015909063E415D594E7C1211127CFC
:1001E0007F494949363E414141227F4141413E7F5D
:1001F000494949417F090909013E414151737F083D
:1002000008087F00417F41002040413F017F0814E2
:1002100022417F404040407F021C027F7F04081043
:100220007F3E4141413E7F090909063E4151215E21
:100230007F09192946264949493203017F01033FB5
:100240004040403F1F2040201F3F4038403F631444
:1002500008146303047804036159494D43007F4146
:1002600041410204081020004141417F0402010283
:1002700004404040404000030708002054547840A8
:100280007F284444383844444428384444287F383C
:100290005454541800087E090218A4A49C787F08BE
:1002A00004047800447D40002040403D007F102839
:1002B000440000417F40007C047804787C080404FA
:1002C000783844444438FC1824241818242418FC92
:1002D0007C08040408485454542404043F44243C37
:1002E0004040207C1C2040201C3C4030403C4428A6
:1002F0001028444C9090907C4464544C4400083640
:1003000041000000770000004136080002010204AD
:10031000023C2623263C1EA1A161123A4040207ACD
:100320003854545559215555794122545478422115
:100330005554784020545579400C1E52721239554C
:100340005555593954545459395554545800004549
:100350007C410002457D420001457C407D12111226
:100360007DF0282528F07C545545002054547C54B9
:100370007C0A097F4932494949323A4444443A3275
:100380004A4848303A4141217A3A42402078009D1B
:10039000A0A07D3D4242423D3D4040403D3C24FFC7
:1003A0002424487E4943662B2FFC2F2BFF0929F676
:1003B00020C0887E090320545479410000447D41C7
:1003C0003048484A32384040227A007A0A0A727D20
:1003D0000D19317D2629292F28262929292630483B
:1003E0004D4020380808080808080808382F10C8A9
:1003F000ACBA2F102834FA00007B000008142A142D
:100400002222142A14085500550055AA55AA55AAA7
:10041000FF55FF55FF000000FF00101010FF0014F3
:100420001414FF001010FF00FF1010F010F014144F
:1004300014FC001414F700FF0000FF00FF1414F474
:1004400004FC141417101F10101F101F1414141F75
:1004500000101010F0000000001F101010101F10EE
:10046000101010F010000000FF10101010101010ED
:100470001010FF10000000FF140000FF00FF00003C
:100480001F10170000FC04F414141710171414F4B0
:1004900004F40000FF00F714141414141414F700EB
:1004A000F7141414171410101F101F141414F4143C
:1004B0001010F010F000001F101F0000001F1400AB
:1004C0000000FC140000F010F01010FF10FF1414D6
:1004D00014FF141010101F00000000F010FFFFFFA9
:1004E000FFFFF0F0F0F0F0FFFFFF0000000000FF62
:1004F000FF0F0F0F0F0F3844443844FC4A4A4A3468
:100500007E02020606027E027E026355494163387E
:1005100044443C04407E201E2006027E020299A52F
:10052000E7A5991C2A492A1C4C7201724C304A4D8D
:100530004D303048784830BC625A463D3E494949C2
:10054000007E0101017E2A2A2A2A2A44445F44446B
:1005500040514A444040444A51400000FF0103E0FA
:1005600080FF000008086B6B083612362436060F31
:10057000090F06000018180000001010003040FF9E
:100580000101001F01011E00191D1712003C3C3C17
:100590003C000000000000000000230026002900AD
:1005A00000000000250028002B00040404040404BB
:1005B0000404020202020202030303030303010212
:1005C00004081020408001020408102001020408E1
:1005D0001020DB40A4A62EAFDA0281DA1281DA0203
:1005E000818F2000A1C8D300408DAED580A8000027
:1005F000600000000000000000000000000000E0BB
:100600000000000000000000000000000001E00009
:1006100000000000000000000000000001F00000E9
:10062000000000000000000000000003F0000000D7
:100630000000000000000000000007F000000000C3
:1006400000000000000000000007F80000000000AB
:1006500000000000000000000FF800000003C000D0
:100660007E000001E0007F0FF800000003C000FEE4
:10067000000001E000FFEFF800000003C000FE00F2
:100680000001E000FFFFF800000003C000F00000E0
:10069000000F007FFE7FC0000003C000F0000000DC
:1006A0000F003FFE7FF83FF1FBCFFCFEF3BC3DEFB8
:1006B000E01FFE7FFF7FFBFFDFFEFEFFBC3DEFE0A4
:1006C0001FC6FFFF7FFBFFDFFEFEFFBC3DEFE00F1D
:1006D000E3C7FE787BC3DE1EF0FFBC3DEF0007FFE3
:1006E00087FC787BC3DE1EF0F83C3DEF0001FFFF86
:1006F000F0007BC3C01EF0F03C3DEF0001F37FE053
:100700003FFBC3CFFEF0F03C3DEF0003E33F807FB3
:10071000FBC3DFFEF0F03C3DEF0007E73C00787BD9
:10072000C3DE1EF0F03C3DEF0007FFBE00787BC348
:10073000DE1EF0F03C3DEF0007FFFE00787BC3DEDD
:100740001EF0F03C3DEF000FFFFE007FFBFFDFFEE1
:10075000F0F03FFDEFE00FFFFF007FFBFFDFFEF05B
:10076000F03FFDEFE00FF9FF003E79F9CF9EF0F08A
:100770001F3DE7E01FF1FF00000000000000000047
:100780000000001F80FF007FFFFFFFFFFFFFFFFF54
:10079000FFE01C007F007FFFFFFFFEB46D888D1817
:1007A000E000001F007FFFFFFFFE95AD7DB577E005
:1007B00000000F007FFFFFFFFEA5AD9D8D19E0003B
:1007C0000006007FFFFFFFFEB5ADEDB57EE0000047
:1007D0000000000180000000000000000000038015
:1007E00000000000000000000007C0000000000042
:1007F0000000000007C00000000000000000000F23
:10080000C00000000000000000001FE00000000029
:1008100000000000001FE0000000000000000000D9
:100820003FE00000000000000000003FF00000007A
:100830000000000000007FF0000000000000001F2A
:10084000F87FF0000000000000003FFE7FF0000095
:1008500000000000003FFF7FF000000000000000EB
:100860001FFFFBE0000000000000000FFFF9FFC0C9
:100870000000000000000FFFF9FFF800000000007A
:100880000007FFF1FFFF00000000000003FC73FF02
:10089000FF80000000000001FE3FFFFF800000001D
:1008A000000000FF1E0FFF000000000000007FFEA0
:1008B0001FFC000000000000003FFFFFF8000000E8
:1008C000000000000FDFFFE0000000000000001F3C
:1008D00019FFC0000000000000003F3CFF000000C6
:1008E00000000000007E7CF8000000000000000016
:1008F0007FFE7C0000000000000000FFFFFC000005
:10090000000000000000FFFFFE00000000000000EB
:1009100000FFFFFE0000000000000001FFEFFE00EE
:1009200000000000000001FFCFFE000000000000FA
:100930000003FF07FE0000000000000003FC07FEAC
:100940000000000000000003F003FE0000000000B3
:100950000000018000FE0000000000000000000018
:100960007E000000000000000000003E00000000CB
:100970000000000000000C000000000000078000E4
:10098000FC000003C0000000078001FC000003C061
:10099000000000078001FC000003C0000000078089
:1009A00001E00000001E000000078001E0000000E0
:1009B0001E007FE3F79FF9FDE7787BDFC0FFF7FFBD
:1009C000BFFDFDFF787BDFC0FFF7FFBFFDFDFF78B8
:1009D0007BDFC0F0F787BC3DE1FF787BDE00F0F7FE
:1009E00087BC3DE1F0787BDE0000F787803DE1E0E9
:1009F000787BDE007FF7879FFDE1E0787BDE00FFFC
:100A0000F787BFFDE1E0787BDE00F0F787BC3DE1D2
:100A1000E0787BDE00F0F787BC3DE1E0787BDE002C
:100A2000F0F787BC3DE1E0787BDE00FFF7FFBFFD1C
:100A3000E1E07FFBDFC0FFF7FFBFFDE1E07FFBDF11
:100A4000C07CF3F39F3DE1E03E7BCFC0000000009F
:100A500000000000000000FFFFFFFFFFFFFFFFFF9F
:100A6000FFC0FFFFFFFFFD68DB111A31C0FFFFFF72
:100A7000FFFD2B5AFB6AEFC0FFFFFFFFFD4B5B3B07
:100A80001A33C0FFFFFFFFFD6B5BDB6AFDC0220076
:100A9000FF2100003315F71411241FBECFEFD8E05B
:100AA000DEBFCDBF23E0A6EBB1E001C01D92A733AE
:100AB000B207E1F711E0A0E0B1E0ECE2FCE302C034
:100AC00005900D92A63BB107D9F715E0CBE4D5E030
:100AD00004C02197FE010E94001CCA34D107C9F747
:100AE0000E942B160C94091E0C940000CF92DF92EA
:100AF000EF92FF920F931F93CF93DF936C017A01D4
:100B00008B01C0E0D0E0CE15DF0581F0D8016D91FA
:100B10008D01D601ED91FC910190F081E02DC6018F
:100B20000995892B11F02196EECF7E01C701DF9147
:100B3000CF911F910F91FF90EF90DF90CF9008958C
:100B400020912703309128032817390771F49091D9
:100B5000250380912603981741F0E0912503F0E0EA
:100B6000E75EFD4F808190E008958FEF9FEF08953D
:100B700008951F93CF93DF93DC015C968D919C9138
:100B80005D97009739F421E030E013963C932E9363
:100B900012973BC05196ED91FC91529750962C9133
:100BA0005097322F30951FB75E964C915E97742FF9
:100BB000727041FD6095F8944081772311F0422BCB
:100BC00001C043234083EC012197F1F748E05081B5
:100BD00060FF02C0522B01C053235083EC012197C8
:100BE000F1F76695415099F78081772319F08323B7
:100BF000808302C0282B20831FBF5C968D919C911F
:100C00005D970197F1F781E090E0DF91CF911F911F
:100C1000089520912703309128032817390771F48C
:100C2000809126032091250390E0805C9F4F821BDA
:100C3000910960E470E00E94B61B089580E090E0A6
:100C40000895209127033091280328173907B9F414
:100C50009091250380912603981789F0E091250350
:100C6000F0E0E75EFD4F80812091250330E02F5FAB
:100C70003F4F2F7333272093250390E008958FEF84
:100C80009FEF0895FC0177FDB9C0808591856817B5
:100C900079070CF0B3C057FDB1C082859385481722
:100CA00059070CF008958589823079F48481958103
:100CB000DC01A61BB70BBD016150710986819781CC
:100CC000DC01A41BB50BAD010EC0833009F084C05C
:100CD00064277527CA0186279727682779274681C1
:100CE0005781481B590B415051092130310531F0D2
:100CF00048F12230310509F44AC00895CA0157FD70
:100D000007969C01A3E035952795AA95E1F7A48164
:100D1000B5812A9FC0012B9F900D3A9F900D112401
:100D2000680F791F068CF78DE02DE60FF71F4770CF
:100D3000552781E090E001C0880F4A95EAF790813D
:100D4000892B48C0CA0157FD07969C0193E0359551
:100D500027959A95E1F7A481B5812A9FC0012B9F21
:100D6000900D3A9F900D1124680F791F068CF78D16
:100D7000E02DE60FF71F4770552781E090E001C096
:100D8000880F4A95EAF780959081892323C0CA018C
:100D900057FD07969C0183E0359527958A95E1F7E5
:100DA000A481B5812A9FC0012B9F900D3A9F900D81
:100DB0001124680F791F068CF78DE02DE60FF71FC1
:100DC0004770552781E090E001C0880F4A95EAF707
:100DD0009081892780830895813009F086CF642728
:100DE0007527462757276427752784819581DC015D
:100DF000A61BB70BBD016150710977CF0895089507
:100E0000FC016370658B8481958126813781613017
:100E100039F0633029F091878087338722870895DE
:100E2000318720879387828708956F927F928F9270
:100E30009F92AF92BF92CF92DF92EF92FF920F9369
:100E40001F93CF93DF93EC014B015A0169013801E5
:100E5000E881F9810284F385E02D0995E881F98123
:100E60000288F389E02D87019601A501B401CE0126
:100E70000995A501460D571D41505109E881F98199
:100E80000288F389E02D9601B401CE010995E8812D
:100E9000F9810088F189E02D9301A501B401CE010B
:100EA0000995C80CD91CB60161507109E881F98116
:100EB0000088F189E02D9301A501CE010995E88113
:100EC000F9810688F789E02DCE01DF91CF911F913E
:100ED0000F91FF90EF90DF90CF90BF90AF909F90D9
:100EE0008F907F906F9009948F929F92AF92BF9254
:100EF000CF92DF92EF92FF920F931F93CF93DF93E6
:100F00004C016B015A01E901DC01ED91FC91621782
:100F1000730781F40417150724F48B2D5801042F4F
:100F2000182F0A191B0998012F5F3F4F048CF58D6C
:100F3000E02D12C04017510709F52617370724F492
:100F40008D2D6901C62FD82F9E012C193D092F5FC9
:100F50003F4F068CF78DE02D8701A501B601C40136
:100F60000995DF91CF911F910F91FF90EF90DF9046
:100F7000CF90BF90AF909F908F9008950284F3859B
:100F8000E02D0995D401ED91FC910488F589E02DBF
:100F90009E01A501B601C4010995D401ED91FC9112
:100FA0000688F789E02DC401DF91CF911F910F9141
:100FB000FF90EF90DF90CF90BF90AF909F908F9079
:100FC0000994EF92FF920F931F93DC011A960D91F3
:100FD0001C911B9718962D913C911997ED91FC91BE
:100FE00000A0F1A1E02D7B0140E050E060E070E066
:100FF00009951F910F91FF90EF9008954F925F9286
:101000006F927F928F929F92AF92BF92CF92DF9218
:10101000EF92FF920F931F93CF93DF936C012B01FD
:101020005A0139014801DC01ED91FC910284F385FC
:10103000E02D0995E201640C751CD601ED91FC913F
:10104000C615D7055CF40088F189E02D870194016D
:10105000A501BE01C60109952196EFCF0688F78943
:10106000E02DC601DF91CF911F910F91FF90EF907E
:10107000DF90CF90BF90AF909F908F907F906F90B8
:101080005F904F9009948F929F92AF92BF92CF92B0
:10109000DF92EF92FF920F931F93CF93DF93EC01B8
:1010A0005B014A016901E881F9810284F385E02D41
:1010B000099595012C0D3D1D21503109E881F981DB
:1010C0000488F589E02D78018401A401B501CE01E1
:1010D0000995E881F9810688F789E02DCE01DF9135
:1010E000CF911F910F91FF90EF90DF90CF90BF9025
:1010F000AF909F908F9009948F929F92AF92BF92E2
:10110000CF92DF92EF92FF920F931F93CF93DF93D3
:10111000EC015B014A0169017801E881F9810284EF
:10112000F385E02D0995C80CD91C860101501109E1
:10113000E881F9810488F589E02D9501A401B501C4
:10114000CE010995E881F9810688F789E02DCE0165
:10115000DF91CF911F910F91FF90EF90DF90CF9093
:10116000BF90AF909F908F900994EF92FF920F9352
:101170001F93DC01ED91FC9100A0F1A1E02D0995F8
:101180001F910F91FF90EF9008950F931F93DC0133
:10119000ED91FC91068CF78DE02D09951F910F9133
:1011A00008950F931F93DC01ED91FC91048CF58D54
:1011B000E02D09951F910F910895DC01ED91FC91AF
:1011C0000084F185E02D09942F923F924F925F9217
:1011D0006F927F928F929F92AF92BF92CF92DF9247
:1011E000EF92FF920F931F93CF93DF9300D000D025
:1011F00000D0CDB7DEB72C017E836D836A01590123
:10120000C801FC82EB824801841A950A97FE03C04C
:1012100091948194910835012D813E81621A730A5F
:1012200077FE03C0719461947108681479045CF4CA
:101230003A2D2B2D5C01832F922F3D812E81DE8252
:10124000CD82C32ED22EAD81BE81AA16BB065CF420
:101250003C2D2D2D6C01832F922F3D812E81BE823E
:10126000AD82A32EB22E85012D813E81021B130B70
:101270001C012C183D0837FE03C03194219431081D
:10128000780117FF03C03FEFE31AF30AF594E794E0
:10129000C816D9062CF08FEF9FEF9A83898304C07C
:1012A000A1E0B0E0BA83A9832D813E81A216B306E6
:1012B00024F1D201ED91FC910484F585E02D2B8180
:1012C0003C816814790424F44D815E81B60103C029
:1012D000A6016D817E81C2010995E218F308F7FE2F
:1012E00006C029813A81C20ED31EE00EF11E8D8107
:1012F0009E8101969E838D83D7CF26960FB6F89454
:10130000DEBF0FBECDBFDF91CF911F910F91FF9038
:10131000EF90DF90CF90BF90AF909F908F907F9095
:101320006F905F904F903F902F90089585ED809340
:10133000BC008091BC0084FDFCCF10927F02089518
:101340004091F601262F30E0240F311D2132310566
:10135000DCF420917F022430C9F4FC0180E090E0AD
:10136000861758F43091F6012191DC01AA52BE4F44
:10137000A30FB11D2C930196F3CF8091F601680F56
:101380006093F60180E0089581E0089582E0089579
:1013900008950895E091240380912303E81730F421
:1013A000F0E0EA54FE4F808190E008958FEF9FEFC8
:1013B00008959091240380912303981750F4E92F06
:1013C000F0E0EA54FE4F208130E09F5F90932403C9
:1013D00002C02FEF3FEFC90108958091230390E0F1
:1013E00020912403821B91090895CF92DF92EF92FE
:1013F000FF920F931F93CF93DF937C01CB018A0160
:1014000020918002222389F0EB016B01C40ED51ECE
:10141000CC15DD0569F06991D701ED91FC91019042
:10142000F081E02DC7010995F3CF642F0E94A00938
:10143000C801DF91CF911F910F91FF90EF90DF9046
:10144000CF900895CF93DF931F92CDB7DEB7698316
:10145000209180022223D1F02091A302203240F07B
:1014600021E030E0FC013383228380E090E015C06E
:1014700080918102E82FF0E0EE57FD4F9981908333
:101480008F5F809381028093A30205C061E0CE014B
:1014900001960E94A00981E090E00F90DF91CF912A
:1014A0000895089580E090E008950F931F93CF93DF
:1014B000DF93DC015596EC915597E23071F0E33003
:1014C000E9F0E13079F5FB0114960D90BC91A02D67
:1014D000A41BB50BA21BB30B18C0EC01EC81FD8162
:1014E000E61BF70BBF0161507109EE81FF81DF013F
:1014F000A41BB50BAD01421B530B14C0DA01EC0168
:10150000EE81FF81E61BF70B3197F7FD0DC0EC0173
:101510004E815F81E417F5073CF4AF01BD010E94E5
:10152000A71202C00E940E13DF91CF911F910F915D
:1015300008950F931F93DC015596EC915597E23077
:1015400061F0E33009F1E13081F51496ED91FC9101
:101550001597E41BF50B319723C0DC011496ED9130
:10156000FC911597DF01A61BB70BBD01DC01169698
:10157000ED91FC911797DF01A41BB50BAD01415014
:101580005109621B730B11C0FA01DC0116964D91D3
:101590005C911797DA01A61BB70BBD01621B730B99
:1015A000AB01BF010E940E130CC057FD0AC0DC0145
:1015B0001696ED91FC9117974E175F0714F40E9451
:1015C000A7121F910F910895AF92BF92CF92EF9201
:1015D000FF920F931F93CF93DF93EC01262F888DFB
:1015E000998D009709F040C06A3059F41D861C8619
:1015F0002C898E859F8538E0239F800D911D1124B5
:1016000041C06D3009F4AAC08E898823C1F03C899D
:101610008C859D8546E0349F800D911D1124488561
:101620005985481759075CF41D861C868E859F8551
:1016300048E0349F800D911D11249F878E87EA8892
:10164000FB88088919894E855F856C857D85CC88E6
:10165000CE010E948D102C898C859D8536E0239FBC
:10166000800D911D112442C06A3079F41D861C86BC
:101670002C89FC013696E4918E859F852E9F800DE6
:10168000911D11249F878E8769C06D3009F466C053
:10169000FC0134963491631708F460C03196E491EC
:1016A000E61708F45BC0FC01329665917491422FF5
:1016B00050E0431B510937E0349F5001359FB00C77
:1016C0001124A60EB71EF501329634913196E4919D
:1016D000332311F0E1110DC0F5013496E4912C890A
:1016E0008C859D85E29F800D911D11249D878C879F
:1016F00035C0F501359644915E89552311F16C8909
:10170000E32FF0E0E40FF11D47FDFA956E9FD00145
:101710006F9FB00D11244C855D854A0F5B1FE885D6
:10172000F985E417F5076CF41D861C86FC013696D6
:10173000E4918E859F856E9F800D911D11249F875A
:101740008E87EA88FB88088919894E855F856C85B4
:101750007D85CC88CE010E948D10BECF81E090E0C7
:10176000DF91CF911F910F91FF90EF90CF90BF909D
:10177000AF9008950F931F93CF93DF93EC0188816F
:101780009981009729F02A813B812617370788F431
:101790008B016F5F7F4F0E94271D009761F0998337
:1017A00088831B830A832C813D81232B11F4FC0148
:1017B000108281E001C080E0DF91CF911F910F91F5
:1017C0000895CF93DF93EC0188819981009711F000
:1017D0000E949E1C198218821D821C821B821A8202
:1017E000DF91CF910895EF92FF920F931F93CF93C4
:1017F000DF93EC01198218821B821A821D821C82DF
:101800006115710521F18B01FB0101900020E9F7C1
:1018100031977F01E61AF70AB7010E94BA0B8111CE
:1018200009C0CE01DF91CF911F910F91FF90EF90F2
:101830000C94E10BFD82EC82B80188819981DF91E3
:10184000CF911F910F91FF90EF900C94021EDF91AA
:10185000CF911F910F91FF90EF9008951F920F92DB
:101860000FB60F9211242F933F934F935F936F9373
:101870007F938F939F93AF93BF93EF93FF93E091E9
:101880002703F0912803309709F451C0968DA6855F
:10189000B785858591FF04C09C91892329F447C0B1
:1018A0009C91892309F043C0A389B4899C918589BF
:1018B000809589238C93868997890197F1F7608DAC
:1018C000718DA685B785558538E020E0CB0101975D
:1018D000F1F7822F90E095958795282F4C9145231D
:1018E00009F02068315091F7868D81FD2095809117
:1018F000260390E001968F739927309125033817BE
:1019000049F0A0912603B0E0A75EBD4F2C938093D1
:10191000260303C0868D8160868F828D938D01970B
:10192000F1F7A389B4899C918589892B8C93FF91C8
:10193000EF91BF91AF919F918F917F916F915F9147
:101940004F913F912F910F900FBE0F901F901895C0
:1019500008958EBD00000DB407FEFDCF8EB508952D
:101960001F93CF93DF93FC01848D958D009729F110
:10197000162FEF0120A131E0309380022093A202C4
:10198000109281021092A302DC01ED91FC91019072
:10199000F081E02D60E009958C8D9D8DDC01ED914D
:1019A000FC910190F081E02D612F09958C8D9D8D2A
:1019B000DF91CF911F910C949E0EA4A5B5A59C918B
:1019C00082A9809589238C93828D938D892B31F008
:1019D000862FDF91CF911F910C94A90C28E030E065
:1019E00080E8A0A5B1A590A9462F482319F04C91F5
:1019F000942B03C04C91909594239C93A2A5B3A5DE
:101A00004C9191A9942B9C93A2A5B3A54C9191A91B
:101A1000909594239C9386952150310911F7DF917D
:101A2000CF911F9108958CBD9DBD08951F93CF93B5
:101A3000DF93EC01162F8C8D9D8D892BB1F02EA993
:101A40003FA948AD59AD60E072E18AE790E00E949D
:101A5000CA1BDA01C9014097A109B109B695A7953A
:101A6000979587958093B8000FC08A8D9B8D892BA1
:101A700021F08CA99DA90E94130DEEA5FFA59081D0
:101A80008BA9809589238083111102C066EA01C069
:101A900067EACE010E94B00C8C8D9D8D892BB1F030
:101AA0002AAD3BAD4CAD5DAD60E072E18AE790E000
:101AB0000E94CA1BDA01C9014097A109B109B69574
:101AC000A795979587958093B80006C0EEA5FFA5CA
:101AD00090818BA9892B8083DF91CF911F910895ED
:101AE0001F920F920FB60F9211242F933F934F9393
:101AF0005F936F937F938F939F93AF93BF93EF9376
:101B0000FF938091B900887F803609F49CC068F506
:101B1000883209F45BC090F4803109F454C038F481
:101B2000882309F4F6C0883009F44DC0F6C0883126
:101B300009F44CC0803209F45DC0EFC0803409F470
:101B400068C048F4803309F455C0883309F0E5C013
:101B500080937D02D8C0803509F44FC0883509F4E0
:101B60005DC0883409F0D9C0D6C0883909F4C7C02F
:101B7000A8F4883709F467C038F4883609F463C0DC
:101B8000803709F460C0C9C0883809F4B8C080390A
:101B900009F45FC0803809F0C0C05BC0803B09F425
:101BA00086C038F4803A09F466C0883A09F47FC0E8
:101BB000B4C0803C09F4A7C0883C09F4A4C0883BA9
:101BC00009F48AC0AAC080915A0210C090917C0288
:101BD00080917B02981770F5E0917C0281E08E0F76
:101BE00080937C02F0E0E55AFD4F80818093BB003A
:101BF00085EC86C080937D028EC0E0917C0281E0FE
:101C00008E0F80937C028091BB00F0E0E55AFD4F7F
:101C1000808390917C0280917B026EC0E0917C0277
:101C200081E08E0F80937C028091BB00F0E0E55A4A
:101C3000FD4F808380917E0281116DC081E0809391
:101C4000590284EA61C083E080937F0210921802F7
:101C5000CFCF80911802803208F051C0E091180275
:101C600081E08E0F809318028091BB00F0E0E85075
:101C7000FE4F8083BDCF85EC8093BC0010927F0225
:101C800080911802803230F4E0911802F0E0E850C0
:101C9000FE4F10826091180270E0E0911F03F091F6
:101CA000200388EF91E009951092180236C084E075
:101CB00080937F021092F7011092F601E0912103C8
:101CC000F091220309958091F601811105C081E010
:101CD0008093F6011092D601E091F70181E08E0F1A
:101CE0008093F701F0E0EA52FE4F80818093BB00C1
:101CF0009091F7018091F601981708F479CF85E863
:101D00008093BC000AC085EC8093BC0010927F02D7
:101D100004C010927D020E949609FF91EF91BF913D
:101D2000AF919F918F917F916F915F914F913F9173
:101D30002F910F900FBE0F901F9018953091A30216
:101D4000313208F04BC080917F028111FCCF90911D
:101D5000A20222E020937F0221E020937E022FEF57
:101D600020937D0210927C0230937B02E2E8F2E045
:101D7000ABE5B2E020E0321721F041914D932F5FA7
:101D8000FACF10925A0220915A02990F922B9093F7
:101D90005A0290915902913061F410925902909137
:101DA0005A029093BB009091BC0093FDF8CF95EC44
:101DB00001C095EE9093BC0090917F029230E1F3C8
:101DC00090917D029F3F79F080917D02803241F0B9
:101DD00080917D02803331F084E005C081E003C052
:101DE00082E001C083E0109281021092A30210925F
:101DF00080020895DF92EF92FF920F931F93CF938B
:101E0000DF93D82ED92FC62F8091F1029091F20244
:101E1000009709F454C02091F50231E0309380021C
:101E20002093A202109281021092A302DC01ED9194
:101E3000FC910190F081E02D60E00995ED2CFD2EE4
:101E400011E0D1E08091F1029091F202CC2371F186
:101E50001032C8F00E949E0E8091F502D09380024D
:101E60008093A202109281021092A3028091F1024B
:101E70009091F202DC01ED91FC910190F081E02D56
:101E800060E0099511E08091F1029091F202F70172
:101E90006491DC01ED91FC910190F081E02D0995B8
:101EA0001F5FC150BFEFEB1AFB0ACCCFDF91CF9180
:101EB0001F910F91FF90EF90DF900C949E0EE09198
:101EC0000103F0910203908180910703809589239B
:101ED00080830D2D1D2FCC2309F439C0F801849186
:101EE0002091EF023091F002232B31F00E94A90CD7
:101EF000C1500F5F1F4FEFCF28E030E040E8E09186
:101F0000FD02F091FE0290910503582F542319F021
:101F10005081952B03C05081909595239083E0913B
:101F2000FF02F0910003508190910603952B90835E
:101F3000E091FF02F091000350819091060390958B
:101F400095239083469521503109C9F6D1CFDF9171
:101F5000CF911F910F91FF90EF90DF900895CF9355
:101F6000DF93FC01448155816081718185ED92E0B0
:101F70000E947605EC0142E050E06BE571E085EDF2
:101F800092E00E9476058C0F9D1FDF91CF910895FE
:101F90002091DB023091DC02C901079697FD07967C
:101FA00023E0959587952A95E1F72091D902309104
:101FB000DA02829FA001839F500D929F500D112441
:101FC00060E070E08091F3029091F4020C94FB1DAC
:101FD000CF93DF93009779F0FC0101900020E9F79F
:101FE0003197AF01481B590BBC0184EA92E00E9473
:101FF0007605EC0102C0C0E0D0E042E050E06BE5C5
:1020000071E084EA92E00E9476058C0F9D1FDF91BB
:10201000CF9108953F924F925F926F927F928F92ED
:102020009F92AF92BF92CF92DF92EF92FF920F9367
:102030001F93CF93DF9300D000D000D0CDB7DEB791
:102040002C013B014A015901C901079697FD0796EA
:102050009C0193E0359527959A95E1F73C832B8376
:10206000C12CD12CE12CF12C312CC3018E0D9F1DE4
:102070009A838983E016F106C4F51E821D822D81A4
:102080003E812A153B054CF5C90187709927892B9C
:1020900011F0330C0EC0ED81FE81F7FD379683E021
:1020A000F595E7958A95E1F7EC0DFD1DE80DF91D15
:1020B000349037FE0CC021E030E049815A816D81B7
:1020C0007E81640D751D85ED92E00E94DD088D8195
:1020D0009E8101969E838D83D2CF9FEFE91AF90AE4
:1020E0002B813C81C20ED31EC0CF26960FB6F8942A
:1020F000DEBF0FBECDBFDF91CF911F910F91FF903B
:10210000EF90DF90CF90BF90AF909F908F907F9097
:102110006F905F904F903F9008952F923F924F9213
:102120005F926F927F928F929F92AF92BF92CF9267
:10213000DF92EF92FF920F931F93CF93DF93CDB770
:10214000DEB76B970FB6F894DEBF0FBECDBF9B8F87
:102150008A8F5B011A01D22E1F830E833701C98239
:10216000DC0158962D913C9159972115310509F0C4
:10217000E6C018968D919C911997681779070CF015
:10218000CDC11A968D919C911B97481759070CF059
:10219000C5C18C2C912CFB0126E0C29EE00DF11DE7
:1021A0001124FB87EA871E161F060CF0B7C1A40195
:1021B00083E0440F551F8A95E1F75D874C87CA017C
:1021C000820D931D181619060CF0A8C157968C9114
:1021D000811104C05FEA5D1508F4D394AA8DBB8D0C
:1021E000ED91FC9111970284F385E02DCD010995C5
:1021F000B5E0DB9EC0011124F5013596FF87EE871F
:10220000BB82AA8225019C012A193B09398B288BA4
:10221000A101485F5F4F5B8B4A8BE889F989E40D28
:10222000F51DEA56FF4F5491588761013D822C827B
:10223000888580FF13C0AA8DBB8DED91FC91B9817B
:10224000B13031F40484F585E02D2E813F8116C034
:102250000684F785E02DEE80FF801AC0EE81FF81B5
:10226000E615F705F1F0AA8DBB8DED91FC91B981D2
:10227000B13051F40484F585E02D9301A601B2013B
:102280008A8D9B8D09950DC00684F785E02D73011D
:10229000840194014C815D816A817B818A8D9B8D53
:1022A0000995E885E695E887FFEFCF1ADF0A2C81CC
:1022B0003D81280D391D3D832C834A895B89C416D5
:1022C000D50609F0B5CF5FEF451A550A8A819B8183
:1022D000880D991D9B838A83AE85BF854A165B0650
:1022E00009F09BCFEE81FF81E615F70509F4F4C0F4
:1022F000EA8DFB8DA081B181F981F13079F4B501CE
:102300006B5F7F4F5096ED91FC915197830128E0D0
:1023100030E0A1018A8D9B8D0995DEC06A857B85A1
:10232000681979091E96ED91FC911F9773010C8530
:102330001D859401A1018A8D9B8D0995CDC0F90160
:102340003496E491DE1AF901329685919491B7E0C2
:10235000DB9E800D911D1124F901259134913B8B59
:102360002A8BFC01259134912901FC013296C490FD
:10237000319634913E87329614913196D4904981AA
:10238000423058F0612E012E000C77088D2D0D2C57
:10239000000C990B9987888704C019861886612CD0
:1023A000712CAA8DBB8DED91FC9111970284F38560
:1023B000E02DCD010995B9818B2E912C689CC0012F
:1023C000699C900D789C900D1124FC01EA0DFB1D79
:1023D000FD87EC871A82712C612CE12F110FFF0B06
:1023E00095012E0F3F1F3B872A87AC0CB11CA5011E
:1023F0004E0F5F1F5F8B4E8BC1018D0D911DD7FC62
:102400009A95998F888F9E85691608F065C0862DEC
:1024100090E048855985480F591F489D9001499D76
:10242000300D589D300D1124D101A20FB31FB98B6F
:10243000A88BEC85FD85FD83EC83AA84BB84DA80C0
:10244000FA85DF1A288D398D280F391F3D8B2C8B8B
:102450008D2D8A0D4E895F89A416B506C1F187704E
:1024600041F4C2010196EA89FB89E40DF51D7490DF
:102470002C0177FE21C0AA8DBB8DED91FC91B98115
:10248000B13061F40484F585E02D2E813F814C89C3
:102490005D89B5018A8D9B8D09950EC00684F785EF
:1024A000E02DEE80FF8084019401488959896C8178
:1024B0007D818A8D9B8D0995770CEFEFAE1ABE0A50
:1024C0002C813D81280D391D3D832C83C1CF3A815C
:1024D0003C0D3A83639497CFAA8DBB8DED91FC910F
:1024E00011970688F789E02DCD016B960FB6F89409
:1024F000DEBF0FBECDBFDF91CF911F910F91FF9037
:10250000EF90DF90CF90BF90AF909F908F907F9093
:102510006F905F904F903F902F9009946B960FB6FD
:10252000F894DEBF0FBECDBFDF91CF911F910F9109
:10253000FF90EF90DF90CF90BF90AF909F908F90E3
:102540007F906F905F904F903F902F9008950F93E2
:102550001F93CF93DF9377FF04C0260F371F60E0F0
:1025600070E0DC011496CD91DC911597FB01E20F30
:10257000F31FCE17DF071CF49E01261B370B121624
:1025800013060CF046C0FA0157FD3796DF01E3E071
:10259000B595A795EA95E1F7AC9FF001AD9FF00DD9
:1025A000BC9FF00D11246E0F7F1FDC015E96ED9134
:1025B000FC915F97E60FF71F4770552781E090E089
:1025C00001C0880F4A95EAF7482F0130110539F00C
:1025D00078F002301105E9F42E0F3F1F13C02E0FC3
:1025E0003F1FE217F307A9F08081842B8193F9CF75
:1025F00080952E0F3F1FE217F30759F09081982323
:102600009193F9CFE217F30721F08081842781931A
:10261000F9CFDF91CF911F910F910895EF92FF9223
:102620000F931F93CF93DF93EC0177FDA5C0EC8050
:10263000FD806E157F050CF09FC057FF04C0240F6E
:10264000351F40E050E08E819F81FA01E20FF31FB9
:102650008E179F071CF49C01241B350B12161306C2
:102660000CF08AC0922F842F8695869586958E9D34
:10267000D0018F9DB00D11246A0F7B1FAE8DBF8DD1
:10268000A60FB71F4770B1F188E0841B482F682F51
:1026900070E0FB01E257FF4FE491281798F4621BAA
:1026A00071092FEF30E002C0359527956A95E2F762
:1026B000E2230130110549F078F00230110509F0EC
:1026C0005BC00EC00130110519F48C91E82B0AC0D3
:1026D0000130110508F049C0E0958C91E82302C053
:1026E0008C91E827EC93941708F446C02C813D8127
:1026F000A20FB31FE92FE41BE830F8F002301105F8
:1027000061F48E2F9C9190959C932C813D81A20F1A
:10271000B31F88508830B0F70FC081E00115110554
:1027200009F480E081959E2F8C932C813D81A20F2E
:10273000B31F98509830C0F7E770EE23E9F0F0E04F
:10274000EA57FF4FE4910130110539F048F00230AB
:10275000110591F48C91E82706C08C91E82B03C0F9
:10276000E0958C91E823EC9307C00230110509F441
:10277000B7CFAE0DBF1DBECFDF91CF911F910F918F
:10278000FF90EF90089590E0FC01EE58FF4F2491E8
:10279000FC01E254FA4F3491FC01E655FA4FE49102
:1027A000EE2309F43CC0222339F1233091F038F4B0
:1027B0002130A9F0223001F584B58F7D12C0273079
:1027C00091F02830A1F02430B9F4809180008F7D01
:1027D00003C0809180008F77809380000DC084B506
:1027E0008F7784BD09C08091B0008F7703C080913E
:1027F000B0008F7D8093B000F0E0EE0FFF1FE05639
:10280000FA4FA591B4919FB7F894611104C08C91CF
:102810003095382302C0EC913E2B3C939FBF089526
:10282000CF93DF9390E0FC01E254FA4F2491FC0136
:10283000E655FA4F8491882361F190E0880F991F43
:10284000FC01E859FF4FC591D491FC01E056FA4FC5
:10285000A591B491611109C09FB7F8948881209522
:1028600082238883EC912E230BC0623061F49FB7E2
:10287000F8948881322F309583238883EC912E2B16
:102880002C939FBF06C08FB7F894E8812E2B288326
:102890008FBFDF91CF9108958F929F92AF92BF9299
:1028A000CF92DF92EF92FF926B017C010E9488141D
:1028B0004B015C01C114D104E104F104F1F00E9468
:1028C0008814DC01CB0188199909AA09BB09883E43
:1028D0009340A105B10570F321E0C21AD108E108C7
:1028E000F10888EE880E83E0981EA11CB11CC1146B
:1028F000D104E104F10419F7DDCFFF90EF90DF90F0
:10290000CF90BF90AF909F908F9008950E94ED1D43
:102910003FB7F89480912F0390913003A091310339
:10292000B091320326B5A89B05C02F3F19F0019640
:10293000A11DB11D3FBFBA2FA92F982F8827820F45
:10294000911DA11DB11DBC01CD0143E0660F771F94
:10295000881F991F4A95D1F708951F920F920FB6BD
:102960000F9211242F933F938F939F93AF93BF9315
:1029700080912B0390912C03A0912D03B0912E03F5
:1029800030912A0326E0230F2D3720F40296A11D53
:10299000B11D05C029E8230F0396A11DB11D209389
:1029A0002A0380932B0390932C03A0932D03B093C1
:1029B0002E0380912F0390913003A0913103B091A9
:1029C00032030196A11DB11D80932F039093300314
:1029D000A0933103B0933203BF91AF919F918F9138
:1029E0003F912F910F900FBE0F901F9018958CE183
:1029F00091E09093A5028093A40280912703909187
:102A00002803845A924071F4E091B702F091B80221
:102A100090818091B9028095892380831092280348
:102A2000109227038091C3029091C4020E949E1CC1
:102A30008091C9029091CA020E949E1C8091CF028F
:102A40009091D0020E949E1C8EE291E09093D6025B
:102A50008093D5028091F3029091F402009711F0D7
:102A60000C949E1C0895CF92DF92EF92FF92CF9329
:102A7000109216031092150398EEC92E93E0D92EEA
:102A8000E12CF12CC0921703D0921803E0921903A5
:102A9000F0921A038AE091E0909314038093130359
:102AA0001092D8021092D70220E830E03093DA0278
:102AB0002093D90280E290E09093DC028093DB02C5
:102AC0003093DE022093DD029093E0028093DF02D8
:102AD0001092EA021092E2021092E1021092E402D5
:102AE0001092E302C1E0C093E9028FEF9FEF909351
:102AF000E8028093E7029093E6028093E502C09398
:102B0000EB021092EC021092EE021092ED028EE2B5
:102B100091E09093D6028093D5021092F002109229
:102B2000EF0283E193E09093F2028093F10210921E
:102B3000F4021092F3028FEF8093F8028093F9026F
:102B40008093FA028093FB028093FC0280E58093DD
:102B50000903C0930A0366E571E08FEC92E00E94DE
:102B6000F30B6DE571E089EC92E00E94F30B6DE5EB
:102B700071E083EC92E00E94F30B1092A702109296
:102B8000A602C092A802D092A902E092AA02F092F4
:102B9000AB028CE191E09093A5028093A402109285
:102BA000BB021092BA021092BD021092BC021092A7
:102BB000BF021092BE021092C1021092C002809118
:102BC000C2028E7F8D7F8093C20286958170682FAE
:102BD0006C2786E00E94C31361E086E00E94101417
:102BE000E4ECF5E0E491E093B402E0EBF5E0E4918D
:102BF000F0E0EE0FFF1FE056FA4F8591949190930D
:102C0000B6028093B50260E087E00E9410148091C4
:102C1000C20281FD04C061E087E00E94C31387E027
:102C20008093B002E5ECF5E0E491E093B102E1EBD2
:102C3000F5E0E491F0E0EE0FFF1FEA56FA4F8591C0
:102C400094919093B3028093B202CF91FF90EF9052
:102C5000DF90CF900895CF93DF93CDB7DEB7629723
:102C60000FB6F894DEBF0FBECDBF789484B58260F6
:102C700084BD84B5816084BD85B5826085BD85B520
:102C8000816085BD80916E00816080936E0010929E
:102C90008100809181008260809381008091810019
:102CA00081608093810080918000816080938000AA
:102CB0008091B10084608093B1008091B000816008
:102CC0008093B00080917A00846080937A00809134
:102CD0007A00826080937A0080917A008E7F809360
:102CE0007A0080917A00806880937A001092C10007
:102CF0008091F3029091F402892B11F52091DB026F
:102D00003091DC02C901079697FD0796B3E09595CF
:102D10008795BA95E1F72091D9023091DA02AC019A
:102D2000429FC001439F900D529F900D11240E941D
:102D3000061C9093F4028093F302892B09F410C1CE
:102D40000E94C80F2091DB023091DC028091D902F1
:102D50009091DA02213231050CF499C3B901605423
:102D6000710977FF02C06F5F7F4F75956795825538
:102D7000910997FD019600E410E022E530E04EEC69
:102D800057E0959587950E940A1082E08093F6029D
:102D90008091F1029091F202892B09F48CC38CE3AB
:102DA0008093F50210922403109223031092810263
:102DB0001092A30210927F0281E080937E02109213
:102DC000590261E082E10E94C31361E083E10E9445
:102DD000C3138091B9008E7F8093B9008091B900B0
:102DE0008D7F8093B90080E28093B80085E4809362
:102DF000BC0088EC99E0909322038093210389EC36
:102E000099E09093200380931F038091FC0287FD3B
:102E10001EC061E00E94101461E08091FC020E94DB
:102E2000C31361E070E080E090E00E944C1460E029
:102E30008091FC020E94C3136AE070E080E090E0A1
:102E40000E944C1461E08091FC020E94C3138091A7
:102E5000F1029091F202892B09F4ECC320910B034B
:102E600030910C0340910D0350910E0360E072E12C
:102E70008AE790E00E94CA1BDA01C9014097A109C4
:102E8000B109B695A795979587958093B80064E0AA
:102E90008AEE95E00E94FA0E6091DB02615085EDAA
:102EA00092E00E94B00C64E086EE95E00E94FA0E7B
:102EB0008091F602813009F4D4C364E185ED92E09B
:102EC0000E94B00C64E082EE95E00E94FA0E8091C0
:102ED000D9029091DA028038910509F0D5C380912A
:102EE000DB029091DC028032910509F0BCC364E002
:102EF0008EED95E00E94FA0E69ED85ED92E00E945C
:102F0000B00C8091F602813009F4DAC361EF85EDEF
:102F100092E00E94B00C66E082ED95E00E94FA0E0D
:102F20008091F1029091F202892B09F4CBC3209198
:102F30000F0330911003409111035091120360E090
:102F400072E18AE790E00E94CA1BDA01C90140974A
:102F5000A109B109B695A795979587958093B80073
:102F600060E070E089EC92E00E94BA0B811105C02C
:102F700089EC92E00E94E10B0CC01092CE021092FC
:102F8000CD026DE571E08091C9029091CA020E9464
:102F9000021E61E08DE00E94101461E08DE00E944D
:102FA000C3130E94C80F81E08093E90221E030E062
:102FB0003093E8022093E7023093E6022093E50283
:102FC0008093EC021092BF021092BE021092BD02DA
:102FD0001092BC021092BB021092BA028DEC90E0EB
:102FE0009093C1028093C0029091B002963108F094
:102FF00058C025E530E03093BB022093BA022BEC99
:1030000030E03093BD022093BC0220E930E03093E1
:10301000BF022093BE0240916800983058F031E022
:103020009E3008F430E021E0822F01C0880F3A95ED
:10303000EAF701C084E0842B80936800983038F070
:103040009E3040F0963148F020E030E008C02DE698
:1030500030E005C02BE630E002C02CE630E03093D3
:10306000B8022093B702983030F481E001C0880F95
:103070009A95EAF70EC0292F30E09E3018F42850B8
:10308000310902C02E50310981E001C0880F2A9514
:10309000EAF78093B9028091C0029091C102019732
:1030A000F1F78091BE029091BF02892B49F1E09126
:1030B0002703F091280352E0E43AF50709F130972D
:1030C00039F0A389B4899C918589809589238C9353
:1030D0008091C2028E7F8093C202109226031092CA
:1030E000250384EA92E09093280380932703E091DC
:1030F000B702F091B80290818091B902892B808348
:103100008EE591E00E94E80F87E691E00E94E80FCB
:1031100080E791E00E94E80F8EE791E00E94E80FBF
:103120008CE891E00E94E80F63EB71E0CE01079616
:103130000E94F30B65E971E0CE010D960E94F30B3E
:103140000E94C80F1092E2021092E1021092E40273
:103150001092E30264EA71E0CE0101960E94F30B43
:103160008B859C85EF80F8840D811E81080F191FC7
:10317000E114F10409F4B9C2892B99F0B801CE0128
:1031800001960E94BA0B882309F4AFC229813A81C3
:103190008D819E81B701820F931F0E94021E1E83A4
:1031A0000D830D811E810F5F1F4FB801CE01019667
:1031B0000E94BA0B882309F49DC229813A818D812E
:1031C0009E8164EB71E0820F931F0E94021E1E839A
:1031D0000D83CE0101960E94AF0F89819A810E94D2
:1031E0009E1CEE24E394F12C07E010E028E730E089
:1031F00047E050E060E070E085ED92E00E947407E7
:103200001092E2021092E10288E090E09093E402D2
:103210008093E302CE010D960E94AF0F8091F102E0
:103220009091F202892BD1F020910B0330910C0385
:1032300040910D0350910E0360E072E18AE790E047
:103240000E94CA1BDA01C9014097A109B109B695CC
:10325000A795979587958093B80016C08091EF0247
:103260009091F002892B31F08091090390910A032B
:103270000E94130DE0910303F0910403908180916B
:10328000080380958923808365E08EE89AE00E9498
:10329000FA0E6091D902615085ED92E00E94B00C67
:1032A0002091DB023091DC02C901079697FD079659
:1032B00033E0959587953A95E1F72091D9023091C1
:1032C000DA02829F7001839FF00C929FF00C112410
:1032D0000091F3021091F4028091F1029091F202B8
:1032E000E00EF11E009709F44EC02091F50231E086
:1032F000309380022093A202109281021092A302C6
:10330000DC01ED91FC910190F081E02D60E40995E4
:10331000DD24D394CC24C3948091F1029091F202E5
:10332000E016F10669F1BFE1BD15D0F40E949E0ED2
:103330008091F502C09280028093A20210928102D5
:103340001092A3028091F1029091F202DC01ED91C2
:10335000FC910190F081E02D60E40995DD24D39487
:103360008091F1029091F202F80161918F01DC01EC
:10337000ED91FC910190F081E02D0995D394CCCF93
:103380000E949E0E43C0E0910103F09102039081E0
:1033900080910703892B80830E151F05B9F1F80171
:1033A00081918F012091EF023091F002232B19F0CF
:1033B0000E94A90CF1CF28E030E040E8E091FD0246
:1033C000F091FE0290910503542F582319F050817B
:1033D000952B03C05081909595239083E091FF0237
:1033E000F0910003508190910603952B9083E0911A
:1033F000FF02F09100035081909106039095952370
:103400009083469521503109C9F6C6CF8091F102CB
:103410009091F202892BD1F020910F03309110038B
:10342000409111035091120360E072E18AE790E04D
:103430000E94CA1BDA01C9014097A109B109B695DA
:10344000A795979587958093B80011C0E0910303E5
:10345000F0910403908180910803892B80838091EF
:10346000EF029091F002892B11F00E94A80C8D853B
:103470009E850E949E1C8F8198850E949E1C00E064
:1034800010E001151105E9F30E940000FACFB9011F
:103490006052710977FF02C06F5F7F4F7595679526
:1034A0008357910997FD019600E210E023E730E091
:1034B0004EEE55E066CC61E08091FA020E94101455
:1034C00061E08091FB020E9410148091FA02082EA4
:1034D000000C990BFC01E655FA4FE491F0E0EE0F79
:1034E000FF1FE056FA4F2591349130930203209349
:1034F0000103FC01E254FA4FE491E0930703809149
:10350000FB02082E000C990BFC01E655FA4FE491E2
:10351000F0E0EE0FFF1FE056FA4FA591B491B09383
:103520000403A0930303FC01E254FA4FE491E093F7
:1035300008038C91E82BEC938091EF029091F002BC
:10354000892B09F434C01FB7F894809129038111A5
:1035500027C0E4EBF5E08491E8ECF5E09491E82FE6
:10356000F0E0EE0FFF1FE859FF4FA591B491EC91E9
:10357000E92321F461E08AE00E94C31361E08AE05C
:103580000E9410148CB580618CBD8CB580648CBD9C
:1035900061E08DE00E94101461E08BE00E94101445
:1035A000809129038F5F809329031FBF2ECC61E098
:1035B0008091F8020E94101461E08091F9020E944B
:1035C00010148091F802082E000C990BFC01E655AE
:1035D000FA4FE491F0E0EE0FFF1FE056FA4F25910D
:1035E00034913093FE022093FD02FC01E254FA4F25
:1035F000E491E09305038091F902082E000C990BE9
:10360000FC01E655FA4FE491F0E0EE0FFF1FE056A3
:10361000FA4FA591B491B0930003A093FF02FC016F
:10362000E254FA4FE491E09306038C91E095E8238D
:10363000EC93EBCB8091EF029091F002892B31F06B
:103640008091090390910A030E94130DE0910303F6
:10365000F0910403908180910803809589238083F1
:1036600016CC60E12BCC8034910509F045CC63E0A9
:103670008BED95E00E94FA0E8091F602813011F0F8
:103680006FEC19C06FE917C08036910509F034CC92
:103690008091DB029091DC02409709F02DCC63E031
:1036A00088ED95E00E94FA0E8091F602813011F0CB
:1036B0006FEA01C060E185ED92E00E94B00C1CCC85
:1036C00062E225CCE0910303F091040390818091A4
:1036D0000803892B80838091EF029091F002892B5F
:1036E00009F43ECC0E94A80C3BCCCE0101960E946E
:1036F000E10B57CDCE0101960E94E10B6ACD2F92CE
:103700003F924F925F926F927F928F929F92AF9271
:10371000BF92CF92DF92EF92FF920F931F93CF93BE
:10372000DF93CDB7DEB7CA1BDB0B0FB6F894DEBF55
:103730000FBECDBF09942A88398848885F846E847B
:103740007D848C849B84AA84B984C884DF80EE80C5
:10375000FD800C811B81AA81B981CE0FD11D0FB6CE
:10376000F894DEBF0FBECDBFED01089597FB072E85
:1037700016F4009407D077FD09D00E94EC1B07FCDB
:1037800005D03EF4909581959F4F08957095619571
:103790007F4F0895A1E21A2EAA1BBB1BFD010DC08D
:1037A000AA1FBB1FEE1FFF1FA217B307E407F507F1
:1037B00020F0A21BB30BE40BF50B661F771F881FCD
:1037C000991F1A9469F760957095809590959B0163
:1037D000AC01BD01CF010895AA1BBB1B51E107C07D
:1037E000AA1FBB1FA617B70710F0A61BB70B881F91
:1037F000991F5A95A9F780959095BC01CD01089520
:10380000EE0FFF1F0590F491E02D09940F931F9385
:10381000CF93DF938230910510F482E090E0E09145
:103820003503F091360320E030E0A0E0B0E03097BF
:1038300019F1408151810281138148175907C8F05D
:103840008417950769F4109731F012960C9312972C
:1038500013961C9327C0009335031093360322C0A0
:103860002115310519F04217530718F49A01BD01CB
:10387000EF01DF01F801DBCF21153105F9F0281B3D
:10388000390B2430310580F48A819B8161157105E3
:1038900021F0FB019383828304C0909336038093CD
:1038A0003503FE01329644C0FE01E20FF31F8193FF
:1038B000919322503109398328833AC020913303F0
:1038C00030913403232B41F4209102013091030104
:1038D0003093340320933303209100013091010190
:1038E0002115310541F42DB73EB7409104015091A7
:1038F0000501241B350BE0913303F0913403E217EB
:10390000F307A0F42E1B3F0B2817390778F0AC0102
:103910004E5F5F4F2417350748F04E0F5F1F5093DF
:103920003403409333038193919302C0E0E0F0E0CD
:10393000CF01DF91CF911F910F910895CF93DF9326
:10394000009709F481C0FC01329713821282A09182
:103950003503B0913603109781F420813181820FB5
:10396000931F20913303309134032817390751F501
:10397000F0933403E093330367C0ED0120E030E0BF
:10398000CE17DF0740F44A815B819E014115510546
:10399000F1F0EA01F5CFD383C28340815181840FD6
:1039A000951FC817D90759F488819981840F951FED
:1039B0000296918380838A819B81938382832115E0
:1039C000310529F4F0933603E09335033DC0E90156
:1039D000FB83EA8349915991C40FD51FEC17FD076A
:1039E00061F480819181840F951F0296E90199838A
:1039F0008883828193819B838A83E0E0F0E0129642
:103A00008D919C911397009719F0FD01DC01F7CF80
:103A10008D919C9111979D012E5F3F4F820F931FB7
:103A200020913303309134032817390769F4309714
:103A300029F4109236031092350302C013821282C9
:103A4000B0933403A0933303DF91CF910895A0E0A6
:103A5000B0E0EDE2FDE10C94831BEC01009721F452
:103A6000CB010E94061CB4C0FC01E60FF71F9C01AD
:103A700022503109E217F30708F4A8C0D9010D91CB
:103A80001C91119706171707B0F00530110508F4BF
:103A90009BC0C80104978617970708F495C0025089
:103AA0001109061B170B019311936D937C93CF01A2
:103AB0000E949E1C89C05B01A01AB10A4C01800EB5
:103AC000911EA0913503B0913603612C712CE12C2D
:103AD000F12C109709F446C08D919C911197A8156F
:103AE000B905B1F56C0142E0C40ED11CCA14DB0467
:103AF00078F14C018A189B08640142E0C40ED11C85
:103B00001296BC9012971396AC91B5E0CB16D104E7
:103B100040F0B282A38391828082D9016D937C931D
:103B200009C00E5F1F4F800F911FF90191838083A1
:103B3000EB2DFA2FE114F10431F0D7011396FC9329
:103B4000EE93129741C0F0933603E09335033CC0E7
:103B50006816790608F43C017D0112960D90BC911F
:103B6000A02DB7CF80913303909134038816990626
:103B7000E1F466167706C8F4809100019091010186
:103B8000009741F48DB79EB7409104015091050113
:103B9000841B950BE817F907C8F4F0933403E093FE
:103BA0003303F901718360830FC0CB010E94061CAF
:103BB0007C01009759F0A801BE010E94F21DCE01C0
:103BC0000E949E1CC70104C0CE0102C080E090E0AC
:103BD000CDB7DEB7EEE00C949F1B81E090E0F89447
:103BE0000C94091EFB01DC0102C001900D924150B2
:103BF0005040D8F70895DC0101C06D93415050400A
:103C0000E0F70895FB01DC0101900D920020E1F73F
:103C1000089515E0CBE4D5E004C0FE010E94001C2D
:0C3C20002196CC34D107C9F7F894FFCFEF
:103C2C0000003703800000000000220AF509520A48
:103C3C00B805ED09D909CA0900000000B9057605D7
:103C4C00520AB80509062106A00500000000E40A86
:103C5C007605520A510A4206B805DD08B508D108A6
:103C6C00C508E408B8050007160D550A990AFE07A1
:103C7C00E1077407150761626364000D0A00415483
:103C8C002B524F4C45300041542B49424541310099
:103C9C0041542B4D41524A3078303130320041542E
:103CAC002B4D494E4F3078303130300041542B522F
:103CBC004553455400426C7565746F6F746820648D
:103CCC00656D6F00424C452044454D4F202020200F
:063CDC0020202020200042
:00000001FF
