:100000000C944C050C9474050C9474050C94A50B7D
:100010000C94A50B0C94A50B0C9474050C9474050E
:100020000C9474050C9474050C9474050C9474056C
:100030000C9474050C9474050C9474050C9474055C
:100040000C9413140C9474050C9474050C9474059E
:100050000C9474050C9474050C9474050C9474053C
:100060000C94E70C0C947405000000002400270099
:100070002A0000000008000201000003040700003D
:10008000000000000000000103070F1F3F7F0080F9
:10009000C0E0F0F8FCFE00000000003E5B4F5B3E5D
:1000A0003E6B4F6B3E1C3E7C3E1C183C7E3C181C3D
:1000B000577D571C1C5E7F5E1C00183C1800FFE734
:1000C000C3E7FF0018241800FFE7DBE7FF30483ADA
:1000D000060E2629792926407F050507407F05253C
:1000E0003F5A3CE73C5A7F3E1C1C08081C1C3E7FC4
:1000F00014227F22145F5F005F5F06097F017F008B
:100100006689956A606060606094A2FFA2940804AA
:100110007E040810207E201008082A1C08081C2ACB
:1001200008081E101010100C1E0C1E0C30383E3823
:1001300030060E3E0E06000000000000005F0000CA
:100140000007000700147F147F14242A7F2A12233B
:100150001308646236495620500008070300001C4B
:100160002241000041221C002A1C7F1C2A08083E54
:100170000808008070300008080808080000606067
:100180000020100804023E5149453E00427F4000D5
:1001900072494949462141494D331814127F1027AD
:1001A000454545393C4A49493141211109073649FC
:1001B000494936464949291E0000140000004034D0
:1001C00000000008142241141414141400412214D5
:1001D0000802015909063E415D594E7C1211127CFC
:1001E0007F494949363E414141227F4141413E7F5D
:1001F000494949417F090909013E414151737F083D
:1002000008087F00417F41002040413F017F0814E2
:1002100022417F404040407F021C027F7F04081043
:100220007F3E4141413E7F090909063E4151215E21
:100230007F09192946264949493203017F01033FB5
:100240004040403F1F2040201F3F4038403F631444
:1002500008146303047804036159494D43007F4146
:1002600041410204081020004141417F0402010283
:1002700004404040404000030708002054547840A8
:100280007F284444383844444428384444287F383C
:100290005454541800087E090218A4A49C787F08BE
:1002A00004047800447D40002040403D007F102839
:1002B000440000417F40007C047804787C080404FA
:1002C000783844444438FC1824241818242418FC92
:1002D0007C08040408485454542404043F44243C37
:1002E0004040207C1C2040201C3C4030403C4428A6
:1002F0001028444C9090907C4464544C4400083640
:1003000041000000770000004136080002010204AD
:10031000023C2623263C1EA1A161123A4040207ACD
:100320003854545559215555794122545478422115
:100330005554784020545579400C1E52721239554C
:100340005555593954545459395554545800004549
:100350007C410002457D420001457C407D12111226
:100360007DF0282528F07C545545002054547C54B9
:100370007C0A097F4932494949323A4444443A3275
:100380004A4848303A4141217A3A42402078009D1B
:10039000A0A07D3D4242423D3D4040403D3C24FFC7
:1003A0002424487E4943662B2FFC2F2BFF0929F676
:1003B00020C0887E090320545479410000447D41C7
:1003C0003048484A32384040227A007A0A0A727D20
:1003D0000D19317D2629292F28262929292630483B
:1003E0004D4020380808080808080808382F10C8A9
:1003F000ACBA2F102834FA00007B000008142A142D
:100400002222142A14085500550055AA55AA55AAA7
:10041000FF55FF55FF000000FF00101010FF0014F3
:100420001414FF001010FF00FF1010F010F014144F
:1004300014FC001414F700FF0000FF00FF1414F474
:1004400004FC141417101F10101F101F1414141F75
:1004500000101010F0000000001F101010101F10EE
:10046000101010F010000000FF10101010101010ED
:100470001010FF10000000FF140000FF00FF00003C
:100480001F10170000FC04F414141710171414F4B0
:1004900004F40000FF00F714141414141414F700EB
:1004A000F7141414171410101F101F141414F4143C
:1004B0001010F010F000001F101F0000001F1400AB
:1004C0000000FC140000F010F01010FF10FF1414D6
:1004D00014FF141010101F00000000F010FFFFFFA9
:1004E000FFFFF0F0F0F0F0FFFFFF0000000000FF62
:1004F000FF0F0F0F0F0F3844443844FC4A4A4A3468
:100500007E02020606027E027E026355494163387E
:1005100044443C04407E201E2006027E020299A52F
:10052000E7A5991C2A492A1C4C7201724C304A4D8D
:100530004D303048784830BC625A463D3E494949C2
:10054000007E0101017E2A2A2A2A2A44445F44446B
:1005500040514A444040444A51400000FF0103E0FA
:1005600080FF000008086B6B083612362436060F31
:10057000090F06000018180000001010003040FF9E
:100580000101001F01011E00191D1712003C3C3C17
:100590003C000000000000000000230026002900AD
:1005A00000000000250028002B00040404040404BB
:1005B0000404020202020202030303030303010212
:1005C00004081020408001020408102001020408E1
:1005D0001020DB40A4A62EAFDA0281DA1281DA0203
:1005E000818F2000A1C8D300408DAED580A8000027
:1005F000600000000000000000000000000000E0BB
:100600000000000000000000000000000001E00009
:1006100000000000000000000000000001F00000E9
:10062000000000000000000000000003F0000000D7
:100630000000000000000000000007F000000000C3
:1006400000000000000000000007F80000000000AB
:1006500000000000000000000FF800000003C000D0
:100660007E000001E0007F0FF800000003C000FEE4
:10067000000001E000FFEFF800000003C000FE00F2
:100680000001E000FFFFF800000003C000F00000E0
:10069000000F007FFE7FC0000003C000F0000000DC
:1006A0000F003FFE7FF83FF1FBCFFCFEF3BC3DEFB8
:1006B000E01FFE7FFF7FFBFFDFFEFEFFBC3DEFE0A4
:1006C0001FC6FFFF7FFBFFDFFEFEFFBC3DEFE00F1D
:1006D000E3C7FE787BC3DE1EF0FFBC3DEF0007FFE3
:1006E00087FC787BC3DE1EF0F83C3DEF0001FFFF86
:1006F000F0007BC3C01EF0F03C3DEF0001F37FE053
:100700003FFBC3CFFEF0F03C3DEF0003E33F807FB3
:10071000FBC3DFFEF0F03C3DEF0007E73C00787BD9
:10072000C3DE1EF0F03C3DEF0007FFBE00787BC348
:10073000DE1EF0F03C3DEF0007FFFE00787BC3DEDD
:100740001EF0F03C3DEF000FFFFE007FFBFFDFFEE1
:10075000F0F03FFDEFE00FFFFF007FFBFFDFFEF05B
:10076000F03FFDEFE00FF9FF003E79F9CF9EF0F08A
:100770001F3DE7E01FF1FF00000000000000000047
:100780000000001F80FF007FFFFFFFFFFFFFFFFF54
:10079000FFE01C007F007FFFFFFFFEB46D888D1817
:1007A000E000001F007FFFFFFFFE95AD7DB577E005
:1007B00000000F007FFFFFFFFEA5AD9D8D19E0003B
:1007C0000006007FFFFFFFFEB5ADEDB57EE0000047
:1007D0000000000180000000000000000000038015
:1007E00000000000000000000007C0000000000042
:1007F0000000000007C00000000000000000000F23
:10080000C00000000000000000001FE00000000029
:1008100000000000001FE0000000000000000000D9
:100820003FE00000000000000000003FF00000007A
:100830000000000000007FF0000000000000001F2A
:10084000F87FF0000000000000003FFE7FF0000095
:1008500000000000003FFF7FF000000000000000EB
:100860001FFFFBE0000000000000000FFFF9FFC0C9
:100870000000000000000FFFF9FFF800000000007A
:100880000007FFF1FFFF00000000000003FC73FF02
:10089000FF80000000000001FE3FFFFF800000001D
:1008A000000000FF1E0FFF000000000000007FFEA0
:1008B0001FFC000000000000003FFFFFF8000000E8
:1008C000000000000FDFFFE0000000000000001F3C
:1008D00019FFC0000000000000003F3CFF000000C6
:1008E00000000000007E7CF8000000000000000016
:1008F0007FFE7C0000000000000000FFFFFC000005
:10090000000000000000FFFFFE00000000000000EB
:1009100000FFFFFE0000000000000001FFEFFE00EE
:1009200000000000000001FFCFFE000000000000FA
:100930000003FF07FE0000000000000003FC07FEAC
:100940000000000000000003F003FE0000000000B3
:100950000000018000FE0000000000000000000018
:100960007E000000000000000000003E00000000CB
:100970000000000000000C000000000000078000E4
:10098000FC000003C0000000078001FC000003C061
:10099000000000078001FC000003C0000000078089
:1009A00001E00000001E000000078001E0000000E0
:1009B0001E007FE3F79FF9FDE7787BDFC0FFF7FFBD
:1009C000BFFDFDFF787BDFC0FFF7FFBFFDFDFF78B8
:1009D0007BDFC0F0F787BC3DE1FF787BDE00F0F7FE
:1009E00087BC3DE1F0787BDE0000F787803DE1E0E9
:1009F000787BDE007FF7879FFDE1E0787BDE00FFFC
:100A0000F787BFFDE1E0787BDE00F0F787BC3DE1D2
:100A1000E0787BDE00F0F787BC3DE1E0787BDE002C
:100A2000F0F787BC3DE1E0787BDE00FFF7FFBFFD1C
:100A3000E1E07FFBDFC0FFF7FFBFFDE1E07FFBDF11
:100A4000C07CF3F39F3DE1E03E7BCFC0000000009F
:100A500000000000000000FFFFFFFFFFFFFFFFFF9F
:100A6000FFC0FFFFFFFFFD68DB111A31C0FFFFFF72
:100A7000FFFD2B5AFB6AEFC0FFFFFFFFFD4B5B3B07
:100A80001A33C0FFFFFFFFFD6B5BDB6AFDC0220076
:100A9000FF21000087145D1411241FBECFEFD8E0A2
:100AA000DEBFCDBF11E0A0E0B1E0E0E7F7E302C0B8
:100AB00005900D92AA39B107D9F723E0AAE9B1E070
:100AC00001C01D92A930B207E1F715E0CBE4D5E0F3
:100AD00004C02197FE010E94781ACA34D107C9F7D1
:100AE0000E947B150C94AB1B0C9400002091F90222
:100AF0003091FA022817390771F49091F70280912A
:100B0000F802981741F0E091F702F0E0E350FE4F51
:100B1000808190E008958FEF9FEF089508951F93CF
:100B2000CF93DF93DC015C968D919C915D9700974C
:100B300039F421E030E013963C932E9312973BC09A
:100B40005196ED91FC91529750962C915097322FDF
:100B500030951FB75E964C915E97742F727041FD71
:100B60006095F8944081772311F0422B01C0432314
:100B70004083EC012197F1F748E0508160FF02C00B
:100B8000522B01C053235083EC012197F1F7669556
:100B9000415099F78081772319F08323808302C025
:100BA000282B20831FBF5C968D919C915D970197A8
:100BB000F1F781E090E0DF91CF911F9108952091AE
:100BC000F9023091FA022817390771F48091F8027E
:100BD0002091F70290E0805C9F4F821B910960E4B6
:100BE00070E00E942E1A089580E090E00895209110
:100BF000F9023091FA0228173907B9F49091F702F7
:100C00008091F802981789F0E091F702F0E0E35044
:100C1000FE4F80812091F70230E02F5F3F4F2F730E
:100C200033272093F70290E008958FEF9FEF089508
:100C3000FC0177FDB9C080859185681779070CF0B4
:100C4000B3C057FDB1C082859385481759070CF092
:100C500008958589823079F484819581DC01A61B11
:100C6000B70BBD016150710986819781DC01A41B1E
:100C7000B50BAD010EC0833009F084C06427752721
:100C8000CA01862797276827792746815781481BFD
:100C9000590B415051092130310531F048F12230D2
:100CA000310509F44AC00895CA0157FD07969C0111
:100CB000A3E035952795AA95E1F7A481B5812A9FF0
:100CC000C0012B9F900D3A9F900D1124680F791F42
:100CD000068CF78DE02DE60FF71F4770552781E052
:100CE00090E001C0880F4A95EAF79081892B48C0AF
:100CF000CA0157FD07969C0193E0359527959A9573
:100D0000E1F7A481B5812A9FC0012B9F900D3A9FE6
:100D1000900D1124680F791F068CF78DE02DE60FDA
:100D2000F71F4770552781E090E001C0880F4A9572
:100D3000EAF780959081892323C0CA0157FD079661
:100D40009C0183E0359527958A95E1F7A481B581CB
:100D50002A9FC0012B9F900D3A9F900D1124680F80
:100D6000791F068CF78DE02DE60FF71F477055278A
:100D700081E090E001C0880F4A95EAF790818927C9
:100D800080830895813009F086CF64277527462730
:100D900057276427752784819581DC01A61BB70B33
:100DA000BD016150710977CF08950895FC0163700A
:100DB000658B8481958126813781613039F063307C
:100DC00029F091878087338722870895318720878C
:100DD0009387828708956F927F928F929F92AF92AE
:100DE000BF92CF92DF92EF92FF920F931F93CF9318
:100DF000DF93EC014B015A0169013801E881F98167
:100E00000284F385E02D0995E881F9810288F38950
:100E1000E02D87019601A501B401CE010995A50138
:100E2000460D571D41505109E881F9810288F38927
:100E3000E02D9601B401CE010995E881F981008881
:100E4000F189E02D9301A501B401CE010995C80CEB
:100E5000D91CB60161507109E881F9810088F189D6
:100E6000E02D9301A501CE010995E881F98106885D
:100E7000F789E02DCE01DF91CF911F910F91FF9067
:100E8000EF90DF90CF90BF90AF909F908F907F902A
:100E90006F9009948F929F92AF92BF92CF92DF9200
:100EA000EF92FF920F931F93CF93DF934C016B014F
:100EB0005A01E901DC01ED91FC916217730781F49D
:100EC0000417150724F48B2D5801042F182F0A1925
:100ED0001B0998012F5F3F4F048CF58DE02D12C048
:100EE0004017510709F52617370724F48D2D69019E
:100EF000C62FD82F9E012C193D092F5F3F4F068C1E
:100F0000F78DE02D8701A501B601C4010995DF9198
:100F1000CF911F910F91FF90EF90DF90CF90BF90F6
:100F2000AF909F908F9008950284F385E02D0995EE
:100F3000D401ED91FC910488F589E02D9E01A50175
:100F4000B601C4010995D401ED91FC910688F78999
:100F5000E02DC401DF91CF911F910F91FF90EF9091
:100F6000DF90CF90BF90AF909F908F900994EF92B9
:100F7000FF920F931F93DC011A960D911C911B9702
:100F800018962D913C911997ED91FC9100A0F1A13B
:100F9000E02D7B0140E050E060E070E009951F919A
:100FA0000F91FF90EF9008954F925F926F927F9212
:100FB0008F929F92AF92BF92CF92DF92EF92FF9269
:100FC0000F931F93CF93DF936C012B015A013901CB
:100FD0004801DC01ED91FC910284F385E02D099537
:100FE000E201640C751CD601ED91FC91C615D70584
:100FF0005CF40088F189E02D87019401A501BE0110
:10100000C60109952196EFCF0688F789E02DC60124
:10101000DF91CF911F910F91FF90EF90DF90CF90D4
:10102000BF90AF909F908F907F906F905F904F9008
:1010300009948F929F92AF92BF92CF92DF92EF92DC
:10104000FF920F931F93CF93DF93EC015B014A0153
:101050006901E881F9810284F385E02D0995950104
:101060002C0D3D1D21503109E881F9810488F58955
:10107000E02D78018401A401B501CE010995E88134
:10108000F9810688F789E02DCE01DF91CF911F917C
:101090000F91FF90EF90DF90CF90BF90AF909F9017
:1010A0008F9009948F929F92AF92BF92CF92DF92CE
:1010B000EF92FF920F931F93CF93DF93EC015B01AD
:1010C0004A0169017801E881F9810284F385E02D04
:1010D0000995C80CD91C860101501109E881F981D4
:1010E0000488F589E02D9501A401B501CE0109958B
:1010F000E881F9810688F789E02DCE01DF91CF9153
:101100001F910F91FF90EF90DF90CF90BF90AF9025
:101110009F908F900994EF92FF920F931F93DC01A1
:10112000ED91FC9100A0F1A1E02D09951F910F9187
:10113000FF90EF9008950F931F93DC01ED91FC91C8
:10114000068CF78DE02D09951F910F9108950F934F
:101150001F93DC01ED91FC91048CF58DE02D099538
:101160001F910F910895DC01ED91FC910084F185B0
:10117000E02D09942F923F924F925F926F927F924F
:101180008F929F92AF92BF92CF92DF92EF92FF9297
:101190000F931F93CF93DF9300D000D000D0CDB733
:1011A000DEB72C017E836D836A015901C801FC8280
:1011B000EB824801841A950A97FE03C091948194AA
:1011C000910835012D813E81621A730A77FE03C0B2
:1011D000719461947108681479045CF43A2D2B2D94
:1011E0005C01832F922F3D812E81DE82CD82C32E22
:1011F000D22EAD81BE81AA16BB065CF43C2D2D2DEE
:101200006C01832F922F3D812E81BE82AD82A32E51
:10121000B22E85012D813E81021B130B1C012C185F
:101220003D0837FE03C0319421943108780117FF3F
:1012300003C03FEFE31AF30AF594E794C816D90602
:101240002CF08FEF9FEF9A83898304C0A1E0B0E078
:10125000BA83A9832D813E81A216B30624F1D2015F
:10126000ED91FC910484F585E02D2B813C8168147F
:10127000790424F44D815E81B60103C0A6016D811D
:101280007E81C2010995E218F308F7FE06C02981A4
:101290003A81C20ED31EE00EF11E8D819E81019611
:1012A0009E838D83D7CF26960FB6F894DEBF0FBEF0
:1012B000CDBFDF91CF911F910F91FF90EF90DF9005
:1012C000CF90BF90AF909F908F907F906F905F90E6
:1012D0004F903F902F90089585ED8093BC008091B2
:1012E000BC0084FDFCCF1092630208954091DA01A6
:1012F000262F30E0240F311D21323105DCF42091FE
:1013000063022430C9F4FC0180E090E0861758F4B1
:101310003091DA012191DC01A654BE4FA30FB11D1B
:101320002C930196F3CF8091DA01680F6093DA0174
:1013300080E0089581E0089582E008950895089579
:10134000E091F6028091F502E81730F4F0E0E656FD
:10135000FE4F808190E008958FEF9FEF0895909168
:10136000F6028091F502981750F4E92FF0E0E65666
:10137000FE4F208130E09F5F9093F60202C02FEF76
:101380003FEFC90108958091F50290E02091F602A7
:10139000821B91090895CF92DF92EF92FF920F93F3
:1013A0001F93CF93DF937C01CB018A0120916402CC
:1013B000222389F0EB016B01C40ED51ECC15DD058F
:1013C00069F06991D701ED91FC910190F081E02DD8
:1013D000C7010995F3CF642F0E947609C801DF91F8
:1013E000CF911F910F91FF90EF90DF90CF900895D4
:1013F000CF93DF931F92CDB7DEB76983209164024C
:101400002223D1F020918702203240F021E030E009
:10141000FC013383228380E090E015C08091650257
:10142000E82FF0E0EA59FD4F998190838F5F809318
:1014300065028093870205C061E0CE0101960E949B
:10144000760981E090E00F90DF91CF9108950895A3
:1014500080E090E008950F931F93CF93DF93DC011A
:101460005596EC915597E23071F0E330E9F0E130B8
:1014700079F5FB0114960D90BC91A02DA41BB50B22
:10148000A21BB30B18C0EC01EC81FD81E61BF70B2E
:10149000BF0161507109EE81FF81DF01A41BB50B13
:1014A000AD01421B530B14C0DA01EC01EE81FF8148
:1014B000E61BF70B3197F7FD0DC0EC014E815F8104
:1014C000E417F5073CF4AF01BD010E94E31102C02F
:1014D0000E944A12DF91CF911F910F9108950F93AF
:1014E0001F93DC015596EC915597E23061F0E330A3
:1014F00009F1E13081F51496ED91FC911597E41B0B
:10150000F50B319723C0DC011496ED91FC911597F2
:10151000DF01A61BB70BBD01DC011696ED91FC9116
:101520001797DF01A41BB50BAD0141505109621B98
:10153000730B11C0FA01DC0116964D915C9117975F
:10154000DA01A61BB70BBD01621B730BAB01BF0118
:101550000E944A120CC057FD0AC0DC011696ED919C
:10156000FC9117974E175F0714F40E94E3111F9127
:101570000F910895AF92BF92CF92EF92FF920F9387
:101580001F93CF93DF93EC01262F888D998D0097C1
:1015900009F040C06A3059F41D861C862C898E855E
:1015A0009F8538E0239F800D911D112441C06D302F
:1015B00009F4AAC08E898823C1F03C898C859D8559
:1015C00046E0349F800D911D1124488559854817A8
:1015D00059075CF41D861C868E859F8548E0349FE4
:1015E000800D911D11249F878E87EA88FB880889CA
:1015F00019894E855F856C857D85CC88CE010E94DA
:10160000C90F2C898C859D8536E0239F800D911D07
:10161000112442C06A3079F41D861C862C89FC0195
:101620003696E4918E859F852E9F800D911D112405
:101630009F878E8769C06D3009F466C0FC013496BF
:101640003491631708F460C03196E491E61708F40A
:101650005BC0FC01329665917491422F50E0431BB0
:10166000510937E0349F5001359FB00C1124A60E6C
:10167000B71EF501329634913196E491332311F07F
:10168000E1110DC0F5013496E4912C898C859D857E
:10169000E29F800D911D11249D878C8735C0F50137
:1016A000359644915E89552311F16C89E32FF0E062
:1016B000E40FF11D47FDFA956E9FD0016F9FB00DAD
:1016C00011244C855D854A0F5B1FE885F985E41779
:1016D000F5076CF41D861C86FC013696E4918E8518
:1016E0009F856E9F800D911D11249F878E87EA88AC
:1016F000FB88088919894E855F856C857D85CC8836
:10170000CE010E94C90FBECF81E090E0DF91CF9162
:101710001F910F91FF90EF90CF90BF90AF900895E1
:101720006115710579F0FB0101900020E9F731970F
:10173000AF01461B570BDC01ED91FC910280F38158
:10174000E02D099480E090E008951F920F920FB66B
:101750000F9211242F933F934F935F936F937F9337
:101760008F939F93AF93BF93EF93FF93E091F90211
:10177000F091FA02309709F451C0968DA685B7858D
:10178000858591FF04C09C91892329F447C09C91D1
:10179000892309F043C0A389B4899C9185898095E8
:1017A00089238C93868997890197F1F7608D718DD4
:1017B000A685B785558538E020E0CB010197F1F784
:1017C000822F90E095958795282F4C91452309F01D
:1017D0002068315091F7868D81FD20958091F80227
:1017E00090E001968F7399273091F702381749F0EE
:1017F000A091F802B0E0A350BE4F2C938093F80262
:1018000003C0868D8160868F828D938D0197F1F75D
:10181000A389B4899C918589892B8C93FF91EF9141
:10182000BF91AF919F918F917F916F915F914F91F8
:101830003F912F910F900FBE0F901F901895089514
:101840008EBD00000DB407FEFDCF8EB508951F9329
:10185000CF93DF93FC01848D958D009729F1162F8E
:10186000EF0120A131E030936402209386021092B0
:10187000650210928702DC01ED91FC910190F081EC
:10188000E02D60E009958C8D9D8DDC01ED91FC9142
:101890000190F081E02D612F09958C8D9D8DDF9158
:1018A000CF911F910C94150EA4A5B5A59C9182A96A
:1018B000809589238C93828D938D892B31F0862F8F
:1018C000DF91CF911F910C94200C28E030E080E84C
:1018D000A0A5B1A590A9462F482319F04C91942BAF
:1018E00003C04C91909594239C93A2A5B3A54C91D1
:1018F00091A9942B9C93A2A5B3A54C9191A99095E5
:1019000094239C9386952150310911F7DF91CF9153
:101910001F9108958CBD9DBD08951F93CF93DF93B4
:10192000EC01162F8C8D9D8D892BB1F02EA93FA92E
:1019300048AD59AD60E072E18AE790E00E94421A3A
:10194000DA01C9014097A109B109B695A795979504
:1019500087958093B8000FC08A8D9B8D892B21F0CD
:101960008CA99DA90E948A0CEEA5FFA590818BA948
:10197000809589238083111102C066EA01C067EA5D
:10198000CE010E94270C8C8D9D8D892BB1F02AAD44
:101990003BAD4CAD5DAD60E072E18AE790E00E9446
:1019A000421ADA01C9014097A109B109B695A79574
:1019B000979587958093B80006C0EEA5FFA5908106
:1019C0008BA9892B8083DF91CF911F9108951F925E
:1019D0000F920FB60F9211242F933F934F935F9363
:1019E0006F937F938F939F93AF93BF93EF93FF93E7
:1019F0008091B900887F803609F49CC068F58832F0
:101A000009F45BC090F4803109F454C038F48823A1
:101A100009F4F6C0883009F44DC0F6C0883109F4E5
:101A20004CC0803209F45DC0EFC0803409F468C056
:101A300048F4803309F455C0883309F0E5C0809339
:101A40006102D8C0803509F44FC0883509F45DC003
:101A5000883409F0D9C0D6C0883909F4C7C0A8F4C1
:101A6000883709F467C038F4883609F463C08037D2
:101A700009F460C0C9C0883809F4B8C0803909F4D5
:101A80005FC0803809F0C0C05BC0803B09F486C0ED
:101A900038F4803A09F466C0883A09F47FC0B4C0CB
:101AA000803C09F4A7C0883C09F4A4C0883B09F431
:101AB0008AC0AAC080913E0210C0909160028091BD
:101AC0005F02981770F5E091600281E08E0F8093BD
:101AD0006002F0E0E15CFD4F80818093BB0085EC0B
:101AE00086C0809361028EC0E091600281E08E0F1B
:101AF000809360028091BB00F0E0E15CFD4F808349
:101B00009091600280915F026EC0E091600281E07E
:101B10008E0F809360028091BB00F0E0E15CFD4F8E
:101B200080838091620281116DC081E080933D02CB
:101B300084EA61C083E0809363021092FC01CFCFFE
:101B40008091FC01803208F051C0E091FC0181E0FD
:101B50008E0F8093FC018091BB00F0E0E452FE4FB9
:101B60008083BDCF85EC8093BC001092630280918E
:101B7000FC01803230F4E091FC01F0E0E452FE4FD1
:101B800010826091FC0170E0E091F102F091F202AC
:101B90008CED91E009951092FC0136C084E08093B1
:101BA00063021092DB011092DA01E091F302F091EE
:101BB000F40209958091DA01811105C081E08093DA
:101BC000DA011092BA01E091DB0181E08E0F80937F
:101BD000DB01F0E0E654FE4F80818093BB009091E2
:101BE000DB018091DA01981708F479CF85E88093BA
:101BF000BC000AC085EC8093BC001092630204C054
:101C0000109261020E946C09FF91EF91BF91AF9118
:101C10009F918F917F916F915F914F913F912F9104
:101C20000F900FBE0F901F901895309187023132A0
:101C300008F04BC0809163028111FCCF9091860225
:101C400022E02093630221E0209362022FEF209391
:101C500061021092600230935F02E6E6F2E0AFE3C9
:101C6000B2E020E0321721F041914D932F5FFACF7F
:101C700010923E0220913E02990F922B90933E02C9
:101C800090913D02913061F410923D0290913E029C
:101C90009093BB009091BC0093FDF8CF95EC01C0F0
:101CA00095EE9093BC00909163029230E1F3909195
:101CB00061029F3F79F080916102803241F0809112
:101CC0006102803331F084E005C081E003C082E02E
:101CD00001C083E0109265021092870210926402A4
:101CE0000895DF92EF92FF920F931F93CF93DF93AC
:101CF000D82ED92FC62F8091C3029091C40200978D
:101D000009F454C02091C70231E03093640220935B
:101D100086021092650210928702DC01ED91FC911F
:101D20000190F081E02D60E00995ED2CFD2E11E091
:101D3000D1E08091C3029091C402CC2371F11032A2
:101D4000C8F00E94150E8091C702D0936402809360
:101D5000860210926502109287028091C3029091D0
:101D6000C402DC01ED91FC910190F081E02D60E076
:101D7000099511E08091C3029091C402F70164912A
:101D8000DC01ED91FC910190F081E02D09951F5F40
:101D9000C150BFEFEB1AFB0ACCCFDF91CF911F915F
:101DA0000F91FF90EF90DF900C94150EE091D3020D
:101DB000F091D40290818091D9028095892380830B
:101DC0000D2D1D2FCC2309F439C0F80184912091E9
:101DD000C1023091C202232B31F00E94200CC1506D
:101DE0000F5F1F4FEFCF28E030E040E8E091CF02D7
:101DF000F091D0029091D702582F542319F05081BE
:101E0000952B03C05081909595239083E091D1024A
:101E1000F091D20250819091D802952B9083E0915D
:101E2000D102F091D20250819091D80290959523E1
:101E30009083469521503109C9F6D1CFDF91CF91DA
:101E40001F910F91FF90EF90DF9008952091AD02C8
:101E50003091AE02C901079697FD079623E095954C
:101E600087952A95E1F72091AB023091AC02829FD1
:101E7000A001839F500D929F500D112460E070E0EF
:101E80008091C5029091C6020C94A41B3F924F9280
:101E90005F926F927F928F929F92AF92BF92CF92FA
:101EA000DF92EF92FF920F931F93CF93DF9300D0B7
:101EB00000D000D0CDB7DEB72C013B014A0159015B
:101EC000C901079697FD07969C0193E035952795E4
:101ED0009A95E1F73C832B83C12CD12CE12CF12C7A
:101EE000312CC3018E0D9F1D9A838983E016F10664
:101EF000C4F51E821D822D813E812A153B054CF5BD
:101F0000C90187709927892B11F0330C0EC0ED8120
:101F1000FE81F7FD379683E0F595E7958A95E1F721
:101F2000EC0DFD1DE80DF91D349037FE0CC021E0CD
:101F300030E049815A816D817E81640D751D87EA8B
:101F400092E00E94B3088D819E8101969E838D83CD
:101F5000D2CF9FEFE91AF90A2B813C81C20ED31E22
:101F6000C0CF26960FB6F894DEBF0FBECDBFDF916F
:101F7000CF911F910F91FF90EF90DF90CF90BF9086
:101F8000AF909F908F907F906F905F904F903F9019
:101F900008952F923F924F925F926F927F928F920D
:101FA0009F92AF92BF92CF92DF92EF92FF920F93E8
:101FB0001F93CF93DF93CDB7DEB76B970FB6F8942F
:101FC000DEBF0FBECDBF9B8F8A8F5B011A01D22E61
:101FD0001F830E833701C982DC0158962D913C91F5
:101FE00059972115310509F0E6C018968D919C91FD
:101FF0001997681779070CF0CDC11A968D919C91AD
:102000001B97481759070CF0C5C18C2C912CFB016C
:1020100026E0C29EE00DF11D1124FB87EA871E1603
:102020001F060CF0B7C1A40183E0440F551F8A9529
:10203000E1F75D874C87CA01820D931D18161906BA
:102040000CF0A8C157968C91811104C05FEA5D1510
:1020500008F4D394AA8DBB8DED91FC911197028465
:10206000F385E02DCD010995B5E0DB9EC00111247B
:10207000F5013596FF87EE87BB82AA8225019C0178
:102080002A193B09398B288BA101485F5F4F5B8B75
:102090004A8BE889F989E40DF51DEA56FF4F549102
:1020A000588761013D822C82888580FF13C0AA8DEC
:1020B000BB8DED91FC91B981B13031F40484F5858B
:1020C000E02D2E813F8116C00684F785E02DEE803D
:1020D000FF801AC0EE81FF81E615F705F1F0AA8DA9
:1020E000BB8DED91FC91B981B13051F40484F5853B
:1020F000E02D9301A601B2018A8D9B8D09950DC03B
:102100000684F785E02D7301840194014C815D8183
:102110006A817B818A8D9B8D0995E885E695E887A4
:10212000FFEFCF1ADF0A2C813D81280D391D3D8339
:102130002C834A895B89C416D50609F0B5CF5FEFB9
:10214000451A550A8A819B81880D991D9B838A8334
:10215000AE85BF854A165B0609F09BCFEE81FF81F5
:10216000E615F70509F4F4C0EA8DFB8DA081B18175
:10217000F981F13079F4B5016B5F7F4F5096ED91A5
:10218000FC915197830128E030E0A1018A8D9B8D5D
:102190000995DEC06A857B85681979091E96ED91DF
:1021A000FC911F9773010C851D859401A1018A8DF7
:1021B0009B8D0995CDC0F9013496E491DE1AF901A1
:1021C000329685919491B7E0DB9E800D911D11248C
:1021D000F901259134913B8B2A8BFC012591349197
:1021E0002901FC013296C490319634913E87329693
:1021F00014913196D4904981423058F0612E012ECD
:10220000000C77088D2D0D2C000C990B9987888771
:1022100004C019861886612C712CAA8DBB8DED9196
:10222000FC9111970284F385E02DCD010995B981C8
:102230008B2E912C689CC001699C900D789C900D10
:102240001124FC01EA0DFB1DFD87EC871A82712C1D
:10225000612CE12F110FFF0B95012E0F3F1F3B87C4
:102260002A87AC0CB11CA5014E0F5F1F5F8B4E8BF4
:10227000C1018D0D911DD7FC9A95998F888F9E85F0
:10228000691608F065C0862D90E048855985480F8D
:10229000591F489D9001499D300D589D300D1124C6
:1022A000D101A20FB31FB98BA88BEC85FD85FD83EF
:1022B000EC83AA84BB84DA80FA85DF1A288D398DF5
:1022C000280F391F3D8B2C8B8D2D8A0D4E895F89F0
:1022D000A416B506C1F1877041F4C2010196EA89DE
:1022E000FB89E40DF51D74902C0177FE21C0AA8DA9
:1022F000BB8DED91FC91B981B13061F40484F58519
:10230000E02D2E813F814C895D89B5018A8D9B8DA1
:1023100009950EC00684F785E02DEE80FF808401CC
:102320009401488959896C817D818A8D9B8D09959D
:10233000770CEFEFAE1ABE0A2C813D81280D391DB6
:102340003D832C83C1CF3A813C0D3A83639497CF70
:10235000AA8DBB8DED91FC9111970688F789E02D30
:10236000CD016B960FB6F894DEBF0FBECDBFDF91E7
:10237000CF911F910F91FF90EF90DF90CF90BF9082
:10238000AF909F908F907F906F905F904F903F9015
:102390002F9009946B960FB6F894DEBF0FBECDBF99
:1023A000DF91CF911F910F91FF90EF90DF90CF9031
:1023B000BF90AF909F908F907F906F905F904F9065
:1023C0003F902F9008950F931F93CF93DF9377FF44
:1023D00004C0260F371F60E070E0DC011496CD9139
:1023E000DC911597FB01E20FF31FCE17DF071CF4FA
:1023F0009E01261B370B121613060CF046C0FA017D
:1024000057FD3796DF01E3E0B595A795EA95E1F72B
:10241000AC9FF001AD9FF00DBC9FF00D11246E0F2D
:102420007F1FDC015E96ED91FC915F97E60FF71F31
:102430004770552781E090E001C0880F4A95EAF780
:10244000482F0130110539F078F002301105E9F418
:102450002E0F3F1F13C02E0F3F1FE217F307A9F0E7
:102460008081842B8193F9CF80952E0F3F1FE21737
:10247000F30759F0908198239193F9CFE217F3076E
:1024800021F0808184278193F9CFDF91CF911F9133
:102490000F910895EF92FF920F931F93CF93DF93C5
:1024A000EC0177FDA5C0EC80FD806E157F050CF07A
:1024B0009FC057FF04C0240F351F40E050E08E81BD
:1024C0009F81FA01E20FF31F8E179F071CF49C01F6
:1024D000241B350B121613060CF08AC0922F842F82
:1024E0008695869586958E9DD0018F9DB00D112481
:1024F0006A0F7B1FAE8DBF8DA60FB71F4770B1F15E
:1025000088E0841B482F682F70E0FB01E257FF4FE3
:10251000E491281798F4621B71092FEF30E002C094
:10252000359527956A95E2F7E2230130110549F0C8
:1025300078F00230110509F05BC00EC001301105C2
:1025400019F48C91E82B0AC00130110508F049C03C
:10255000E0958C91E82302C08C91E827EC939417C6
:1025600008F446C02C813D81A20FB31FE92FE41B64
:10257000E830F8F00230110561F48E2F9C919095AF
:102580009C932C813D81A20FB31F88508830B0F7F7
:102590000FC081E00115110509F480E081959E2F9F
:1025A0008C932C813D81A20FB31F98509830C0F7B7
:1025B000E770EE23E9F0F0E0EA57FF4FE4910130D5
:1025C000110539F048F00230110591F48C91E8279B
:1025D00006C08C91E82B03C0E0958C91E823EC9326
:1025E00007C00230110509F4B7CFAE0DBF1DBECF35
:1025F000DF91CF911F910F91FF90EF90089590E0A0
:10260000FC01EE58FF4F2491FC01E254FA4F349143
:10261000FC01E655FA4FE491EE2309F43CC0222375
:1026200039F1233091F038F42130A9F0223001F54E
:1026300084B58F7D12C0273091F02830A1F024306E
:10264000B9F4809180008F7D03C0809180008F77E6
:10265000809380000DC084B58F7784BD09C08091C0
:10266000B0008F7703C08091B0008F7D8093B00061
:10267000F0E0EE0FFF1FE056FA4FA591B4919FB71F
:10268000F894611104C08C913095382302C0EC910C
:102690003E2B3C939FBF0895CF93DF9390E0FC01C6
:1026A000E254FA4F2491FC01E655FA4F84918823B5
:1026B00061F190E0880F991FFC01E859FF4FC59127
:1026C000D491FC01E056FA4FA591B491611109C073
:1026D0009FB7F8948881209582238883EC912E23DC
:1026E0000BC0623061F49FB7F8948881322F309527
:1026F00083238883EC912E2B2C939FBF06C08FB72A
:10270000F894E8812E2B28838FBFDF91CF91089515
:102710008F929F92AF92BF92CF92DF92EF92FF92F1
:102720006B017C010E94EE134B015C01C114D104CA
:10273000E104F104F1F00E94EE13DC01CB018819F1
:102740009909AA09BB09883E9340A105B10570F318
:1027500021E0C21AD108E108F10888EE880E83E072
:10276000981EA11CB11CC114D104E104F10419F795
:10277000DDCFFF90EF90DF90CF90BF90AF909F9014
:102780008F900895CF92DF92EF92FF920F931F9355
:10279000CF93DF936C017A018B01C0E0D0E0CE15BE
:1027A000DF0581F0D8016D918D01D601ED91FC918D
:1027B0000190F081E02DC6010995892B11F0219639
:1027C000EECF7E01C701DF91CF911F910F91FF9056
:1027D000EF90DF90CF9008950E949F1B3FB7F89431
:1027E0008091010390910203A0910303B09104032F
:1027F00026B5A89B05C02F3F19F00196A11DB11D5C
:102800003FBFBA2FA92F982F8827820F911DA11D96
:10281000B11DBC01CD0143E0660F771F881F991FD2
:102820004A95D1F708951F920F920FB60F92112477
:102830002F933F938F939F93AF93BF938091FD020C
:102840009091FE02A091FF02B09100033091FC0232
:1028500026E0230F2D3720F40296A11DB11D05C0DF
:1028600029E8230F0396A11DB11D2093FC0280933C
:10287000FD029093FE02A093FF02B09300038091AB
:10288000010390910203A0910303B0910403019608
:10289000A11DB11D8093010390930203A093030334
:1028A000B0930403BF91AF919F918F913F912F916E
:1028B0000F900FBE0F901F9018958CE191E09093B0
:1028C0008902809388028091F9029091FA028858D7
:1028D000924071F4E0919B02F0919C029081809172
:1028E0009D028095892380831092FA021092F9024A
:1028F0008EE291E09093A8028093A7028091C50296
:102900009091C602009711F00C94161B08950F9336
:102910001F931092E8021092E70208EE13E020E005
:1029200030E00093E9021093EA022093EB02309327
:10293000EC028AE091E09093E6028093E502109227
:10294000AA021092A90240E850E05093AC024093D2
:10295000AB0280E490E09093AE028093AD0250937E
:10296000B0024093AF029093B2028093B1021092F2
:10297000BC021092B4021092B3021092B6021092EE
:10298000B50261E06093BB028FEF9FEF9093BA02B4
:102990008093B9029093B8028093B7026093BD020E
:1029A0001092BE021092C0021092BF028EE291E01D
:1029B0009093A8028093A7021092C2021092C102C3
:1029C00085EE92E09093C4028093C3021092C602F7
:1029D0001092C5028FEF8093CA028093CB0280933E
:1029E000CC028093CD028093CE0280E58093DB02FF
:1029F0006093DC0280E89AE1A6E0B0E08093DD021B
:102A00009093DE02A093DF02B093E00280EA96E8A2
:102A1000A1E0B0E08093E1029093E202A093E30290
:102A2000B093E40210928B0210928A0200938C02FF
:102A300010938D0220938E0230938F028CE191E0EF
:102A4000909389028093880210929F0210929E02B6
:102A50001092A1021092A0021092A3021092A20260
:102A60001092A5021092A4028091A6028E7F8D7F03
:102A70008093A60286958170682781E00E94FF12EC
:102A800061E081E00E944C13EFEBF5E0E491E0930C
:102A90009802EBEAF5E0E491F0E0EE0FFF1FE0565C
:102AA000FA4F8591949190939A028093990260E0F5
:102AB00080E00E944C138091A60281FD04C061E079
:102AC00080E00E94FF1210929402EEEBF5E0E49198
:102AD000E0939502EAEAF5E0E491F0E0EE0FFF1FE3
:102AE000EA56FA4F859194919093970280939602BB
:102AF0001F910F910895789484B5826084BD84B548
:102B0000816084BD85B5826085BD85B5816085BDE8
:102B100080916E00816080936E00109281008091A0
:102B20008100826080938100809181008160809328
:102B30008100809180008160809380008091B1004D
:102B400084608093B1008091B00081608093B00078
:102B500080917A00846080937A0080917A0082600C
:102B600080937A0080917A008E7F80937A008091A2
:102B70007A00806880937A001092C1008091C5022B
:102B80009091C602892B11F52091AD023091AE02D1
:102B9000C901079697FD0796B3E095958795BA9575
:102BA000E1F72091AB023091AC02AC01429FC00131
:102BB000439F900D529F900D11240E947E1A909376
:102BC000C6028093C502892B09F410C10E94260F0A
:102BD0008091AD029091AE02813291050CF40CC34C
:102BE000BC016054710977FF02C06F5F7F4F75951C
:102BF00067958091AB029091AC028255910997FD47
:102C0000019600E410E022E530E04EEC57E09595A7
:102C100087950E94460F82E08093C8028091C3028C
:102C20009091C402892B09F4FFC28CE38093C70200
:102C30001092F6021092F50210926502109287022D
:102C40001092630281E08093620210923D0261E083
:102C500082E10E94FF1261E083E10E94FF128091F5
:102C6000B9008E7F8093B9008091B9008D7F8093E9
:102C7000B90080E28093B80085E48093BC008EE9BF
:102C800099E09093F4028093F3028FE999E0909396
:102C9000F2028093F1028091CE0287FD1EC061E0B6
:102CA0000E944C1361E08091CE020E94FF1261E00D
:102CB00070E080E090E00E94881360E08091CE0296
:102CC0000E94FF126AE070E080E090E00E948813AA
:102CD00061E08091CE020E94FF128091C302909128
:102CE000C402892B09F45FC32091DD023091DE021A
:102CF0004091DF025091E00260E072E18AE790E0EB
:102D00000E94421ADA01C9014097A109B109B6959A
:102D1000A795979587958093B80064E08AEE95E033
:102D20000E94710E6091AD02615087EA92E00E94AC
:102D3000270C64E086EE95E00E94710E8091C80237
:102D4000813009F447C364E187EA92E00E94270CCE
:102D500064E082EE95E00E94710E8091AB0290914A
:102D6000AC028038910509F048C38091AD02909182
:102D7000AE028032910509F02FC364E08EED95E03C
:102D80000E94710E69ED87EA92E00E94270C809103
:102D9000C802813009F44DC361EF87EA92E00E94D6
:102DA000270C66E082ED95E00E94710E8091C302CF
:102DB0009091C402892B09F43EC32091E102309125
:102DC000E2024091E3025091E40260E072E18AE79E
:102DD00090E00E94421ADA01C9014097A109B109A5
:102DE000B695A795979587958093B8000E94260F72
:102DF00081E08093BB0221E030E03093BA0220935F
:102E0000B9023093B8022093B7028093BE0266E500
:102E100071E087EA92E00E94900B64E871E087EA33
:102E200092E00E94900B8091C3029091C402892B82
:102E3000D1F02091DD023091DE024091DF0250910D
:102E4000E00260E072E18AE790E00E94421ADA0153
:102E5000C9014097A109B109B695A795979587959E
:102E60008093B80016C08091C1029091C202892B54
:102E700031F08091DB029091DC020E948A0CE0919B
:102E8000D502F091D60290818091DA028095892353
:102E9000808365E08EE89AE00E94710E6091AB023B
:102EA000615087EA92E00E94270C2091AD02309198
:102EB000AE02C901079697FD079653E09595879551
:102EC0005A95E1F72091AB023091AC02829F8001CC
:102ED000839F100D929F100D1124C091C502D091B7
:102EE000C6028091C3029091C4020C0F1D1F00976F
:102EF00009F44CC02091C70231E030936402209362
:102F000086021092650210928702DC01ED91FC911D
:102F10000190F081E02D60E40995FF24F394EE2404
:102F2000E3948091C3029091C4020C171D0759F1DC
:102F3000BFE1BF15D0F40E94150E8091C702E09248
:102F4000640280938602109265021092870280913B
:102F5000C3029091C402DC01ED91FC910190F081DB
:102F6000E02D60E40995FF24F3948091C3029091D1
:102F7000C4026991DC01ED91FC910190F081E02D9A
:102F80000995F394CECF0E94150E41C0E091D30273
:102F9000F091D40290818091D902892B8083C0174F
:102FA000D107A9F189912091C1023091C202232B4E
:102FB00019F00E94200CF3CF28E030E040E8E091C7
:102FC000CF02F091D0029091D702582F542319F0DC
:102FD0005081952B03C05081909595239083E0916B
:102FE000D102F091D20250819091D802952B90831A
:102FF000E091D102F091D20250819091D802909547
:1030000095239083469521503109C9F6C8CF809108
:10301000C3029091C402892B51F12091E1023091B9
:10302000E2024091E3025091E40260E072E18AE73B
:1030300090E00E94421ADA01C9014097A109B10942
:10304000B695A795979587958093B8007724739444
:103050009DEC892E912CC5E5D0E00BEC10E020E929
:10306000E22EF12C38E8C32E32E0D32E44C0E0919A
:10307000D502F091D60290818091DA02892B80836B
:103080008091C1029091C202892B01F30E941F0C12
:10309000DDCF1092A3021092A2021092A102109210
:1030A000A00210929F0210929E029092A50280921E
:1030B000A40280919402863118F18091A20290912D
:1030C000A302892B09F06FC067E871E088E892E0FD
:1030D0000E94900B64E871E088E892E00E94900BF7
:1030E00068EE73E080E090E00E948813A114B104C0
:1030F00081F20E94000080E0A82E80E0B82EC9CFA7
:10310000D0939F02C0939E021093A1020093A0024D
:10311000F092A302E092A20230916800883050F051
:1031200021E08E3008F420E0972D01C0990F2A95F8
:10313000EAF701C094E0932B90936800883038F050
:103140008E3040F0863148F020E030E008C02DE6B7
:1031500030E005C02BE630E002C02CE630E03093D2
:103160009C0220939B02883038F4B72D01C0BB0F1E
:103170008A95EAF78B2F0EC0282F30E08E3018F496
:103180002850310902C02E503109872D01C0880F07
:103190002A95EAF780939D028091A4029091A5025E
:1031A0000197F1F78ACFE091F902F091FA0222E05B
:1031B000E838F20709F488CF309739F0A389B48949
:1031C0009C918589809589238C938091A6028E7F1E
:1031D0008093A6021092F8021092F702D092FA029F
:1031E000C092F902E0919B02F0919C029081809143
:1031F0009D02892B808368CFBC016052710977FFE3
:1032000002C06F5F7F4F759567958091AB0290917B
:10321000AC028357910997FD019600E210E023E785
:1032200030E04EEE55E0F3CC61E08091CC020E949C
:103230004C1361E08091CD020E944C138091CC022E
:10324000082E000C990BFC01E655FA4FE491F0E0D2
:10325000EE0FFF1FE056FA4F259134913093D402C0
:103260002093D302FC01E254FA4FE491E093D90297
:103270008091CD02082E000C990BFC01E655FA4F07
:10328000E491F0E0EE0FFF1FE056FA4FA591B491E4
:10329000B093D602A093D502FC01E254FA4FE49118
:1032A000E093DA028C91E82BEC938091C10290912B
:1032B000C202892B09F434C0CFB7F8948091FB0285
:1032C000811127C0E4EBF5E08491E8ECF5E09491FE
:1032D000E82FF0E0EE0FFF1FE859FF4FA591B491E2
:1032E000EC91E92321F461E08AE00E94FF1261E0A1
:1032F0008AE00E944C138CB580618CBD8CB58064D3
:103300008CBD61E08DE00E944C1361E08BE00E9477
:103310004C138091FB028F5F8093FB02CFBFBBCC2D
:1033200061E08091CA020E944C1361E08091CB025F
:103330000E944C138091CA02082E000C990BFC01CC
:10334000E655FA4FE491F0E0EE0FFF1FE056FA4F1A
:10335000259134913093D0022093CF02FC01E254A6
:10336000FA4FE491E093D7028091CB02082E000C33
:10337000990BFC01E655FA4FE491F0E0EE0FFF1FC8
:10338000E056FA4FA591B491B093D202A093D10226
:10339000FC01E254FA4FE491E093D8028C91E0955D
:1033A000E823EC9378CC8091C1029091C202892BE2
:1033B00031F08091DB029091DC020E948A0CE09156
:1033C000D502F091D60290818091DA02809589230E
:1033D0008083A3CC60E1B8CC8034910509F0D2CCD5
:1033E00063E08BED95E00E94710E8091C802813000
:1033F00011F06FEC19C06FE917C08036910509F024
:10340000C1CC8091AD029091AE02409709F0BACC48
:1034100063E088ED95E00E94710E8091C8028130D2
:1034200011F06FEA01C060E187EA92E00E94270C88
:10343000A9CC62E2B2CCE091D502F091D6029081A3
:103440008091DA02892B80838091C1029091C2021F
:10345000892B09F4CBCC0E941F0CC8CC97FB072EFC
:1034600016F4009407D077FD09D00E94641A07FC77
:1034700005D03EF4909581959F4F08957095619584
:103480007F4F0895A1E21A2EAA1BBB1BFD010DC0A0
:10349000AA1FBB1FEE1FFF1FA217B307E407F50704
:1034A00020F0A21BB30BE40BF50B661F771F881FE0
:1034B000991F1A9469F760957095809590959B0176
:1034C000AC01BD01CF010895AA1BBB1B51E107C090
:1034D000AA1FBB1FA617B70710F0A61BB70B881FA4
:1034E000991F5A95A9F780959095BC01CD01089533
:1034F000EE0FFF1F0590F491E02D09940F931F9399
:10350000CF93DF938230910510F482E090E0E09158
:103510000703F091080320E030E0A0E0B0E030972E
:1035200019F1408151810281138148175907C8F070
:103530008417950769F4109731F012960C9312973F
:1035400013961C9327C0009307031093080322C00F
:103550002115310519F04217530718F49A01BD01DE
:10356000EF01DF01F801DBCF21153105F9F0281B50
:10357000390B2430310580F48A819B8161157105F6
:1035800021F0FB019383828304C09093080380930E
:103590000703FE01329644C0FE01E20FF31F819340
:1035A000919322503109398328833AC02091050331
:1035B00030910603232B41F4209102013091030145
:1035C00030930603209305032091000130910101FF
:1035D0002115310541F42DB73EB7409104015091BA
:1035E0000501241B350BE0910503F0910603E2175A
:1035F000F307A0F42E1B3F0B2817390778F0AC0116
:103600004E5F5F4F2417350748F04E0F5F1F5093F2
:103610000603409305038193919302C0E0E0F0E03C
:10362000CF01DF91CF911F910F910895CF93DF9339
:10363000009709F481C0FC01329713821282A09195
:103640000703B0910803109781F420813181820F24
:10365000931F20910503309106032817390751F570
:10366000F0930603E093050367C0ED0120E030E02E
:10367000CE17DF0740F44A815B819E014115510559
:10368000F1F0EA01F5CFD383C28340815181840FE9
:10369000951FC817D90759F488819981840F951F00
:1036A0000296918380838A819B81938382832115F3
:1036B000310529F4F0930803E09307033DC0E901C5
:1036C000FB83EA8349915991C40FD51FEC17FD077D
:1036D00061F480819181840F951F0296E90199839D
:1036E0008883828193819B838A83E0E0F0E0129655
:1036F0008D919C911397009719F0FD01DC01F7CF94
:103700008D919C9111979D012E5F3F4F820F931FCA
:1037100020910503309106032817390769F4309783
:1037200029F4109208031092070302C01382128238
:10373000B0930603A0930503DF91CF91089581E034
:1037400090E0F8940C94AB1BDC0101C06D934150E8
:103750005040E0F7089515E0CBE4D5E004C0FE0149
:103760000E94781A2196CC34D107C9F7F894FFCF7C
:1037700000000903800000000000F809CB09280AB6
:103780008E05C309AF09A009000000008F05C21310
:10379000280A8E05DF05F705760500000000BA0A45
:1037A000C213280A270A18068E05B3088B08A70833
:1037B0009B08BA088E05D6068D0C2B0A6F0AD40713
:1037C000B7074A07EB06436F6E6E65637420525865
:1037D00020746F20746865205044312070696E2019
:1037E000746F2067657420746865207061737377E7
:1037F0006F7264000D0A004434746153683333748B
:0A38000050617373576F72440000AB
:00000001FF
