:100000000C944C050C9474050C9474050C94730CAE
:100010000C94730C0C94730C0C9474050C94740570
:100020000C9474050C9474050C9474050C9474056C
:100030000C9474050C9474050C9474050C9474055C
:100040000C94D1160C9474050C9474050C947405DE
:100050000C9474050C9474050C9474050C9474053C
:100060000C94B50D0C94740500000000003E5B4F2D
:100070005B3E3E6B4F6B3E1C3E7C3E1C183C7E3C08
:10008000181C577D571C1C5E7F5E1C00183C180016
:10009000FFE7C3E7FF0018241800FFE7DBE7FF30A6
:1000A000483A060E2629792926407F050507407F14
:1000B00005253F5A3CE73C5A7F3E1C1C08081C1C87
:1000C0003E7F14227F22145F5F005F5F06097F017D
:1000D0007F006689956A606060606094A2FFA29468
:1000E00008047E040810207E201008082A1C080836
:1000F0001C2A08081E101010100C1E0C1E0C303884
:100100003E3830060E3E0E06000000000000005F84
:1001100000000007000700147F147F14242A7F2AA0
:100120001223130864623649562050000807030062
:10013000001C2241000041221C002A1C7F1C2A08AE
:10014000083E080800807030000808080808000011
:1001500060600020100804023E5149453E00427F85
:10016000400072494949462141494D331814127FD4
:100170001027454545393C4A494931412111090774
:100180003649494936464949291E000014000000F5
:1001900040340000000814224114141414140041C7
:1001A00022140802015909063E415D594E7C121184
:1001B000127C7F494949363E414141227F414141BC
:1001C0003E7F494949417F090909013E4141517337
:1001D0007F0808087F00417F41002040413F017FA8
:1001E000081422417F404040407F021C027F7F0470
:1001F00008107F3E4141413E7F090909063E4151B9
:10020000215E7F09192946264949493203017F01A8
:10021000033F4040403F1F2040201F3F4038403FA9
:10022000631408146303047804036159494D4300BF
:100230007F4141410204081020004141417F0402F6
:10024000010204404040404000030708002054548D
:1002500078407F284444383844444428384444286B
:100260007F385454541800087E090218A4A49C78BE
:100270007F0804047800447D40002040403D007F1A
:100280001028440000417F40007C047804787C08FA
:100290000404783844444438FC18242418182424CE
:1002A00018FC7C08040408485454542404043F44B3
:1002B000243C4040207C1C2040201C3C4030403CE2
:1002C00044281028444C9090907C4464544C440042
:1002D00008364100000077000000413608000201A6
:1002E0000204023C2623263C1EA1A161123A404092
:1002F000207A38545455592155557941225454780F
:1003000042215554784020545579400C1E527212A7
:100310003955555559395454545939555454580030
:1003200000457C410002457D420001457C407D1234
:1003300011127DF0282528F07C5455450020545496
:100340007C547C0A097F4932494949323A44444441
:100350003A324A4848303A4141217A3A424020787C
:10036000009DA0A07D3D4242423D3D4040403D3C7D
:1003700024FF2424487E4943662B2FFC2F2BFF09A2
:1003800029F620C0887E0903205454794100004496
:100390007D413048484A32384040227A007A0A0A81
:1003A000727D0D19317D2629292F282629292926F4
:1003B00030484D4020380808080808080808382F39
:1003C00010C8ACBA2F102834FA00007B00000814C3
:1003D0002A142222142A14085500550055AA55AA99
:1003E00055AAFF55FF55FF000000FF00101010FF39
:1003F00000141414FF001010FF00FF1010F010F094
:10040000141414FC001414F700FF0000FF00FF1484
:1004100014F404FC141417101F10101F101F1414D0
:10042000141F00101010F0000000001F101010101A
:100430001F10101010F010000000FF10101010100E
:1004400010101010FF10000000FF140000FF00FF4C
:1004500000001F10170000FC04F4141417101714E8
:1004600014F404F40000FF00F7141414141414140A
:10047000F700F7141414171410101F101F1414147D
:10048000F4141010F010F000001F101F0000001FE7
:1004900014000000FC140000F010F01010FF10FF1A
:1004A000141414FF141010101F00000000F010FFAF
:1004B000FFFFFFFFF0F0F0F0F0FFFFFF0000000093
:1004C00000FFFF0F0F0F0F0F3844443844FC4A4A17
:1004D0004A347E02020606027E027E0263554941CC
:1004E000633844443C04407E201E2006027E020203
:1004F00099A5E7A5991C2A492A1C4C7201724C3017
:100500004A4D4D303048784830BC625A463D3E49ED
:100510004949007E0101017E2A2A2A2A2A44445F91
:10052000444440514A444040444A51400000FF0185
:1005300003E080FF000008086B6B08361236243693
:10054000060F090F060000181800000010100030F8
:1005500040FF0101001F01011E00191D1712003C80
:100560003C3C3C00000000002200FF210000000095
:100570000023002600290000000000250028002B91
:10058000000404040404040404020202020202033C
:100590000303030303010204081020408001020446
:1005A000081020010204081020DB40A4A62EAFDAB8
:1005B0000281DA1281DA02818F2000A1C8D30040C3
:1005C0008DAED580A8000060000000000000000093
:1005D000000000000000E00000000000000000003B
:1005E0000000000001E0000000000000000000002A
:1005F00000000001F000000000000000000000000A
:10060000000003F0000000000000000000000000F7
:100610000007F000000000000000000000000000E3
:1006200007F8000000000000000000000000000FBC
:10063000F800000003C0007E000001E0007F0FF81A
:1006400000000003C000FE000001E000FFEFF80022
:10065000000003C000FE000001E000FFFFF8000002
:100660000003C000F00000000F007FFE7FC000000C
:1006700003C000F00000000F003FFE7FF83FF1FBD9
:10068000CFFCFEF3BC3DEFE01FFE7FFF7FFBFFDFF3
:10069000FEFEFFBC3DEFE01FC6FFFF7FFBFFDFFE5E
:1006A000FEFFBC3DEFE00FE3C7FE787BC3DE1EF02C
:1006B000FFBC3DEF0007FF87FC787BC3DE1EF0F830
:1006C0003C3DEF0001FFFFF0007BC3C01EF0F03C9B
:1006D0003DEF0001F37FE03FFBC3CFFEF0F03C3D78
:1006E000EF0003E33F807FFBC3DFFEF0F03C3DEF14
:1006F0000007E73C00787BC3DE1EF0F03C3DEF00D6
:1007000007FFBE00787BC3DE1EF0F03C3DEF000724
:10071000FFFE00787BC3DE1EF0F03C3DEF000FFFD4
:10072000FE007FFBFFDFFEF0F03FFDEFE00FFFFF7D
:10073000007FFBFFDFFEF0F03FFDEFE00FF9FF0071
:100740003E79F9CF9EF0F01F3DE7E01FF1FF00007A
:10075000000000000000000000001F80FF007FFF7D
:10076000FFFFFFFFFFFFFFFFE01C007F007FFFFF99
:10077000FFFEB46D888D18E000001F007FFFFFFFB3
:10078000FE95AD7DB577E000000F007FFFFFFFFE17
:10079000A5AD9D8D19E0000006007FFFFFFFFEB5AF
:1007A000ADEDB57EE000000000000180000000001B
:1007B00000000000000380000000000000000000B6
:1007C00007C000000000000000000007C00000009B
:1007D0000000000000000FC000000000000000004A
:1007E000001FE00000000000000000001FE000000B
:1007F000000000000000003FE000000000000000DA
:1008000000003FF00000000000000000007FF0004A
:100810000000000000001FF87FF000000000000052
:10082000003FFE7FF0000000000000003FFF7FF06F
:10083000000000000000001FFFFBE00000000000BF
:1008400000000FFFF9FFC00000000000000FFFF9DB
:10085000FFF800000000000007FFF1FFFF000000AC
:1008600000000003FC73FFFF80000000000001FE99
:100870003FFFFF80000000000000FF1E0FFF000090
:1008800000000000007FFE1FFC00000000000000D0
:100890003FFFFFF8000000000000000FDFFFE00056
:1008A0000000000000001F19FFC000000000000051
:1008B000003F3CFF00000000000000007E7CF800CC
:1008C000000000000000007FFE7C0000000000002F
:1008D0000000FFFFFC0000000000000000FFFFFE22
:1008E0000000000000000000FFFFFE00000000000C
:1008F000000001FFEFFE0000000000000001FFCF3C
:10090000FE0000000000000003FF07FE00000000E2
:1009100000000003FC07FE0000000000000003F0E0
:1009200003FE00000000000000018000FE00000047
:10093000000000000000007E000000000000000039
:1009400000003E000000000000000000000C00005D
:1009500000000000078000FC000003C0000000074A
:100960008001FC000003C0000000078001FC0000C3
:1009700003C0000000078001E00000001E0000002E
:10098000078001E00000001E007FE3F79FF9FDE70C
:10099000787BDFC0FFF7FFBFFDFDFF787BDFC0FF87
:1009A000F7FFBFFDFDFF787BDFC0F0F787BC3DE1BF
:1009B000FF787BDE00F0F787BC3DE1F0787BDE005E
:1009C00000F787803DE1E0787BDE007FF7879FFDC1
:1009D000E1E0787BDE00FFF787BFFDE1E0787BDEBA
:1009E00000F0F787BC3DE1E0787BDE00F0F787BCE4
:1009F0003DE1E0787BDE00F0F787BC3DE1E0787B0D
:100A0000DE00FFF7FFBFFDE1E07FFBDFC0FFF7FF88
:100A1000BFFDE1E07FFBDFC07CF3F39F3DE1E03E03
:100A20007BCFC00000000000000000000000FFFFBE
:100A3000FFFFFFFFFFFFFFFFC0FFFFFFFFFD68DBC2
:100A4000111A31C0FFFFFFFFFD2B5AFB6AEFC0FFF9
:100A5000FFFFFFFD4B5B3B1A33C0FFFFFFFFFD6B4A
:100A60005BDB6AFDC000000000240027002A0000B4
:100A7000000008000201000003040700000000005D
:100A8000000000000103070F1F3F7F0080C0E0F05F
:100A9000F8FCFE0051171B1711241FBECFEFD8E042
:100AA000DEBFCDBF23E0A8E3B2E001C01D92AA3BA8
:100AB000B207E1F712E0A0E0B1E0E6E4F0E402C042
:100AC00005900D92A833B107D9F715E0CBE4D5E036
:100AD00004C02197FE010E94091ECA34D107C9F73C
:100AE0000E9449180C9416200C9400000895CF928F
:100AF000DF92EF92FF920F931F93CF93DF936C01DE
:100B00007A018B01C0E0D0E0CE15DF0581F0D8017D
:100B10006D918D01D601ED91FC910190F081E02D58
:100B2000C6010995892B11F02196EECF7E01C701F0
:100B3000DF91CF911F910F91FF90EF90DF90CF90B9
:100B400008952091AD033091AE032817390771F451
:100B50009091AB038091AC03981741F0E091AB0307
:100B6000F0E0E556FD4F808190E008958FEF9FEF14
:100B7000089508951F93CF93DF93DC015C968D91C8
:100B80009C915D97009739F421E030E013963C93F7
:100B90002E9312973BC05196ED91FC91529750962F
:100BA0002C915097322F30951FB75E964C915E97DF
:100BB000742F727041FD6095F8944081772311F095
:100BC000422B01C043234083EC012197F1F748E019
:100BD000508160FF02C0522B01C053235083EC01AF
:100BE0002197F1F76695415099F78081772319F0A5
:100BF0008323808302C0282B20831FBF5C968D91A6
:100C00009C915D970197F1F781E090E0DF91CF91A2
:100C10001F9108952091AD033091AE032817390735
:100C200071F48091AC032091AB0390E0805C9F4F06
:100C3000821B910960E470E00E94BF1D089580E06E
:100C400090E008952091AD033091AE032817390745
:100C5000B9F49091AB038091AC03981789F0E091BF
:100C6000AB03F0E0E556FD4F80812091AB0330E00F
:100C70002F5F3F4F2F7333272093AB0390E00895EE
:100C80008FEF9FEF0895FC0177FDB9C080859185B6
:100C9000681779070CF0B3C057FDB1C08285938502
:100CA000481759070CF008958589823079F48481BA
:100CB0009581DC01A61BB70BBD01615071098681CE
:100CC0009781DC01A41BB50BAD010EC0833009F088
:100CD00084C064277527CA01862797276827792744
:100CE00046815781481B590B41505109213031052C
:100CF00031F048F12230310509F44AC00895CA01A3
:100D000057FD07969C01A3E035952795AA95E1F735
:100D1000A481B5812A9FC0012B9F900D3A9F900D11
:100D20001124680F791F068CF78DE02DE60FF71F51
:100D30004770552781E090E001C0880F4A95EAF797
:100D40009081892B48C0CA0157FD07969C0193E00A
:100D5000359527959A95E1F7A481B5812A9FC00121
:100D60002B9F900D3A9F900D1124680F791F068CD0
:100D7000F78DE02DE60FF71F4770552781E090E0D3
:100D800001C0880F4A95EAF780959081892323C096
:100D9000CA0157FD07969C0183E0359527958A95F2
:100DA000E1F7A481B5812A9FC0012B9F900D3A9F46
:100DB000900D1124680F791F068CF78DE02DE60F3A
:100DC000F71F4770552781E090E001C0880F4A95D2
:100DD000EAF79081892780830895813009F086CFD2
:100DE00064277527462757276427752784819581AF
:100DF000DC01A61BB70BBD016150710977CF0895C7
:100E00000895FC016370658B84819581268137810B
:100E1000613039F0633029F09187808733872287EA
:100E20000895318720879387828708956F927F92F4
:100E30008F929F92AF92BF92CF92DF92EF92FF92EA
:100E40000F931F93CF93DF93EC014B015A0169017C
:100E50003801E881F9810284F385E02D0995E88164
:100E6000F9810288F389E02D87019601A501B4017B
:100E7000CE010995A501460D571D41505109E88144
:100E8000F9810288F389E02D9601B401CE0109951C
:100E9000E881F9810088F189E02D9301A501B40171
:100EA000CE010995C80CD91CB60161507109E881C1
:100EB000F9810088F189E02D9301A501CE01099502
:100EC000E881F9810688F789E02DCE01DF91CF9185
:100ED0001F910F91FF90EF90DF90CF90BF90AF9058
:100EE0009F908F907F906F9009948F929F92AF9276
:100EF000BF92CF92DF92EF92FF920F931F93CF9307
:100F0000DF934C016B015A01E901DC01ED91FC9189
:100F10006217730781F40417150724F48B2D580109
:100F2000042F182F0A191B0998012F5F3F4F048CBB
:100F3000F58DE02D12C04017510709F52617370728
:100F400024F48D2D6901C62FD82F9E012C193D093F
:100F50002F5F3F4F068CF78DE02D8701A501B6016D
:100F6000C4010995DF91CF911F910F91FF90EF90F0
:100F7000DF90CF90BF90AF909F908F9008950284A4
:100F8000F385E02D0995D401ED91FC910488F58954
:100F9000E02D9E01A501B601C4010995D401ED9192
:100FA000FC910688F789E02DC401DF91CF911F9154
:100FB0000F91FF90EF90DF90CF90BF90AF909F90F8
:100FC0008F900994EF92FF920F931F93DC011A9672
:100FD0000D911C911B9718962D913C911997ED91AD
:100FE000FC9100A0F1A1E02D7B0140E050E060E029
:100FF00070E009951F910F91FF90EF9008954F9227
:101000005F926F927F928F929F92AF92BF92CF9298
:10101000DF92EF92FF920F931F93CF93DF936C01B8
:101020002B015A0139014801DC01ED91FC91028448
:10103000F385E02D0995E201640C751CD601ED9154
:10104000FC91C615D7055CF40088F189E02D870175
:101050009401A501BE01C60109952196EFCF06882E
:10106000F789E02DC601DF91CF911F910F91FF907D
:10107000EF90DF90CF90BF90AF909F908F907F9038
:101080006F905F904F9009948F929F92AF92BF9212
:10109000CF92DF92EF92FF920F931F93CF93DF9344
:1010A000EC015B014A016901E881F9810284F38561
:1010B000E02D099595012C0D3D1D21503109E88148
:1010C000F9810488F589E02D78018401A401B50136
:1010D000CE010995E881F9810688F789E02DCE01D6
:1010E000DF91CF911F910F91FF90EF90DF90CF9004
:1010F000BF90AF909F908F9009948F929F92AF92E4
:10110000BF92CF92DF92EF92FF920F931F93CF93F4
:10111000DF93EC015B014A0169017801E881F98103
:101120000284F385E02D0995C80CD91C8601015075
:101130001109E881F9810488F589E02D9501A40160
:10114000B501CE010995E881F9810688F789E02D7E
:10115000CE01DF91CF911F910F91FF90EF90DF9023
:10116000CF90BF90AF909F908F900994EF92FF9295
:101170000F931F93DC01ED91FC9100A0F1A1E02DF4
:1011800009951F910F91FF90EF9008950F931F9372
:10119000DC01ED91FC91068CF78DE02D09951F91F6
:1011A0000F9108950F931F93DC01ED91FC91048C36
:1011B000F58DE02D09951F910F910895DC01ED91BA
:1011C000FC910084F185E02D09942F923F924F927B
:1011D0005F926F927F928F929F92AF92BF92CF92C7
:1011E000DF92EF92FF920F931F93CF93DF9300D084
:1011F00000D000D0CDB7DEB72C017E836D836A01AD
:101200005901C801FC82EB824801841A950A97FEB5
:1012100003C091948194910835012D813E81621A19
:10122000730A77FE03C0719461947108681479049D
:101230005CF43A2D2B2D5C01832F922F3D812E8162
:10124000DE82CD82C32ED22EAD81BE81AA16BB0610
:101250005CF43C2D2D2D6C01832F922F3D812E812E
:10126000BE82AD82A32EB22E85012D813E81021B4E
:10127000130B1C012C183D0837FE03C03194219438
:101280003108780117FF03C03FEFE31AF30AF59422
:10129000E794C816D9062CF08FEF9FEF9A838983C5
:1012A00004C0A1E0B0E0BA83A9832D813E81A216DB
:1012B000B30624F1D201ED91FC910484F585E02D73
:1012C0002B813C816814790424F44D815E81B60140
:1012D00003C0A6016D817E81C2010995E218F30861
:1012E000F7FE06C029813A81C20ED31EE00EF11E20
:1012F0008D819E8101969E838D83D7CF26960FB6D2
:10130000F894DEBF0FBECDBFDF91CF911F910F913B
:10131000FF90EF90DF90CF90BF90AF909F908F9015
:101320007F906F905F904F903F902F90089585ED44
:101330008093BC008091BC0084FDFCCF109205031B
:10134000089540917802262F30E0240F311D21327C
:101350003105DCF4209105032430C9F4FC0180E060
:1013600090E0861758F4309178022191DC01A85A58
:10137000BD4FA30FB11D2C930196F3CF809178023E
:10138000680F6093780280E0089581E0089582E01C
:10139000089508950895E091AA038091A903E8179C
:1013A00030F4F0E0E85CFD4F808190E008958FEF2D
:1013B0009FEF08959091AA038091A903981750F484
:1013C000E92FF0E0E85CFD4F208130E09F5F9093D3
:1013D000AA0302C02FEF3FEFC90108958091A9032E
:1013E00090E02091AA03821B91090895CF92DF9289
:1013F000EF92FF920F931F93CF93DF937C01CB016A
:101400008A0120910603222389F0EB016B01C40EAF
:10141000D51ECC15DD0569F06991D701ED91FC91E0
:101420000190F081E02DC7010995F3CF642F0E9450
:10143000A109C801DF91CF911F910F91FF90EF900B
:10144000DF90CF900895CF93DF931F92CDB7DEB793
:101450006983209106032223D1F0209129032032B1
:1014600040F021E030E0FC013383228380E090E013
:1014700015C080910703E82FF0E0E85FFC4F9981E9
:1014800090838F5F809307038093290305C061E0F9
:10149000CE0101960E94A10981E090E00F90DF91BA
:1014A000CF91089580E090E008950F931F93CF931C
:1014B000DF93EC0188819981009729F02A813B8193
:1014C0002617370788F48B016F5F7F4F0E94301F0C
:1014D000009761F0998388831B830A832C813D8167
:1014E000232B11F4FC01108281E001C080E0DF9128
:1014F000CF911F910F9108950F931F93CF93DF9377
:10150000DC015596EC915597E23071F0E330E9F04B
:10151000E13079F5FB0114960D90BC91A02DA41B30
:10152000B50BA21BB30B18C0EC01EC81FD81E61BCF
:10153000F70BBF0161507109EE81FF81DF01A41B30
:10154000B50BAD01421B530B14C0DA01EC01EE8167
:10155000FF81E61BF70B3197F7FD0DC0EC014E81C3
:101560005F81E417F5073CF4AF01BD010E943F1312
:1015700002C00E945915DF91CF911F910F910895DC
:101580000F931F93DC015596EC915597E23061F073
:10159000E33009F1E13081F51496ED91FC91159756
:1015A000E41BF50B319723C0DC011496ED91FC91FF
:1015B0001597DF01A61BB70BBD01DC011696ED9157
:1015C000FC911797DF01A41BB50BAD0141505109E8
:1015D000621B730B11C0FA01DC0116964D915C91F0
:1015E0001797DA01A61BB70BBD01621B730BAB018A
:1015F000BF010E9459150CC057FD0AC0DC011696A8
:10160000ED91FC9117974E175F0714F40E943F135A
:101610001F910F910895AF92BF92CF92EF92FF92D8
:101620000F931F93CF93DF93EC01262F888D998D15
:10163000009709F040C06A3059F41D861C862C8939
:101640008E859F8538E0239F800D911D112441C018
:101650006D3009F4AAC08E898823C1F03C898C853D
:101660009D8546E0349F800D911D11244885598544
:10167000481759075CF41D861C868E859F8548E0B7
:10168000349F800D911D11249F878E87EA88FB88E7
:10169000088919894E855F856C857D85CC88CE014A
:1016A0000E9425112C898C859D8536E0239F800D15
:1016B000911D112442C06A3079F41D861C862C8944
:1016C000FC013696E4918E859F852E9F800D911D9D
:1016D00011249F878E8769C06D3009F466C0FC01B4
:1016E00034963491631708F460C03196E491E6179C
:1016F00008F45BC0FC01329665917491422F50E072
:10170000431B510937E0349F5001359FB00C112421
:10171000A60EB71EF501329634913196E49133232B
:1017200011F0E1110DC0F5013496E4912C898C85FE
:101730009D85E29F800D911D11249D878C8735C06A
:10174000F501359644915E89552311F16C89E32F9B
:10175000F0E0E40FF11D47FDFA956E9FD0016F9FF9
:10176000B00D11244C855D854A0F5B1FE885F98516
:10177000E417F5076CF41D861C86FC013696E4918F
:101780008E859F856E9F800D911D11249F878E876A
:10179000EA88FB88088919894E855F856C857D8577
:1017A000CC88CE010E942511BECF81E090E0DF9170
:1017B000CF911F910F91FF90EF90CF90BF90AF907E
:1017C0000895EF92FF920F931F93CF93DF936115CC
:1017D000710511F480E01CC041155105C1F07B0179
:1017E000EC018C819D818A01080F191FB801CE017F
:1017F0000E94550A882371F3288139818C819D814B
:10180000B701820F931F0E940F201D830C8381E07C
:10181000DF91CF911F910F91FF90EF900895CF939B
:10182000DF93EC0188819981009711F00E94A71E37
:10183000198218821D821C821B821A82DF91CF912D
:101840000895EF92FF920F931F93CF93DF93EC01D4
:101850007B018A01BA010E94550A811104C0CE01A0
:101860000E940F0C07C01D830C83B70188819981EA
:101870000E940F20CE01DF91CF911F910F91FF9019
:10188000EF900895CF93DF93EC01FB018617970744
:1018900061F0608171816115710529F04481558184
:1018A0000E94210C02C00E940F0CCE01DF91CF914B
:1018B0000895FC01808191810C94A71EFC01118286
:1018C000108213821282158214826115710551F003
:1018D000FB0101900020E9F73197AF01461B570B40
:1018E0000C94210C08951F920F920FB60F921124A1
:1018F0002F933F934F935F936F937F938F939F9318
:10190000AF93BF93EF93FF93E091AD03F091AE03DC
:10191000309709F451C0968DA685B785858591FFCE
:1019200004C09C91892329F447C09C91892309F024
:1019300043C0A389B4899C918589809589238C9320
:10194000868997890197F1F7608D718DA685B78596
:10195000558538E020E0CB010197F1F7822F90E028
:1019600095958795282F4C91452309F02068315093
:1019700091F7868D81FD20958091AC0390E00196D2
:101980008F7399273091AB03381749F0A091AC03BE
:10199000B0E0A556BD4F2C938093AC0303C0868D59
:1019A0008160868F828D938D0197F1F7A389B48929
:1019B0009C918589892B8C93FF91EF91BF91AF9179
:1019C0009F918F917F916F915F914F913F912F9157
:1019D0000F900FBE0F901F90189508958EBD0000B8
:1019E0000DB407FEFDCF8EB508951F93CF93DF93FF
:1019F000FC01848D958D009729F1162FEF0120A110
:101A000031E03093060320932803109207031092CD
:101A10002903DC01ED91FC910190F081E02D60E063
:101A200009958C8D9D8DDC01ED91FC910190F081EB
:101A3000E02D612F09958C8D9D8DDF91CF911F91A8
:101A40000C94FC0EA4A5B5A59C9182A98095892330
:101A50008C93828D938D892B31F0862FDF91CF91DE
:101A60001F910C94EE0C28E030E080E8A0A5B1A511
:101A700090A9462F482319F04C91942B03C04C9108
:101A8000909594239C93A2A5B3A54C9191A9942BD6
:101A90009C93A2A5B3A54C9191A9909594239C9356
:101AA00086952150310911F7DF91CF911F9108954B
:101AB0008CBD9DBD08951F93CF93DF93EC01162F2E
:101AC0008C8D9D8D892BB1F02EA93FA948AD59ADC4
:101AD00060E072E18AE790E00E94D31DDA01C9015B
:101AE0004097A109B109B695A795979587958093D9
:101AF000B8000FC08A8D9B8D892B21F08CA99DA9E0
:101B00000E94580DEEA5FFA590818BA98095892391
:101B10008083111102C066EA01C067EACE010E940B
:101B2000F50C8C8D9D8D892BB1F02AAD3BAD4CAD64
:101B30005DAD60E072E18AE790E00E94D31DDA01BA
:101B4000C9014097A109B109B695A79597958795C1
:101B50008093B80006C0EEA5FFA590818BA9892BC4
:101B60008083DF91CF911F9108951F920F920FB63E
:101B70000F9211242F933F934F935F936F937F9313
:101B80008F939F93AF93BF93EF93FF938091B9008F
:101B9000887F803609F49CC068F5883209F45BC000
:101BA00090F4803109F454C038F4882309F4F6C065
:101BB000883009F44DC0F6C0883109F44CC0803239
:101BC00009F45DC0EFC0803409F468C048F4803384
:101BD00009F455C0883309F0E5C080930303D8C0E9
:101BE000803509F44FC0883509F45DC0883409F0A8
:101BF000D9C0D6C0883909F4C7C0A8F4883709F419
:101C000067C038F4883609F463C0803709F460C0CF
:101C1000C9C0883809F4B8C0803909F45FC0803879
:101C200009F0C0C05BC0803B09F486C038F4803A3C
:101C300009F466C0883A09F47FC0B4C0803C09F456
:101C4000A7C0883C09F4A4C0883B09F48AC0AAC094
:101C50008091E00210C090910203809101039817D7
:101C600070F5E091020381E08E0F80930203F0E0B3
:101C7000EF51FD4F80818093BB0085EC86C080933F
:101C800003038EC0E091020381E08E0F8093020374
:101C90008091BB00F0E0EF51FD4F808390910203F3
:101CA000809101036EC0E091020381E08E0F80936A
:101CB00002038091BB00F0E0EF51FD4F80838091E3
:101CC000040381116DC081E08093DF0284EA61C06A
:101CD00083E08093050310929A02CFCF80919A02FD
:101CE000803208F051C0E0919A0281E08E0F80931B
:101CF0009A028091BB00F0E0E658FD4F8083BDCF93
:101D000085EC8093BC001092050380919A0280328A
:101D100030F4E0919A02F0E0E658FD4F10826091B5
:101D20009A0270E0E091A503F091A6038AE792E0A1
:101D3000099510929A0236C084E0809305031092B0
:101D4000790210927802E091A703F091A803099517
:101D500080917802811105C081E080937802109211
:101D60005802E091790281E08E0F80937902F0E0D1
:101D7000E85AFD4F80818093BB0090917902809159
:101D80007802981708F479CF85E88093BC000AC0E0
:101D900085EC8093BC001092050304C010920303ED
:101DA0000E949709FF91EF91BF91AF919F918F9101
:101DB0007F916F915F914F913F912F910F900FBE47
:101DC0000F901F901895CF93DF93FC0144815581AC
:101DD000608171818BE593E00E947705EC0142E020
:101DE00050E067E571E08BE593E00E9477058C0F8A
:101DF0009D1FDF91CF91089530912903313208F072
:101E00004BC0809105038111FCCF9091280322E003
:101E10002093050321E0209304032FEF2093030375
:101E20001092020330930103E8E0F3E0A1EEB2E088
:101E300020E0321721F041914D932F5FFACF10929D
:101E4000E0022091E002990F922B9093E002909192
:101E5000DF02913061F41092DF029091E0029093E2
:101E6000BB009091BC0093FDF8CF95EC01C095EEBE
:101E70009093BC00909105039230E1F3909103039D
:101E80009F3F79F080910303803241F080910303FA
:101E9000803331F084E005C081E003C082E001C0FE
:101EA00083E010920703109229031092060308950D
:101EB000DF92EF92FF920F931F93CF93DF93D82E71
:101EC000D92FC62F8091770390917803009709F45A
:101ED00054C020917B0331E0309306032093280304
:101EE0001092070310922903DC01ED91FC910190FF
:101EF000F081E02D60E00995ED2CFD2E11E0D1E0A0
:101F00008091770390917803CC2371F11032C8F05F
:101F10000E94FC0E80917B03D093060380932803DC
:101F20001092070310922903809177039091780310
:101F3000DC01ED91FC910190F081E02D60E00995CC
:101F400011E08091770390917803F7016491DC01AF
:101F5000ED91FC910190F081E02D09951F5FC1503A
:101F6000BFEFEB1AFB0ACCCFDF91CF911F910F91FE
:101F7000FF90EF90DF900C94FC0EE0918703F091BE
:101F80008803908180918D038095892380830D2D16
:101F90001D2FCC2309F439C0F801849120917503D9
:101FA00030917603232B31F00E94EE0CC1500F5F6D
:101FB0001F4FEFCF28E030E040E8E0918303F0913D
:101FC000840390918B03582F542319F05081952B43
:101FD00003C05081909595239083E0918503F09103
:101FE0008603508190918C03952B9083E09185031B
:101FF000F0918603508190918C0390959523908366
:10200000469521503109C9F6D1CFDF91CF911F916B
:102010000F91FF90EF90DF900895CF93DF93EC0145
:10202000FB0144815581608171810E94E10B811126
:1020300003C0CE010E940F0CCE01DF91CF91089515
:102040002091610330916203C901079697FD0796BD
:1020500023E0959587952A95E1F720915F033091CC
:102060006003829FA001839F500D929F500D112409
:1020700060E070E08091790390917A030C94FF1FE7
:102080002FB7F8948091DB029091DC02A091DD02E1
:10209000B091DE022FBF8093320390933303A0935D
:1020A0003403B09335038AE293E00E94220697FF3F
:1020B00026C02FB7F8948091DB029091DC02A091AA
:1020C000DD02B091DE022FBF409132035091330305
:1020D0006091340370913503841B950BA60BB70BED
:1020E00040912E0350912F03609130037091310382
:1020F00084179507A607B707B0F28FEF9FEF0895F3
:10210000CF93DF93009779F0FC0101900020E9F76D
:102110003197AF01481B590BBC018AE293E00E9442
:102120007705EC0102C0C0E0D0E042E050E067E596
:1021300071E08AE293E00E9477058C0F9D1FDF918A
:10214000CF9108953F924F925F926F927F928F92BC
:102150009F92AF92BF92CF92DF92EF92FF920F9336
:102160001F93CF93DF9300D000D000D0CDB7DEB760
:102170002C013B014A015901C901079697FD0796B9
:102180009C0193E0359527959A95E1F73C832B8345
:10219000C12CD12CE12CF12C312CC3018E0D9F1DB3
:1021A0009A838983E016F106C4F51E821D822D8173
:1021B0003E812A153B054CF5C90187709927892B6B
:1021C00011F0330C0EC0ED81FE81F7FD379683E0F0
:1021D000F595E7958A95E1F7EC0DFD1DE80DF91DE4
:1021E000349037FE0CC021E030E049815A816D8186
:1021F0007E81640D751D8BE593E00E94DE088D8164
:102200009E8101969E838D83D2CF9FEFE91AF90AB2
:102210002B813C81C20ED31EC0CF26960FB6F894F8
:10222000DEBF0FBECDBFDF91CF911F910F91FF9009
:10223000EF90DF90CF90BF90AF909F908F907F9066
:102240006F905F904F903F9008952F923F924F92E2
:102250005F926F927F928F929F92AF92BF92CF9236
:10226000DF92EF92FF920F931F93CF93DF93CDB73F
:10227000DEB76B970FB6F894DEBF0FBECDBF9B8F56
:102280008A8F5B011A01D22E1F830E833701C98208
:10229000DC0158962D913C9159972115310509F093
:1022A000E6C018968D919C911997681779070CF0E4
:1022B000CDC11A968D919C911B97481759070CF028
:1022C000C5C18C2C912CFB0126E0C29EE00DF11DB6
:1022D0001124FB87EA871E161F060CF0B7C1A40164
:1022E00083E0440F551F8A95E1F75D874C87CA014B
:1022F000820D931D181619060CF0A8C157968C91E3
:10230000811104C05FEA5D1508F4D394AA8DBB8DDA
:10231000ED91FC9111970284F385E02DCD01099593
:10232000B5E0DB9EC0011124F5013596FF87EE87ED
:10233000BB82AA8225019C012A193B09398B288B73
:10234000A101485F5F4F5B8B4A8BE889F989E40DF7
:10235000F51DE859FF4F5491588761013D822C8249
:10236000888580FF13C0AA8DBB8DED91FC91B9814A
:10237000B13031F40484F585E02D2E813F8116C003
:102380000684F785E02DEE80FF801AC0EE81FF8184
:10239000E615F705F1F0AA8DBB8DED91FC91B981A1
:1023A000B13051F40484F585E02D9301A601B2010A
:1023B0008A8D9B8D09950DC00684F785E02D7301EC
:1023C000840194014C815D816A817B818A8D9B8D22
:1023D0000995E885E695E887FFEFCF1ADF0A2C819B
:1023E0003D81280D391D3D832C834A895B89C416A4
:1023F000D50609F0B5CF5FEF451A550A8A819B8152
:10240000880D991D9B838A83AE85BF854A165B061E
:1024100009F09BCFEE81FF81E615F70509F4F4C0C2
:10242000EA8DFB8DA081B181F981F13079F4B5019C
:102430006B5F7F4F5096ED91FC915197830128E09F
:1024400030E0A1018A8D9B8D0995DEC06A857B8570
:10245000681979091E96ED91FC911F9773010C85FF
:102460001D859401A1018A8D9B8D0995CDC0F9012F
:102470003496E491DE1AF901329685919491B7E091
:10248000DB9E800D911D1124F901259134913B8B28
:102490002A8BFC01259134912901FC013296C490CC
:1024A000319634913E87329614913196D490498179
:1024B000423058F0612E012E000C77088D2D0D2C26
:1024C000000C990B9987888704C019861886612C9F
:1024D000712CAA8DBB8DED91FC9111970284F3852F
:1024E000E02DCD010995B9818B2E912C689CC001FE
:1024F000699C900D789C900D1124FC01EA0DFB1D48
:10250000FD87EC871A82712C612CE12F110FFF0BD4
:1025100095012E0F3F1F3B872A87AC0CB11CA501EC
:102520004E0F5F1F5F8B4E8BC1018D0D911DD7FC30
:102530009A95998F888F9E85691608F065C0862DBB
:1025400090E048855985480F591F489D9001499D45
:10255000300D589D300D1124D101A20FB31FB98B3E
:10256000A88BEC85FD85FD83EC83AA84BB84DA808F
:10257000FA85DF1A288D398D280F391F3D8B2C8B5A
:102580008D2D8A0D4E895F89A416B506C1F187701D
:1025900041F4C2010196EA89FB89E40DF51D7490AE
:1025A0002C0177FE21C0AA8DBB8DED91FC91B981E4
:1025B000B13061F40484F585E02D2E813F814C8992
:1025C0005D89B5018A8D9B8D09950EC00684F785BE
:1025D000E02DEE80FF8084019401488959896C8147
:1025E0007D818A8D9B8D0995770CEFEFAE1ABE0A1F
:1025F0002C813D81280D391D3D832C83C1CF3A812B
:102600003C0D3A83639497CFAA8DBB8DED91FC91DD
:1026100011970688F789E02DCD016B960FB6F894D7
:10262000DEBF0FBECDBFDF91CF911F910F91FF9005
:10263000EF90DF90CF90BF90AF909F908F907F9062
:102640006F905F904F903F902F9009946B960FB6CC
:10265000F894DEBF0FBECDBFDF91CF911F910F91D8
:10266000FF90EF90DF90CF90BF90AF909F908F90B2
:102670007F906F905F904F903F902F9008950F93B1
:102680001F93CF93DF9377FF04C0260F371F60E0BF
:1026900070E0DC011496CD91DC911597FB01E20FFF
:1026A000F31FCE17DF071CF49E01261B370B1216F3
:1026B00013060CF046C0FA0157FD3796DF01E3E040
:1026C000B595A795EA95E1F7AC9FF001AD9FF00DA8
:1026D000BC9FF00D11246E0F7F1FDC015E96ED9103
:1026E000FC915F97E60FF71F4770552781E090E058
:1026F00001C0880F4A95EAF7482F0130110539F0DB
:1027000078F002301105E9F42E0F3F1F13C02E0F91
:102710003F1FE217F307A9F08081842B8193F9CF43
:1027200080952E0F3F1FE217F30759F090819823F1
:102730009193F9CFE217F30721F0808184278193E9
:10274000F9CFDF91CF911F910F910895CF92DF9232
:10275000EF92FF920F931F93CF93DF9300D000D09F
:1027600000D0CDB7DEB76C018B010E942010109213
:1027700068031092670310926A03109269036FE571
:1027800071E0CE0101960E945E0CB801CE01019667
:102790000E940D108C0141E050E061E771E00E9461
:1027A000E10B882309F44DC1C8010E94E30ECE015C
:1027B00001960E94590CEE24E394F12C07E010E0FE
:1027C00028E730E047E050E060E070E08BE593E020
:1027D0000E947507109268031092670388E090E0EA
:1027E00090936A0380936903C6010E94E30E80916F
:1027F000770390917803892BD1F020919103309148
:102800009203409193035091940360E072E18AE750
:1028100090E00E94D31DDA01C9014097A109B109D6
:10282000B695A795979587958093B80016C0809127
:10283000750390917603892B31F080918F039091ED
:1028400090030E94580DE0918903F0918A039081D2
:1028500080918E0380958923808365E088E695E0EA
:102860000E94580F60915F0361508BE593E00E94D6
:10287000F50C2091610330916203C901079697FD21
:10288000079633E0959587953A95E1F720915F0398
:1028900030916003829F7001839FF00C929FF00C37
:1028A00011240091790310917A038091770390911C
:1028B0007803E00EF11E009709F44EC020917B03CF
:1028C00031E03093060320932803109207031092FF
:1028D0002903DC01ED91FC910190F081E02D60E491
:1028E0000995DD24D394CC24C394809177039091EF
:1028F0007803E016F10669F1BFE1BD15D0F40E943E
:10290000FC0E80917B03C0920603809328031092F3
:102910000703109229038091770390917803DC01DB
:10292000ED91FC910190F081E02D60E40995DD24AA
:10293000D3948091770390917803F80161918F018E
:10294000DC01ED91FC910190F081E02D0995D3948B
:10295000CCCF0E94FC0E43C0E0918703F091880326
:10296000908180918D03892B8083E016F106B9F167
:10297000F80181918F012091750330917603232B0B
:1029800019F00E94EE0CF1CF28E030E040E8E09131
:102990008303F091840390918B03582F542319F0F3
:1029A0005081952B03C05081909595239083E091A1
:1029B0008503F0918603508190918C03952B908331
:1029C000E0918503F0918603508190918C0390955E
:1029D00095239083469521503109C9F6C6CF809141
:1029E000770390917803892BD1F020919503309152
:1029F0009603409197035091980360E072E18AE753
:102A000090E00E94D31DDA01C9014097A109B109E4
:102A1000B695A795979587958093B80016C0E091D5
:102A20008903F0918A03908180918E03892B8083A2
:102A30008091750390917603892B39F00E94ED0CFB
:102A400004C0C8010E940F0CAFCE26960FB6F894B2
:102A5000DEBF0FBECDBFDF91CF911F910F91FF90D1
:102A6000EF90DF90CF9008953FB7F8948091B20334
:102A70009091B303A091B403B091B50326B5A89B80
:102A800005C02F3F19F00196A11DB11D3FBFBA2F00
:102A9000A92F982F8827820F911DA11DB11DBC0160
:102AA000CD0143E0660F771F881F991F4A95D1F724
:102AB0000895EF92FF920F931F93CF93DF93EC0152
:102AC00077FDA5C0EC80FD806E157F050CF09FC0E2
:102AD00057FF04C0240F351F40E050E08E819F81D6
:102AE000FA01E20FF31F8E179F071CF49C01241BB1
:102AF000350B121613060CF08AC0922F842F869580
:102B0000869586958E9DD0018F9DB00D11246A0FFC
:102B10007B1FAE8DBF8DA60FB71F4770B1F188E048
:102B2000841B482F682F70E0FB01E557F54FE491B7
:102B3000281798F4621B71092FEF30E002C0359519
:102B400027956A95E2F7E2230130110549F078F004
:102B50000230110509F05BC00EC00130110519F4F7
:102B60008C91E82B0AC00130110508F049C0E095AE
:102B70008C91E82302C08C91E827EC93941708F419
:102B800046C02C813D81A20FB31FE92FE41BE83022
:102B9000F8F00230110561F48E2F9C9190959C9372
:102BA0002C813D81A20FB31F88508830B0F70FC031
:102BB00081E00115110509F480E081959E2F8C9329
:102BC0002C813D81A20FB31F98509830C0F7E77059
:102BD000EE23E9F0F0E0ED57F54FE49101301105F7
:102BE00039F048F00230110591F48C91E82706C0C5
:102BF0008C91E82B03C0E0958C91E823EC9307C0FF
:102C00000230110509F4B7CFAE0DBF1DBECFDF9165
:102C1000CF911F910F91FF90EF90089590E0FC01EC
:102C2000E159F54F2491FC01EB56FA4F3491FC0128
:102C3000EF57FA4FE491EE2309F43CC0222339F117
:102C4000233091F038F42130A9F0223001F584B519
:102C50008F7D12C0273091F02830A1F02430B9F4D4
:102C6000809180008F7D03C0809180008F7780935A
:102C700080000DC084B58F7784BD09C08091B000FD
:102C80008F7703C08091B0008F7D8093B000F0E01B
:102C9000EE0FFF1FE958FA4FA591B4919FB7F89432
:102CA000611104C08C913095382302C0EC913E2B09
:102CB0003C939FBF0895CF93DF9390E0FC01EB56C8
:102CC000FA4F2491FC01EF57FA4F8491882361F168
:102CD00090E0880F991FFC01EB59F54FC591D491F5
:102CE000FC01E958FA4FA591B491611109C09FB751
:102CF000F8948881209582238883EC912E230BC041
:102D0000623061F49FB7F8948881322F3095832325
:102D10008883EC912E2B2C939FBF06C08FB7F8941D
:102D2000E8812E2B28838FBFDF91CF9108958F925A
:102D30009F92AF92BF92CF92DF92EF92FF926B0180
:102D40007C010E9434154B015C01C114D104E104E3
:102D5000F104F1F00E943415DC01CB0188199909C6
:102D6000AA09BB09883E9340A105B10570F321E093
:102D7000C21AD108E108F10888EE880E83E0981E97
:102D8000A11CB11CC114D104E104F10419F7DDCF79
:102D9000FF90EF90DF90CF90BF90AF909F908F907B
:102DA00008951F920F920FB60F9211242F933F9305
:102DB0008F939F93AF93BF938091DB029091DC023E
:102DC000A091DD02B091DE023091B10326E0230F25
:102DD0002D3720F40296A11DB11D05C029E8230F4F
:102DE0000396A11DB11D2093B1038093DB02909344
:102DF000DC02A093DD02B093DE028091B2039091D9
:102E0000B303A091B403B091B5030196A11DB11D08
:102E10008093B2039093B303A093B403B093B5032C
:102E2000BF91AF919F918F913F912F910F900FBEC6
:102E30000F901F9018958DE191E090932B03809354
:102E40002A038091AD039091AE038A52934071F4AE
:102E5000E0913D03F0913E03908180913F03809586
:102E6000892380831092AE031092AD0389E493E02E
:102E70000E94590C8FE493E00E94590C85E593E081
:102E80000E94590C8FE291E090935C0380935B0366
:102E90008091790390917A03009711F00C94A71E0A
:102EA0000895CF92DF92EF92FF92CF9310929C03FE
:102EB00010929B0398EEC92E93E0D92EE12CF12CB1
:102EC000C0929D03D0929E03E0929F03F092A003D4
:102ED0008BE091E090939A038093990310925E03A4
:102EE00010925D0320E830E03093600320935F038D
:102EF00080E290E0909362038093610330936403D7
:102F0000209363039093660380936503109270038C
:102F1000109268031092670310926A03109269037B
:102F2000C1E0C0936F038FEF9FEF90936E03809388
:102F30006D0390936C0380936B03C09371031092A5
:102F4000720310927403109273038FE291E09093D6
:102F50005C0380935B03109276031092750389E9FA
:102F600093E0909378038093770310927A03109202
:102F700079038FEF80937E0380937F038093800398
:102F8000809381038093820380E580938F03C093B5
:102F900090036AE571E085E593E00E945E0C69E5C7
:102FA00071E08FE493E00E945E0C69E571E089E4D2
:102FB00093E00E945E0C10922D0310922C03C0929D
:102FC0002E03D0922F03E0923003F09231038DE173
:102FD00091E090932B0380932A0310924103109267
:102FE0004003109243031092420310924503109243
:102FF00044031092470310924603809148038E7F4A
:103000008D7F8093480386958170682F6C2786E0BA
:103010000E940E1661E086E00E945B16EBE9F5E087
:10302000E491E0933A03E7E8F5E0E491F0E0EE0F95
:10303000FF1FE958FA4F8591949190933C03809338
:103040003B0360E087E00E945B168091480381FDAE
:1030500004C061E087E00E940E1687E0809336038B
:10306000ECE9F5E0E491E0933703E8E8F5E0E4917A
:10307000F0E0EE0FFF1FE359FA4F85919491909382
:10308000390380933803CF91FF90EF90DF90CF907A
:103090000895CF93DF93CDB7DEB762970FB6F8945C
:1030A000DEBF0FBECDBF789484B5826084BD84B589
:1030B000816084BD85B5826085BD85B5816085BD33
:1030C00080916E00816080936E00109281008091EB
:1030D0008100826080938100809181008160809373
:1030E0008100809180008160809380008091B10098
:1030F00084608093B1008091B00081608093B000C3
:1031000080917A00846080937A0080917A00826056
:1031100080937A0080917A008E7F80937A008091EC
:103120007A00806880937A001092C10080917903C0
:1031300090917A03892B11F52091610330916203FC
:10314000C901079697FD079623E0959587952A95DF
:10315000E1F720915F0330916003AC01429FC00111
:10316000439F900D529F900D11240E940F1E90932B
:103170007A0380937903892B09F410C10E942010EF
:10318000209161033091620380915F03909160030D
:10319000213231050CF482C3B9016054710977FF03
:1031A00002C06F5F7F4F759567958255910997FDB6
:1031B000019600E410E022E530E045EA57E09595FD
:1031C00087950E94A21082E080937C038091770310
:1031D00090917803892B09F475C38CE380937B036A
:1031E0001092AA031092A9031092070310922903C8
:1031F0001092050381E0809304031092DF0261E0E6
:1032000082E10E940E1661E083E10E940E16809119
:10321000B9008E7F8093B9008091B9008D7F809333
:10322000B90080E28093B80085E48093BC0089EC0B
:1032300099E09093A8038093A7038AEC99E0909378
:10324000A6038093A5038091820387FD1EC061E0E1
:103250000E945B1661E0809182030E940E1661E07D
:1032600070E080E090E00E94971660E08091820319
:103270000E940E166AE070E080E090E00E949716CF
:1032800061E0809182030E940E16809177039091F5
:103290007803892B09F4D5C32091910330919203CF
:1032A000409193035091940360E072E18AE790E0CB
:1032B0000E94D31DDA01C9014097A109B109B69551
:1032C000A795979587958093B80064E081EC95E089
:1032D0000E94580F6091610361508BE593E00E945A
:1032E000F50C64E08DEB95E00E94580F80917C0313
:1032F000813009F0BDC360E18BE593E00E94F50CDD
:1033000064E089EB95E00E94580F80915F039091F3
:1033100060038038910509F0BEC3809161039091EC
:1033200062038032910509F0A5C364E085EB95E066
:103330000E94580F69ED8BE593E00E94F50C809197
:103340007C03813009F0C3C362E28BE593E00E9405
:10335000F50C66E089EA95E00E94580F80917703AA
:1033600090917803892B09F4B4C32091950330918F
:103370009603409197035091980360E072E18AE7C9
:1033800090E00E94D31DDA01C9014097A109B1095B
:10339000B695A795979587958093B80040E050E043
:1033A00069E571E08FE493E00E94210C61E08DE01B
:1033B0000E945B1661E08DE00E940E160E942010B4
:1033C00081E080936F0321E030E030936E0320931F
:1033D0006D0330936C0320936B0380937203109200
:1033E000450310924403109243031092420310923B
:1033F0004103109240038DEC90E09093470380933B
:10340000460390913603963108F058C025E530E028
:1034100030934103209340032BEC30E0309343037F
:103420002093420320E930E0309345032093440386
:1034300040916800983058F031E09E3008F430E058
:1034400021E0822F01C0880F3A95EAF701C084E09D
:10345000842B80936800983038F09E3040F096318D
:1034600048F42CE630E008C02DE630E005C02BE63D
:1034700030E002C020E030E030933E0320933D0373
:10348000983030F481E001C0880F9A95EAF70EC0B9
:10349000292F30E09E3018F42850310902C02E50F8
:1034A000310981E001C0880F2A95EAF780933F0334
:1034B00080914603909147030197F1F7809144036F
:1034C00090914503892B49F1E091AD03F091AE0352
:1034D00053E0EA32F50709F1309739F0A389B4894E
:1034E0009C918589809589238C93809148038E7F58
:1034F000809348031092AC031092AB038AE293E0EE
:103500009093AE038093AD03E0913D03F0913E03B1
:10351000908180913F03892B808383E791E00E9413
:1035200080108CE791E00E9480108AE891E00E9470
:10353000801088E991E00E94801088EA91E00E9462
:10354000801081EB91E00E94801068EB7BE080E0CE
:1035500090E00E9497166AEB71E0CE0101960E94FE
:103560005E0C6EEB71E0CE0107960E945E0CBE0110
:103570006F5F7F4FCE0107960E94A613CE0107967C
:103580000E94590CCE0101960E94590CBB24B394A1
:103590008091B00381117AC120915303309154037B
:1035A0008091590390915A032817390749F5809162
:1035B0004F0390915003609155037091560300970B
:1035C00019F061157105B9F46115710551F0232BDE
:1035D00009F43EC1FB01808190E0919581959109AC
:1035E0000CC0009709F434C1232B09F431C1FC014C
:1035F000808190E002C00E940620892B09F428C136
:1036000080910001811123C068EE71E0CE01019626
:103610000E945E0C6CEE71E0CE0107960E945E0C7B
:10362000BE016F5F7F4FCE0107960E94A613CE01A9
:1036300007960E94590CCE0101960E94590C40E059
:1036400050E069E571E08FE493E00E94210C69E5A8
:1036500071E0CE0101960E945E0C0E94401097FD21
:103660000CC08F83188641E050E0BE01695F7F4F38
:10367000CE0101960E94E10BF0CF80914903909119
:103680004A030097C9F069817A816115710591F04B
:1036900040914B0350914C032D813E8142175307BB
:1036A00048F00E940F208D819E8190934E0380935D
:1036B0004D0318C00E94A71E89819A8190934A03E6
:1036C000809349038B819C8190934C0380934B039F
:1036D0008D819E8190934E0380934D031A821982AF
:1036E0001C821B821E821D82CE0101960E94590CF3
:1036F00080914D0390914E03892B09F449CFE091BD
:103700004903F0914A038081882309F441CF1A824A
:1037100019821C821B821E821D826FE473E0CE011F
:1037200001960E94420C69E473E0CE0101960E946A
:103730000D10BC018FE493E00E94420CCE01019673
:103740000E94590CC0904F03D0905003C114D10473
:1037500009F445C00091530310915403011511055C
:10376000F1F176014701FFEF8F1A9F0AF70180817F
:10377000082E000C990B0E947C1D892B11F07401FE
:10378000F1CF015011090C0D1D1DF8018081082E8B
:10379000000C990B0E947C1D892B31F00E151F0522
:1037A00018F001501109F1CFA8014F5F5F4F4E197A
:1037B0005F095093540340935303CE14DF0420F465
:1037C000B701C6010E94F61FE0914F03F09150032C
:1037D0008091530390915403E80FF91F108268EE13
:1037E00071E0CE0101960E945E0C65E072E0CE01B0
:1037F0000D960E945E0C6FE473E0CE010D960E9460
:103800000D1018861F821A8619861C861B86BC011D
:10381000CE0107960E94420CBE016F5F7F4FCE0122
:1038200007960E94A613CE0107960E94590CCE015E
:103830000D960E94590CCE0101960E94590C1092CF
:10384000000160ED77E080E090E00E949716A0CE46
:1038500065E172E0CE0101960E945E0C69E172E0C2
:10386000CE0107960E945E0CBE016F5F7F4FCE01B6
:1038700007960E94A613CE0107960E94590CCE010E
:1038800001960E94590CB092B00382CE00E010E085
:1038900001151105E9F30E940000FACFB901605249
:1038A000710977FF02C06F5F7F4F759567958357EA
:1038B000910997FD019600E210E023E730E045EC26
:1038C00055E07DCC61E0809180030E945B1661E051
:1038D000809181030E945B1680918003082E000C6A
:1038E000990BFC01EF57FA4FE491F0E0EE0FFF1F48
:1038F000E958FA4F25913491309388032093870338
:10390000FC01EB56FA4FE491E0938D038091810323
:10391000082E000C990BFC01EF57FA4FE491F0E0F0
:10392000EE0FFF1FE958FA4FA591B491B0938A03A7
:10393000A0938903FC01EB56FA4FE491E0938E03C8
:103940008C91E82BEC938091750390917603892BF1
:1039500009F434C01FB7F8948091AF03811127C0D8
:10396000EBE8F5E08491EFE9F5E09491E82FF0E0E1
:10397000EE0FFF1FEB59F54FA591B491EC91E923A0
:1039800021F461E08AE00E940E1661E08AE00E9464
:103990005B168CB580618CBD8CB580648CBD61E09C
:1039A0008DE00E945B1661E08BE00E945B168091C7
:1039B000AF038F5F8093AF031FBF45CC61E0809161
:1039C0007E030E945B1661E080917F030E945B167C
:1039D00080917E03082E000C990BFC01EF57FA4FE3
:1039E000E491F0E0EE0FFF1FE958FA4F2591349172
:1039F0003093840320938303FC01EB56FA4FE49148
:103A0000E0938B0380917F03082E000C990BFC013F
:103A1000EF57FA4FE491F0E0EE0FFF1FE958FA4F2D
:103A2000A591B491B0938603A0938503FC01EB5656
:103A3000FA4FE491E0938C038C91E095E823EC93AA
:103A400002CC8091750390917603892B31F080919F
:103A50008F03909190030E94580DE0918903F0919B
:103A60008A03908180918E038095892380832DCC59
:103A700064E142CC8034910509F05CCC63E082EBD8
:103A800095E00E94580F80917C03813011F46FE91A
:103A900019C06FEC17C08036910509F04BCC8091AE
:103AA000610390916203409709F044CC63E08FEA90
:103AB00095E00E94580F80917C03813011F460E101
:103AC00001C06FEA8BE593E00E94F50C33CC61EF07
:103AD0003CCCE0918903F0918A03908180918E0320
:103AE000892B80838091750390917603892B09F44B
:103AF00055CC0E94ED0C52CC91110C94851D803256
:103B000019F089508550C8F7089599278827089596
:103B10002F923F924F925F926F927F928F929F92DD
:103B2000AF92BF92CF92DF92EF92FF920F931F93CB
:103B3000CF93DF93CDB7DEB7CA1BDB0B0FB6F8947C
:103B4000DEBF0FBECDBF09942A88398848885F84BC
:103B50006E847D848C849B84AA84B984C884DF802D
:103B6000EE80FD800C811B81AA81B981CE0FD11D11
:103B70000FB6F894DEBF0FBECDBFED01089597FBE1
:103B8000072E16F4009407D077FD09D00E94F51D8A
:103B900007FC05D03EF4909581959F4F0895709550
:103BA00061957F4F0895A1E21A2EAA1BBB1BFD0150
:103BB0000DC0AA1FBB1FEE1FFF1FA217B307E4070C
:103BC000F50720F0A21BB30BE40BF50B661F771F64
:103BD000881F991F1A9469F7609570958095909544
:103BE0009B01AC01BD01CF010895AA1BBB1B51E194
:103BF00007C0AA1FBB1FA617B70710F0A61BB70B5D
:103C0000881F991F5A95A9F780959095BC01CD0101
:103C10000895EE0FFF1F0590F491E02D09940F9386
:103C20001F93CF93DF938230910510F482E090E0F0
:103C3000E091B803F091B90320E030E0A0E0B0E0FB
:103C4000309719F14081518102811381481759073A
:103C5000C8F08417950769F4109731F012960C9309
:103C6000129713961C9327C00093B8031093B903BF
:103C700022C02115310519F04217530718F49A0193
:103C8000BD01EF01DF01F801DBCF21153105F9F0AE
:103C9000281B390B2430310580F48A819B81611502
:103CA000710521F0FB019383828304C09093B903D3
:103CB0008093B803FE01329644C0FE01E20FF31F69
:103CC0008193919322503109398328833AC02091FE
:103CD000B6033091B703232B41F4209103013091B7
:103CE00004013093B7032093B60320910101309172
:103CF00002012115310541F42DB73EB74091050170
:103D000050910601241B350BE091B603F091B703E7
:103D1000E217F307A0F42E1B3F0B2817390778F0A2
:103D2000AC014E5F5F4F2417350748F04E0F5F1F01
:103D30005093B7034093B6038193919302C0E0E0A0
:103D4000F0E0CF01DF91CF911F910F910895CF93B4
:103D5000DF93009709F481C0FC013297138212822D
:103D6000A091B803B091B903109781F420813181FB
:103D7000820F931F2091B6033091B703281739079C
:103D800051F5F093B703E093B60367C0ED0120E06F
:103D900030E0CE17DF0740F44A815B819E01411578
:103DA0005105F1F0EA01F5CFD383C28340815181FF
:103DB000840F951FC817D90759F488819981840FFA
:103DC000951F0296918380838A819B81938382834E
:103DD0002115310529F4F093B903E093B8033DC0F0
:103DE000E901FB83EA8349915991C40FD51FEC1770
:103DF000FD0761F480819181840F951F0296E9018E
:103E000099838883828193819B838A83E0E0F0E0B9
:103E100012968D919C911397009719F0FD01DC018A
:103E2000F7CF8D919C9111979D012E5F3F4F820F8F
:103E3000931F2091B6033091B7032817390769F40F
:103E4000309729F41092B9031092B80302C013827C
:103E50001282B093B703A093B603DF91CF91089578
:103E6000A0E0B0E0E6E3FFE10C948C1DEC010097CC
:103E700021F4CB010E940F1EB4C0FC01E60FF71F16
:103E80009C0122503109E217F30708F4A8C0D901B8
:103E90000D911C91119706171707B0F00530110509
:103EA00008F49BC0C80104978617970708F495C0CB
:103EB00002501109061B170B019311936D937C930C
:103EC000CF010E94A71E89C05B01A01AB10A4C0154
:103ED000800E911EA091B803B091B903612C712C92
:103EE000E12CF12C109709F446C08D919C9111970B
:103EF000A815B905B1F56C0142E0C40ED11CCA1475
:103F0000DB0478F14C018A189B08640142E0C40E7E
:103F1000D11C1296BC9012971396AC91B5E0CB16BB
:103F2000D10440F0B282A38391828082D9016D9343
:103F30007C9309C00E5F1F4F800F911FF901918381
:103F40008083EB2DFA2FE114F10431F0D7011396A1
:103F5000FC93EE93129741C0F093B903E093B8033A
:103F60003CC06816790608F43C017D0112960D905C
:103F7000BC91A02DB7CF8091B6039091B70388165E
:103F80009906E1F466167706C8F4809101019091D4
:103F90000201009741F48DB79EB740910501509101
:103FA0000601841B950BE817F907C8F4F093B703D3
:103FB000E093B603F901718360830FC0CB010E94C7
:103FC0000F1E7C01009759F0A801BE010E94F61F48
:103FD000CE010E94A71EC70104C0CE0102C080E02E
:103FE00090E0CDB7DEB7EEE00C94A81DFB01DC013C
:103FF00002C001900D9241505040D8F70895DC0165
:1040000001C06D9341505040E0F70895FB01DC0181
:104010008D91019080190110D9F3990B0895FB013E
:10402000DC0101900D920020E1F7089515E0CBE44A
:10403000D5E004C0FE010E94091E2196CC34D107B0
:06404000C9F7F894FFCF60
:10404600010000BA03800000000000230AF60952AE
:104056000AB905EE09DA09CB0900000000BA0577AE
:1040660005520AB9050A062206A105000000000B42
:104076000B7705520A76054306B905DE08B608D25F
:1040860008C608E508B90501075B0D7C0AC00AFFEA
:1040960007E207750716070D0A006162636400549C
:1040A600303120424C452E436861726163742E2084
:1040B60000250041542B524F4C45300041542B559E
:1040C6005549443078464645300041542B434841D3
:1040D600523078464645310041542B4E414D4544B9
:1040E6005649442D5441410041542B5245534554A1
:1040F600006E6F742068657265002020300053657D
:104106006E64206162636420746F20626F61726402
:10411600207468726F7567687420424C4520746F0E
:1041260020756E6C6F636B002035300057726F6EB2
:10413600672070617373776F72640A5472792061B5
:104146006761696E00456E7465726564207061739F
:1041560073203A20003130300057656C6C20646F54
:104166006E652021204368616C6C656E67652075FD
:084176006E6C6F636B65640061
:00000001FF
