:100000000C944C050C9474050C9474050C948E0D92
:100010000C948E0D0C948E0D0C9474050C94740538
:100020000C9474050C9474050C9474050C9474056C
:100030000C9474050C9474050C9474050C9474055C
:100040000C942D1A0C9474050C945C0D0C94360DC4
:100050000C9474050C9474050C9474050C9474053C
:100060000C94D00E0C9474050000000024002700AE
:100070002A00DB40A4A62EAFDA0281DA1281DA026E
:10008000818F2000A1C8D300408DAED580A800008C
:10009000600000000000000000000000000000E020
:1000A0000000000000000000000000000001E0006F
:1000B00000000000000000000000000001F000004F
:1000C000000000000000000000000003F00000003D
:1000D0000000000000000000000007F00000000029
:1000E00000000000000000000007F8000000000011
:1000F00000000000000000000FF800000003C00036
:100100007E000001E0007F0FF800000003C000FE49
:10011000000001E000FFEFF800000003C000FE0057
:100120000001E000FFFFF800000003C000F0000045
:10013000000F007FFE7FC0000003C000F000000041
:100140000F003FFE7FF83FF1FBCFFCFEF3BC3DEF1D
:10015000E01FFE7FFF7FFBFFDFFEFEFFBC3DEFE009
:100160001FC6FFFF7FFBFFDFFEFEFFBC3DEFE00F82
:10017000E3C7FE787BC3DE1EF0FFBC3DEF0007FF48
:1001800087FC787BC3DE1EF0F83C3DEF0001FFFFEB
:10019000F0007BC3C01EF0F03C3DEF0001F37FE0B8
:1001A0003FFBC3CFFEF0F03C3DEF0003E33F807F19
:1001B000FBC3DFFEF0F03C3DEF0007E73C00787B3F
:1001C000C3DE1EF0F03C3DEF0007FFBE00787BC3AE
:1001D000DE1EF0F03C3DEF0007FFFE00787BC3DE43
:1001E0001EF0F03C3DEF000FFFFE007FFBFFDFFE47
:1001F000F0F03FFDEFE00FFFFF007FFBFFDFFEF0C1
:10020000F03FFDEFE00FF9FF003E79F9CF9EF0F0EF
:100210001F3DE7E01FF1FF000000000000000000AC
:100220000000001F80FF007FFFFFFFFFFFFFFFFFB9
:10023000FFE01C007F007FFFFFFFFEB46D888D187C
:10024000E000001F007FFFFFFFFE95AD7DB577E06A
:1002500000000F007FFFFFFFFEA5AD9D8D19E000A0
:100260000006007FFFFFFFFEB5ADEDB57EE00000AC
:10027000000000018000000000000000000003807A
:1002800000000000000000000007C00000000000A7
:100290000000000007C00000000000000000000F88
:1002A000C00000000000000000001FE0000000008F
:1002B00000000000001FE00000000000000000003F
:1002C0003FE00000000000000000003FF0000000E0
:1002D0000000000000007FF0000000000000001F90
:1002E000F87FF0000000000000003FFE7FF00000FB
:1002F00000000000003FFF7FF00000000000000051
:100300001FFFFBE0000000000000000FFFF9FFC02E
:100310000000000000000FFFF9FFF80000000000DF
:100320000007FFF1FFFF00000000000003FC73FF67
:10033000FF80000000000001FE3FFFFF8000000082
:10034000000000FF1E0FFF000000000000007FFE05
:100350001FFC000000000000003FFFFFF80000004D
:10036000000000000FDFFFE0000000000000001FA1
:1003700019FFC0000000000000003F3CFF0000002B
:1003800000000000007E7CF800000000000000007B
:100390007FFE7C0000000000000000FFFFFC00006A
:1003A000000000000000FFFFFE0000000000000051
:1003B00000FFFFFE0000000000000001FFEFFE0054
:1003C00000000000000001FFCFFE00000000000060
:1003D0000003FF07FE0000000000000003FC07FE12
:1003E0000000000000000003F003FE000000000019
:1003F0000000018000FE000000000000000000007E
:100400007E000000000000000000003E0000000030
:100410000000000000000C00000000000007800049
:10042000FC000003C0000000078001FC000003C0C6
:10043000000000078001FC000003C00000000780EE
:1004400001E00000001E000000078001E000000045
:100450001E007FE3F79FF9FDE7787BDFC0FFF7FF22
:10046000BFFDFDFF787BDFC0FFF7FFBFFDFDFF781D
:100470007BDFC0F0F787BC3DE1FF787BDE00F0F763
:1004800087BC3DE1F0787BDE0000F787803DE1E04E
:10049000787BDE007FF7879FFDE1E0787BDE00FF61
:1004A000F787BFFDE1E0787BDE00F0F787BC3DE138
:1004B000E0787BDE00F0F787BC3DE1E0787BDE0092
:1004C000F0F787BC3DE1E0787BDE00FFF7FFBFFD82
:1004D000E1E07FFBDFC0FFF7FFBFFDE1E07FFBDF77
:1004E000C07CF3F39F3DE1E03E7BCFC00000000005
:1004F00000000000000000FFFFFFFFFFFFFFFFFF05
:10050000FFC0FFFFFFFFFD68DB111A31C0FFFFFFD7
:10051000FFFD2B5AFB6AEFC0FFFFFFFFFD4B5B3B6C
:100520001A33C0FFFFFFFFFD6B5BDB6AFDC02200DB
:10053000FF21000000000023002600290000000029
:1005400000250028002B0004040404040404040211
:100550000202020202030303030303010204081060
:10056000204080010204081020010204081020002D
:100570000000080002010000030407000000000062
:10058000000000000103070F1F3F7F0080C0E0F064
:10059000F8FCFE00000000003E5B4F5B3E3E6B4FF0
:1005A0006B3E1C3E7C3E1C183C7E3C181C577D5705
:1005B0001C1C5E7F5E1C00183C1800FFE7C3E7FFB1
:1005C0000018241800FFE7DBE7FF30483A060E2644
:1005D00029792926407F050507407F05253F5A3C9C
:1005E000E73C5A7F3E1C1C08081C1C3E7F14227FDF
:1005F00022145F5F005F5F06097F017F00668995B7
:100600006A606060606094A2FFA29408047E04089F
:1006100010207E201008082A1C08081C2A08081E22
:10062000101010100C1E0C1E0C30383E3830060E08
:100630003E0E06000000000000005F000000070002
:100640000700147F147F14242A7F2A1223130864BE
:100650006236495620500008070300001C22410062
:100660000041221C002A1C7F1C2A08083E080800A2
:100670008070300008080808080000606000201042
:100680000804023E5149453E00427F4000724949FC
:1006900049462141494D331814127F1027454545DD
:1006A000393C4A49493141211109073649494936FE
:1006B000464949291E000014000000403400000093
:1006C00008142241141414141400412214080201C5
:1006D0005909063E415D594E7C1211127C7F4949F1
:1006E00049363E414141227F4141413E7F4949498E
:1006F000417F090909013E414151737F0808087F84
:1007000000417F41002040413F017F081422417F8A
:10071000404040407F021C027F7F0408107F3E4122
:1007200041413E7F090909063E4151215E7F091979
:100730002946264949493203017F01033F40404091
:100740003F1F2040201F3F4038403F631408146380
:1007500003047804036159494D43007F414141023C
:1007600004081020004141417F040201020440407E
:10077000404040000307080020545478407F28443C
:1007800044383844444428384444287F3854545426
:100790001800087E090218A4A49C787F0804047835
:1007A00000447D40002040403D007F102844000070
:1007B000417F40007C047804787C08040478384445
:1007C000444438FC1824241818242418FC7C0804F9
:1007D0000408485454542404043F44243C4040201A
:1007E0007C1C2040201C3C4030403C4428102844C5
:1007F0004C9090907C4464544C4400083641000076
:1008000000770000004136080002010204023C2685
:1008100023263C1EA1A161123A4040207A3854544C
:1008200055592155557941225454784221555478CF
:100830004020545579400C1E527212395555555965
:10084000395454545939555454580000457C41008A
:1008500002457D420001457C407D1211127DF02849
:100860002528F07C545545002054547C547C0A09BA
:100870007F4932494949323A4444443A324A484825
:10088000303A4141217A3A42402078009DA0A07D33
:100890003D4242423D3D4040403D3C24FF242448EF
:1008A0007E4943662B2FFC2F2BFF0929F620C08899
:1008B0007E090320545479410000447D413048486A
:1008C0004A32384040227A007A0A0A727D0D193184
:1008D0007D2629292F28262929292630484D4020E0
:1008E000380808080808080808382F10C8ACBA2FBC
:1008F000102834FA00007B000008142A1422221465
:100900002A14085500550055AA55AA55AAFF55FFA7
:1009100055FF000000FF00101010FF00141414FF1A
:10092000001010FF00FF1010F010F0141414FC0061
:100930001414F700FF0000FF00FF1414F404FC146B
:100940001417101F10101F101F1414141F00101064
:1009500010F0000000001F101010101F10101010D9
:10096000F010000000FF101010101010101010FFF9
:1009700010000000FF140000FF00FF00001F101710
:100980000000FC04F414141710171414F404F400F9
:1009900000FF00F714141414141414F700F71414BF
:1009A00014171410101F101F141414F4141010F046
:1009B00010F000001F101F0000001F14000000FCBA
:1009C000140000F010F01010FF10FF141414FF14A6
:1009D0001010101F00000000F010FFFFFFFFFFF0DD
:1009E000F0F0F0F0FFFFFF0000000000FFFF0F0F2E
:1009F0000F0F0F3844443844FC4A4A4A347E0202FE
:100A00000606027E027E0263554941633844443C37
:100A100004407E201E2006027E020299A5E7A599C9
:100A20001C2A492A1C4C7201724C304A4D4D303000
:100A300048784830BC625A463D3E494949007E01EB
:100A400001017E2A2A2A2A2A44445F444440514A0A
:100A5000444040444A51400000FF0103E080FF0051
:100A60000008086B6B083612362436060F090F068D
:100A7000000018180000001010003040FF010100B5
:100A80001F01011E00191D1712003C3C3C3C0000D8
:100A900000000000B11A771A11241FBECFEFD8E072
:100AA000DEBFCDBF12E0A0E0B1E0E8E3F3E402C0B6
:100AB00005900D92AE32B107D9F724E0AEE2B2E074
:100AC00001C01D92A235B207E1F715E0CBE4D5E0F5
:100AD00004C02197FE010E94861FCA34D107C9F7BE
:100AE0000E94ED1B0C948F210C940000CF92DF929A
:100AF000EF92FF920F931F93CF93DF936C017A01D4
:100B00008B01C0E0D0E0CE15DF0581F0D8016D91FA
:100B10008D01D601ED91FC910190F081E02DC6018F
:100B20000995892B11F02196EECF7E01C701DF9147
:100B3000CF911F910F91FF90EF90DF90CF9008958C
:100B4000FC01538D448D252F30E0842F90E0821BD3
:100B5000930B541710F0CF96089501970895FC0158
:100B6000918D828D981761F0828DDF01A80FB11DE4
:100B70005D968C91928D9F5F9F73928F90E0089508
:100B80008FEF9FEF0895FC01918D828D981731F0C2
:100B9000828DE80FF11D858D90E008958FEF9FEF16
:100BA0000895FC01918D228D892F90E0805C9F4FEC
:100BB000821B91098F739927089582E293E00E9426
:100BC000D10521E0892B09F420E0822F0895FC0152
:100BD000848DDF01A80FB11DA35ABF4F2C91848DC6
:100BE00090E001968F739927848FA689B7892C93FB
:100BF000A089B1898C91837080648C93938D848D4E
:100C0000981306C00288F389E02D80818F7D808350
:100C10000895EF92FF920F931F93CF93DF93EC0110
:100C200081E0888F9B8D8C8D981305C0E889F989A8
:100C3000808185FD26C0F62E0B8D10E00F5F1F4FC3
:100C40000F731127E02E8C8DE8120CC00FB607FC35
:100C5000FACFE889F989808185FFF5CFCE010E941E
:100C6000E705F1CF8B8DFE01E80FF11DE35AFF4F31
:100C7000F0829FB7F8940B8FEA89FB8980818062AC
:100C80000AC09FB7F894EE89FF896083E889F989E3
:100C900080818370806480839FBF81E090E0DF91DA
:100CA000CF911F910F91FF90EF900895CF93DF9315
:100CB000EC01888D8823C9F0EA89FB89808185FD54
:100CC00005C0A889B9898C9186FD0FC00FB607FCB5
:100CD000F5CF808185FFF2CFA889B9898C9185FFF6
:100CE000EDCFCE010E94E705E7CFDF91CF910895C8
:100CF00080E090E0892B29F00E94DD0581110C94A1
:100D000000000895209143043091440428173907C6
:100D100071F49091410480914204981741F0E09160
:100D20004104F0E0EF56FD4F808190E008958FEF91
:100D30009FEF089508951F93CF93DF93DC015C9696
:100D40008D919C915D97009739F421E030E01396E6
:100D50003C932E9312973BC05196ED91FC91529784
:100D600050962C915097322F30951FB75E964C912C
:100D70005E97742F727041FD6095F89440817723DF
:100D800011F0422B01C043234083EC012197F1F77E
:100D900048E0508160FF02C0522B01C053235083B2
:100DA000EC012197F1F76695415099F780817723FF
:100DB00019F08323808302C0282B20831FBF5C96F9
:100DC0008D919C915D970197F1F781E090E0DF9123
:100DD000CF911F9108952091430430914404281726
:100DE000390771F4809142042091410490E0805CC5
:100DF0009F4F821B910960E470E00E945E1F08957E
:100E000080E090E008952091430430914404281735
:100E10003907B9F49091410480914204981789F000
:100E2000E0914104F0E0EF56FD4F808120914104B4
:100E300030E02F5F3F4F2F7333272093410490E022
:100E400008958FEF9FEF0895FC0177FDB9C080856D
:100E50009185681779070CF0B3C057FDB1C0828542
:100E60009385481759070CF008958589823079F4E5
:100E700084819581DC01A61BB70BBD01615071090E
:100E800086819781DC01A41BB50BAD010EC08330B8
:100E900009F084C064277527CA0186279727682729
:100EA000792746815781481B590B41505109213000
:100EB000310531F048F12230310509F44AC0089576
:100EC000CA0157FD07969C01A3E035952795AA9581
:100ED000E1F7A481B5812A9FC0012B9F900D3A9F15
:100EE000900D1124680F791F068CF78DE02DE60F09
:100EF000F71F4770552781E090E001C0880F4A95A1
:100F0000EAF79081892B48C0CA0157FD07969C01DA
:100F100093E0359527959A95E1F7A481B5812A9FAD
:100F2000C0012B9F900D3A9F900D1124680F791FDF
:100F3000068CF78DE02DE60FF71F4770552781E0EF
:100F400090E001C0880F4A95EAF780959081892347
:100F500023C0CA0157FD07969C0183E0359527956C
:100F60008A95E1F7A481B5812A9FC0012B9F900D3E
:100F70003A9F900D1124680F791F068CF78DE02D94
:100F8000E60FF71F4770552781E090E001C0880FFA
:100F90004A95EAF79081892780830895813009F086
:100FA00086CF6427752746275727642775278481AE
:100FB0009581DC01A61BB70BBD016150710977CF8C
:100FC00008950895FC016370658B84819581268165
:100FD0003781613039F0633029F09187808733871A
:100FE00022870895318720879387828708956F929B
:100FF0007F928F929F92AF92BF92CF92DF92EF92A9
:10100000FF920F931F93CF93DF93EC014B015A0193
:1010100069013801E881F9810284F385E02D0995A1
:10102000E881F9810288F389E02D87019601A50105
:10103000B401CE010995A501460D571D4150510936
:10104000E881F9810288F389E02D9601B401CE018F
:101050000995E881F9810088F189E02D9301A501C6
:10106000B401CE010995C80CD91CB60161507109B3
:10107000E881F9810088F189E02D9301A501CE0175
:101080000995E881F9810688F789E02DCE01DF9185
:10109000CF911F910F91FF90EF90DF90CF90BF9075
:1010A000AF909F908F907F906F9009948F929F92B6
:1010B000AF92BF92CF92DF92EF92FF920F931F9366
:1010C000CF93DF934C016B015A01E901DC01ED91F3
:1010D000FC916217730781F40417150724F48B2D14
:1010E0005801042F182F0A191B0998012F5F3F4F31
:1010F000048CF58DE02D12C04017510709F5261715
:10110000370724F48D2D6901C62FD82F9E012C1985
:101110003D092F5F3F4F068CF78DE02D8701A5011C
:10112000B601C4010995DF91CF911F910F91FF90F6
:10113000EF90DF90CF90BF90AF909F908F900895E9
:101140000284F385E02D0995D401ED91FC9104888A
:10115000F589E02D9E01A501B601C4010995D401D0
:10116000ED91FC910688F789E02DC401DF91CF91C4
:101170001F910F91FF90EF90DF90CF90BF90AF90B5
:101180009F908F900994EF92FF920F931F93DC0131
:101190001A960D911C911B9718962D913C911997B9
:1011A000ED91FC9100A0F1A1E02D7B0140E050E029
:1011B00060E070E009951F910F91FF90EF90089506
:1011C0004F925F926F927F928F929F92AF92BF9257
:1011D000CF92DF92EF92FF920F931F93CF93DF9303
:1011E0006C012B015A0139014801DC01ED91FC91A0
:1011F0000284F385E02D0995E201640C751CD6018B
:10120000ED91FC91C615D7055CF40088F189E02DBD
:1012100087019401A501BE01C60109952196EFCF72
:101220000688F789E02DC601DF91CF911F910F91BC
:10123000FF90EF90DF90CF90BF90AF909F908F90F6
:101240007F906F905F904F9009948F929F92AF9292
:10125000BF92CF92DF92EF92FF920F931F93CF93A3
:10126000DF93EC015B014A016901E881F9810284A5
:10127000F385E02D099595012C0D3D1D2150310977
:10128000E881F9810488F589E02D78018401A401C1
:10129000B501CE010995E881F9810688F789E02D2D
:1012A000CE01DF91CF911F910F91FF90EF90DF90D2
:1012B000CF90BF90AF909F908F9009948F929F9204
:1012C000AF92BF92CF92DF92EF92FF920F931F9354
:1012D000CF93DF93EC015B014A0169017801E8815A
:1012E000F9810284F385E02D0995C80CD91C86018B
:1012F00001501109E881F9810488F589E02D9501F3
:10130000A401B501CE010995E881F9810688F78924
:10131000E02DCE01DF91CF911F910F91FF90EF90C3
:10132000DF90CF90BF90AF909F908F900994EF92F5
:10133000FF920F931F93DC01ED91FC9100A0F1A1AE
:10134000E02D09951F910F91FF90EF9008950F9355
:101350001F93DC01ED91FC91068CF78DE02D099532
:101360001F910F9108950F931F93DC01ED91FC9154
:10137000048CF58DE02D09951F910F910895DC01E6
:10138000ED91FC910084F185E02D09942F923F921C
:101390004F925F926F927F928F929F92AF92BF9285
:1013A000CF92DF92EF92FF920F931F93CF93DF9331
:1013B00000D000D000D0CDB7DEB72C017E836D8386
:1013C0006A015901C801FC82EB824801841A950A1E
:1013D00097FE03C091948194910835012D813E813F
:1013E000621A730A77FE03C07194619471086814DD
:1013F00079045CF43A2D2B2D5C01832F922F3D81D3
:101400002E81DE82CD82C32ED22EAD81BE81AA1660
:10141000BB065CF43C2D2D2D6C01832F922F3D815A
:101420002E81BE82AD82A32EB22E85012D813E81FA
:10143000021B130B1C012C183D0837FE03C031940E
:1014400021943108780117FF03C03FEFE31AF30A34
:10145000F594E794C816D9062CF08FEF9FEF9A8386
:10146000898304C0A1E0B0E0BA83A9832D813E81C5
:10147000A216B30624F1D201ED91FC910484F58506
:10148000E02D2B813C816814790424F44D815E8128
:10149000B60103C0A6016D817E81C2010995E218E3
:1014A000F308F7FE06C029813A81C20ED31EE00E72
:1014B000F11E8D819E8101969E838D83D7CF2696C6
:1014C0000FB6F894DEBF0FBECDBFDF91CF911F9155
:1014D0000F91FF90EF90DF90CF90BF90AF909F90D3
:1014E0008F907F906F905F904F903F902F900895D6
:1014F00085ED8093BC008091BC0084FDFCCF1092F0
:10150000FD02089540916E02262F30E0240F311D18
:1015100021323105DCF42091FD022430C9F4FC01B4
:1015200080E090E0861758F430916E022191DC0142
:10153000A25BBD4FA30FB11D2C930196F3CF8091F9
:101540006E02680F60936E0280E0089581E0089556
:1015500082E0089508950895E091D6028091D50221
:10156000E81730F4F0E0E25DFD4F808190E00895EF
:101570008FEF9FEF08959091D6028091D502981732
:1015800050F4E92FF0E0E25DFD4F208130E09F5FF5
:101590009093D60202C02FEF3FEFC90108958091CA
:1015A000D50290E02091D602821B91090895CF9236
:1015B000DF92EF92FF920F931F93CF93DF937C0103
:1015C000CB018A012091FE02222389F0EB016B01FD
:1015D000C40ED51ECC15DD0569F06991D701ED91DA
:1015E000FC910190F081E02DC7010995F3CF642FA4
:1015F0000E94820AC801DF91CF911F910F91FF9045
:10160000EF90DF90CF900895CF93DF931F92CDB7E7
:10161000DEB769832091FE022223D1F020912103BD
:10162000203240F021E030E0FC013383228380E06F
:1016300090E015C08091FF02E82FF0E0E050FD4FF0
:10164000998190838F5F8093FF028093210305C06F
:1016500061E0CE0101960E94820A81E090E00F9045
:10166000DF91CF910895089580E090E008950F9361
:101670001F93CF93DF93DC015596EC915597E230A1
:1016800071F0E330E9F0E13079F5FB0114960D904B
:10169000BC91A02DA41BB50BA21BB30B18C0EC0171
:1016A000EC81FD81E61BF70BBF0161507109EE81F2
:1016B000FF81DF01A41BB50BAD01421B530B14C00E
:1016C000DA01EC01EE81FF81E61BF70B3197F7FDA4
:1016D0000DC0EC014E815F81E417F5073CF4AF01CA
:1016E000BD010E944E1802C00E94B518DF91CF9133
:1016F0001F910F9108950F931F93DC015596EC9164
:101700005597E23061F0E33009F1E13081F514964C
:10171000ED91FC911597E41BF50B319723C0DC018B
:101720001496ED91FC911597DF01A61BB70BBD0137
:10173000DC011696ED91FC911797DF01A41BB50B08
:10174000AD0141505109621B730B11C0FA01DC015C
:1017500016964D915C911797DA01A61BB70BBD0148
:10176000621B730BAB01BF010E94B5180CC057FD83
:101770000AC0DC011696ED91FC9117974E175F0792
:1017800014F40E944E181F910F910895AF92BF92CA
:10179000CF92EF92FF920F931F93CF93DF93EC01C1
:1017A000262F888D998D009709F040C06A3059F432
:1017B0001D861C862C898E859F8538E0239F800D91
:1017C000911D112441C06D3009F4AAC08E8988236F
:1017D000C1F03C898C859D8546E0349F800D911D2C
:1017E000112448855985481759075CF41D861C86C5
:1017F0008E859F8548E0349F800D911D11249F8721
:101800008E87EA88FB88088919894E855F856C85F3
:101810007D85CC88CE010E9434162C898C859D85CF
:1018200036E0239F800D911D112442C06A3079F467
:101830001D861C862C89FC013696E4918E859F8539
:101840002E9F800D911D11249F878E8769C06D305A
:1018500009F466C0FC0134963491631708F460C043
:101860003196E491E61708F45BC0FC01329665916D
:101870007491422F50E0431B510937E0349F5001CF
:10188000359FB00C1124A60EB71EF5013296349187
:101890003196E491332311F0E1110DC0F501349636
:1018A000E4912C898C859D85E29F800D911D1124EA
:1018B0009D878C8735C0F501359644915E89552307
:1018C00011F16C89E32FF0E0E40FF11D47FDFA956B
:1018D0006E9FD0016F9FB00D11244C855D854A0F1E
:1018E0005B1FE885F985E417F5076CF41D861C86F7
:1018F000FC013696E4918E859F856E9F800D911D2B
:1019000011249F878E87EA88FB88088919894E856C
:101910005F856C857D85CC88CE010E943416BECF54
:1019200081E090E0DF91CF911F910F91FF90EF90B8
:10193000CF90BF90AF9008950F931F93CF93DF93F5
:10194000EC0188819981009729F02A813B81261733
:10195000370788F48B016F5F7F4F0E94AD2000979F
:1019600061F0998388831B830A832C813D81232B1B
:1019700011F4FC01108281E001C080E0DF91CF9181
:101980001F910F910895CF93DF93EC018881998186
:10199000009711F00E942420198218821D821C8257
:1019A0001B821A82DF91CF910895EF92FF920F93DD
:1019B0001F93CF93DF93EC017B018A01BA010E9450
:1019C0009C0C811104C0CE010E94C30C07C01D8372
:1019D0000C83B701888199810E948821CE01DF9113
:1019E000CF911F910F91FF90EF900895FC0180819E
:1019F00091810C942420FC011182108213821282A6
:101A0000158214826115710551F0FB0101900020CF
:101A1000E9F73197AF01461B570B0C94D50C08958D
:101A2000DC01ED91FC910280F381E02D42E050E079
:101A30006CE671E009940F931F93CF93DF93EC0151
:101A4000FB014481558160817181E881F9810280C7
:101A5000F381E02D09958C01CE010E94100D800FBD
:101A6000911FDF91CF911F910F9108951F920F92B7
:101A70000FB60F9211242F933F934F935F936F9361
:101A80007F938F939F93AF93BF93EF93FF9382E2E4
:101A900093E00E94E705FF91EF91BF91AF919F9175
:101AA0008F917F916F915F914F913F912F910F9007
:101AB0000FBE0F901F9018951F920F920FB60F92A6
:101AC00011242F938F939F93EF93FF93E091320311
:101AD000F09133038081E0913803F091390382FD66
:101AE00012C0908180913B038F5F8F7320913C03E4
:101AF000821751F0E0913B03F0E0EE5DFC4F958FD3
:101B000080933B0301C08081FF91EF919F918F9162
:101B10002F910F900FBE0F901F9018951F920F924C
:101B20000FB60F9211242F933F934F935F936F93B0
:101B30007F938F939F93AF93BF93EF93FF93E09126
:101B40004304F0914404309709F451C0968DA68562
:101B5000B785858591FF04C09C91892329F447C0EE
:101B60009C91892309F043C0A389B4899C918589FC
:101B7000809589238C93868997890197F1F7608DE9
:101B8000718DA685B785558538E020E0CB0101979A
:101B9000F1F7822F90E095958795282F4C9145235A
:101BA00009F02068315091F7868D81FD2095809154
:101BB000420490E001968F739927309141043817C1
:101BC00049F0A0914204B0E0AF56BD4F2C938093F2
:101BD000420403C0868D8160868F828D938D01972C
:101BE000F1F7A389B4899C918589892B8C93FF9106
:101BF000EF91BF91AF919F918F917F916F915F9185
:101C00004F913F912F910F900FBE0F901F901895FD
:101C100008958EBD00000DB407FEFDCF8EB508956A
:101C20001F93CF93DF93FC01848D958D009729F14D
:101C3000162FEF0120A131E03093FE022093200304
:101C40001092FF0210922103DC01ED91FC910190B2
:101C5000F081E02D60E009958C8D9D8DDC01ED918A
:101C6000FC910190F081E02D612F09958C8D9D8D67
:101C7000DF91CF911F910C948110A4A5B5A59C91E3
:101C800082A9809589238C93828D938D892B31F045
:101C9000862FDF91CF911F910C94090E28E030E040
:101CA00080E8A0A5B1A590A9462F482319F04C9132
:101CB000942B03C04C91909594239C93A2A5B3A51B
:101CC0004C9191A9942B9C93A2A5B3A54C9191A959
:101CD000909594239C9386952150310911F7DF91BB
:101CE000CF911F9108958CBD9DBD08951F93CF93F3
:101CF000DF93EC01162F8C8D9D8D892BB1F02EA9D1
:101D00003FA948AD59AD60E072E18AE790E00E94DA
:101D10002D1FDA01C9014097A109B109B695A79510
:101D2000979587958093B8000FC08A8D9B8D892BDE
:101D300021F08CA99DA90E94730EEEA5FFA59081AC
:101D40008BA9809589238083111102C066EA01C0A6
:101D500067EACE010E94100E8C8D9D8D892BB1F00B
:101D60002AAD3BAD4CAD5DAD60E072E18AE790E03D
:101D70000E942D1FDA01C9014097A109B109B6954A
:101D8000A795979587958093B80006C0EEA5FFA507
:101D900090818BA9892B8083DF91CF911F9108952A
:101DA0001F920F920FB60F9211242F933F934F93D0
:101DB0005F936F937F938F939F93AF93BF93EF93B3
:101DC000FF938091B900887F803609F49CC068F544
:101DD000883209F45BC090F4803109F454C038F4BF
:101DE000882309F4F6C0883009F44DC0F6C0883164
:101DF00009F44CC0803209F45DC0EFC0803409F4AE
:101E000068C048F4803309F455C0883309F0E5C050
:101E10008093FB02D8C0803509F44FC0883509F49F
:101E20005DC0883409F0D9C0D6C0883909F4C7C06C
:101E3000A8F4883709F467C038F4883609F463C019
:101E4000803709F460C0C9C0883809F4B8C0803947
:101E500009F45FC0803809F0C0C05BC0803B09F462
:101E600086C038F4803A09F466C0883A09F47FC025
:101E7000B4C0803C09F4A7C0883C09F4A4C0883BE6
:101E800009F48AC0AAC08091D80210C09091FA02C9
:101E90008091F902981770F5E091FA0281E08E0FB7
:101EA0008093FA02F0E0E752FD4F80818093BB00FF
:101EB00085EC86C08093FB028EC0E091FA0281E03F
:101EC0008E0F8093FA028091BB00F0E0E752FD4F45
:101ED00080839091FA028091F9026EC0E091FA023B
:101EE00081E08E0F8093FA028091BB00F0E0E75210
:101EF000FD4F80838091FC0281116DC081E0809351
:101F0000D70284EA61C083E08093FD0210929002C0
:101F1000CFCF80919002803208F051C0E0919002C2
:101F200081E08E0F809390028091BB00F0E0E05939
:101F3000FD4F8083BDCF85EC8093BC001092FD02E5
:101F400080919002803230F4E0919002F0E0E0590C
:101F5000FD4F10826091900270E0E091D102F0910B
:101F6000D20280E792E009951092900236C084E098
:101F70008093FD0210926F0210926E02E091D302E4
:101F8000F091D402099580916E02811105C081E023
:101F900080936E0210924E02E0916F0281E08E0FEC
:101FA00080936F02F0E0E25BFD4F80818093BB0085
:101FB00090916F0280916E02981708F479CF85E8AE
:101FC0008093BC000AC085EC8093BC001092FD0297
:101FD00004C01092FB020E94780AFF91EF91BF911A
:101FE000AF919F918F917F916F915F914F913F91B1
:101FF0002F910F900FBE0F901F9018953F924F9208
:102000005F926F927F928F929F92AF92BF92CF9288
:10201000DF92EF92FF920F931F93CF93DF9300D045
:1020200000D000D0CDB7DEB72C013B014A015901E9
:10203000C901079697FD07969C0193E03595279572
:102040009A95E1F73C832B83C12CD12CE12CF12C08
:10205000312CC3018E0D9F1D9A838983E016F106F2
:10206000C4F51E821D822D813E812A153B054CF54B
:10207000C90187709927892B11F0330C0EC0ED81AF
:10208000FE81F7FD379683E0F595E7958A95E1F7B0
:10209000EC0DFD1DE80DF91D349037FE0CC021E05C
:1020A00030E049815A816D817E81640D751D86EF16
:1020B00093E00E94BF098D819E8101969E838D834E
:1020C000D2CF9FEFE91AF90A2B813C81C20ED31EB1
:1020D000C0CF26960FB6F894DEBF0FBECDBFDF91FE
:1020E000CF911F910F91FF90EF90DF90CF90BF9015
:1020F000AF909F908F907F906F905F904F903F90A8
:10210000089530912103313208F04BC08091FD02D7
:102110008111FCCF9091200322E02093FD0221E069
:102120002093FC022FEF2093FB021092FA023093CF
:10213000F902E0E0F3E0A9EDB2E020E0321721F08F
:1021400041914D932F5FFACF1092D8022091D8027F
:10215000990F922B9093D8029091D702913061F40D
:102160001092D7029091D8029093BB009091BC003E
:1021700093FDF8CF95EC01C095EE9093BC00909143
:10218000FD029230E1F39091FB029F3F79F0809144
:10219000FB02803241F08091FB02803331F084E019
:1021A00005C081E003C082E001C083E01092FF021D
:1021B000109221031092FE020895DF92EF92FF9297
:1021C0000F931F93CF93DF93D82ED92FC62F8091D3
:1021D000120490911304009709F454C0209116043E
:1021E00031E03093FE02209320031092FF02109200
:1021F0002103DC01ED91FC910190F081E02D60E084
:102200000995ED2CFD2E11E0D1E080911204909102
:102210001304CC2371F11032C8F00E948110809118
:102220001604D093FE02809320031092FF021092B6
:1022300021038091120490911304DC01ED91FC9133
:102240000190F081E02D60E0099511E08091120489
:1022500090911304F7016491DC01ED91FC910190E0
:10226000F081E02D09951F5FC150BFEFEB1AFB0A0B
:10227000CCCFDF91CF911F910F91FF90EF90DF9026
:102280000C948110E0912204F091230490818091BC
:1022900028048095892380830D2D1D2FCC2309F4DC
:1022A00039C0F80184912091100430911104232B3E
:1022B00031F00E94090EC1500F5F1F4FEFCF28E091
:1022C00030E040E8E0911E04F0911F049091260454
:1022D000582F542319F05081952B03C050819095AD
:1022E00095239083E0912004F091210450819091F6
:1022F0002704952B9083E0912004F09121045081D4
:10230000909127049095952390834695215031090B
:10231000C9F6D1CFDF91CF911F910F91FF90EF9030
:10232000DF900895EF92FF920F931F93CF93DF9367
:10233000EC01FB0104811581E080F180E114F104DE
:10234000C9F001151105C9F08C819D81080F191F75
:10235000B801CE010E949C0C882361F0288139814C
:102360008C819D81B701820F931F0E9488211D835C
:102370000C8303C0CE010E94C30CCE01DF91CF912C
:102380001F910F91FF90EF9008952091FC033091E1
:10239000FD03C901079697FD079623E0959587955C
:1023A0002A95E1F72091FA033091FB03829FA00167
:1023B000839F500D929F500D112460E070E080913A
:1023C0001404909115040C9481210F931F93CF93C3
:1023D0008091140490911504892B19F52091FC0328
:1023E0003091FD03C901079697FD079603E0959587
:1023F00087950A95E1F72091FA033091FB03AC0130
:10240000429FC001439F900D529F900D11240E9446
:102410008C1F9093150480931404892B11F480E091
:1024200033C20E94C5112091FC033091FD038091BD
:10243000FA039091FB0321323105A4F0B9016054F5
:10244000710977FF02C06F5F7F4F75956795825561
:10245000910997FD019600E410E022E530E04EE698
:1024600052E013C0B9016052710977FF02C06F5F7B
:102470007F4F759567958357910997FD019600E207
:1024800010E023E730E04EE850E0959587950E94F4
:10249000FE0F82E080931704809112049091130440
:1024A000892BB9F18CE3809316041092D602109216
:1024B000D5021092FF02109221031092FD0281E0DA
:1024C0008093FC021092D70261E082E10E946A19B7
:1024D00061E083E10E946A198091B9008E7F809348
:1024E000B9008091B9008D7F8093B90080E280931C
:1024F000B80085E48093BC008AEA9AE09093D40205
:102500008093D3028BEA9AE09093D2028093D10217
:10251000BEC061E080911B040E94B71961E0809108
:102520001C040E94B71980911B04082E000C990B03
:10253000FC01E95BFA4FE491F0E0EE0FFF1FE35C72
:10254000FA4F259134913093230420932204FC0107
:10255000E55AFA4FE491E093280480911C04082E78
:10256000000C990BFC01E95BFA4FE491F0E0EE0FEF
:10257000FF1FE35CFA4FA591B491B0932504A0939B
:102580002404FC01E55AFA4FE491E09329048C916C
:10259000E82BEC938091100490911104892B09F49D
:1025A00034C0CFB7F89480913404811127C0E1E59D
:1025B000F5E08491E5E6F5E09491E82FF0E0EE0F88
:1025C000FF1FE859FF4FA591B491EC91E92321F445
:1025D00061E08AE00E946A1961E08AE00E94B7190E
:1025E0008CB580618CBD8CB580648CBD61E08DE064
:1025F0000E94B71961E08BE00E94B7198091340402
:102600008F5F80933404CFBF42C061E08091190492
:102610000E94B71961E080911A040E94B719809155
:102620001904082E000C990BFC01E95BFA4FE491A8
:10263000F0E0EE0FFF1FE35CFA4F259134913093E9
:102640001F0420931E04FC01E55AFA4FE491E09325
:10265000260480911A04082E000C990BFC01E95BFA
:10266000FA4FE491F0E0EE0FFF1FE35CFA4FA59103
:10267000B491B0932104A0932004FC01E55AFA4FD1
:10268000E491E09327048C91E095E823EC9380910A
:102690001D0487FD1EC061E00E94B71961E08091B2
:1026A0001D040E946A1961E070E080E090E00E94E1
:1026B000F31960E080911D040E946A196AE070E0DD
:1026C00080E090E00E94F31961E080911D040E9477
:1026D0006A198091120490911304892BD1F02091F2
:1026E0002C0430912D0440912E0450912F0460E071
:1026F00072E18AE790E00E942D1FDA01C90140973C
:10270000A109B109B695A795979587958093B800CB
:1027100016C08091100490911104892B31F08091A2
:102720002A0490912B040E94730EE0912404F091EE
:10273000250490818091290480958923808364E019
:102740008AE890E00E94DD106091FC03615086EF02
:1027500093E00E94100E64E086E890E00E94DD1095
:1027600080911704813011F064E101C060E186EFCF
:1027700093E00E94100E64E082E890E00E94DD1079
:102780008091FA039091FB0380389105E9F48091E0
:10279000FC039091FD038032910531F464E08EE7F3
:1027A00090E00E94DD1029C08034910531F563E08E
:1027B0008BE790E00E94DD1080911704813011F0CA
:1027C0006FEC17C06FE915C080369105B1F48091A8
:1027D000FC039091FD03409781F463E088E790E06B
:1027E0000E94DD1080911704813011F06FEA01C062
:1027F00060E186EF93E00E94100E69ED86EF93E0B2
:102800000E94100E80911704813011F061EF01C019
:1028100062E286EF93E00E94100E66E082E790E0AD
:102820000E94DD108091120490911304892BD1F045
:10283000209130043091310440913204509133049E
:1028400060E072E18AE790E00E942D1FDA01C90181
:102850004097A109B109B695A7959795879580935B
:10286000B80011C0E0912404F0912504908180917A
:102870002904892B80838091100490911104892B65
:1028800011F00E94080E81E0CF911F910F910895E1
:10289000CF93DF93009779F0FC0101900020E9F7D6
:1028A0003197AF01481B590BBC018FEB93E00E949D
:1028B0007605EC0102C0C0E0D0E08FEB93E00E940F
:1028C000100D8C0F9D1FDF91CF910895CF92DF9255
:1028D000EF92FF920F931F93CF93DF9300D000D01E
:1028E00000D0CDB7DEB76C018B010E94C5111092EC
:1028F00003041092020410920504109204046FE77E
:1029000071E0CE0101960E94FB0CB801CE01019648
:102910000E9492118C01DC011496ED90FC901597A9
:10292000BFEFEB1AFB0AB7010E949C0C882309F445
:1029300061C1F801208131818481958161E971E073
:10294000820F931F0E948821D8011596FC92EE9267
:102950001497B80186EF93E00E941B0DCE010196FB
:102960000E94F60CEE24E394F12C07E010E028E737
:1029700030E047E050E060E070E086EF93E00E94D6
:102980005608109203041092020488E090E090939D
:10299000050480930404B60186EF93E00E941B0DAA
:1029A0008091120490911304892BD1F020912C0472
:1029B00030912D0440912E0450912F0460E072E17B
:1029C0008AE790E00E942D1FDA01C9014097A10912
:1029D000B109B695A795979587958093B80016C0CD
:1029E0008091100490911104892B31F080912A0478
:1029F00090912B040E94730EE0912404F091250421
:102A000090818091290480958923808365E08EE2FE
:102A100095E00E94DD106091FA03615086EF93E02B
:102A20000E94100E2091FC033091FD03C90107960E
:102A300097FD079633E0959587953A95E1F72091B4
:102A4000FA033091FB03829F7001839FF00C929FE9
:102A5000F00C1124009114041091150480911204BB
:102A600090911304E00EF11E009709F44EC02091DE
:102A7000160431E03093FE02209320031092FF02EF
:102A800010922103DC01ED91FC910190F081E02D89
:102A900060E40995DD24D394CC24C394809112047E
:102AA00090911304E016F10669F1BFE1BD15D0F471
:102AB0000E94811080911604C092FE028093200330
:102AC0001092FF021092210380911204909113043E
:102AD000DC01ED91FC910190F081E02D60E409951D
:102AE000DD24D3948091120490911304F801619134
:102AF0008F01DC01ED91FC910190F081E02D0995B1
:102B0000D394CCCF0E94811043C0E0912204F09175
:102B10002304908180912804892B80830E151F0542
:102B2000B9F1F80181918F012091100430911104C5
:102B3000232B19F00E94090EF1CF28E030E040E885
:102B4000E0911E04F0911F0490912604582F542305
:102B500019F05081952B03C0508190959523908357
:102B6000E0912004F0912104508190912704952B4D
:102B70009083E0912004F0912104508190912704EA
:102B8000909595239083469521503109C9F6C6CF7B
:102B90008091120490911304892BD1F0209130047C
:102BA00030913104409132045091330460E072E17D
:102BB0008AE790E00E942D1FDA01C9014097A10920
:102BC000B109B695A795979587958093B80016C0DB
:102BD000E0912404F0912504908180912904892BAF
:102BE00080838091100490911104892B39F00E9408
:102BF000080E04C0C8010E94C30CABCE26960FB6C7
:102C0000F894DEBF0FBECDBFDF91CF911F910F9122
:102C1000FF90EF90DF90CF9008953FB7F8948091A8
:102C20004A0490914B04A0914C04B0914D0426B5F8
:102C3000A89B05C02F3F19F00196A11DB11D3FBFF4
:102C4000BA2FA92F982F8827820F911DA11DB11D82
:102C5000BC01CD0143E0660F771F881F991F4A957D
:102C6000D1F708950E9473212F923F924F925F9265
:102C70006F927F928F929F92AF92BF92CF92DF928C
:102C8000EF92FF920F931F93CF93DF93CDB7DEB7F1
:102C90006B970FB6F894DEBF0FBECDBF9B8F8A8FA8
:102CA0005B011A01D22E1F830E833701C982DC011A
:102CB00058962D913C9159972115310509F0E6C0A0
:102CC00018968D919C911997681779070CF0CDC1D2
:102CD0001A968D919C911B97481759070CF0C5C106
:102CE0008C2C912CFB0126E0C29EE00DF11D1124DD
:102CF000FB87EA871E161F060CF0B7C1A40183E00C
:102D0000440F551F8A95E1F75D874C87CA01820DF4
:102D1000931D181619060CF0A8C157968C918111B5
:102D200004C05FEA5D1508F4D394AA8DBB8DED91C4
:102D3000FC9111970284F385E02DCD010995B5E052
:102D4000DB9EC0011124F5013596FF87EE87BB821B
:102D5000AA8225019C012A193B09398B288BA101E4
:102D6000485F5F4F5B8B4A8BE889F989E40DF51D5D
:102D7000ED56FA4F5491588761013D822C82888527
:102D800080FF13C0AA8DBB8DED91FC91B981B1304C
:102D900031F40484F585E02D2E813F8116C0068430
:102DA000F785E02DEE80FF801AC0EE81FF81E615E9
:102DB000F705F1F0AA8DBB8DED91FC91B981B13091
:102DC00051F40484F585E02D9301A601B2018A8DAA
:102DD0009B8D09950DC00684F785E02D7301840154
:102DE00094014C815D816A817B818A8D9B8D0995DF
:102DF000E885E695E887FFEFCF1ADF0A2C813D8151
:102E0000280D391D3D832C834A895B89C416D5065C
:102E100009F0B5CF5FEF451A550A8A819B81880D6D
:102E2000991D9B838A83AE85BF854A165B0609F090
:102E30009BCFEE81FF81E615F70509F4F4C0EA8D1A
:102E4000FB8DA081B181F981F13079F4B5016B5F1F
:102E50007F4F5096ED91FC915197830128E030E02F
:102E6000A1018A8D9B8D0995DEC06A857B856819D5
:102E700079091E96ED91FC911F9773010C851D85B4
:102E80009401A1018A8D9B8D0995CDC0F9013496DD
:102E9000E491DE1AF901329685919491B7E0DB9EB8
:102EA000800D911D1124F901259134913B8B2A8BC2
:102EB000FC01259134912901FC013296C490319690
:102EC00034913E87329614913196D49049814230A4
:102ED00058F0612E012E000C77088D2D0D2C000C62
:102EE000990B9987888704C019861886612C712CE4
:102EF000AA8DBB8DED91FC9111970284F385E02D95
:102F0000CD010995B9818B2E912C689CC001699CDB
:102F1000900D789C900D1124FC01EA0DFB1DFD879E
:102F2000EC871A82712C612CE12F110FFF0B950198
:102F30002E0F3F1F3B872A87AC0CB11CA5014E0FFB
:102F40005F1F5F8B4E8BC1018D0D911DD7FC9A9534
:102F5000998F888F9E85691608F065C0862D90E050
:102F600048855985480F591F489D9001499D300D4E
:102F7000589D300D1124D101A20FB31FB98BA88B1E
:102F8000EC85FD85FD83EC83AA84BB84DA80FA8519
:102F9000DF1A288D398D280F391F3D8B2C8B8D2DF5
:102FA0008A0D4E895F89A416B506C1F1877041F478
:102FB000C2010196EA89FB89E40DF51D74902C018C
:102FC00077FE21C0AA8DBB8DED91FC91B981B13006
:102FD00061F40484F585E02D2E813F814C895D8963
:102FE000B5018A8D9B8D09950EC00684F785E02D6D
:102FF000EE80FF8084019401488959896C817D812C
:103000008A8D9B8D0995770CEFEFAE1ABE0A2C8145
:103010003D81280D391D3D832C83C1CF3A813C0D64
:103020003A83639497CFAA8DBB8DED91FC91119754
:103030000688F789E02DCD016B960FB6F894DEBFB8
:103040000FBECDBFDF91CF911F910F91FF90EF90F9
:10305000DF90CF90BF90AF909F908F907F906F90B8
:103060005F904F903F902F9009946B960FB6F89415
:10307000DEBF0FBECDBFDF91CF911F910F91FF90AB
:10308000EF90DF90CF90BF90AF909F908F907F9008
:103090006F905F904F903F902F9008950F931F93E4
:1030A000CF93DF9377FF04C0260F371F60E070E0F7
:1030B000DC011496CD91DC911597FB01E20FF31F13
:1030C000CE17DF071CF49E01261B370B12161306C2
:1030D0000CF046C0FA0157FD3796DF01E3E0B595E5
:1030E000A795EA95E1F7AC9FF001AD9FF00DBC9F6D
:1030F000F00D11246E0F7F1FDC015E96ED91FC91A7
:103100005F97E60FF71F4770552781E090E001C0F9
:10311000880F4A95EAF7482F0130110539F078F009
:1031200002301105E9F42E0F3F1F13C02E0F3F1F71
:10313000E217F307A9F08081842B8193F9CF809562
:103140002E0F3F1FE217F30759F0908198239193B8
:10315000F9CFE217F30721F0808184278193F9CF1B
:10316000DF91CF911F910F910895EF92FF920F93EE
:103170001F93CF93DF93EC0177FDA5C0EC80FD801A
:103180006E157F050CF09FC057FF04C0240F351F3C
:1031900040E050E08E819F81FA01E20FF31F8E170D
:1031A0009F071CF49C01241B350B121613060CF010
:1031B0008AC0922F842F8695869586958E9DD00104
:1031C0008F9DB00D11246A0F7B1FAE8DBF8DA60F92
:1031D000B71F4770B1F188E0841B482F682F70E05B
:1031E000FB01E557FA4FE491281798F4621B710927
:1031F0002FEF30E002C0359527956A95E2F7E2237C
:103200000130110549F078F00230110509F05BC07A
:103210000EC00130110519F48C91E82B0AC0013061
:10322000110508F049C0E0958C91E82302C08C910B
:10323000E827EC93941708F446C02C813D81A20F37
:10324000B31FE92FE41BE830F8F00230110561F4F8
:103250008E2F9C9190959C932C813D81A20FB31F42
:1032600088508830B0F70FC081E00115110509F4CE
:1032700080E081959E2F8C932C813D81A20FB31FFE
:1032800098509830C0F7E770EE23E9F0F0E0ED5782
:10329000FA4FE4910130110539F048F00230110580
:1032A00091F48C91E82706C08C91E82B03C0E0953F
:1032B0008C91E823EC9307C00230110509F4B7CFD5
:1032C000AE0DBF1DBECFDF91CF911F910F91FF902B
:1032D000EF90089590E0FC01E159FA4F2491FC0130
:1032E000E55AFA4F3491FC01E95BFA4FE491EE2381
:1032F00009F43CC0222339F1233091F038F4213015
:10330000A9F0223001F584B58F7D12C0273091F0ED
:103310002830A1F02430B9F4809180008F7D03C063
:10332000809180008F77809380000DC084B58F7767
:1033300084BD09C08091B0008F7703C08091B00038
:103340008F7D8093B000F0E0EE0FFF1FE35CFA4F3B
:10335000A591B4919FB7F894611104C08C913095F8
:10336000382302C0EC913E2B3C939FBF0895CF932E
:10337000DF9390E0FC01E55AFA4F2491FC01E95BF0
:10338000FA4F8491882361F190E0880F991FFC0126
:10339000E859FF4FC591D491FC01E35CFA4FA59128
:1033A000B491611109C09FB7F89488812095822358
:1033B0008883EC912E230BC0623061F49FB7F894A0
:1033C0008881322F309583238883EC912E2B2C9388
:1033D0009FBF06C08FB7F894E8812E2B28838FBF3C
:1033E000DF91CF9108958F929F92AF92BF92CF922B
:1033F000DF92EF92FF926B017C010E940D164B0150
:103400005C01C114D104E104F104F1F00E940D1635
:10341000DC01CB0188199909AA09BB09883E9340B0
:10342000A105B10570F321E0C21AD108E108F10845
:1034300088EE880E83E0981EA11CB11CC114D10433
:10344000E104F10419F7DDCFFF90EF90DF90CF900A
:10345000BF90AF909F908F9008951F920F920FB6DC
:103460000F9211242F933F938F939F93AF93BF930A
:103470008091460490914704A0914804B09149047A
:103480003091450426E0230F2D3720F40296A11D2C
:10349000B11D05C029E8230F0396A11DB11D20937E
:1034A00045048093460490934704A0934804B09346
:1034B000490480914A0490914B04A0914C04B0912E
:1034C0004D040196A11DB11D80934A0490934B04B5
:1034D000A0934C04B0934D04BF91AF919F918F91F5
:1034E0003F912F910F900FBE0F901F90189582E380
:1034F00091E09093C0038093BF0380914304909127
:1035000044048F5B934071F4E091D203F091D303B4
:1035100090818091D4038095892380831092440404
:10352000109243048EED93E00E94F60C84EE93E03B
:103530000E94F60C8AEE93E00E94F60C80EF93E076
:103540000E94F60C84E491E09093F7038093F603D5
:103550008091140490911504009711F00C9424208C
:103560000895CF92DF92EF92FF92CF9310922503AE
:103570001092240398EEC92E93E0D92EE12CF12C61
:10358000C0922603D0922703E0922803F0922903E9
:103590008EE091E0909323038093220385EC90E0EA
:1035A00090932F0380932E0384EC90E0909331034B
:1035B0008093300380EC90E0909333038093320348
:1035C00081EC90E0909335038093340382EC90E09B
:1035D000909337038093360386EC90E09093390301
:1035E0008093380310923B0310923C0310923D03EA
:1035F00010923E031092380410923704C09239049E
:10360000D0923A04E0923B04F0923C0480E291E0D4
:1036100090933604809335041092F9031092F803C6
:1036200020E830E03093FB032093FA0380E290E03F
:103630009093FD038093FC033093FF032093FE03DC
:10364000909301048093000410920B0410920304E1
:10365000109202041092050410920404C1E0C09379
:103660000A048FEF9FEF90930904809308049093CE
:10367000070480930604C0930C0410920D0410926A
:103680000F0410920E0484E491E09093F70380936A
:10369000F603109211041092100485E394E09093C5
:1036A00013048093120410921504109214048FEFE7
:1036B0008093190480931A0480931B0480931C0444
:1036C00080931D0480E580932A04C0932B046FE649
:1036D00071E080EF93E00E94FB0C6EE671E08AEEF1
:1036E00093E00E94FB0C6EE671E084EE93E00E9492
:1036F000FB0C6EE671E08EED93E00E94FB0C1092E5
:10370000C2031092C103C092C303D092C403E092DB
:10371000C503F092C60382E391E09093C0038093C7
:10372000BF031092D6031092D5031092D8031092C3
:10373000D7031092DA031092D9031092DC0310928F
:10374000DB038091DD038E7F8D7F8093DD03869583
:103750008170682F6C2786E00E946A1961E086E01C
:103760000E94B719E1E6F5E0E491E093CF03EDE4C0
:10377000F5E0E491F0E0EE0FFF1FE35CFA4F859176
:1037800094919093D1038093D00360E087E00E94EE
:10379000B7198091DD0381FD04C061E087E00E94DC
:1037A0006A1987E08093CB03E2E6F5E0E491E093C9
:1037B000CC03EEE4F5E0E491F0E0EE0FFF1FED5CEA
:1037C000FA4F859194919093CE038093CD03CF913E
:1037D000FF90EF90DF90CF900895CF93DF93CDB718
:1037E000DEB768970FB6F894DEBF0FBECDBF7894F2
:1037F00084B5826084BD84B5816084BD85B58260F6
:1038000085BD85B5816085BD80916E0081608093A6
:103810006E0010928100809181008260809381000F
:10382000809181008160809381008091800081601F
:10383000809380008091B10084608093B10080917A
:10384000B00081608093B00080917A0084608093A2
:103850007A0080917A00826080937A0080917A0069
:103860008E7F80937A0080917A00806880937A00BE
:103870001092C1000E94E51140E050E06EE671E058
:103880008AEE93E00E94D50C0E94C51181E08093DE
:103890000A0421E030E030930904209308043093B7
:1038A00007042093060480930D041092DA0310920B
:1038B000D9031092D8031092D7031092D603109216
:1038C000D5038DEC90E09093DC038093DB03909123
:1038D000CB03963108F058C025E530E03093D6038D
:1038E0002093D5032BEC30E03093D8032093D703FB
:1038F00020E930E03093DA032093D9034091680047
:10390000983058F031E09E3008F430E021E0822F0A
:1039100001C0880F3A95EAF701C084E0842B8093B8
:103920006800983038F09E3040F0963148F020E042
:1039300030E008C02DE630E005C02BE630E002C0E4
:103940002CE630E03093D3032093D203983030F448
:1039500081E001C0880F9A95EAF70EC0292F30E068
:103960009E3018F42850310902C02E50310981E0F0
:1039700001C0880F2A95EAF78093D4038091DB0376
:103980009091DC030197F1F78091D9039091DA03CC
:10399000892B49F1E0914304F091440423E0EF3B8B
:1039A000F20709F1309739F0A389B4899C91858990
:1039B000809589238C938091DD038E7F8093DD0336
:1039C00010924204109241048FEB93E090934404D0
:1039D00080934304E091D203F091D30390818091CE
:1039E000D403892B808368EE73E080E090E00E942E
:1039F000F3190E94381E1C8A1B8A1E8A1D8A188E83
:103A00001F8A28EE33E040E050E00E94C41EDC0133
:103A1000CB014AE08E010F5F1F4FB8010E948F1E3D
:103A2000F80101900020E9F73197AF01401B510BDD
:103A3000B801CE0143960E94D50C63E971E0C8013C
:103A40000E94FB0CBE016D5E7F4FC8010E94921167
:103A5000E3E08E3D9E0789F0FC0160817181611574
:103A6000710539F0448155818EED93E00E94D50CAB
:103A700004C08EED93E00E94C30CC8010E94F60CB6
:103A8000CE0143960E94F60C89E991E00E94481409
:103A900082EA91E00E9448148BEA91E00E94481467
:103AA00089EB91E00E94481467EC71E0C8010E9424
:103AB000FB0C6EED73E0C8010E949211BC018FEB0C
:103AC00093E00E941B0DC8010E94F60C8FEC91E060
:103AD0000E944814E0913203F091330382E0808326
:103AE000E0912E03F0912F031082E0913003F091CA
:103AF000310387E6808310923A03E0913603F09118
:103B0000370386E08083E0913403F09135038081B0
:103B100080618083E0913403F09135038081886077
:103B20008083E0913403F091350380818068808345
:103B3000E0913403F091350380818F7D80830E9472
:103B4000E5110E94C51181E080930A0421E030E074
:103B5000309309042093080430930704209306044B
:103B600080930D0468ED71E0C8010E94FB0C6CEDC0
:103B700071E0CE0143960E94FB0CB801CE01439642
:103B80000E946614CE0143960E94F60CC8010E9462
:103B9000F60C89EF91E00E94481468E873E180E038
:103BA00090E00E94F31968E072E0C8010E94FB0CEB
:103BB0006CE072E0CE0143960E94FB0CB801CE018E
:103BC00043960E946614CE0143960E94F60CC801EB
:103BD0000E94F60C0E947806DCCF8F929F92AF92E3
:103BE000BF92CF92DF92EF92FF92CF93DF93EC01DF
:103BF000688179818A819B816115710581059105B3
:103C000021F464E279ED8BE597E02DE133EF41E0BB
:103C100050E00E94C41E49015A019B01AC01A7EA71
:103C2000B1E40E94E31E6B017C01ACEEB4EFA50190
:103C300094010E94F11EDC01CB018C0D9D1DAE1D77
:103C4000BF1DB7FF03C00197A109B04888839983BE
:103C5000AA83BB83BC01CD019F77DF91CF91FF90F9
:103C6000EF90DF90CF90BF90AF909F908F9008958E
:103C70008F929F92AF92BF92CF92DF92EF92FF927C
:103C80006091000170910101809102019091030106
:103C9000611571058105910521F464E279ED8BE5EB
:103CA00097E02DE133EF41E050E00E94C41E49014E
:103CB0005A019B01AC01A7EAB1E40E94E31E6B012B
:103CC0007C01ACEEB4EFA50194010E94F11EDC0171
:103CD000CB018C0D9D1DAE1DBF1DB7FF03C001970D
:103CE000A109B0488093000190930101A0930201C3
:103CF000B0930301BC01CD019F77FF90EF90DF905F
:103D0000CF90BF90AF909F908F90089560930001E7
:103D10007093010180930201909303010895BB27E2
:103D20004A3031F4992322F4BDE2909581959F4F5A
:103D30000C949B1EBB27FB015527AA27880F991FB0
:103D4000AA1FA41710F0A41B83955051B9F7A05DCA
:103D5000AA3308F0A95DA193009779F7B111B19347
:103D60001192CB010C94B41EDC01FC01672F719100
:103D70007723E1F7329704C07C916D937083629151
:103D8000AE17BF07C8F30895052E97FB1EF40094E5
:103D90000E94DB1E57FD07D00E942D1F07FC03D099
:103DA0004EF40C94DB1E50954095309521953F4F75
:103DB0004F4F5F4F089590958095709561957F4F17
:103DC0008F4F9F4F08950E944F1FA59F900DB49F46
:103DD000900DA49F800D911D11240895B7FF0C94A0
:103DE000E31E0E94E31E821B930B08952F923F92C5
:103DF0004F925F926F927F928F929F92AF92BF92FB
:103E0000CF92DF92EF92FF920F931F93CF93DF93A6
:103E1000CDB7DEB7CA1BDB0B0FB6F894DEBF0FBE03
:103E2000CDBF09942A88398848885F846E847D8450
:103E30008C849B84AA84B984C884DF80EE80FD8052
:103E40000C811B81AA81B981CE0FD11D0FB6F894C8
:103E5000DEBF0FBECDBFED010895A1E21A2EAA1B51
:103E6000BB1BFD010DC0AA1FBB1FEE1FFF1FA2172A
:103E7000B307E407F50720F0A21BB30BE40BF50B27
:103E8000661F771F881F991F1A9469F760957095B0
:103E9000809590959B01AC01BD01CF010895A29F33
:103EA000B001B39FC001A39F700D811D1124911D0E
:103EB000B29F700D811D1124911D089597FB072E4F
:103EC00016F4009407D077FD09D00E94721F07FCFA
:103ED00005D03EF4909581959F4F0895709561951A
:103EE0007F4F0895AA1BBB1B51E107C0AA1FBB1F30
:103EF000A617B70710F0A61BB70B881F991F5A9576
:103F0000A9F780959095BC01CD010895EE0FFF1F94
:103F10000590F491E02D09940F931F93CF93DF93B5
:103F20008230910510F482E090E0E0915004F0912D
:103F3000510420E030E0A0E0B0E0309719F140817A
:103F400051810281138148175907C8F084179507DA
:103F500069F4109731F012960C93129713961C93F4
:103F600027C0009350041093510422C0211531053D
:103F700019F04217530718F49A01BD01EF01DF0150
:103F8000F801DBCF21153105F9F0281B390B24305E
:103F9000310580F48A819B816115710521F0FB0157
:103FA0009383828304C09093510480935004FE0154
:103FB000329644C0FE01E20FF31F81939193225089
:103FC0003109398328833AC020914E0430914F043F
:103FD000232B41F4209106013091070130934F04C7
:103FE00020934E04209104013091050121153105E3
:103FF00041F42DB73EB74091080150910901241BAF
:10400000350BE0914E04F0914F04E217F307A0F452
:104010002E1B3F0B2817390778F0AC014E5F5F4F1E
:104020002417350748F04E0F5F1F50934F044093FD
:104030004E048193919302C0E0E0F0E0CF01DF9164
:10404000CF911F910F910895CF93DF93009709F4BB
:1040500081C0FC01329713821282A0915004B0916A
:104060005104109781F420813181820F931F209198
:104070004E0430914F042817390751F5F0934F043F
:10408000E0934E0467C0ED0120E030E0CE17DF077B
:1040900040F44A815B819E0141155105F1F0EA012E
:1040A000F5CFD383C28340815181840F951FC817F8
:1040B000D90759F488819981840F951F02969183BD
:1040C00080838A819B81938382832115310529F422
:1040D000F0935104E09350043DC0E901FB83EA836F
:1040E00049915991C40FD51FEC17FD0761F48081E8
:1040F0009181840F951F0296E901998388838281BB
:1041000093819B838A83E0E0F0E012968D919C91ED
:104110001397009719F0FD01DC01F7CF8D919C9169
:1041200011979D012E5F3F4F820F931F20914E04E8
:1041300030914F042817390769F4309729F4109209
:1041400051041092500402C013821282B0934F04A3
:10415000A0934E04DF91CF910895A0E0B0E0E3EB8F
:10416000F0E20C94FA1EEC01009721F4CB010E94BE
:104170008C1FB4C0FC01E60FF71F9C0122503109CF
:10418000E217F30708F4A8C0D9010D911C9111970B
:1041900006171707B0F00530110508F49BC0C801D9
:1041A00004978617970708F495C002501109061B5B
:1041B000170B019311936D937C93CF010E942420E0
:1041C00089C05B01A01AB10A4C01800E911EA0911A
:1041D0005004B0915104612C712CE12CF12C1097FA
:1041E00009F446C08D919C911197A815B905B1F5B8
:1041F0006C0142E0C40ED11CCA14DB0478F14C01FE
:104200008A189B08640142E0C40ED11C1296BC902F
:1042100012971396AC91B5E0CB16D10440F0B28260
:10422000A38391828082D9016D937C9309C00E5F34
:104230001F4F800F911FF90191838083EB2DFA2F7F
:10424000E114F10431F0D7011396FC93EE93129729
:1042500041C0F0935104E09350043CC068167906C5
:1042600008F43C017D0112960D90BC91A02DB7CFB2
:1042700080914E0490914F0488169906E1F46616D9
:104280007706C8F48091040190910501009741F4EC
:104290008DB79EB74091080150910901841B950B81
:1042A000E817F907C8F4F0934F04E0934E04F901BE
:1042B000718360830FC0CB010E948C1F7C0100972B
:1042C00059F0A801BE010E947821CE010E9424204D
:1042D000C70104C0CE0102C080E090E0CDB7DEB7D8
:1042E000EEE00C94161F81E090E0F8940C948F217E
:1042F000FB01DC0102C001900D9241505040D8F703
:104300000895DC0101C06D9341505040E0F70895DD
:10431000FB01DC0101900D920020E1F7089515E00A
:10432000CBE4D5E004C0FE010E94861F2196CC3468
:08433000D107C9F7F894FFCF93
:10433800010000000000520480000000000009068F
:104348007605A0055606D105AF05C3050000000097
:10435800040BD70A340B9A06CF0ABB0AAC0A000032
:1043680000009B067605340B9A06EB0603078206C7
:1043780000000000C60B7605340B330B24079A06A1
:10438800BF099709B309A709C6099A06E207760E75
:10439800370B7B0BE008C3085608F7070D0A0044E3
:1043A80035757A7A63727A346B663233666B005489
:1043B800322D434841524143542E2E2E2E2E2E2E5E
:1043C800002500647669642D0041542B494245411B
:1043D800300041542B524F4C45300041542B555519
:1043E80049443078464645300041542B43484152B1
:1043F8003078464645310041542B4E414D450041E9
:10440800542B5245534554002020300056657262A3
:104418006F7365206D6F6465203D2031206F6E20BD
:1044280030303030666665310050617373776F7273
:1044380064203A20436F770020353000536F6D6554
:104448007468696E67206973206C65616B696E6753
:0E445800206F6E203030303066666531000017
:107800000C94343C0C94513C0C94513C0C94513CE1
:107810000C94513C0C94513C0C94513C0C94513CB4
:107820000C94513C0C94513C0C94513C0C94513CA4
:107830000C94513C0C94513C0C94513C0C94513C94
:107840000C94513C0C94513C0C94513C0C94513C84
:107850000C94513C0C94513C0C94513C0C94513C74
:107860000C94513C0C94513C11241FBECFEFD8E036
:10787000DEBFCDBF11E0A0E0B1E0EAE8FFE702C063
:1078800005900D92A230B107D9F712E0A2E0B1E065
:1078900001C01D92AD30B107E1F70E942D3D0C945F
:1078A000C33F0C94003C982F95959595959595958B
:1078B000905D8F708A307CF0282F295A8091C0000B
:1078C00085FFFCCF9093C6008091C00085FFFCCF60
:1078D0002093C6000895282F205DF0CF982F809127
:1078E000C00085FFFCCF9093C6000895EF92FF92F1
:1078F0000F931F93EE24FF2487018091C00087FD22
:1079000017C00894E11CF11C011D111D81E2E8164D
:1079100081EAF80687E0080780E0180770F3E09135
:107920000401F091050109958091C00087FFE9CF1E
:107930008091C6001F910F91FF90EF9008950E94D3
:10794000763C982F8091C00085FFFCCF9093C600B5
:1079500091362CF490330CF09053892F089597555D
:10796000892F08951F930E949F3C182F0E949F3CCF
:107970001295107F810F1F9108951F93182F882350
:1079800021F00E94763C1150E1F71F9108951F935A
:10799000182F0E94763C803249F0809103018F5F5E
:1079A000809303018530C1F01F9108958091C0003C
:1079B00085FFFCCF84E18093C6008091C00085FFE5
:1079C000FCCF1093C6008091C00085FFFCCF80E102
:1079D0008093C6001F910895E0910401F091050184
:1079E00009951F9108950E94763C803241F0809164
:1079F00003018F5F80930301853081F008958091AA
:107A0000C00085FFFCCF84E18093C6008091C00058
:107A100085FFFCCF80E18093C6000895E0910401CA
:107A2000F09105010995089548EC50E08823A1F0F4
:107A30002D9A28EE33E0FA013197F1F721503040CA
:107A4000D1F72D9828EE33E0FA013197F1F7215064
:107A50003040D1F7815061F708953F924F925F9285
:107A60006F927F928F929F92AF92BF92CF92DF924E
:107A7000EF92FF920F931F93CF93DF93000082E06A
:107A80008093C00080E18093C4001092C50088E11B
:107A90008093C10086E08093C2005098589A259A3E
:107AA00081E00E94143D24E1F22E9EE1E92E85E959
:107AB000D82E0FE0C02E10E1B12EAA24A394B1E479
:107AC0009B2EA6E58A2EF2E57F2EE0E26E2E79E46B
:107AD000572E63E5462E50E5352E0E94763C8033C6
:107AE000B1F18133B9F1803409F46FC0813409F404
:107AF00076C0823409F485C0853409F488C08035A5
:107B000031F1823521F1813511F1853509F485C0D6
:107B1000863509F48DC0843609F496C0843709F49B
:107B200003C1853709F472C1863709F466C08091B4
:107B300003018F5F80930301853079F6E0910401A2
:107B4000F091050109950E94763C803351F60E9420
:107B5000F33CC3CF0E94763C803249F78091C0004D
:107B600085FFFCCFF092C6008091C00085FFFCCF5E
:107B70009092C6008091C00085FFFCCF8092C60025
:107B80008091C00085FFFCCF7092C6008091C0003C
:107B900085FFFCCF6092C6008091C00085FFFCCFBE
:107BA0005092C6008091C00085FFFCCF4092C60075
:107BB0008091C00085FFFCCF3092C6008091C0004C
:107BC00085FFFCCFB092C60088CF0E94763C8638F5
:107BD00008F4BDCF0E94763C0E94F33C7ECF0E9409
:107BE000763C803809F49CC0813809F40BC1823896
:107BF00009F430C1883909F48FC080E00E94C73C85
:107C00006CCF84E10E94BD3C0E94F33C66CF85E0CE
:107C10000E94BD3C0E94F33C60CF0E94763C809362
:107C200006010E94763C809307010E94F33C55CFE9
:107C30000E94763C803309F411C183E00E94BD3C70
:107C400080E00E94C73C49CF0E94763C80930902A5
:107C50000E94763C8093080280910C028E7F809374
:107C60000C020E94763C853409F409C18091080217
:107C700090910902892B89F000E010E00E94763C87
:107C8000F801E85FFE4F80830F5F1F4F809108026D
:107C9000909109020817190788F30E94763C8032F8
:107CA00009F045CF80910C0280FFF5C0609106017C
:107CB00070910701660F771F7093070160930601AB
:107CC000A0910802B09109021097C9F0E8E0F1E034
:107CD0009B01AD014E0F5F1FF999FECF32BD21BD53
:107CE000819180BDFA9AF99A2F5F3F4FE417F5070B
:107CF00099F76A0F7B1F70930701609306018091CB
:107D0000C00085FFFCCFF092C6008091C00085FFC7
:107D1000FCCFB092C600E1CE83E00E94C73CDDCE2E
:107D200082E00E94C73CD9CE0E94763C8093090233
:107D30000E94763C80930802809106019091070191
:107D4000880F991F90930701809306010E94763C4B
:107D5000853409F49AC080910C028E7F80930C02C6
:107D60000E94763C803209F0B8CE8091C00085FF39
:107D7000FCCFF092C600A0910802B09109021097C2
:107D8000C1F180910C02082F0170182F1695117007
:107D9000E0910601F0910701AF014F5F5F4FBA011B
:107DA00020E030E00023B1F4112339F49491809164
:107DB000C00085FFFCCF9093C6002F5F3F4FCB01E3
:107DC0000196FA012A173B0780F4BC014F5F5F4F11
:107DD000002351F3F999FECFF2BDE1BDF89A90B5B9
:107DE0008091C00085FFFCCFE6CF709307016093C0
:107DF00006018091C00085FDE5CE8091C00085FF21
:107E0000F8CFE0CE81E00E94C73C67CE0E94763C6E
:107E1000803209F08CCE8091C00085FFFCCFF092BB
:107E2000C6008091C00085FFFCCFE092C600809123
:107E3000C00085FFFCCFD092C6008091C00085FFB6
:107E4000FCCFC092C6008091C00085FFFCCFB092ED
:107E5000C60043CE80E10E94C73C3FCE0E94763CE4
:107E60000E94763C182F0E94763C112309F483C0AF
:107E7000113009F484C08FE00E94C73C2ECE80915F
:107E80000C02816080930C02F1CE80910C02816023
:107E900080930C0265CF809107018823880F880B9F
:107EA0008A2180930B028091060190910701880F2F
:107EB000991F90930701809306018091080280FF2B
:107EC00009C08091080290910902019690930902DD
:107ED00080930802F894F999FECF1127E0910601EA
:107EE000F0910701C8E0D1E0809108029091090269
:107EF000103091F40091570001700130D9F303E084
:107F000000935700E8950091570001700130D9F3B4
:107F100001E100935700E8950990199000915700EE
:107F200001700130D9F301E000935700E8951395F3
:107F3000103498F011270091570001700130D9F3E7
:107F400005E000935700E89500915700017001305B
:107F5000D9F301E100935700E8953296029709F0B2
:107F6000C7CF103011F00296E5CF11248091C000E8
:107F700085FFC5CEC8CE8EE10E94C73CAECD85E957
:0A7F80000E94C73CAACDF894FFCF81
:027F8A00800075
:040000030000780081
:00000001FF
