:100000000C944C050C9474050C9474050C94DD0D43
:100010000C94DD0D0C94DD0D0C9474050C9474059A
:100020000C9474050C9474050C9474050C9474056C
:100030000C9474050C9474050C9474050C9474055C
:100040000C94AA170C9474050C94AB0D0C94850DAC
:100050000C9474050C9474050C9474050C9474053C
:100060000C941F0F0C94740500000008000201009E
:100070000003040700000000000000000001030767
:100080000F1F3F7F0080C0E0F0F8FCFE0000000082
:10009000003E5B4F5B3E3E6B4F6B3E1C3E7C3E1C0E
:1000A000183C7E3C181C577D571C1C5E7F5E1C0054
:1000B000183C1800FFE7C3E7FF0018241800FFE70B
:1000C000DBE7FF30483A060E2629792926407F05CE
:1000D0000507407F05253F5A3CE73C5A7F3E1C1CE4
:1000E00008081C1C3E7F14227F22145F5F005F5FA4
:1000F00006097F017F006689956A60606060609490
:10010000A2FFA29408047E040810207E2010080894
:100110002A1C08081C2A08081E101010100C1E0C9F
:100120001E0C30383E3830060E3E0E060000000031
:100130000000005F00000007000700147F147F1418
:10014000242A7F2A1223130864623649562050005D
:1001500008070300001C2241000041221C002A1C49
:100160007F1C2A08083E0808008070300008080834
:100170000808000060600020100804023E51494554
:100180003E00427F400072494949462141494D3372
:100190001814127F1027454545393C4A49493141D9
:1001A000211109073649494936464949291E0000A7
:1001B00014000000403400000008142241141414FC
:1001C0001414004122140802015909063E415D59E8
:1001D0004E7C1211127C7F494949363E41414122F1
:1001E0007F4141413E7F494949417F090909013E1B
:1001F000414151737F0808087F00417F4100204042
:10020000413F017F081422417F404040407F021C53
:10021000027F7F0408107F3E4141413E7F0909096A
:10022000063E4151215E7F09192946264949493236
:1002300003017F01033F4040403F1F2040201F3FFC
:100240004038403F63140814630304780403615981
:10025000494D43007F4141410204081020004141C3
:10026000417F04020102044040404040000307086F
:100270000020545478407F2844443838444444286B
:10028000384444287F385454541800087E09021812
:10029000A4A49C787F0804047800447D400020409A
:1002A000403D007F1028440000417F40007C0478DE
:1002B00004787C080404783844444438FC18242426
:1002C0001818242418FC7C080404084854545424A6
:1002D00004043F44243C4040207C1C2040201C3C23
:1002E0004030403C44281028444C9090907C44641A
:1002F000544C4400083641000000770000004136AD
:10030000080002010204023C2623263C1EA1A16132
:10031000123A4040207A3854545559215555794164
:100320002254547842215554784020545579400C39
:100330001E5272123955555559395454545939551C
:100340005454580000457C410002457D420001455F
:100350007C407D1211127DF0282528F07C545545F3
:10036000002054547C547C0A097F4932494949325F
:100370003A4444443A324A4848303A4141217A3A70
:1003800042402078009DA0A07D3D4242423D3D403C
:1003900040403D3C24FF2424487E4943662B2FFCEB
:1003A0002F2BFF0929F620C0887E09032054547999
:1003B000410000447D413048484A32384040227A6A
:1003C000007A0A0A727D0D19317D2629292F2826E7
:1003D0002929292630484D402038080808080808EF
:1003E0000808382F10C8ACBA2F102834FA00007B48
:1003F000000008142A142222142A1408550055005B
:1004000055AA55AA55AAFF55FF55FF000000FF0049
:10041000101010FF00141414FF001010FF00FF1044
:1004200010F010F0141414FC001414F700FF000076
:10043000FF00FF1414F404FC141417101F10101FF5
:10044000101F1414141F00101010F0000000001FE3
:10045000101010101F10101010F010000000FF10EE
:100460001010101010101010FF10000000FF1400EA
:1004700000FF00FF00001F10170000FC04F414141C
:100480001710171414F404F40000FF00F7141414E8
:1004900014141414F700F7141414171410101F1068
:1004A0001F141414F4141010F010F000001F101F8B
:1004B0000000001F14000000FC140000F010F010F9
:1004C00010FF10FF141414FF141010101F00000070
:1004D00000F010FFFFFFFFFFF0F0F0F0F0FFFFFF74
:1004E0000000000000FFFF0F0F0F0F0F38444438CB
:1004F00044FC4A4A4A347E02020606027E027E021A
:1005000063554941633844443C04407E201E200624
:10051000027E020299A5E7A5991C2A492A1C4C7261
:1005200001724C304A4D4D303048784830BC625AE8
:10053000463D3E494949007E0101017E2A2A2A2A78
:100540002A44445F444440514A444040444A514054
:100550000000FF0103E080FF000008086B6B083615
:1005600012362436060F090F060000181800000086
:100570001010003040FF0101001F01011E00191D75
:100580001712003C3C3C3C00000000000000000052
:10059000240027002A00DB40A4A62EAFDA0281DA6D
:1005A0001281DA02818F2000A1C8D300408DAED520
:1005B00080A80000600000000000000000000000B3
:1005C000000000E00000000000000000000000004B
:1005D0000001E0000000000000000000000000003A
:1005E00001F0000000000000000000000000000317
:1005F000F00000000000000000000000000007F014
:100600000000000000000000000000000007F800EB
:100610000000000000000000000000000FF80000D3
:100620000003C0007E000001E0007F0FF800000022
:1006300003C000FE000001E000FFEFF8000000032F
:10064000C000FE000001E000FFFFF800000003C052
:1006500000F00000000F007FFE7FC0000003C0001C
:10066000F00000000F003FFE7FF83FF1FBCFFCFEE3
:10067000F3BC3DEFE01FFE7FFF7FFBFFDFFEFEFFD1
:10068000BC3DEFE01FC6FFFF7FFBFFDFFEFEFFBCB0
:100690003DEFE00FE3C7FE787BC3DE1EF0FFBC3DFD
:1006A000EF0007FF87FC787BC3DE1EF0F83C3DEFD0
:1006B0000001FFFFF0007BC3C01EF0F03C3DEF00E7
:1006C00001F37FE03FFBC3CFFEF0F03C3DEF0003C2
:1006D000E33F807FFBC3DFFEF0F03C3DEF0007E728
:1006E0003C00787BC3DE1EF0F03C3DEF0007FFBE10
:1006F00000787BC3DE1EF0F03C3DEF0007FFFE00FC
:10070000787BC3DE1EF0F03C3DEF000FFFFE007F64
:10071000FBFFDFFEF0F03FFDEFE00FFFFF007FFB90
:10072000FFDFFEF0F03FFDEFE00FF9FF003E79F94B
:10073000CF9EF0F01F3DE7E01FF1FF00000000003A
:10074000000000000000001F80FF007FFFFFFFFF90
:10075000FFFFFFFFFFE01C007F007FFFFFFFFEB4F5
:100760006D888D18E000001F007FFFFFFFFE95AD34
:100770007DB577E000000F007FFFFFFFFEA5AD9D78
:100780008D19E0000006007FFFFFFFFEB5ADEDB55F
:100790007EE000000000000180000000000000007A
:1007A0000000038000000000000000000007C000FF
:1007B000000000000000000007C000000000000072
:1007C0000000000FC00000000000000000001FE05B
:1007D0000000000000000000001FE000000000001A
:1007E000000000003FE00000000000000000003FAB
:1007F000F00000000000000000007FF0000000009A
:100800000000001FF87FF0000000000000003FFE25
:100810007FF0000000000000003FFF7FF0000000BC
:10082000000000001FFFFBE0000000000000000FC0
:10083000FFF9FFC00000000000000FFFF9FFF80003
:10084000000000000007FFF1FFFF000000000000B3
:1008500003FC73FFFF80000000000001FE3FFFFF6C
:1008600080000000000000FF1E0FFF0000000000DD
:1008700000007FFE1FFC000000000000003FFFFFA3
:10088000F8000000000000000FDFFFE000000000A3
:100890000000001F19FFC0000000000000003F3CE6
:1008A000FF00000000000000007E7CF80000000057
:1008B000000000007FFE7C0000000000000000FF40
:1008C000FFFC0000000000000000FFFFFE00000031
:1008D0000000000000FFFFFE00000000000000011B
:1008E000FFEFFE0000000000000001FFCFFE00004F
:1008F000000000000003FF07FE00000000000000F1
:1009000003FC07FE0000000000000003F003FE00EF
:10091000000000000000018000FE00000000000058
:10092000000000007E000000000000000000003E0B
:10093000000000000000000000000C0000000000AB
:1009400000078000FC000003C0000000078001FCDD
:10095000000003C0000000078001FC000003C0008D
:100960000000078001E00000001E00000007800179
:10097000E00000001E007FE3F79FF9FDE7787BDFD2
:10098000C0FFF7FFBFFDFDFF787BDFC0FFF7FFBFB4
:10099000FDFDFF787BDFC0F0F787BC3DE1FF787B92
:1009A000DE00F0F787BC3DE1F0787BDE0000F787E2
:1009B000803DE1E0787BDE007FF7879FFDE1E07816
:1009C0007BDE00FFF787BFFDE1E0787BDE00F0F71C
:1009D00087BC3DE1E0787BDE00F0F787BC3DE1E0DD
:1009E000787BDE00F0F787BC3DE1E0787BDE00FF3E
:1009F000F7FFBFFDE1E07FFBDFC0FFF7FFBFFDE1D9
:100A0000E07FFBDFC07CF3F39F3DE1E03E7BCFC0A6
:100A10000000000000000000000000FFFFFFFFFFDB
:100A2000FFFFFFFFFFC0FFFFFFFFFD68DB111A3173
:100A3000C0FFFFFFFFFD2B5AFB6AEFC0FFFFFFFF68
:100A4000FD4B5B3B1A33C0FFFFFFFFFD6B5BDB6AB7
:100A5000FDC02200FF210000000000230026002925
:100A60000000000000250028002B000404040404FA
:100A7000040404020202020202030303030303014B
:100A80000204081020408001020408102001020422
:100A9000081020001B1F381B11241FBECFEFD8E009
:100AA000DEBFCDBF12E0A0E0B1E0E2E4F8E402C0B6
:100AB00005900D92AC34B107D9F724E0ACE4B2E074
:100AC00001C01D92A837B207E1F715E0CBE4D5E0ED
:100AD00004C02197FE010E940222CA34D107C9F73F
:100AE0000E94761B0C9414240C9400000895CF925D
:100AF000DF92EF92FF920F931F93CF93DF936C01DE
:100B00007A018B01C0E0D0E0CE15DF0581F0D8017D
:100B10006D918D01D601ED91FC910190F081E02D58
:100B2000C6010995892B11F02196EECF7E01C701F0
:100B3000DF91CF911F910F91FF90EF90DF90CF90B9
:100B40000895FC01538D448D252F30E0842F90E0D3
:100B5000821B930B541710F0CF96089501970895B8
:100B6000FC01918D828D981761F0828DDF01A80FB5
:100B7000B11D5D968C91928D9F5F9F73928F90E0D7
:100B800008958FEF9FEF0895FC01918D828D981746
:100B900031F0828DE80FF11D858D90E008958FEF83
:100BA0009FEF0895FC01918D228D892F90E0805C4C
:100BB0009F4F821B91098F739927089580E593E0D9
:100BC0000E94D20521E0892B09F420E0822F0895AC
:100BD000FC01848DDF01A80FB11DA35ABF4F2C91DA
:100BE000848D90E001968F739927848FA689B789A9
:100BF0002C93A089B1898C91837080648C93938DA0
:100C0000848D981306C00288F389E02D80818F7D42
:100C100080830895EF92FF920F931F93CF93DF93FA
:100C2000EC0181E0888F9B8D8C8D981305C0E8893D
:100C3000F989808185FD26C0F62E0B8D10E00F5FAF
:100C40001F4F0F731127E02E8C8DE8120CC00FB6CA
:100C500007FCFACFE889F989808185FFF5CFCE01BD
:100C60000E94E805F1CF8B8DFE01E80FF11DE35ADC
:100C7000FF4FF0829FB7F8940B8FEA89FB89808140
:100C800080620AC09FB7F894EE89FF896083E88983
:100C9000F98980818370806480839FBF81E090E0C8
:100CA000DF91CF911F910F91FF90EF900895CF9317
:100CB000DF93EC01888D8823C9F0EA89FB89808164
:100CC00085FD05C0A889B9898C9186FD0FC00FB636
:100CD00007FCF5CF808185FFF2CFA889B9898C9177
:100CE00085FFEDCFCE010E94E805E7CFDF91CF91E0
:100CF000089580E090E0892B29F00E94DE058111A3
:100D00000C94000008952091F9023091FA022817FE
:100D1000390771F49091F7028091F802981741F029
:100D2000E091F702F0E0E155FD4F808190E00895F9
:100D30008FEF9FEF089508951F93CF93DF93DC010A
:100D40005C968D919C915D97009739F421E030E09D
:100D500013963C932E9312973BC05196ED91FC91C4
:100D6000529750962C915097322F30951FB75E9620
:100D70004C915E97742F727041FD6095F89440819C
:100D8000772311F0422B01C043234083EC012197CC
:100D9000F1F748E0508160FF02C0522B01C053239D
:100DA0005083EC012197F1F76695415099F78081C6
:100DB000772319F08323808302C0282B20831FBF51
:100DC0005C968D919C915D970197F1F781E090E0A1
:100DD000DF91CF911F9108952091F9023091FA028D
:100DE0002817390771F48091F8022091F70290E0FA
:100DF000805C9F4F821B910960E470E00E94DA21C1
:100E0000089580E090E008952091F9023091FA026F
:100E100028173907B9F49091F7028091F8029817D2
:100E200089F0E091F702F0E0E155FD4F80812091DB
:100E3000F70230E02F5F3F4F2F7333272093F702E5
:100E400090E008958FEF9FEF0895FC0177FDB9C002
:100E500080859185681779070CF0B3C057FDB1C044
:100E600082859385481759070CF00895858982304B
:100E700079F484819581DC01A61BB70BBD0161501B
:100E8000710986819781DC01A41BB50BAD010EC0F1
:100E9000833009F084C064277527CA018627972705
:100EA0006827792746815781481B590B41505109C2
:100EB0002130310531F048F12230310509F44AC0C2
:100EC0000895CA0157FD07969C01A3E03595279523
:100ED000AA95E1F7A481B5812A9FC0012B9F900DAF
:100EE0003A9F900D1124680F791F068CF78DE02D25
:100EF000E60FF71F4770552781E090E001C0880F8B
:100F00004A95EAF79081892B48C0CA0157FD079698
:100F10009C0193E0359527959A95E1F7A481B581D9
:100F20002A9FC0012B9F900D3A9F900D1124680FAE
:100F3000791F068CF78DE02DE60FF71F47705527B8
:100F400081E090E001C0880F4A95EAF78095908192
:100F5000892323C0CA0157FD07969C0183E035957C
:100F600027958A95E1F7A481B5812A9FC0012B9F1F
:100F7000900D3A9F900D1124680F791F068CF78D04
:100F8000E02DE60FF71F4770552781E090E001C084
:100F9000880F4A95EAF790818927808308958130E8
:100FA00009F086CF642775274627572764277527BA
:100FB00084819581DC01A61BB70BBD0161507109CD
:100FC00077CF08950895FC016370658B84819581C6
:100FD00026813781613039F0633029F0918780872D
:100FE00033872287089531872087938782870895E2
:100FF0006F927F928F929F92AF92BF92CF92DF9229
:10100000EF92FF920F931F93CF93DF93EC014B016D
:101010005A0169013801E881F9810284F385E02DE4
:101020000995E881F9810288F389E02D870196010D
:10103000A501B401CE010995A501460D571D4150EA
:101040005109E881F9810288F389E02D9601B40104
:10105000CE010995E881F9810088F189E02D93019D
:10106000A501B401CE010995C80CD91CB601615087
:101070007109E881F9810088F189E02D9301A501CA
:10108000CE010995E881F9810688F789E02DCE0126
:10109000DF91CF911F910F91FF90EF90DF90CF9054
:1010A000BF90AF909F908F907F906F9009948F9298
:1010B0009F92AF92BF92CF92DF92EF92FF920F93E7
:1010C0001F93CF93DF934C016B015A01E901DC01BF
:1010D000ED91FC916217730781F40417150724F44E
:1010E0008B2D5801042F182F0A191B0998012F5F07
:1010F0003F4F048CF58DE02D12C04017510709F5C4
:101100002617370724F48D2D6901C62FD82F9E018D
:101110002C193D092F5F3F4F068CF78DE02D87017D
:10112000A501B601C4010995DF91CF911F910F91DF
:10113000FF90EF90DF90CF90BF90AF909F908F90F7
:1011400008950284F385E02D0995D401ED91FC9179
:101150000488F589E02D9E01A501B601C401099519
:10116000D401ED91FC910688F789E02DC401DF914F
:10117000CF911F910F91FF90EF90DF90CF90BF9094
:10118000AF909F908F900994EF92FF920F931F93CF
:10119000DC011A960D911C911B9718962D913C918C
:1011A0001997ED91FC9100A0F1A1E02D7B0140E0A9
:1011B00050E060E070E009951F910F91FF90EF9073
:1011C00008954F925F926F927F928F929F92AF920B
:1011D000BF92CF92DF92EF92FF920F931F93CF9324
:1011E000DF936C012B015A0139014801DC01ED91BB
:1011F000FC910284F385E02D0995E201640C751CD5
:10120000D601ED91FC91C615D7055CF40088F189F3
:10121000E02D87019401A501BE01C6010995219623
:10122000EFCF0688F789E02DC601DF91CF911F919E
:101230000F91FF90EF90DF90CF90BF90AF909F9075
:101240008F907F906F905F904F9009948F929F92B4
:10125000AF92BF92CF92DF92EF92FF920F931F93C4
:10126000CF93DF93EC015B014A016901E881F981C9
:101270000284F385E02D099595012C0D3D1D21502B
:101280003109E881F9810488F589E02D780184012C
:10129000A401B501CE010995E881F9810688F78995
:1012A000E02DCE01DF91CF911F910F91FF90EF9034
:1012B000DF90CF90BF90AF909F908F9009948F92C6
:1012C0009F92AF92BF92CF92DF92EF92FF920F93D5
:1012D0001F93CF93DF93EC015B014A016901780111
:1012E000E881F9810284F385E02D0995C80CD91CA9
:1012F000860101501109E881F9810488F589E02D02
:101300009501A401B501CE010995E881F98106880E
:10131000F789E02DCE01DF91CF911F910F91FF90C2
:10132000EF90DF90CF90BF90AF909F908F900994F7
:10133000EF92FF920F931F93DC01ED91FC9100A0BF
:10134000F1A1E02D09951F910F91FF90EF90089565
:101350000F931F93DC01ED91FC91068CF78DE02D2E
:1013600009951F910F9108950F931F93DC01ED9143
:10137000FC91048CF58DE02D09951F910F91089536
:10138000DC01ED91FC910084F185E02D09942F9210
:101390003F924F925F926F927F928F929F92AF9205
:1013A000BF92CF92DF92EF92FF920F931F93CF9352
:1013B000DF9300D000D000D0CDB7DEB72C017E8304
:1013C0006D836A015901C801FC82EB824801841ACD
:1013D000950A97FE03C091948194910835012D815F
:1013E0003E81621A730A77FE03C07194619471089A
:1013F000681479045CF43A2D2B2D5C01832F922F15
:101400003D812E81DE82CD82C32ED22EAD81BE8162
:10141000AA16BB065CF43C2D2D2D6C01832F922F58
:101420003D812E81BE82AD82A32EB22E85012D81FB
:101430003E81021B130B1C012C183D0837FE03C014
:10144000319421943108780117FF03C03FEFE31A6C
:10145000F30AF594E794C816D9062CF08FEF9FEFA6
:101460009A83898304C0A1E0B0E0BA83A9832D8167
:101470003E81A216B30624F1D201ED91FC910484C1
:10148000F585E02D2B813C816814790424F44D818D
:101490005E81B60103C0A6016D817E81C2010995FE
:1014A000E218F308F7FE06C029813A81C20ED31E66
:1014B000E00EF11E8D819E8101969E838D83D7CF94
:1014C00026960FB6F894DEBF0FBECDBFDF91CF9149
:1014D0001F910F91FF90EF90DF90CF90BF90AF9052
:1014E0009F908F907F906F905F904F903F902F9044
:1014F000089585ED8093BC008091BC0084FDFCCFF5
:1015000010922B03089540918C02262F30E0240F77
:10151000311D21323105DCF420912B032430C9F434
:10152000FC0180E090E0861758F430918C02219104
:10153000DC01A459BD4FA30FB11D2C930196F3CF2D
:1015400080918C02680F60938C0280E0089581E0A6
:10155000089582E0089508950895E091F40280913D
:10156000F302E81730F4F0E0E45BFD4F808190E097
:1015700008958FEF9FEF08959091F4028091F30208
:10158000981750F4E92FF0E0E45BFD4F208130E044
:101590009F5F9093F40202C02FEF3FEFC9010895BF
:1015A0008091F30290E02091F402821B910908954A
:1015B000CF92DF92EF92FF920F931F93CF93DF931F
:1015C0007C01CB018A0120912C03222389F0EB01BD
:1015D0006B01C40ED51ECC15DD0569F06991D701EC
:1015E000ED91FC910190F081E02DC7010995F3CFB9
:1015F000642F0E94830AC801DF91CF911F910F9140
:10160000FF90EF90DF90CF900895CF93DF931F92DC
:10161000CDB7DEB7698320912C032223D1F020912E
:101620004F03203240F021E030E0FC01338322837D
:1016300080E090E015C080912D03E82FF0E0E25D9E
:10164000FC4F998190838F5F80932D0380934F038C
:1016500005C061E0CE0101960E94830A81E090E01E
:101660000F90DF91CF91089580E090E008950F935F
:101670001F93CF93DF93DC015596EC915597E230A1
:1016800071F0E330E9F0E13079F5FB0114960D904B
:10169000BC91A02DA41BB50BA21BB30B18C0EC0171
:1016A000EC81FD81E61BF70BBF0161507109EE81F2
:1016B000FF81DF01A41BB50BAD01421B530B14C00E
:1016C000DA01EC01EE81FF81E61BF70B3197F7FDA4
:1016D0000DC0EC014E815F81E417F5073CF4AF01CA
:1016E000BD010E941E1302C00E948513DF91CF919D
:1016F0001F910F9108950F931F93DC015596EC9164
:101700005597E23061F0E33009F1E13081F514964C
:10171000ED91FC911597E41BF50B319723C0DC018B
:101720001496ED91FC911597DF01A61BB70BBD0137
:10173000DC011696ED91FC911797DF01A41BB50B08
:10174000AD0141505109621B730B11C0FA01DC015C
:1017500016964D915C911797DA01A61BB70BBD0148
:10176000621B730BAB01BF010E9485130CC057FDB8
:101770000AC0DC011696ED91FC9117974E175F0792
:1017800014F40E941E131F910F910895AF92BF92FF
:10179000CF92EF92FF920F931F93CF93DF93EC01C1
:1017A000262F888D998D009709F040C06A3059F432
:1017B0001D861C862C898E859F8538E0239F800D91
:1017C000911D112441C06D3009F4AAC08E8988236F
:1017D000C1F03C898C859D8546E0349F800D911D2C
:1017E000112448855985481759075CF41D861C86C5
:1017F0008E859F8548E0349F800D911D11249F8721
:101800008E87EA88FB88088919894E855F856C85F3
:101810007D85CC88CE010E9404112C898C859D8504
:1018200036E0239F800D911D112442C06A3079F467
:101830001D861C862C89FC013696E4918E859F8539
:101840002E9F800D911D11249F878E8769C06D305A
:1018500009F466C0FC0134963491631708F460C043
:101860003196E491E61708F45BC0FC01329665916D
:101870007491422F50E0431B510937E0349F5001CF
:10188000359FB00C1124A60EB71EF5013296349187
:101890003196E491332311F0E1110DC0F501349636
:1018A000E4912C898C859D85E29F800D911D1124EA
:1018B0009D878C8735C0F501359644915E89552307
:1018C00011F16C89E32FF0E0E40FF11D47FDFA956B
:1018D0006E9FD0016F9FB00D11244C855D854A0F1E
:1018E0005B1FE885F985E417F5076CF41D861C86F7
:1018F000FC013696E4918E859F856E9F800D911D2B
:1019000011249F878E87EA88FB88088919894E856C
:101910005F856C857D85CC88CE010E940411BECF89
:1019200081E090E0DF91CF911F910F91FF90EF90B8
:10193000CF90BF90AF9008950F931F93CF93DF93F5
:10194000EC0188819981009729F02A813B81261733
:10195000370788F48B016F5F7F4F0E942923009720
:1019600061F0998388831B830A832C813D81232B1B
:1019700011F4FC01108281E001C080E0DF91CF9181
:101980001F910F910895CF93DF93EC018881998186
:10199000009711F00E94A022198218821D821C82D9
:1019A0001B821A82DF91CF910895EF92FF920F93DD
:1019B0001F93CF93DF93EC017B018A01BA010E9450
:1019C0009C0C811104C0CE010E94C30C07C01D8372
:1019D0000C83B701888199810E940D24CE01DF918B
:1019E000CF911F910F91FF90EF900895CF93DF93C8
:1019F000EC016115710559F0FB0101900020E9F738
:101A00003197AF01461B570B0E94D50C02C00E94B4
:101A1000C30CCE01DF91CF910895CF93DF93EC01FA
:101A2000FB018617970761F060817181611571056F
:101A300029F0448155810E94D50C02C00E94C30C3C
:101A4000CE01DF91CF910895FC01808191810C94AA
:101A5000A022CF93DF9300D0CDB7DEB7FC01118277
:101A60001082138212821582148269831A82BE0147
:101A70006F5F7F4F0E94F60C0F900F90DF91CF9118
:101A80000895FC0111821082138212821582148241
:101A90000C940D0DFC0111821082138212821582AA
:101AA00014826115710551F0FB0101900020E9F7E6
:101AB0003197AF01461B570B0C94D50C0895DC01F0
:101AC000ED91FC910280F381E02D42E050E06DE663
:101AD00071E009940F931F93CF93DF93EC01FB0107
:101AE0004481558160817181E881F9810280F381AF
:101AF000E02D09958C01CE010E945F0D800F911F92
:101B0000DF91CF911F910F9108951F920F920FB601
:101B10000F9211242F933F934F935F936F937F9373
:101B20008F939F93AF93BF93EF93FF9380E593E0E1
:101B30000E94E805FF91EF91BF91AF919F918F9126
:101B40007F916F915F914F913F912F910F900FBEB9
:101B50000F901F9018951F920F920FB60F9211249D
:101B60002F938F939F93EF93FF93E0916003F091F6
:101B700061038081E0916603F091670382FD12C0EA
:101B80009081809169038F5F8F7320916A03821720
:101B900051F0E0916903F0E0E05BFC4F958F80939A
:101BA000690301C08081FF91EF919F918F912F91E7
:101BB0000F900FBE0F901F9018951F920F920FB6A7
:101BC0000F9211242F933F934F935F936F937F93C3
:101BD0008F939F93AF93BF93EF93FF93E091F9029D
:101BE000F091FA02309709F451C0968DA685B78519
:101BF000858591FF04C09C91892329F447C09C915D
:101C0000892309F043C0A389B4899C918589809573
:101C100089238C93868997890197F1F7608D718D5F
:101C2000A685B785558538E020E0CB010197F1F70F
:101C3000822F90E095958795282F4C91452309F0A8
:101C40002068315091F7868D81FD20958091F802B2
:101C500090E001968F7399273091F702381749F079
:101C6000A091F802B0E0A155BD4F2C938093F802EB
:101C700003C0868D8160868F828D938D0197F1F7E9
:101C8000A389B4899C918589892B8C93FF91EF91CD
:101C9000BF91AF919F918F917F916F915F914F9184
:101CA0003F912F910F900FBE0F901F9018950895A0
:101CB0008EBD00000DB407FEFDCF8EB508951F93B5
:101CC000CF93DF93FC01848D958D009729F1162F1A
:101CD000EF0120A131E030932C0320934E031092AA
:101CE0002D0310924F03DC01ED91FC910190F081E6
:101CF000E02D60E009958C8D9D8DDC01ED91FC91CE
:101D00000190F081E02D612F09958C8D9D8DDF91E3
:101D1000CF911F910C943518A4A5B5A59C9182A9CB
:101D2000809589238C93828D938D892B31F0862F1A
:101D3000DF91CF911F910C94580E28E030E080E89D
:101D4000A0A5B1A590A9462F482319F04C91942B3A
:101D500003C04C91909594239C93A2A5B3A54C915C
:101D600091A9942B9C93A2A5B3A54C9191A9909570
:101D700094239C9386952150310911F7DF91CF91DF
:101D80001F9108958CBD9DBD08951F93CF93DF9340
:101D9000EC01162F8C8D9D8D892BB1F02EA93FA9BA
:101DA00048AD59AD60E072E18AE790E00E94A92158
:101DB000DA01C9014097A109B109B695A795979590
:101DC00087958093B8000FC08A8D9B8D892B21F059
:101DD0008CA99DA90E94C20EEEA5FFA590818BA99A
:101DE000809589238083111102C066EA01C067EAE9
:101DF000CE010E945F0E8C8D9D8D892BB1F02AAD96
:101E00003BAD4CAD5DAD60E072E18AE790E00E94D1
:101E1000A921DA01C9014097A109B109B695A79591
:101E2000979587958093B80006C0EEA5FFA5908191
:101E30008BA9892B8083DF91CF911F9108951F92E9
:101E40000F920FB60F9211242F933F934F935F93EE
:101E50006F937F938F939F93AF93BF93EF93FF9372
:101E60008091B900887F803609F49CC068F588327B
:101E700009F45BC090F4803109F454C038F488232D
:101E800009F4F6C0883009F44DC0F6C0883109F471
:101E90004CC0803209F45DC0EFC0803409F468C0E2
:101EA00048F4803309F455C0883309F0E5C08093C5
:101EB0002903D8C0803509F44FC0883509F45DC0C6
:101EC000883409F0D9C0D6C0883909F4C7C0A8F44D
:101ED000883709F467C038F4883609F463C080375E
:101EE00009F460C0C9C0883809F4B8C0803909F461
:101EF0005FC0803809F0C0C05BC0803B09F486C079
:101F000038F4803A09F466C0883A09F47FC0B4C056
:101F1000803C09F4A7C0883C09F4A4C0883B09F4BC
:101F20008AC0AAC08091060310C0909128038091B6
:101F30002703981770F5E091280381E08E0F8093B6
:101F40002803F0E0E95FFC4F80818093BB0085ECC3
:101F500086C0809329038EC0E091280381E08E0F14
:101F6000809328038091BB00F0E0E95FFC4F808301
:101F700090912803809127036EC0E091280381E0AF
:101F80008E0F809328038091BB00F0E0E95FFC4F47
:101F9000808380912A0381116DC081E080930503C5
:101FA00084EA61C083E080932B031092AE02CFCF0E
:101FB0008091AE02803208F051C0E091AE0281E023
:101FC0008E0F8093AE028091BB00F0E0E257FD4F90
:101FD0008083BDCF85EC8093BC0010922B03809151
:101FE000AE02803230F4E091AE02F0E0E257FD4FF5
:101FF00010826091AE0270E0E091EF02F091F00289
:102000008EE892E009951092AE0236C084E080938B
:102010002B0310928D0210928C02E091F102F0914C
:10202000F202099580918C02811105C081E08093B4
:102030008C0210926C02E0918D0281E08E0F8093F1
:102040008D02F0E0E459FD4F80818093BB009091B8
:102050008D0280918C02981708F479CF85E88093DF
:10206000BC000AC085EC8093BC0010922B0304C016
:10207000109229030E94790AFF91EF91BF91AF91CD
:102080009F918F917F916F915F914F913F912F9190
:102090000F900FBE0F901F9018953F924F925F9236
:1020A0006F927F928F929F92AF92BF92CF92DF9268
:1020B000EF92FF920F931F93CF93DF9300D000D046
:1020C00000D0CDB7DEB72C013B014A015901C9014F
:1020D000079697FD07969C0193E0359527959A956D
:1020E000E1F73C832B83C12CD12CE12CF12C312C3A
:1020F000C3018E0D9F1D9A838983E016F106C4F5F6
:102100001E821D822D813E812A153B054CF5C90199
:1021100087709927892B11F0330C0EC0ED81FE8159
:10212000F7FD379683E0F595E7958A95E1F7EC0D95
:10213000FD1DE80DF91D349037FE0CC021E030E0A4
:1021400049815A816D817E81640D751D8AE294E01A
:102150000E94C0098D819E8101969E838D83D2CF7E
:102160009FEFE91AF90A2B813C81C20ED31EC0CF22
:1021700026960FB6F894DEBF0FBECDBFDF91CF918C
:102180001F910F91FF90EF90DF90CF90BF90AF9095
:102190009F908F907F906F905F904F903F900895A9
:1021A00020912804309129048217930738F4209154
:1021B0002404309125042115310529F41092F602EA
:1021C00086EF92E00895820F931F0895CF93DF93D7
:1021D000009779F0FC0101900020E9F73197AF01F9
:1021E000481B590BBC018DEE93E00E947705EC0172
:1021F00002C0C0E0D0E08DEE93E00E945F0D8C0F36
:102200009D1FDF91CF9108952F923F924F925F9241
:102210006F927F928F929F92AF92BF92CF92DF92F6
:10222000EF92FF920F931F93CF93DF93CDB7DEB75B
:102230006B970FB6F894DEBF0FBECDBF9B8F8A8F12
:102240005B011A01D22E1F830E833701C982DC0184
:1022500058962D913C9159972115310509F0E6C00A
:1022600018968D919C911997681779070CF0CDC13C
:102270001A968D919C911B97481759070CF0C5C170
:102280008C2C912CFB0126E0C29EE00DF11D112447
:10229000FB87EA871E161F060CF0B7C1A40183E076
:1022A000440F551F8A95E1F75D874C87CA01820D5F
:1022B000931D181619060CF0A8C157968C91811120
:1022C00004C05FEA5D1508F4D394AA8DBB8DED912F
:1022D000FC9111970284F385E02DCD010995B5E0BD
:1022E000DB9EC0011124F5013596FF87EE87BB8286
:1022F000AA8225019C012A193B09398B288BA1014F
:10230000485F5F4F5B8B4A8BE889F989E40DF51DC7
:10231000E457FF4F5491588761013D822C82888594
:1023200080FF13C0AA8DBB8DED91FC91B981B130B6
:1023300031F40484F585E02D2E813F8116C006849A
:10234000F785E02DEE80FF801AC0EE81FF81E61553
:10235000F705F1F0AA8DBB8DED91FC91B981B130FB
:1023600051F40484F585E02D9301A601B2018A8D14
:102370009B8D09950DC00684F785E02D73018401BE
:1023800094014C815D816A817B818A8D9B8D099549
:10239000E885E695E887FFEFCF1ADF0A2C813D81BB
:1023A000280D391D3D832C834A895B89C416D506C7
:1023B00009F0B5CF5FEF451A550A8A819B81880DD8
:1023C000991D9B838A83AE85BF854A165B0609F0FB
:1023D0009BCFEE81FF81E615F70509F4F4C0EA8D85
:1023E000FB8DA081B181F981F13079F4B5016B5F8A
:1023F0007F4F5096ED91FC915197830128E030E09A
:10240000A1018A8D9B8D0995DEC06A857B8568193F
:1024100079091E96ED91FC911F9773010C851D851E
:102420009401A1018A8D9B8D0995CDC0F901349647
:10243000E491DE1AF901329685919491B7E0DB9E22
:10244000800D911D1124F901259134913B8B2A8B2C
:10245000FC01259134912901FC013296C4903196FA
:1024600034913E87329614913196D490498142300E
:1024700058F0612E012E000C77088D2D0D2C000CCC
:10248000990B9987888704C019861886612C712C4E
:10249000AA8DBB8DED91FC9111970284F385E02DFF
:1024A000CD010995B9818B2E912C689CC001699C46
:1024B000900D789C900D1124FC01EA0DFB1DFD8709
:1024C000EC871A82712C612CE12F110FFF0B950103
:1024D0002E0F3F1F3B872A87AC0CB11CA5014E0F66
:1024E0005F1F5F8B4E8BC1018D0D911DD7FC9A959F
:1024F000998F888F9E85691608F065C0862D90E0BB
:1025000048855985480F591F489D9001499D300DB8
:10251000589D300D1124D101A20FB31FB98BA88B88
:10252000EC85FD85FD83EC83AA84BB84DA80FA8583
:10253000DF1A288D398D280F391F3D8B2C8B8D2D5F
:102540008A0D4E895F89A416B506C1F1877041F4E2
:10255000C2010196EA89FB89E40DF51D74902C01F6
:1025600077FE21C0AA8DBB8DED91FC91B981B13070
:1025700061F40484F585E02D2E813F814C895D89CD
:10258000B5018A8D9B8D09950EC00684F785E02DD7
:10259000EE80FF8084019401488959896C817D8196
:1025A0008A8D9B8D0995770CEFEFAE1ABE0A2C81B0
:1025B0003D81280D391D3D832C83C1CF3A813C0DCF
:1025C0003A83639497CFAA8DBB8DED91FC911197BF
:1025D0000688F789E02DCD016B960FB6F894DEBF23
:1025E0000FBECDBFDF91CF911F910F91FF90EF9064
:1025F000DF90CF90BF90AF909F908F907F906F9023
:102600005F904F903F902F9009946B960FB6F8947F
:10261000DEBF0FBECDBFDF91CF911F910F91FF9015
:10262000EF90DF90CF90BF90AF909F908F907F9072
:102630006F905F904F903F902F9008950F931F934E
:10264000CF93DF9377FF04C0260F371F60E070E061
:10265000DC011496CD91DC911597FB01E20FF31F7D
:10266000CE17DF071CF49E01261B370B121613062C
:102670000CF046C0FA0157FD3796DF01E3E0B5954F
:10268000A795EA95E1F7AC9FF001AD9FF00DBC9FD7
:10269000F00D11246E0F7F1FDC015E96ED91FC9111
:1026A0005F97E60FF71F4770552781E090E001C064
:1026B000880F4A95EAF7482F0130110539F078F074
:1026C00002301105E9F42E0F3F1F13C02E0F3F1FDC
:1026D000E217F307A9F08081842B8193F9CF8095CD
:1026E0002E0F3F1FE217F30759F090819823919323
:1026F000F9CFE217F30721F0808184278193F9CF86
:10270000DF91CF911F910F910895EF92FF920F9358
:102710001F93CF93DF93EC0177FDA5C0EC80FD8084
:102720006E157F050CF09FC057FF04C0240F351FA6
:1027300040E050E08E819F81FA01E20FF31F8E1777
:102740009F071CF49C01241B350B121613060CF07A
:102750008AC0922F842F8695869586958E9DD0016E
:102760008F9DB00D11246A0F7B1FAE8DBF8DA60FFC
:10277000B71F4770B1F188E0841B482F682F70E0C5
:10278000FB01EC57FF4FE491281798F4621B710985
:102790002FEF30E002C0359527956A95E2F7E223E6
:1027A0000130110549F078F00230110509F05BC0E5
:1027B0000EC00130110519F48C91E82B0AC00130CC
:1027C000110508F049C0E0958C91E82302C08C9176
:1027D000E827EC93941708F446C02C813D81A20FA2
:1027E000B31FE92FE41BE830F8F00230110561F463
:1027F0008E2F9C9190959C932C813D81A20FB31FAD
:1028000088508830B0F70FC081E00115110509F438
:1028100080E081959E2F8C932C813D81A20FB31F68
:1028200098509830C0F7E770EE23E9F0F0E0E458F4
:10283000FF4FE4910130110539F048F002301105E5
:1028400091F48C91E82706C08C91E82B03C0E095A9
:102850008C91E823EC9307C00230110509F4B7CF3F
:10286000AE0DBF1DBECFDF91CF911F910F91FF9095
:10287000EF90089590E0FC01E859FF4F2491FC018E
:10288000E158F54F3491FC01E559F54FE491EE2301
:1028900009F43CC0222339F1233091F038F421307F
:1028A000A9F0223001F584B58F7D12C0273091F058
:1028B0002830A1F02430B9F4809180008F7D03C0CE
:1028C000809180008F77809380000DC084B58F77D2
:1028D00084BD09C08091B0008F7703C08091B000A3
:1028E0008F7D8093B000F0E0EE0FFF1FEF59F54FA2
:1028F000A591B4919FB7F894611104C08C91309563
:10290000382302C0EC913E2B3C939FBF0895CF9398
:10291000DF9390E0FC01E158F54F2491FC01E5596B
:10292000F54F8491882361F190E0880F991FFC0195
:10293000E457FA4FC591D491FC01EF59F54FA59199
:10294000B491611109C09FB7F894888120958223C2
:102950008883EC912E230BC0623061F49FB7F8940A
:102960008881322F309583238883EC912E2B2C93F2
:102970009FBF06C08FB7F894E8812E2B28838FBFA6
:10298000DF91CF9108958F929F92AF92BF92CF9295
:10299000DF92EF92FF926B017C010E9485174B0141
:1029A0005C01C114D104E104F104F1F00E94851727
:1029B000DC01CB0188199909AA09BB09883E93401B
:1029C000A105B10570F321E0C21AD108E108F108B0
:1029D00088EE880E83E0981EA11CB11CC114D1049E
:1029E000E104F10419F7DDCFFF90EF90DF90CF9075
:1029F000BF90AF909F908F9008950F931F93CF93A8
:102A00008091480490914904892B19F52091300454
:102A100030913104C901079697FD079603E095951B
:102A200087950A95E1F720912E0430912F04AC018F
:102A3000429FC001439F900D529F900D11240E9410
:102A400008229093490480934804892B11F480E074
:102A500033C20E9446192091300430913104809194
:102A60002E0490912F0421323105A4F0B901605455
:102A7000710977FF02C06F5F7F4F7595679582552B
:102A8000910997FD019600E410E022E530E042E96B
:102A900057E013C0B9016052710977FF02C06F5F40
:102AA0007F4F759567958357910997FD019600E2D1
:102AB00010E023E730E042EB55E0959587950E94C2
:102AC0004D1082E080934B0480914604909147041E
:102AD000892BB9F18CE380934A041092F40210928E
:102AE000F30210922D0310924F0310922B0381E0FA
:102AF00080932A031092050361E082E10E943A1458
:102B000061E083E10E943A148091B9008E7F809346
:102B1000B9008091B9008D7F8093B90080E28093E5
:102B2000B80085E48093BC008BEA9AE09093F202AF
:102B30008093F1028CEA9AE09093F0028093EF0286
:102B4000BEC061E080914F040E94871461E08091D3
:102B500050040E94871480914F04082E000C990B9A
:102B6000FC01E559F54FE491F0E0EE0FFF1FEF593E
:102B7000F54F259134913093570420935604FC016E
:102B8000E158F54FE491E0935C0480915004082EE5
:102B9000000C990BFC01E559F54FE491F0E0EE0FC4
:102BA000FF1FEF59F54FA591B491B0935904A0932D
:102BB0005804FC01E158F54FE491E0935D048C91D9
:102BC000E82BEC938091440490914504892B09F4FF
:102BD00034C0CFB7F8948091F502811127C0E5E7A2
:102BE000FAE08491E9E8FAE09491E82FF0E0EE0F42
:102BF000FF1FE457FA4FA591B491EC91E92321F41A
:102C000061E08AE00E943A1461E08AE00E94871441
:102C10008CB580618CBD8CB580648CBD61E08DE02D
:102C20000E94871461E08BE00E9487148091F50276
:102C30008F5F8093F502CFBF42C061E080914D0469
:102C40000E94871461E080914E040E948714809155
:102C50004D04082E000C990BFC01E559F54FE49149
:102C6000F0E0EE0FFF1FEF59F54F259134913093AF
:102C7000530420935204FC01E158F54FE491E09392
:102C80005A0480914E04082E000C990BFC01E55962
:102C9000F54FE491F0E0EE0FFF1FEF59F54FA591CE
:102CA000B491B0935504A0935404FC01E158F54F3E
:102CB000E491E0935B048C91E095E823EC938091A0
:102CC000510487FD1EC061E00E94871461E080917D
:102CD00051040E943A1461E070E080E090E00E94AC
:102CE000C31460E0809151040E943A146AE070E0DD
:102CF00080E090E00E94C31461E0809151040E9442
:102D00003A148091460490914704892BD1F0209188
:102D1000600430916104409162045091630460E06A
:102D200072E18AE790E00E94A921DA01C901409787
:102D3000A109B109B695A795979587958093B80095
:102D400016C08091440490914504892B31F0809104
:102D50005E0490915F040E94C20EE0915804F091CD
:102D60005904908180915D0480958923808364E07B
:102D70008EEA95E00E9491186091300461508AE2D9
:102D800094E00E945F0E64E08AEA95E00E94911848
:102D900080914B04813011F064E101C060E18AE26E
:102DA00094E00E945F0E64E086EA95E00E9491182C
:102DB00080912E0490912F0480389105E9F4809140
:102DC0003004909131048032910531F464E082EA5C
:102DD00095E00E94911829C08034910531F563E097
:102DE0008FE995E00E94911880914B04813011F099
:102DF0006FEC17C06FE915C080369105B1F4809172
:102E0000300490913104409781F463E08CE995E0BF
:102E10000E94911880914B04813011F06FEA01C03B
:102E200060E18AE294E00E945F0E69ED8AE294E03C
:102E30000E945F0E80914B04813011F061EF01C060
:102E400062E28AE294E00E945F0E66E086E995E025
:102E50000E9491188091460490914704892BD1F0EB
:102E60002091640430916504409166045091670498
:102E700060E072E18AE790E00E94A921DA01C901CD
:102E80004097A109B109B695A79597958795809325
:102E9000B80011C0E0915804F091590490818091DC
:102EA0005D04892B80838091440490914504892B93
:102EB00011F00E94570E81E0CF911F910F9108955C
:102EC0000F931F93CF93DF9300D0CDB7DEB78C0164
:102ED0006FE671E00E944A0D0E94661997FD0BC0D3
:102EE00089831A8241E050E0BE016F5F7F4FC801C5
:102EF0000E94F417F1CFC8010F900F90DF91CF918E
:102F00001F910F9108950E94EF233FB7F89480918D
:102F1000FD029091FE02A091FF02B091000326B540
:102F2000A89B05C02F3F19F00196A11DB11D3FBF01
:102F3000BA2FA92F982F8827820F911DA11DB11D8F
:102F4000BC01CD0143E0660F771F881F991F4A958A
:102F5000D1F708951F920F920FB60F9211242F935D
:102F60003F938F939F93AF93BF9380910103909171
:102F70000203A0910303B09104033091FC0226E008
:102F8000230F2D3720F40296A11DB11D05C029E89D
:102F9000230F0396A11DB11D2093FC028093010312
:102FA00090930203A0930303B09304038091FD0266
:102FB0009091FE02A091FF02B09100030196A11D25
:102FC000B11D8093FD029093FE02A093FF02B09387
:102FD0000003BF91AF919F918F913F912F910F90DF
:102FE0000FBE0F901F901895EF92FF920F931F93B3
:102FF000CF93DF936115710511F480E01CC041157A
:103000005105C1F07B01EC018C819D818A01080F83
:10301000191FB801CE010E949C0C882371F32881EE
:1030200039818C819D81B701820F931F0E940D24ED
:103030001D830C8381E0DF91CF911F910F91FF9051
:10304000EF900895CF93DF93EC01FB01448155810C
:10305000608171810E94F417811103C0CE010E942A
:10306000C30CCE01DF91CF91089530914F033132DF
:1030700008F04BC080912B038111FCCF90914E033F
:1030800022E020932B0321E020932A032FEF2093AB
:1030900029031092280330932703EEE2F3E0A7E020
:1030A000B3E020E0321721F041914D932F5FFACF2A
:1030B0001092060320910603990F922B909306031A
:1030C00090910503913061F41092050390910603ED
:1030D0009093BB009091BC0093FDF8CF95EC01C09C
:1030E00095EE9093BC0090912B039230E1F3909178
:1030F00029039F3F79F080912903803241F080912C
:103100002903803331F084E005C081E003C082E010
:1031100001C083E010922D0310924F0310922C03F4
:103120000895DF92EF92FF920F931F93CF93DF9357
:10313000D82ED92FC62F809146049091470400972E
:1031400009F454C020914A0431E030932C032093B9
:103150004E0310922D0310924F03DC01ED91FC9170
:103160000190F081E02D60E00995ED2CFD2E11E03D
:10317000D1E08091460490914704CC2371F1103244
:10318000C8F00E94351880914A04D0932C03809394
:103190004E0310922D0310924F038091460490919C
:1031A0004704DC01ED91FC910190F081E02D60E09D
:1031B000099511E08091460490914704F7016491CC
:1031C000DC01ED91FC910190F081E02D09951F5FEC
:1031D000C150BFEFEB1AFB0ACCCFDF91CF911F910B
:1031E0000F91FF90EF90DF900C943518E09156040A
:1031F000F0915704908180915C04809589238083AD
:103200000D2D1D2FCC2309F439C0F8018491209194
:10321000440430914504232B31F00E94580EC150D4
:103220000F5F1F4FEFCF28E030E040E8E0915204FD
:10323000F091530490915A04582F542319F050815F
:10324000952B03C05081909595239083E091540471
:10325000F0915504508190915B04952B9083E091FF
:103260005404F0915504508190915B0490959523FE
:103270009083469521503109C9F6D1CFDF91CF9186
:103280001F910F91FF90EF90DF90089520913004EF
:1032900030913104C901079697FD079623E0959573
:1032A00087952A95E1F720912E0430912F04829F73
:1032B000A001839F500D929F500D112460E070E09B
:1032C00080914804909149040C94FD232FB7F89401
:1032D0008091010390910203A0910303B091040334
:1032E0002FBF8093F5039093F603A093F703B09359
:1032F000F8038DEE93E00E94040797FF26C02FB7D6
:10330000F8948091010390910203A0910303B0917E
:1033100004032FBF4091F5035091F6036091F7032A
:103320007091F803841B950BA60BB70B4091F1032A
:103330005091F2036091F3037091F40384179507A1
:10334000A607B707B0F28FEF9FEF0895CF92DF92F5
:10335000EF92FF920F931F93CF93DF9300D000D093
:1033600000D0CDB7DEB76C018B010E9446191092D8
:10337000370410923604109239041092380467E32F
:1033800072E0CE0101960E944A0DB801CE0101966D
:103390000E9422188C0141E050E069E472E00E9432
:1033A000F417882309F451C1B8018AE294E00E941D
:1033B0006A0DCE0101960E94240DEE24E394F12CB7
:1033C00007E010E028E730E047E050E060E070E020
:1033D0008AE294E00E945708109237041092360453
:1033E00088E090E09093390480933804B6018AE233
:1033F00094E00E946A0D8091460490914704892BC5
:10340000D1F02091600430916104409162045091A8
:10341000630460E072E18AE790E00E94A921DA018A
:10342000C9014097A109B109B695A79597958795C8
:103430008093B80016C08091440490914504892B74
:1034400031F080915E0490915F040E94C20EE09181
:103450005804F0915904908180915D0480958923EE
:10346000808365E082E59AE00E94911860912E04C5
:1034700061508AE294E00E945F0E20913004309106
:103480003104C901079697FD079633E09595879516
:103490003A95E1F720912E0430912F04829F70011C
:1034A000839FF00C929FF00C11240091480410911E
:1034B00049048091460490914704E00EF11E009764
:1034C00009F44EC020914A0431E030932C0320933C
:1034D0004E0310922D0310924F03DC01ED91FC91ED
:1034E0000190F081E02D60E40995DD24D394CC2493
:1034F000C3948091460490914704E016F10669F167
:10350000BFE1BD15D0F40E94351880914A04C092E5
:103510002C0380934E0310922D0310924F03809141
:10352000460490914704DC01ED91FC910190F081FB
:10353000E02D60E40995DD24D394809146049091B8
:103540004704F80161918F01DC01ED91FC9101903C
:10355000F081E02D0995D394CCCF0E94351843C05B
:10356000E0915604F0915704908180915C04892B7E
:103570008083E016F106B9F1F80181918F01209165
:10358000440430914504232B19F00E94580EF1CFCA
:1035900028E030E040E8E0915204F091530490912B
:1035A0005A04582F542319F05081952B03C0508191
:1035B000909595239083E0915404F09155045081A7
:1035C00090915B04952B9083E0915404F091550405
:1035D000508190915B04909595239083469521505E
:1035E0003109C9F6C6CF8091460490914704892BD2
:1035F000D1F02091640430916504409166045091AB
:10360000670460E072E18AE790E00E94A921DA0194
:10361000C9014097A109B109B695A79597958795D6
:103620008093B80016C0E0915804F091590490813D
:1036300080915D04892B808380914404909145049E
:10364000892B39F00E94570E04C0C8010E94C30C98
:10365000ABCE26960FB6F894DEBF0FBECDBFDF917E
:10366000CF911F910F91FF90EF90DF90CF90089531
:1036700083E391E09093EE038093ED038091F90250
:103680009091FA028D5E934071F4E0910004F09104
:103690000104908180910204809589238083109297
:1036A000FA021092F9028CE094E00E94240D82E16B
:1036B00094E00E94240D88E194E00E94240D8EE1A4
:1036C00094E00E94240D84E294E00E94240D85E49D
:1036D00091E090932B0480932A0480914804909168
:1036E0004904009711F00C94A0220895CF93DF9322
:1036F000CDB7DEB7E0970FB6F894DEBF0FBECDBFF3
:10370000789484B5826084BD84B5816084BD85B5BC
:10371000826085BD85B5816085BD80916E008160C8
:1037200080936E001092810080918100826080936E
:103730008100809181008160809381008091800070
:103740008160809380008091B10084608093B1009B
:103750008091B00081608093B00080917A00846095
:1037600080937A0080917A00826080937A008091C1
:103770007A008E7F80937A0080917A0080688093AF
:103780007A001092C1000E94FD146FE671E08EE194
:1037900094E00E94F60C0E94461981E080933E045A
:1037A00021E030E030933D0420933C0430933B040F
:1037B00020933A0480934104109208041092070465
:1037C000109206041092050410920404109203044F
:1037D0008DEC90E090930A04809309049091F90392
:1037E000963108F058C025E530E03093040420936A
:1037F00003042BEC30E0309306042093050420E909
:1038000030E030930804209307044091680098301A
:1038100058F031E09E3008F430E021E0822F01C002
:10382000880F3A95EAF701C084E0842B8093680002
:10383000983038F09E3040F0963148F42CE630E075
:1038400008C02DE630E005C02BE630E002C020E0E5
:1038500030E03093010420930004983030F481E08C
:1038600001C0880F9A95EAF70EC0292F30E09E30EC
:1038700018F42850310902C02E50310981E001C0EE
:10388000880F2A95EAF780930204809109049091A9
:103890000A040197F1F78091070490910804892B9D
:1038A00049F1E091F902F091FA0283E0ED3EF80768
:1038B00009F1309739F0A389B4899C918589809565
:1038C00089238C9380910B048E7F80930B0410923C
:1038D000F8021092F7028DEE93E09093FA02809333
:1038E000F902E0910004F0910104908180910204BA
:1038F000892B808368EE73E080E090E00E94C3141F
:103900000E94A8201C8A1B8A1E8A1D8A188E1F8A64
:1039100028EE33E040E050E00E944021DC01CB0182
:103920004AE0BE016F5F7F4F0E94FF20BE016F5FC4
:103930007F4FCE0143960E94F60C60E771E0CE0106
:1039400001960E944A0DBE016D5E7F4FCE01019629
:103950000E942218BC0182E194E00E940D0DCE016C
:1039600001960E94240DCE0143960E94240D86E705
:1039700091E00E94E6108FE791E00E94E61088E84F
:1039800091E00E94E61086E991E00E94E61064EA68
:1039900071E0CE0101960E944A0D62E174E0CE0111
:1039A00001960E942218BC018DEE93E00E946A0DE0
:1039B000CE0101960E94240D8CEA91E00E94E6104F
:1039C000E0916003F091610382E08083E0915C0309
:1039D000F0915D031082E0915E03F0915F0387E652
:1039E000808310926803E0916403F091650386E0A0
:1039F0008083E0916203F091630380818061808322
:103A0000E0916203F0916303808188608083E0919C
:103A10006203F0916303808180688083E091620398
:103A2000F091630380818F7D80830E94FD140E944A
:103A3000461981E080933E0421E030E030933D045C
:103A400020933C0430933B0420933A048093410438
:103A500065EB71E0CE0101960E944A0D69EB71E0C1
:103A6000CE0143960E944A0DBE016F5F7F4FCE018B
:103A700043960E94A619CE0143960E94240DCE01C2
:103A800001960E94240D89E090E00E94D010FC0174
:103A90006081CE0101960E94290D85E090E00E9490
:103AA000D010FC016081CE0143960E94290D82E076
:103AB00090E00E94D010FC016081CE0149960E94E6
:103AC000290D80E090E00E94D010FC016081CE01C1
:103AD00085960E94290DBE016B5D7F4FCE014F96EA
:103AE0000E94410DBE01675E7F4FCE014F960E943E
:103AF0002218BE016D5E7F4F0E942218BE016F5FCB
:103B00007F4F0E942218BC01CE018B960E94410D6E
:103B1000CE014F960E94240DCE0185960E94240D61
:103B2000CE0149960E94240DCE0143960E94240D99
:103B3000CE0101960E94240DCE0101960E946017CD
:103B4000CE0101960E94240DBB24B3948091FB0208
:103B500081116AC1209122043091230480911004C4
:103B6000909111042817390749F580911E0490910E
:103B70001F0460910C0470910D04009719F06115F9
:103B80007105B9F46115710551F0232B09F41EC1BB
:103B9000FB01808190E09195819591090CC000977F
:103BA00009F414C1232B09F411C1FC01808190E0B8
:103BB00002C00E940424892B09F408C180910001ED
:103BC000811121C06AED71E0CE0101960E944A0D7B
:103BD0006EED71E0CE0143960E944A0DBE016F5F0B
:103BE0007F4FCE0143960E94A619CE0143960E94B4
:103BF000240DCE0101960E94240D6FE671E08EE146
:103C000094E00E94F60CCE0101960E94601780910C
:103C10001804909119040097C9F069817A8161159F
:103C2000710591F040911A0450911B042D813E8141
:103C30004217530748F00E940D248D819E81909376
:103C40001D0480931C0418C00E94A02289819A81BF
:103C500090931904809318048B819C8190931B048A
:103C600080931A048D819E8190931D0480931C047F
:103C70001A8219821C821B821E821D82CE0101962D
:103C80000E94240D80911C0490911D04892B09F43D
:103C90005DCFE0911804F09119048081882309F424
:103CA00055CF6EE174E0CE0101960E94410D68E1AE
:103CB00074E0CE0101960E942218BC018EE194E0CE
:103CC0000E940D0DCE0101960E94240DC0901E048D
:103CD000D0901F04C114D10409F445C000912204FE
:103CE0001091230401151105F1F176014701FFEF51
:103CF0008F1A9F0AF7018081082E000C990B0E94F1
:103D00002421892B11F07401F1CF015011090C0D00
:103D10001D1DF8018081082E000C990B0E942421A2
:103D2000892B31F00E151F0518F001501109F1CF44
:103D3000A8014F5F5F4F4E195F09509323044093D2
:103D40002204CE14DF0420F4B701C6010E94F4233C
:103D5000E0911E04F0911F048091220490912304AD
:103D6000E80FF91F10826AED71E0CE0101960E9402
:103D70004A0D67EF71E0CE0149960E944A0D6EE14F
:103D800074E0CE0149960E942218BC01CE014396F0
:103D90000E94410DBE016F5F7F4FCE0143960E948E
:103DA000A619CE0143960E94240DCE0149960E9489
:103DB000240DCE0101960E94240D1092000160EDA9
:103DC00077E080E090E00E94C314C0CE67E072E02C
:103DD000CE0101960E944A0D6BE072E0CE01499639
:103DE0000E944A0DBE01655D7F4FCE0149960E943B
:103DF0002218BC01CE0143960E94410DBE016F5FA7
:103E00007F4FCE0143960E94A619CE0143960E9491
:103E1000240DCE0149960E94240DCE0101960E94E8
:103E2000240DB092FB0292CECE018B960E94240DFF
:103E30000E947906FDCFCF92DF92EF92FF92CF934F
:103E4000109253031092520398EEC92E93E0D92E8C
:103E5000E12CF12CC0925403D0925503E09256030A
:103E6000F09257038FE091E09093510380935003B9
:103E700085EC90E090935D0380935C0384EC90E08C
:103E800090935F0380935E0380EC90E090936103D6
:103E90008093600381EC90E09093630380936203CE
:103EA00082EC90E0909365038093640386EC90E04D
:103EB00090936703809366031092690310926A03DC
:103EC00010926B0310926C0310926B0410926A04B0
:103ED000C0926C04D0926D04E0926E04F0926F0474
:103EE00081E291E0909369048093680410922D041C
:103EF00010922C0420E830E030932F0420932E04FD
:103F000080E290E090933104809330043093330446
:103F100020933204909335048093340410923F042C
:103F2000109237041092360410923904109238041B
:103F3000C1E0C0933E048FEF9FEF90933D048093C8
:103F40003C0490933B0480933A04C0934004109245
:103F50004104109243041092420485E491E090934E
:103F60002B0480932A04109245041092440488E69E
:103F700094E0909347048093460410924904109271
:103F800048048FEF80934D0480934E0480934F0438
:103F9000809350048093510480E580935E04C09325
:103FA0005F0461E272E084E294E00E944A0D6FE6F1
:103FB00071E08EE194E00E944A0D6FE671E088E1C5
:103FC00094E00E944A0D6FE671E082E194E00E9465
:103FD0004A0D61E372E08CE094E00E944A0D109279
:103FE000F0031092EF03C092F103D092F203E0923B
:103FF000F303F092F40383E391E09093EE03809354
:10400000ED0310920404109203041092060410921F
:104010000504109208041092070410920A041092EA
:10402000090480910B048E7F8D7F80930B0486950D
:104030008170682F6C2786E00E943A1461E086E068
:104040000E948714E5E8FAE0E491E093FD03E1E7DC
:10405000FAE0E491F0E0EE0FFF1FEF59F54F859184
:1040600094919093FF038093FE0360E087E00E94A9
:10407000871480910B0481FD04C061E087E00E94F9
:104080003A1487E08093F903E6E8FAE0E491E093DC
:10409000FA03E2E7FAE0E491F0E0EE0FFF1FE95ADD
:1040A000F54F859194919093FC038093FB03CF91FE
:1040B000FF90EF90DF90CF9008958F929F92AF92F4
:1040C000BF92CF92DF92EF92FF92CF93DF93EC01FA
:1040D000688179818A819B816115710581059105CE
:1040E00021F464E279ED8BE597E02DE133EF41E0D7
:1040F00050E00E94402149015A019B01AC01A7EA0E
:10410000B1E40E945F216B017C01ACEEB4EFA5012C
:1041100094010E946D21DC01CB018C0D9D1DAE1D13
:10412000BF1DB7FF03C00197A109B04888839983D9
:10413000AA83BB83BC01CD019F77DF91CF91FF9014
:10414000EF90DF90CF90BF90AF909F908F900895A9
:104150008F929F92AF92BF92CF92DF92EF92FF9297
:10416000609101017091020180910301909104011D
:10417000611571058105910521F464E279ED8BE506
:1041800097E02DE133EF41E050E00E9440214901EA
:104190005A019B01AC01A7EAB1E40E945F216B01C7
:1041A0007C01ACEEB4EFA50194010E946D21DC010D
:1041B000CB018C0D9D1DAE1DBF1DB7FF03C0019728
:1041C000A109B0488093010190930201A0930301DB
:1041D000B0930401BC01CD019F77FF90EF90DF9079
:1041E000CF90BF90AF909F908F9008956093010102
:1041F0007093020180930301909304010895BB27FB
:104200004A3031F4992322F4BDE2909581959F4F75
:104210000C940B21BB27FB015527AA27880F991F58
:10422000AA1FA41710F0A41B83955051B9F7A05DE5
:10423000AA3308F0A95DA193009779F7B111B19362
:104240001192CB010C942D2191110C943D218032BF
:1042500019F089508550C8F70895DC01FC01672FDB
:1042600071917723E1F7329704C07C916D9370834D
:104270006291AE17BF07C8F308959927882708955C
:10428000052E97FB1EF400940E94572157FD07D07E
:104290000E94A92107FC03D04EF40C94572150959D
:1042A0004095309521953F4F4F4F5F4F0895909522
:1042B0008095709561957F4F8F4F9F4F08950E9415
:1042C000CB21A59F900DB49F900DA49F800D911DB3
:1042D00011240895B7FF0C945F210E945F21821B77
:1042E000930B08952F923F924F925F926F927F921D
:1042F0008F929F92AF92BF92CF92DF92EF92FF92F6
:104300000F931F93CF93DF93CDB7DEB7CA1BDB0BA1
:104310000FB6F894DEBF0FBECDBF09942A88398846
:1043200048885F846E847D848C849B84AA84B9844D
:10433000C884DF80EE80FD800C811B81AA81B98159
:10434000CE0FD11D0FB6F894DEBF0FBECDBFED016D
:104350000895A1E21A2EAA1BBB1BFD010DC0AA1FC6
:10436000BB1FEE1FFF1FA217B307E407F50720F0DE
:10437000A21BB30BE40BF50B661F771F881F991F59
:104380001A9469F760957095809590959B01AC01A2
:10439000BD01CF010895A29FB001B39FC001A39FAB
:1043A000700D811D1124911DB29F700D811D11246E
:1043B000911D089597FB072E16F4009407D077FD02
:1043C00009D00E94EE2107FC05D03EF4909581951E
:1043D0009F4F0895709561957F4F0895AA1BBB1B51
:1043E00051E107C0AA1FBB1FA617B70710F0A61BF5
:1043F000B70B881F991F5A95A9F780959095BC0116
:10440000CD010895EE0FFF1F0590F491E02D099462
:104410000F931F93CF93DF938230910510F482E0C6
:1044200090E0E0917604F091770420E030E0A0E0A5
:10443000B0E0309719F14081518102811381481712
:104440005907C8F08417950769F4109731F0129650
:104450000C93129713961C9327C000937604109325
:10446000770422C02115310519F04217530718F4BB
:104470009A01BD01EF01DF01F801DBCF2115310504
:10448000F9F0281B390B2430310580F48A819B8197
:104490006115710521F0FB019383828304C0909321
:1044A000770480937604FE01329644C0FE01E20F49
:1044B000F31F8193919322503109398328833AC0A5
:1044C0002091740430917504232B41F4209107014D
:1044D00030910801309375042093740420910501F4
:1044E000309106012115310541F42DB73EB74091B9
:1044F000090150910A01241B350BE0917404F091DD
:104500007504E217F307A0F42E1B3F0B2817390799
:1045100078F0AC014E5F5F4F2417350748F04E0F1F
:104520005F1F50937504409374048193919302C06C
:10453000E0E0F0E0CF01DF91CF911F910F9108955E
:10454000CF93DF93009709F481C0FC013297138267
:104550001282A0917604B0917704109781F42081A3
:104560003181820F931F20917404309175042817B4
:10457000390751F5F0937504E093740467C0ED01B9
:1045800020E030E0CE17DF0740F44A815B819E01D6
:1045900041155105F1F0EA01F5CFD383C283408183
:1045A0005181840F951FC817D90759F488819981C3
:1045B000840F951F0296918380838A819B819383C8
:1045C00082832115310529F4F0937704E093760472
:1045D0003DC0E901FB83EA8349915991C40FD51F7E
:1045E000EC17FD0761F480819181840F951F02967D
:1045F000E90199838883828193819B838A83E0E0A8
:10460000F0E012968D919C911397009719F0FD019F
:10461000DC01F7CF8D919C9111979D012E5F3F4F4B
:10462000820F931F20917404309175042817390765
:1046300069F4309729F4109277041092760402C03E
:1046400013821282B0937504A0937404DF91CF910A
:104650000895A0E0B0E0EFE2F3E20C947621EC01E3
:10466000009721F4CB010E940822B4C0FC01E60FA0
:10467000F71F9C0122503109E217F30708F4A8C084
:10468000D9010D911C91119706171707B0F005304D
:10469000110508F49BC0C80104978617970708F412
:1046A00095C002501109061B170B019311936D93CE
:1046B0007C93CF010E94A02289C05B01A01AB10A9D
:1046C0004C01800E911EA0917604B0917704612C6C
:1046D000712CE12CF12C109709F446C08D919C911E
:1046E0001197A815B905B1F56C0142E0C40ED11CB3
:1046F000CA14DB0478F14C018A189B08640142E07B
:10470000C40ED11C1296BC9012971396AC91B5E0D2
:10471000CB16D10440F0B282A38391828082D9016A
:104720006D937C9309C00E5F1F4F800F911FF9019D
:1047300091838083EB2DFA2FE114F10431F0D7013E
:104740001396FC93EE93129741C0F0937704E09395
:1047500076043CC06816790608F43C017D01129687
:104760000D90BC91A02DB7CF8091740490917504E9
:1047700088169906E1F466167706C8F4809105015B
:1047800090910601009741F48DB79EB740910901C1
:1047900050910A01841B950BE817F907C8F4F093B0
:1047A0007504E0937404F901718360830FC0CB0139
:1047B0000E9408227C01009759F0A801BE010E94C6
:1047C000F423CE010E94A022C70104C0CE0102C082
:1047D00080E090E0CDB7DEB7EEE00C94922181E06E
:1047E00090E0F8940C941424FB01DC0102C00190C9
:1047F0000D9241505040D8F70895DC0101C06D93EF
:1048000041505040E0F70895FB01DC018D9101908B
:1048100080190110D9F3990B0895FB01DC01019077
:104820000D920020E1F7089515E0CBE4D5E004C037
:10483000FE010E9402222196CC34D107C9F7F894D8
:02484000FFCFA8
:104842000101000000000078048000000000000A5E
:10485200067705A1055706D205B005C4050000007C
:1048620000050BD80A340B9B06D00ABC0AAD0A001D
:104872000000009C067705340B9B06EC06040783B8
:104882000600000000C60B7705340B760525079B52
:1048920006C0099809B409A809C7099B06E307C518
:1048A2000E370B7B0BE108C4085708F8070D0A0006
:1048B200647669642D0041542B49424541300041E0
:1048C200542B524F4C45300041542B5555494430DE
:1048D20078464645300041542B4348415230784691
:1048E2004645310041542B4E414D450041542B5217
:1048F200455345540020203000436F6D65206F6E94
:1049020020746F207361792068656C6C6F206F6E04
:104912002030303030666665310020353000577205
:104922006F6E672070617373776F72640A54727965
:1049320020616761696E00456E74657265642070FE
:10494200617373203A20003130300057656C6C205F
:10495200646F6E6521204D657373616765203A202F
:10496200004235697A7A72727A3464663233666BDF
:104972000068656C6C6F0054332D434841524143CB
:0C49820054322E2E2E2E2E2E002500006A
:00000001FF
