:100000000C944C050C9474050C9474050C94D6084F
:100010000C94D6080C94D6080C9474050C947405B2
:100020000C9474050C9474050C9474050C9474056C
:100030000C9474050C9474050C9474050C9474055C
:100040000C9418080C9474050C9474050C947405A5
:100050000C9474050C9474050C9474050C9474053C
:100060000C942C150C947405DB40A4A62EAFDA0278
:1000700081DA1281DA02818F2000A1C8D300408D7D
:10008000AED580A800006000000000000000000065
:100090000000000000E00000000000000000000080
:1000A00000000001E000000000000000000000006F
:1000B000000001F00000000000000000000000004F
:1000C0000003F0000000000000000000000000003D
:1000D00007F0000000000000000000000000000722
:1000E000F8000000000000000000000000000FF811
:1000F00000000003C0007E000001E0007F0FF80058
:10010000000003C000FE000001E000FFEFF8000067
:100110000003C000FE000001E000FFFFF800000047
:1001200003C000F00000000F007FFE7FC00000034E
:10013000C000F00000000F003FFE7FF83FF1FBCF52
:10014000FCFEF3BC3DEFE01FFE7FFF7FFBFFDFFE09
:10015000FEFFBC3DEFE01FC6FFFF7FFBFFDFFEFEA3
:10016000FFBC3DEFE00FE3C7FE787BC3DE1EF0FF70
:10017000BC3DEF0007FF87FC787BC3DE1EF0F83C38
:100180003DEF0001FFFFF0007BC3C01EF0F03C3DDF
:10019000EF0001F37FE03FFBC3CFFEF0F03C3DEF0B
:1001A0000003E33F807FFBC3DFFEF0F03C3DEF0048
:1001B00007E73C00787BC3DE1EF0F03C3DEF000714
:1001C000FFBE00787BC3DE1EF0F03C3DEF0007FF72
:1001D000FE00787BC3DE1EF0F03C3DEF000FFFFE1B
:1001E000007FFBFFDFFEF0F03FFDEFE00FFFFF00C1
:1001F0007FFBFFDFFEF0F03FFDEFE00FF9FF003E79
:1002000079F9CF9EF0F01F3DE7E01FF1FF000000FD
:100210000000000000000000001F80FF007FFFFFC3
:10022000FFFFFFFFFFFFFFE01C007F007FFFFFFFDE
:10023000FEB46D888D18E000001F007FFFFFFFFEF9
:1002400095AD7DB577E000000F007FFFFFFFFEA5B5
:10025000AD9D8D19E0000006007FFFFFFFFEB5ADEC
:10026000EDB57EE00000000000018000000000000D
:1002700000000000038000000000000000000007F4
:10028000C000000000000000000007C000000000E7
:1002900000000000000FC00000000000000000008F
:1002A0001FE00000000000000000001FE000000050
:1002B0000000000000003FE000000000000000001F
:1002C000003FF00000000000000000007FF0000090
:1002D00000000000001FF87FF00000000000000098
:1002E0003FFE7FF0000000000000003FFF7FF000B5
:1002F0000000000000001FFFFBE000000000000005
:10030000000FFFF9FFC00000000000000FFFF9FF21
:10031000F800000000000007FFF1FFFF00000000F0
:10032000000003FC73FFFF80000000000001FE3F9F
:10033000FFFF80000000000000FF1E0FFF00000014
:10034000000000007FFE1FFC000000000000003FD6
:10035000FFFFF8000000000000000FDFFFE00000DA
:1003600000000000001F19FFC00000000000000096
:100370003F3CFF00000000000000007E7CF8000011
:100380000000000000007FFE7C0000000000000074
:1003900000FFFFFC0000000000000000FFFFFE0067
:1003A00000000000000000FFFFFE00000000000051
:1003B0000001FFEFFE0000000000000001FFCFFE83
:1003C0000000000000000003FF07FE000000000026
:1003D000000003FC07FE0000000000000003F00323
:1003E000FE00000000000000018000FE0000000090
:1003F0000000000000007E0000000000000000007F
:10040000003E000000000000000000000C000000A2
:10041000000000078000FC000003C000000007800F
:1004200001FC000003C0000000078001FC00000385
:10043000C0000000078001E00000001E000000076F
:100440008001E00000001E007FE3F79FF9FDE778E0
:100450007BDFC0FFF7FFBFFDFDFF787BDFC0FFF74D
:10046000FFBFFDFDFF787BDFC0F0F787BC3DE1FFFC
:10047000787BDE00F0F787BC3DE1F0787BDE0000A2
:10048000F787803DE1E0787BDE007FF7879FFDE125
:10049000E0787BDE00FFF787BFFDE1E0787BDE00E0
:1004A000F0F787BC3DE1E0787BDE00F0F787BC3DEC
:1004B000E1E0787BDE00F0F787BC3DE1E0787BDEB1
:1004C00000FFF7FFBFFDE1E07FFBDFC0FFF7FFBFED
:1004D000FDE1E07FFBDFC07CF3F39F3DE1E03E7B8D
:1004E000CFC00000000000000000000000FFFFFF80
:1004F000FFFFFFFFFFFFFFC0FFFFFFFFFD68DB11F6
:100500001A31C0FFFFFFFFFD2B5AFB6AEFC0FFFF50
:10051000FFFFFD4B5B3B1A33C0FFFFFFFFFD6B5B33
:10052000DB6AFDC000000000240027002A00000054
:1005300000080002010000030407000000000000A2
:100540000000000103070F1F3F7F0080C0E0F0F8AC
:10055000FCFE00000000003E5B4F5B3E3E6B4F6BBD
:100560003E1C3E7C3E1C183C7E3C181C577D571C94
:100570001C5E7F5E1C00183C1800FFE7C3E7FF000D
:1005800018241800FFE7DBE7FF30483A060E26295B
:10059000792926407F050507407F05253F5A3CE71E
:1005A0003C5A7F3E1C1C08081C1C3E7F14227F22E4
:1005B000145F5F005F5F06097F017F006689956AAF
:1005C000606060606094A2FFA29408047E0408103A
:1005D000207E201008082A1C08081C2A08081E1063
:1005E0001010100C1E0C1E0C30383E3830060E3E1B
:1005F0000E06000000000000005F0000000700077A
:1006000000147F147F14242A7F2A122313086462A3
:1006100036495620500008070300001C2241000004
:1006200041221C002A1C7F1C2A08083E0808008062
:1006300070300008080808080000606000201008FA
:1006400004023E5149453E00427F400072494949FB
:10065000462141494D331814127F1027454545392D
:100660003C4A494931412111090736494949364631
:100670004949291E00001400000040340000000811
:1006800014224114141414140041221408020159B4
:1006900009063E415D594E7C1211127C7F49494941
:1006A000363E414141227F4141413E7F49494941D6
:1006B0007F090909013E414151737F0808087F0005
:1006C000417F41002040413F017F081422417F408B
:1006D0004040407F021C027F7F0408107F3E414162
:1006E000413E7F090909063E4151215E7F091929D2
:1006F00046264949493203017F01033F4040403FBC
:100700001F2040201F3F4038403F631408146303FC
:10071000047804036159494D43007F41414102047B
:10072000081020004141417F040201020440404082
:100730004040000307080020545478407F28444478
:10074000383844444428384444287F385454541892
:1007500000087E090218A4A49C787F08040478008D
:10076000447D40002040403D007F1028440000416F
:100770007F40007C047804787C0804047838444482
:100780004438FC1824241818242418FC7C08040479
:1007900008485454542404043F44243C4040207CE2
:1007A0001C2040201C3C4030403C44281028444C35
:1007B0009090907C4464544C440008364100000002
:1007C000770000004136080002010204023C2623A3
:1007D000263C1EA1A161123A4040207A385454555B
:1007E0005921555579412254547842215554784025
:1007F00020545579400C1E527212395555555939AD
:100800005454545939555454580000457C41000201
:10081000457D420001457C407D1211127DF0282566
:1008200028F07C545545002054547C547C0A097FA0
:100830004932494949323A4444443A324A484830B4
:100840003A4141217A3A42402078009DA0A07D3D66
:100850004242423D3D4040403D3C24FF2424487EEE
:100860004943662B2FFC2F2BFF0929F620C0887ED9
:10087000090320545479410000447D413048484ADE
:1008800032384040227A007A0A0A727D0D19317D91
:100890002629292F28262929292630484D40203865
:1008A0000808080808080808382F10C8ACBA2F1024
:1008B0002834FA00007B000008142A142222142A8B
:1008C00014085500550055AA55AA55AAFF55FF55BD
:1008D000FF000000FF00101010FF00141414FF00B0
:1008E0001010FF00FF1010F010F0141414FC00148E
:1008F00014F700FF0000FF00FF1414F404FC1414AC
:1009000017101F10101F101F1414141F00101010A8
:10091000F0000000001F101010101F10101010F039
:1009200010000000FF101010101010101010FF1019
:10093000000000FF140000FF00FF00001F10170060
:1009400000FC04F414141710171414F404F4000039
:10095000FF00F714141414141414F700F7141414EB
:10096000171410101F101F141414F4141010F0108A
:10097000F000001F101F0000001F14000000FC14F6
:100980000000F010F01010FF10FF141414FF1410EA
:1009900010101F00000000F010FFFFFFFFFFF0F03D
:1009A000F0F0F0FFFFFF0000000000FFFF0F0F0F4F
:1009B0000F0F3844443844FC4A4A4A347E02020647
:1009C00006027E027E0263554941633844443C047A
:1009D000407E201E2006027E020299A5E7A5991CF2
:1009E0002A492A1C4C7201724C304A4D4D30304815
:1009F000784830BC625A463D3E494949007E010173
:100A0000017E2A2A2A2A2A44445F444440514A4407
:100A10004040444A51400000FF0103E080FF0000D5
:100A200008086B6B083612362436060F090F0600CD
:100A30000018180000001010003040FF0101001FD6
:100A400001011E00191D1712003C3C3C3C00000037
:100A500000002200FF2100000000002300260029E2
:100A60000000000000250028002B000404040404FA
:100A7000040404020202020202030303030303014B
:100A80000204081020408001020408102001020422
:100A9000081020009E1B121B11241FBECFEFD8E0B0
:100AA000DEBFCDBF23E0ACE0B2E001C01D92AB39A8
:100AB000B207E1F712E0A0E0B1E0E4E5FDE302C037
:100AC00005900D92AC30B107D9F715E0CBE4D5E035
:100AD00004C02197FE010E94941CCA34D107C9F7B3
:100AE0000E94A4170C949D1E0C940000CF92DF92DC
:100AF000EF92FF920F931F93CF93DF936C017A01D4
:100B00008B01C0E0D0E0CE15DF0581F0D8016D91FA
:100B10008D01D601ED91FC910190F081E02DC6018F
:100B20000995892B11F02196EECF7E01C701DF9147
:100B3000CF911F910F91FF90EF90DF90CF9008958C
:100B400020915E0230915F022817390771F490916D
:100B50005C0280915D02981741F0E0915C02F0E048
:100B6000EE5EFD4F808190E008958FEF9FEF089536
:100B700008951F93CF93DF93DC015C968D919C9138
:100B80005D97009739F421E030E013963C932E9363
:100B900012973BC05196ED91FC91529750962C9133
:100BA0005097322F30951FB75E964C915E97742FF9
:100BB000727041FD6095F8944081772311F0422BCB
:100BC00001C043234083EC012197F1F748E05081B5
:100BD00060FF02C0522B01C053235083EC012197C8
:100BE000F1F76695415099F78081772319F08323B7
:100BF000808302C0282B20831FBF5C968D919C911F
:100C00005D970197F1F781E090E0DF91CF911F911F
:100C1000089520915E0230915F022817390771F420
:100C200080915D0220915C0290E0805C9F4F821B6E
:100C3000910960E470E00E942B1C089580E090E030
:100C4000089520915E0230915F0228173907B9F4A8
:100C500090915C0280915D02981789F0E0915C02AE
:100C6000F0E0EE5EFD4F808120915C0230E02F5F6E
:100C70003F4F2F73332720935C0290E008958FEF4E
:100C80009FEF0895FC0177FDB9C0808591856817B5
:100C900079070CF0B3C057FDB1C082859385481722
:100CA00059070CF008958689823079F48481958102
:100CB000DC01A61BB70BBD016150710986819781CC
:100CC000DC01A41BB50BAD010EC0833009F084C05C
:100CD00064277527CA0186279727682779274681C1
:100CE0005781481B590B415051092130310531F0D2
:100CF00048F12230310509F44AC00895CA0157FD70
:100D000007969C01A3E035952795AA95E1F7A48164
:100D1000B5812A9FC0012B9F900D3A9F900D112401
:100D2000680F791F078CF0A1E02DE60FF71F4770C1
:100D3000552781E090E001C0880F4A95EAF790813D
:100D4000892B48C0CA0157FD07969C0193E0359551
:100D500027959A95E1F7A481B5812A9FC0012B9F21
:100D6000900D3A9F900D1124680F791F078CF0A108
:100D7000E02DE60FF71F4770552781E090E001C096
:100D8000880F4A95EAF780959081892323C0CA018C
:100D900057FD07969C0183E0359527958A95E1F7E5
:100DA000A481B5812A9FC0012B9F900D3A9F900D81
:100DB0001124680F791F078CF0A1E02DE60FF71FB3
:100DC0004770552781E090E001C0880F4A95EAF707
:100DD0009081892780830895813009F086CF642728
:100DE0007527462757276427752784819581DC015D
:100DF000A61BB70BBD016150710977CF08951F93F2
:100E0000CF93DF93EC01162F8D8D9E8D892BB1F042
:100E10002FA938AD49AD5AAD60E072E18AE790E0A4
:100E20000E943F1CDA01C9014097A109B109B6959A
:100E3000A795979587958093B8000FC08B8D9C8D53
:100E4000892B21F08DA99EA90E942915EFA5F8A94B
:100E500090818CA9809589238083111102C066EA54
:100E600001C067EACE010E94C6148D8D9E8D892B2C
:100E7000B1F02BAD3CAD4DAD5EAD60E072E18AE707
:100E800090E00E943F1CDA01C9014097A109B10915
:100E9000B695A795979587958093B8000FC0EFA555
:100EA000F8A990818CA9892B80838B8D9C8D892BAF
:100EB00029F0DF91CF911F910C94BE14DF91CF9157
:100EC0001F9108950E94811E0F931F93CF93DF936C
:100ED000DC015696EC915697E23071F0E330E9F080
:100EE000E13079F5FB0114960D90BC91A02DA41B67
:100EF000B50BA21BB30B18C0EC01EC81FD81E61B06
:100F0000F70BBF0161507109EE81FF81DF01A41B66
:100F1000B50BAD01421B530B14C0DA01EC01EE819D
:100F2000FF81E61BF70B3197F7FD0DC0EC014E81F9
:100F30005F81E417F5073CF4AF01BD010E94B10EDB
:100F400002C00E94180FDF91CF911F910F91089559
:100F50000F931F93DC015696EC915697E23061F0A7
:100F6000E33009F1E13081F51496ED91FC9115978C
:100F7000E41BF50B319723C0DC011496ED91FC9135
:100F80001597DF01A61BB70BBD01DC011696ED918D
:100F9000FC911797DF01A41BB50BAD01415051091E
:100FA000621B730B11C0FA01DC0116964D915C9126
:100FB0001797DA01A61BB70BBD01621B730BAB01C0
:100FC000BF010E94180F0CC057FD0AC0DC01169625
:100FD000ED91FC9117974E175F0714F40E94B10E24
:100FE0001F910F9108953FB7F89480915802909106
:100FF0005902A0915A02B0915B0226B5A89B05C088
:101000002F3F19F00196A11DB11D3FBFBA2FA92F87
:10101000982F8827820F911DA11DB11DBC01CD0104
:1010200043E0660F771F881F991F4A95D1F70895EF
:101030001F920F920FB60F9211242F933F938F930D
:101040009F93AF93BF938091540290915502A091CA
:101050005602B09157023091530226E0230F2D37EC
:1010600020F40296A11DB11D05C029E8230F0396A7
:10107000A11DB11D209353028093540290935502F9
:10108000A0935602B0935702809158029091590252
:10109000A0915A02B0915B020196A11DB11D8093EF
:1010A000580290935902A0935A02B0935B02BF91E9
:1010B000AF919F918F913F912F910F900FBE0F9005
:1010C0001F9018950F931F93CF93DF93EC018881A6
:1010D0009981009729F02A813B812617370788F4E8
:1010E0008B016F5F7F4F0E94BB1D009761F099835A
:1010F00088831B830A832C813D81232B11F4FC01FF
:10110000108281E001C080E0DF91CF911F910F91AB
:101110000895CF93DF93EC0188819981009711F0B6
:101120000E94321D198218821D821C821B821A8223
:10113000DF91CF910895EF92FF920F931F93CF937A
:10114000DF93EC01198218821B821A821D821C8295
:101150006115710521F18B01FB0101900020E9F778
:1011600031977F01E61AF70AB7010E9462088111E0
:1011700009C0CE01DF91CF911F910F91FF90EF90A9
:101180000C948908FD82EC82B80188819981DF91F5
:10119000CF911F910F91FF90EF900C94961EDF91CD
:1011A000CF911F910F91FF90EF9008951F920F9292
:1011B0000FB60F9211242F933F934F935F936F932A
:1011C0007F938F939F93AF93BF93EF93FF93E091A0
:1011D0005E02F0915F02309709F451C0968DA685AA
:1011E000B785858591FF04C09C91892329F447C068
:1011F0009C91892309F043C0A389B4899C91858976
:10120000809589238C93868997890197F1F7608D62
:10121000718DA685B785558538E020E0CB01019713
:10122000F1F7822F90E095958795282F4C914523D3
:1012300009F02068315091F7868D81FD20958091CD
:101240005D0290E001968F73992730915C02381708
:1012500049F0A0915D02B0E0AE5EBD4F2C9380934B
:101260005D0203C0868D8160868F828D938D01978C
:10127000F1F7A389B4899C918589892B8C93FF917F
:10128000EF91BF91AF919F918F917F916F915F91FE
:101290004F913F912F910F900FBE0F901F90189577
:1012A000E0915E02F0915F02E817F90769F4A38903
:1012B000B4899C918589809589238C9310925F02D3
:1012C00010925E0281E0089580E00895CF92DF924F
:1012D000EF92FF920F931F93CF93DF9300D000D034
:1012E00000D0CDB7DEB76C017B010E94841710924D
:1012F00059031092580310925B0310925A0365EF42
:1013000071E0CE0101960E949B08D70114960D91C1
:101310001C911597ED90FC90E114F10409F480C143
:1013200001151105B9F08D819E81080F191FB801B3
:10133000CE0101960E946208882309F471C12981B7
:101340003A818D819E81B701820F931F0E94961E64
:101350001E830D830D811E810F5F1F4FB801CE01CB
:1013600001960E946208882309F45FC129813A81AD
:101370008D819E8167E072E0820F931F0E94961E0E
:101380001E830D83CE0101960E946B1789819A817D
:101390000E94321DEE24E394F12C07E010E028E7D0
:1013A00030E047E050E060E070E08CE493E00E94C1
:1013B0000511109259031092580388E090E0909321
:1013C0005B0380935A03C6010E946B1780916903E7
:1013D00090916A03892BD1F020918303309184038B
:1013E000409185035091860360E072E18AE790E0C6
:1013F0000E943F1CDA01C9014097A109B109B695C5
:10140000A795979587958093B80016C0809167033C
:1014100090916803892B31F0809181039091820330
:101420000E942915E0917B03F0917C0390818091CB
:10143000800380958923808365E082E59AE00E949D
:10144000B6166091500361508CE493E00E94C6147C
:101450002091520330915303C901079697FD0796D7
:1014600033E0959587953A95E1F7209150033091B7
:101470005103829F7001839FF00C929FF00C112406
:1014800000916B0310916C038091690390916A0342
:10149000E00EF11E009709F44EC020916D0331E07B
:1014A0003093EA0220930C031092EB0210920D038A
:1014B000DC01ED91FC910190F081E02D60E4099553
:1014C000DD24D394CC24C3948091690390916A0362
:1014D000E016F10669F1BFE1BD15D0F40E945A167D
:1014E00080916D03C092EA0280930C031092EB028C
:1014F00010920D038091690390916A03DC01ED91D4
:10150000FC910190F081E02D60E40995DD24D394F5
:101510008091690390916A03F80161918F01DC0168
:10152000ED91FC910190F081E02D0995D394CCCF01
:101530000E945A1643C0E0917903F0917A0390819A
:1015400080917F03892B80830E151F05B9F1F80167
:1015500081918F012091670330916803232B19F04B
:101560000E94BF14F1CF28E030E040E8E09175031D
:10157000F091760390917D03582F542319F05081F8
:10158000952B03C05081909595239083E09177032C
:10159000F0917803508190917E03952B9083E09198
:1015A0007703F0917803508190917E039095952375
:1015B0009083469521503109C9F6C6CF80916903C1
:1015C00090916A03892BD1F0209187033091880391
:1015D0004091890350918A0360E072E18AE790E0CC
:1015E0000E943F1CDA01C9014097A109B109B695D3
:1015F000A795979587958093B8001CC0E0917B03D1
:10160000F0917C03908180918003892B808380916D
:10161000670390916803892B69F00E94BE140AC089
:10162000CE0101960E94890895CECE0101960E94B6
:101630008908A8CE26960FB6F894DEBF0FBECDBFA0
:10164000DF91CF911F910F91FF90EF90DF90CF909E
:1016500008950F931F93CF93DF938C01611571054C
:1016600061F0FB0101900020E9F73197AF01461BC3
:10167000570B0E947605EC0102C0C0E0D0E042E0CA
:1016800050E069E072E0C8010E9476058C0F9D1F52
:10169000DF91CF911F910F910895CF93DF93EC01CC
:1016A0009A01AB011B8E1A8E198E188E1F8A1E8A04
:1016B00060E874E88EE190E00E94611CF90124303A
:1016C000310518F0C901039702C081E090E09D8FB9
:1016D0008C8F6C85663108F06AC0C9019695879534
:1016E0008431910510F0439702C081E090E09F8B18
:1016F0008E8B369718F0C901059702C081E090E003
:10170000998F888FC901880F991F280F391F369527
:101710002795369527952D30310518F02C50310935
:1017200002C021E030E03B8F2A8F309168006830A2
:1017300058F021E06E3008F420E091E0892F01C0DC
:10174000880F2A95EAF701C084E0832B8093680014
:101750009C85983038F09E3040F0963148F020E07B
:1017600030E008C02DE630E005C02BE630E002C0D6
:101770002CE630E03C8B2B8B983030F481E001C0BC
:10178000880F9A95EAF70EC0292F30E09E3018F4A2
:101790002850310902C02E50310981E001C0880F64
:1017A0002A95EAF78D8B8C8D9D8D0197F1F78A8DA7
:1017B0009B8D892BE1F080915E0290915F02C817AA
:1017C000D907A9F0009711F00E9450098E8D8E7FE5
:1017D0008E8F10925D0210925C02D0935F02C093D4
:1017E0005E02EB89FC8990818D89892B8083DF9152
:1017F000CF9108953F924F925F926F927F928F9216
:101800009F92AF92BF92CF92DF92EF92FF920F938F
:101810001F93CF93DF9300D000D000D0CDB7DEB7B9
:101820002C013B014A015901C901079697FD079612
:101830009C0193E0359527959A95E1F73C832B839E
:10184000C12CD12CE12CF12C312CC3018E0D9F1D0C
:101850009A838983E016F106C4F51E821D822D81CC
:101860003E812A153B054CF5C90187709927892BC4
:1018700011F0330C0EC0ED81FE81F7FD379683E049
:10188000F595E7958A95E1F7EC0DFD1DE80DF91D3D
:10189000349037FE0CC021E030E049815A816D81DF
:1018A0007E81640D751D8CE493E00E946E128D8123
:1018B0009E8101969E838D83D2CF9FEFE91AF90A0C
:1018C0002B813C81C20ED31EC0CF26960FB6F89452
:1018D000DEBF0FBECDBFDF91CF911F910F91FF9063
:1018E000EF90DF90CF90BF90AF909F908F907F90C0
:1018F0006F905F904F903F9008952F923F924F923C
:101900005F926F927F928F929F92AF92BF92CF928F
:10191000DF92EF92FF920F931F93CF93DF93CDB798
:10192000DEB76B970FB6F894DEBF0FBECDBF9B8FAF
:101930008A8F1B014A01D22E198708873701A98295
:10194000DC0159962D913C915A972115310509F0EA
:10195000FFC018968D919C911997681779070CF024
:10196000E7C11A968D919C911B97481759070CF067
:10197000DFC1EC2DF0E0FB83EA839B0146E0C49ECF
:10198000200D311D11243D872C87121613060CF0F3
:10199000CFC16A2D70E07B876A8783E0660F771F6F
:1019A0008A95E1F77F876E87CB01880D991D181600
:1019B00019060CF0BDC158968C91811104C08FEAB4
:1019C0008D1508F4D394AA8DBB8DED91FC911197E0
:1019D0000284F385E02DCD010995B5E0DB9EC001C1
:1019E0001124EC2DF0E0F98BE88B91012B5F3F4F38
:1019F0003B8B2A8B3D822C822101AC014219530979
:101A00005D8B4C8B7981672F70E07F8B6E8BC4016F
:101A10000896998F888FEC89FD89E40DF51DEE5AA3
:101A2000FA4FD49054019F828E82D0FE16C0AA8DA8
:101A3000BB8DED91FC91B1E0CB1209C02981213021
:101A400031F40484F585E02D2885398519C0068494
:101A5000F785E02DE884F9841DC048855985461531
:101A6000570519F1AA8DBB8DED91FC91B1E0CB1218
:101A70000DC02981213051F40484F585E02D9301B6
:101A8000A501B2018A8D9B8D09950FC00684F7854B
:101A9000E02D73010A851B852A813B814E815F8180
:101AA0006C817D818A8D9B8D0995D6943FEFA31A19
:101AB000B30A4E815F816E897F89460F571F5F830E
:101AC0004E83888D998DA816B90609F0AECF9FEF89
:101AD000491A590AAC81BD81E889F989AE0FBF1F47
:101AE000BD83AC832A893B894216530609F093CF04
:101AF000488559854615570509F4F8C0AA8DBB8D50
:101B0000ED91FC91B1E0CB1211C02981213071F42B
:101B1000B1016B5F7F4F0088F189E02D830128E0E0
:101B200030E0A4018A8D9B8D0995E0C06C857D8590
:101B30004A815B81641B750B0684F785E02D730178
:101B40000E851F859A01A4018A8D9B8D0995CEC0B3
:101B5000F9013496E491DE1AF90132968591949157
:101B6000B7E0DB9E800D911D1124F9012591349180
:101B70003B8B2A8BFC01259134915901FC01329653
:101B80005490319634913C873296749031961491EA
:101B900041E04C1518F05981523068F0672D072C40
:101BA000000C770B7D836C83812F012E000C990B29
:101BB0009B838A8304C01B821A821D821C82AA8D89
:101BC000BB8DED91FC9111970284F385E02DCD0141
:101BD0000995412CD12C612CF981EF2FF0E0FF8386
:101BE000EE832C2D30E03B872A87A401410F511D45
:101BF00017FD5A955F8B4E8BB101670D711D77FCF8
:101C00007A95798F688F7C85671608F06FC0262DCE
:101C100030E04A815B81420F531FAE81BF81A49F98
:101C2000C001A59F900DB49F900D1124F401E80F01
:101C3000F91FF98BE88B842D712C4E895F89420F37
:101C4000531F5D8B4C8B751408F04DC051E0580F3D
:101C50005E87877041F4C5010196EA89FB89EA0D28
:101C6000FB1DD4905C01D7FE3AC061E0C61216C0DD
:101C70007981713099F4AA8DBB8DED91FC9111970A
:101C80000484F585E02D288539854C895D89688D2A
:101C9000798D670D711DCD01099521C08C819D81C4
:101CA000870D911DEA85FB858E9FB0018F9F700D7A
:101CB0009E9F700D1124620D731DAA8DBB8DED9139
:101CC000FC9111970684F785E02DE884F9840E8154
:101CD0001F812A853B8548895989CD010995DD0CED
:101CE00073948E85B0CF450C63948DCFAA8DBB8D38
:101CF000ED91FC9111970688F789E02DCD016B9647
:101D00000FB6F894DEBF0FBECDBFDF91CF911F910C
:101D10000F91FF90EF90DF90CF90BF90AF909F908A
:101D20008F907F906F905F904F903F902F9009948D
:101D30006B960FB6F894DEBF0FBECDBFDF91CF918B
:101D40001F910F91FF90EF90DF90CF90BF90AF90D9
:101D50009F908F907F906F905F904F903F902F90CB
:101D600008950F931F93CF93DF9377FF04C0260F3F
:101D7000371F60E070E0DC011496CD91DC9115977F
:101D8000FB01E20FF31FCE17DF071CF49E01261B99
:101D9000370B121613060CF046C0FA0157FD3796A2
:101DA000DF01E3E0B595A795EA95E1F7AC9FF00177
:101DB000AD9FF00DBC9FF00D11246E0F7F1FDC0155
:101DC0005F96ED91FC919097E60FF71F47705527AE
:101DD00081E090E001C0880F4A95EAF7482F013072
:101DE000110539F078F002301105E9F42E0F3F1F8C
:101DF00013C02E0F3F1FE217F307A9F08081842B39
:101E00008193F9CF80952E0F3F1FE217F30759F00A
:101E1000908198239193F9CFE217F30721F0808105
:101E200084278193F9CFDF91CF911F910F9108956E
:101E3000EF92FF920F931F93CF93DF93EC0177FD07
:101E4000A5C0EC80FD806E157F050CF09FC057FF8C
:101E500004C0240F351F40E050E08E819F81FA01BD
:101E6000E20FF31F8E179F071CF49C01241B350BF8
:101E7000121613060CF08AC0922F842F8695869531
:101E800086958E9DD0018F9DB00D11246A0F7B1F0A
:101E9000AF8DB8A1A60FB71F4770B1F188E0841BC2
:101EA000482F682F70E0FB01E65BFA4FE49128179A
:101EB00098F4621B71092FEF30E002C03595279529
:101EC0006A95E2F7E2230130110549F078F002301B
:101ED000110509F05BC00EC00130110519F48C9199
:101EE000E82B0AC00130110508F049C0E0958C913B
:101EF000E82302C08C91E827EC93941708F446C0BD
:101F00002C813D81A20FB31FE92FE41BE830F8F0CC
:101F10000230110561F48E2F9C9190959C932C8139
:101F20003D81A20FB31F88508830B0F70FC081E009
:101F30000115110509F480E081959E2F8C932C8169
:101F40003D81A20FB31F98509830C0F7E770EE2381
:101F5000E9F0F0E0EE5BFA4FE4910130110539F061
:101F600048F00230110591F48C91E82706C08C915D
:101F7000E82B03C0E0958C91E823EC9307C0023076
:101F8000110509F4B7CFAE0DBF1DBECFDF91CF91C4
:101F90001F910F91FF90EF90089590E0FC01E25D9A
:101FA000FA4F2491FC01E158F54F3491FC01E559B9
:101FB000F54FE491EE2309F43CC0222339F123309C
:101FC00091F038F42130A9F0223001F584B58F7DED
:101FD00012C0273091F02830A1F02430B9F480915C
:101FE00080008F7D03C0809180008F778093800078
:101FF0000DC084B58F7784BD09C08091B0008F7704
:1020000003C08091B0008F7D8093B000F0E0EE0FB0
:10201000FF1FEF59F54FA591B4919FB7F894611147
:1020200004C08C913095382302C0EC913E2B3C9338
:102030009FBF0895CF93DF9390E0FC01E158F54FE7
:102040002491FC01E559F54F8491882361F190E0DA
:10205000880F991FFC01EC5DFA4FC591D491FC01EA
:10206000EF59F54FA591B491611109C09FB7F8944C
:102070008881209582238883EC912E230BC06230C7
:1020800061F49FB7F8948881322F30958323888339
:10209000EC912E2B2C939FBF06C08FB7F894E8814C
:1020A0002E2B28838FBFDF91CF9108958F929F921F
:1020B000AF92BF92CF92DF92EF92FF926B017C01C1
:1020C0000E94F3074B015C01C114D104E104F10447
:1020D000F1F00E94F307DC01CB0188199909AA09E4
:1020E000BB09883E9340A105B10570F321E0C21AF7
:1020F000D108E108F10888EE880E83E0981EA11C43
:10210000B11CC114D104E104F10419F7DDCFFF9033
:10211000EF90DF90CF90BF90AF909F908F900895F9
:102120000895FC016370668B8481958126813781D7
:10213000613039F0633029F09187808733872287B7
:102140000895318720879387828708956F927F92C1
:102150008F929F92AF92BF92CF92DF92EF92FF92B7
:102160000F931F93CF93DF93EC014B015A01690149
:102170003801E881F9810284F385E02D0995E88131
:10218000F9810288F389E02D87019601A501B40148
:10219000CE010995A501460D571D41505109E88111
:1021A000F9810288F389E02D9601B401CE010995E9
:1021B000E881F9810088F189E02D9301A501B4013E
:1021C000CE010995C80CD91CB60161507109E8818E
:1021D000F9810088F189E02D9301A501CE010995CF
:1021E000E881F9810688F789E02DCE01DF91CF9152
:1021F0001F910F91FF90EF90DF90CF90BF90AF9025
:102200009F908F907F906F9009948F929F92AF9242
:10221000BF92CF92DF92EF92FF920F931F93CF93D3
:10222000DF934C016B015A01E901DC01ED91FC9156
:102230006217730781F40417150724F48B2D5801D6
:10224000042F182F0A191B0998012F5F3F4F048C88
:10225000F58DE02D12C04017510709F526173707F5
:1022600024F48D2D6901C62FD82F9E012C193D090C
:102270002F5F3F4F068CF78DE02D8701A501B6013A
:10228000C4010995DF91CF911F910F91FF90EF90BD
:10229000DF90CF90BF90AF909F908F900895028471
:1022A000F385E02D0995D401ED91FC910488F58921
:1022B000E02D9E01A501B601C4010995D401ED915F
:1022C000FC910688F789E02DC401DF91CF911F9121
:1022D0000F91FF90EF90DF90CF90BF90AF909F90C5
:1022E0008F900994EF92FF920F931F93DC011A963F
:1022F0000D911C911B9718962D913C911997ED917A
:10230000FC9100A0F1A1E02D7B0140E050E060E0F5
:1023100070E009951F910F91FF90EF9008954F92F3
:102320005F926F927F928F929F92AF92BF92CF9265
:10233000DF92EF92FF920F931F93CF93DF936C0185
:102340002B015A0139014801DC01ED91FC91028415
:10235000F385E02D0995E201640C751CD601ED9121
:10236000FC91C615D7055CF40088F189E02D870142
:102370009401A501BE01C60109952196EFCF0688FB
:10238000F789E02DC601DF91CF911F910F91FF904A
:10239000EF90DF90CF90BF90AF909F908F907F9005
:1023A0006F905F904F9009948F929F92AF92BF92DF
:1023B000CF92DF92EF92FF920F931F93CF93DF9311
:1023C000EC015B014A016901E881F9810284F3852E
:1023D000E02D099595012C0D3D1D21503109E88115
:1023E000F9810488F589E02D78018401A401B50103
:1023F000CE010995E881F9810688F789E02DCE01A3
:10240000DF91CF911F910F91FF90EF90DF90CF90D0
:10241000BF90AF909F908F9009948F929F92AF92B0
:10242000BF92CF92DF92EF92FF920F931F93CF93C1
:10243000DF93EC015B014A0169017801E881F981D0
:102440000284F385E02D0995C80CD91C8601015042
:102450001109E881F9810488F589E02D9501A4012D
:10246000B501CE010995E881F9810688F789E02D4B
:10247000CE01DF91CF911F910F91FF90EF90DF90F0
:10248000CF90BF90AF909F908F900994EF92FF9262
:102490000F931F93DC01ED91FC9100A0F1A1E02DC1
:1024A00009951F910F91FF90EF9008950F931F933F
:1024B000DC01ED91FC91068CF78DE02D09951F91C3
:1024C0000F9108950F931F93DC01ED91FC91048C03
:1024D000F58DE02D09951F910F910895DC01ED9187
:1024E000FC910084F185E02D09942F923F924F9248
:1024F0005F926F927F928F929F92AF92BF92CF9294
:10250000DF92EF92FF920F931F93CF93DF9300D050
:1025100000D000D0CDB7DEB72C017E836D836A0179
:102520005901C801FC82EB824801841A950A97FE82
:1025300003C091948194910835012D813E81621AE6
:10254000730A77FE03C0719461947108681479046A
:102550005CF43A2D2B2D5C01832F922F3D812E812F
:10256000DE82CD82C32ED22EAD81BE81AA16BB06DD
:102570005CF43C2D2D2D6C01832F922F3D812E81FB
:10258000BE82AD82A32EB22E85012D813E81021B1B
:10259000130B1C012C183D0837FE03C03194219405
:1025A0003108780117FF03C03FEFE31AF30AF594EF
:1025B000E794C816D9062CF08FEF9FEF9A83898392
:1025C00004C0A1E0B0E0BA83A9832D813E81A216A8
:1025D000B30624F1D201ED91FC910484F585E02D40
:1025E0002B813C816814790424F44D815E81B6010D
:1025F00003C0A6016D817E81C2010995E218F3082E
:10260000F7FE06C029813A81C20ED31EE00EF11EEC
:102610008D819E8101969E838D83D7CF26960FB69E
:10262000F894DEBF0FBECDBFDF91CF911F910F9108
:10263000FF90EF90DF90CF90BF90AF909F908F90E2
:102640007F906F905F904F903F902F90089585ED11
:102650008093BC008091BC0084FDFCCF1092E90205
:1026600008954091A002262F30E0240F311D213221
:102670003105DCF42091E9022430C9F4FC0180E04A
:1026800090E0861758F43091A0022191DC01A05807
:10269000BD4FA30FB11D2C930196F3CF8091A002E3
:1026A000680F6093A00280E0089581E0089582E0C1
:1026B000089508950895E091110280911002E8179D
:1026C00030F4F0E0E05AFD4F808190E008958FEF04
:1026D0009FEF08959091110280911002981750F485
:1026E000E92FF0E0E05AFD4F208130E09F5F9093AA
:1026F000110202C02FEF3FEFC9010895809110022F
:1027000090E020911102821B91090895CF92DF92EF
:10271000EF92FF920F931F93CF93DF937C01CB0136
:102720008A012091EA02222389F0EB016B01C40E99
:10273000D51ECC15DD0569F06991D701ED91FC91AD
:102740000190F081E02DC7010995F3CF642F0E941D
:102750003113C801DF91CF911F910F91FF90EF903E
:10276000DF90CF900895CF93DF931F92CDB7DEB760
:1027700069832091EA022223D1F020910D032032B7
:1027800040F021E030E0FC013383228380E090E0E0
:1027900015C08091EB02E82FF0E0E451FD4F9981E4
:1027A00090838F5F8093EB0280930D0305C061E0FF
:1027B000CE0101960E94311381E090E00F90DF91ED
:1027C000CF910895089580E090E008958F929F92B0
:1027D000AF92CF92EF92FF920F931F93CF93DF931D
:1027E000EC01262F898D9A8D009709F042C06A303E
:1027F00059F41D861C862D898E859F8538E0239F80
:10280000800D911D112443C06D3009F4AAC08F8939
:102810008823C9F03C898C859D8546E0349F800DD6
:10282000911D1124488559854817590764F41D8660
:102830001C863D898E859F8548E0349F800D911DC3
:1028400011249F878E87EA88FB88088919894E851D
:102850005F856C857D85AD88CC88CE010E947D0C1E
:102860002C898C859D8536E0239F800D911D112438
:102870003EC06A3079F41D861C862D89FC0136968F
:10288000E4918E859F852E9F800D911D11249F8739
:102890008E8767C06D3009F464C0FC0134963491B2
:1028A000631708F45EC03196E491E61708F459C046
:1028B000462F431B342FFC0132968590949047E0BD
:1028C000349F800C911C1124F4013296349131967E
:1028D000E491332311F0E1110DC0F4013496E49139
:1028E0002C898C859D85E29F800D911D11249D87EB
:1028F0008C8737C0F401359644915F89552319F1CF
:102900005C89E32FF0E0E40FF11D47FDFA955E9F2F
:10291000B0015F9F700D11244C855D85460F571FD8
:10292000688579856417750774F41D861C863D8952
:10293000FC013696E4918E859F853E9F800D911D0A
:1029400011249F878E87EA88FB88088919894E851C
:102950005F856C857D85AD88CC88CE010E947D0C1D
:10296000BCCF81E090E0DF91CF911F910F91FF905C
:10297000EF90CF90AF909F908F90089508958EBD67
:1029800000000DB407FEFDCF8EB508951F93CF93C1
:10299000DF93FC01858D968D009729F1162FEF01AD
:1029A00021A131E03093EA0220930C031092EB0254
:1029B00010920D03DC01ED91FC910190F081E02D6E
:1029C00060E009958D8D9E8DDC01ED91FC9101906B
:1029D000F081E02D612F09958D8D9E8DDF91CF9136
:1029E0001F910C945A16A5A5B6A59C9183A9809514
:1029F00089238C93838D948D892B31F0862FDF91E1
:102A0000CF911F910C94BF1428E030E080E8A1A57D
:102A1000B2A591A9462F482319F04C91942B03C0DD
:102A20004C91909594239C93A3A5B4A54C9192A905
:102A3000942B9C93A3A5B4A54C9192A99095942313
:102A40009C9386952150310911F7DF91CF911F9109
:102A500008958CBD9DBD08951F920F920FB60F92E1
:102A600011242F933F934F935F936F937F938F9393
:102A70009F93AF93BF93EF93FF938091B900887FAB
:102A8000803609F49CC068F5883209F45BC090F484
:102A9000803109F454C038F4882309F4F6C0883032
:102AA00009F44DC0F6C0883109F44CC0803209F4F5
:102AB0005DC0EFC0803409F468C048F4803309F485
:102AC00055C0883309F0E5C08093E702D8C080354F
:102AD00009F44FC0883509F45DC0883409F0D9C0C5
:102AE000D6C0883909F4C7C0A8F4883709F467C08C
:102AF00038F4883609F463C0803709F460C0C9C06F
:102B0000883809F4B8C0803909F45FC0803809F00A
:102B1000C0C05BC0803B09F486C038F4803A09F439
:102B200066C0883A09F47FC0B4C0803C09F4A7C0ED
:102B3000883C09F4A4C0883B09F48AC0AAC08091EB
:102B4000C40210C09091E6028091E502981770F5DA
:102B5000E091E60281E08E0F8093E602F0E0EB5315
:102B6000FD4F80818093BB0085EC86C08093E70297
:102B70008EC0E091E60281E08E0F8093E6028091A4
:102B8000BB00F0E0EB53FD4F80839091E602809113
:102B9000E5026EC0E091E60281E08E0F8093E602CE
:102BA0008091BB00F0E0EB53FD4F80838091E80201
:102BB00081116DC081E08093C30284EA61C083E02B
:102BC0008093E9021092C202CFCF8091C20280327C
:102BD00008F051C0E091C20281E08E0F8093C202E2
:102BE0008091BB00F0E0EE55FD4F8083BDCF85ECBA
:102BF0008093BC001092E9028091C202803230F4CE
:102C0000E091C202F0E0EE55FD4F10826091C202E9
:102C100070E0E0910C02F0910D0282EA92E00995D9
:102C20001092C20236C084E08093E9021092A102A1
:102C30001092A002E0910E02F0910F02099580918E
:102C4000A002811105C081E08093A0021092800251
:102C5000E091A10281E08E0F8093A102F0E0E058A4
:102C6000FD4F80818093BB009091A1028091A002D2
:102C7000981708F479CF85E88093BC000AC085ECEA
:102C80008093BC001092E90204C01092E7020E94F7
:102C90002713FF91EF91BF91AF919F918F917F91FA
:102CA0006F915F914F913F912F910F900FBE0F90B9
:102CB0001F90189530910D03313208F04BC0809170
:102CC000E9028111FCCF90910C0322E02093E902EC
:102CD00021E02093E8022FEF2093E7021092E60212
:102CE0003093E502ECEEF2E0A5ECB2E020E0321722
:102CF00021F041914D932F5FFACF1092C4022091A1
:102D0000C402990F922B9093C4029091C302913008
:102D100061F41092C3029091C4029093BB00909111
:102D2000BC0093FDF8CF95EC01C095EE9093BC00EC
:102D30009091E9029230E1F39091E7029F3F79F0A0
:102D40008091E702803241F08091E702803331F0D8
:102D500084E005C081E003C082E001C083E01092FE
:102D6000EB0210920D031092EA020895DF92EF92A7
:102D7000FF920F931F93CF93DF93D82ED92FC62F97
:102D80008091690390916A03009709F454C02091DF
:102D90006D0331E03093EA0220930C031092EB02B2
:102DA00010920D03DC01ED91FC910190F081E02D7A
:102DB00060E00995ED2CFD2E11E0D1E080916903D2
:102DC00090916A03CC2371F11032C8F00E945A1618
:102DD00080916D03D093EA0280930C031092EB0272
:102DE00010920D038091690390916A03DC01ED91CB
:102DF000FC910190F081E02D60E0099511E0809157
:102E0000690390916A03F7016491DC01ED91FC91F3
:102E10000190F081E02D09951F5FC150BFEFEB1AC3
:102E2000FB0ACCCFDF91CF911F910F91FF90EF90D4
:102E3000DF900C945A16E0917903F0917A03908117
:102E400080917F038095892380830D2D1D2FCC23B6
:102E500009F439C0F8018491209167033091680327
:102E6000232B31F00E94BF14C1500F5F1F4FEFCFD3
:102E700028E030E040E8E0917503F091760390910E
:102E80007D03582F542319F05081952B03C0508196
:102E9000909595239083E0917703F091780350818A
:102EA00090917E03952B9083E0917703F0917803C6
:102EB000508190917E039095952390834695215063
:102EC0003109C9F6D1CFDF91CF911F910F91FF90BA
:102ED000EF90DF900895CF93DF93FC0144815581FB
:102EE000608171818CE493E00E947605EC0142E000
:102EF00050E069E072E08CE493E00E9476058C0F6C
:102F00009D1FDF91CF91089520915203309153037B
:102F1000C901079697FD079623E0959587952A9511
:102F2000E1F72091500330915103829FA001839FCC
:102F3000500D929F500D112460E070E080916B0362
:102F400090916C030C948F1ECF93DF93CDB7DEB7B7
:102F50002C970FB6F894DEBF0FBECDBF789484B522
:102F6000826084BD84B5816084BD85B5826085BD85
:102F700085B5816085BD80916E00816080936E0013
:102F80001092810080918100826080938100809105
:102F900081008160809381008091800081608093B6
:102FA00080008091B10084608093B1008091B00076
:102FB00081608093B00080917A00846080937A0071
:102FC00080917A00826080937A0080917A008E7F6F
:102FD00080937A0080917A00806880937A001092C2
:102FE000C10080916B0390916C03892B11F52091A6
:102FF000520330915303C901079697FD079623E0CA
:10300000959587952A95E1F72091500330915103CA
:10301000AC01429FC001439F900D529F900D11241F
:103020000E949A1C90936C0380936B03892B09F484
:1030300010C10E94841780915203909153038132F2
:1030400091050CF4BDC1BC016054710977FF02C049
:103050006F5F7F4F759567958091500390915103F5
:103060008255910997FD019600E410E022E530E0D9
:1030700044E652E0959587950E94FA0B82E0809392
:103080006E038091690390916A03892B09F4B0C1A2
:103090008CE380936D031092110210921002109233
:1030A000EB0210920D031092E90281E08093E80296
:1030B0001092C30261E082E10E94CD0F61E083E1E2
:1030C0000E94CD0F8091B9008E7F8093B9008091CE
:1030D000B9008D7F8093B90080E28093B80085E4C9
:1030E0008093BC0089E593E190930F0280930E02D8
:1030F0008AE593E190930D0280930C028091740312
:1031000087FD1EC061E00E941A1061E08091740387
:103110000E94CD0F61E070E080E090E00E945610C8
:1031200060E0809174030E94CD0F6AE070E080E05F
:1031300090E00E94561061E0809174030E94CD0FD0
:103140008091690390916A03892B09F410C2209140
:10315000830330918403409185035091860360E09E
:1031600072E18AE790E00E943F1CDA01C9014097B2
:10317000A109B109B695A795979587958093B80051
:1031800064E080E890E00E94B616609152036150BE
:103190008CE493E00E94C61464E08CE790E00E9407
:1031A000B61680916E03813009F4F8C164E18CE4B5
:1031B00093E00E94C61464E088E790E00E94B6168F
:1031C00080915003909151038038910509F0F9C125
:1031D00080915203909153038032910509F0E0C130
:1031E00064E084E790E00E94B61669ED8CE493E019
:1031F0000E94C61480916E03813009F4FEC161EF14
:103200008CE493E00E94C61466E088E690E00E9499
:10321000B6168091690390916A03892B09F4EFC176
:1032200020918703309188034091890350918A034C
:1032300060E072E18AE790E00E943F1CDA01C90178
:103240004097A109B109B695A79597958795809361
:10325000B80061E08DE00E941A1061E08DE00E94EC
:10326000CD0F0E94841781E08093600380936103F7
:1032700021E030E030935F0320935E0330935D03E1
:1032800020935C038093640366E571E0CE010196B0
:103290000E949B086AE571E0CE0107960E949B0898
:1032A000BE016F5F7F4FCE0107960E9466098F8136
:1032B00098850E94321D89819A810E94321D40E8C2
:1032C00055E260E070E08DE293E00E944D0B6DE608
:1032D00071E08DE293E00E94290B68EE73E080E0DC
:1032E00090E00E94561066E771E08DE293E00E9444
:1032F000290B68EE73E080E090E00E94561064E8CD
:1033000071E08DE293E00E94290B68EE73E080E0AB
:1033100090E00E94561062E971E08DE293E00E9415
:10332000290B68EE73E080E090E00E94561066EA98
:1033300071E08DE293E00E94290B68EE73E080E07B
:1033400090E00E9456106FEA71E0CE0101960E9453
:103350009B0864EB71E0CE0107960E949B08BE01BA
:103360006F5F7F4FCE0107960E9466098F81988517
:103370000E94321D89819A810E94321D40E052ECE8
:1033800061E070E08EE093E00E944D0B60EC71E034
:103390008EE093E00E94290B63EC71E08EE093E0F5
:1033A0000E94290B6FEC71E08EE093E00E94290BE4
:1033B00000E010E001151105E9F30E940000FACFCA
:1033C000BC016052710977FF02C06F5F7F4F759536
:1033D000679580915003909151038357910997FD10
:1033E000019600E210E023E730E044E850E042CEEE
:1033F00061E0809172030E941A1061E08091730372
:103400000E941A1080917203082E000C990BFC0187
:10341000E559F54FE491F0E0EE0FFF1FEF59F54F3E
:103420002591349130937A0320937903FC01E1587C
:10343000F54FE491E0937F0380917303082E000C15
:10344000990BFC01E559F54FE491F0E0EE0FFF1FF9
:10345000EF59F54FA591B491B0937C03A0937B03F2
:10346000FC01E158F54FE491E09380038C91E82B47
:10347000EC938091670390916803892B09F434C021
:103480001FB7F89480915202811127C0E5E7FAE056
:103490008491E9E8FAE09491E82FF0E0EE0FFF1F45
:1034A000EC5DFA4FA591B491EC91E92321F461E030
:1034B0008AE00E94CD0F61E08AE00E941A108CB56C
:1034C00080618CBD8CB580648CBD61E08DE00E9414
:1034D0001A1061E08BE00E941A10809152028F5FF7
:1034E000809352021FBF0ACE61E0809170030E9458
:1034F0001A1061E0809171030E941A10809170038C
:10350000082E000C990BFC01E559F54FE491F0E011
:10351000EE0FFF1FEF59F54F25913491309376034D
:1035200020937503FC01E158F54FE491E0937D038E
:1035300080917103082E000C990BFC01E559F54FA1
:10354000E491F0E0EE0FFF1FEF59F54FA591B49114
:10355000B0937803A0937703FC01E158F54FE49111
:10356000E0937E038C91E095E823EC93C7CD8091A6
:10357000670390916803892B31F0809181039091CA
:1035800082030E942915E0917B03F0917C039081D6
:1035900080918003809589238083F2CD60E107CEFE
:1035A0008034910509F021CE63E081E790E00E942C
:1035B000B61680916E03813011F06FEC19C06FE97F
:1035C00017C08036910509F010CE8091520390917A
:1035D0005303409709F009CE63E08EE690E00E9425
:1035E000B61680916E03813011F06FEA01C060E180
:1035F0008CE493E00E94C614F8CD62E201CEE09123
:103600007B03F0917C03908180918003892B8083E0
:103610008091670390916803892B09F41ACE0E9468
:10362000BE1417CECF93DF93CAE0D1E0D0930F033F
:10363000C0930E038EE093E00E945009D0932E03B6
:10364000C0932D038DE293E00E9450098EE291E039
:1036500090934D0380934C0380916B0390916C0386
:10366000009721F0DF91CF910C94321DDF91CF9123
:1036700008950F931F93CF93DF93EC01162F042F20
:103680001B821A8288EE93E0A0E0B0E08C839D83D9
:10369000AE83BF838AE091E0998388831F8A1E8A64
:1036A000198E188E1B8E1A8E1D8E1C8E6E8D6E7F3F
:1036B0006D7F6E8F6695617081E06827842F0E9410
:1036C000CD0F61E0802F0E941A10802F90E0FC0146
:1036D000E158F54FE491E88BFC01E559F54FE49191
:1036E000F0E0EE0FFF1FEF59F54F859194919A8B03
:1036F000898B60E0812F0E941A108E8D81FD04C09D
:1037000061E0812F0E94CD0F1C87812F90E0FC018A
:10371000E158F54FE491ED87FC01E559F54FE4914F
:10372000F0E0EE0FFF1FE95AF54F859194919F87C6
:103730008E87DF91CF911F910F910895ABE8B3E091
:1037400013961C921E92129748EE53E060E070E0D0
:1037500014964D935D936D937C9317978CE191E054
:1037600011969C938E93ECE4F3E01382128220E88E
:1037700030E03583248380E290E09783868331872D
:10378000208793878287168A158614861786168661
:1037900091E0958B948B2FEF3FEF338B228B318B06
:1037A000208B978B108E128E118E2EE231E031839A
:1037B0002083148E138EB68FA58F10A2178E8FEFD5
:1037C00084A385A386A387A380A780E585AB96AB5A
:1037D00046E067E08DE293E00E94391B43E062E03F
:1037E0008EE093E00C94391B2F923F924F925F92A0
:1037F0006F927F928F929F92AF92BF92CF92DF9201
:10380000EF92FF920F931F93CF93DF93CDB7DEB765
:10381000CA1BDB0B0FB6F894DEBF0FBECDBF0994F9
:103820002A88398848885F846E847D848C849B8450
:10383000AA84B984C884DF80EE80FD800C811B815E
:10384000AA81B981CE0FD11D0FB6F894DEBF0FBE8D
:10385000CDBFED01089597FB072E16F4009407D015
:1038600077FD09D00E94801C07FC05D03EF490959E
:1038700081959F4F0895709561957F4F0895A1E2BE
:103880001A2EAA1BBB1BFD010DC0AA1FBB1FEE1FDA
:10389000FF1FA217B307E407F50720F0A21BB30B25
:1038A000E40BF50B661F771F881F991F1A9469F7A1
:1038B00060957095809590959B01AC01BD01CF01FD
:1038C0000895052E97FB1EF400940E94781C57FD66
:1038D00007D00E943F1C07FC03D04EF40C94781CC8
:1038E00050954095309521953F4F4F4F5F4F08952C
:1038F00090958095709561957F4F8F4F9F4F08955C
:10390000AA1BBB1B51E107C0AA1FBB1FA617B70705
:1039100010F0A61BB70B881F991F5A95A9F7809521
:103920009095BC01CD010895EE0FFF1F0590F49115
:10393000E02D09940F931F93CF93DF93823091056D
:1039400010F482E090E0E0919903F0919A0320E076
:1039500030E0A0E0B0E0309719F140815181028160
:10396000138148175907C8F08417950769F4109711
:1039700031F012960C93129713961C9327C0009364
:10398000990310939A0322C02115310519F04217AB
:10399000530718F49A01BD01EF01DF01F801DBCFF5
:1039A00021153105F9F0281B390B2430310580F43D
:1039B0008A819B816115710521F0FB0193838283CC
:1039C00004C090939A0380939903FE01329644C0F9
:1039D000FE01E20FF31F8193919322503109398345
:1039E00028833AC02091970330919803232B41F408
:1039F00020910201309103013093980320939703A3
:103A000020910001309101012115310541F42DB7BC
:103A10003EB74091040150910501241B350BE09104
:103A20009703F0919803E217F307A0F42E1B3F0BC6
:103A30002817390778F0AC014E5F5F4F2417350720
:103A400048F04E0F5F1F5093980340939703819364
:103A5000919302C0E0E0F0E0CF01DF91CF911F91A0
:103A60000F910895CF93DF93009709F481C0FC0173
:103A7000329713821282A0919903B0919A03109702
:103A800081F420813181820F931F2091970330911F
:103A900098032817390751F5F0939803E09397039B
:103AA00067C0ED0120E030E0CE17DF0740F44A8127
:103AB0005B819E0141155105F1F0EA01F5CFD383F9
:103AC000C28340815181840F951FC817D90759F4CB
:103AD00088819981840F951F0296918380838A81C2
:103AE0009B81938382832115310529F4F0939A03F6
:103AF000E09399033DC0E901FB83EA834991599121
:103B0000C40FD51FEC17FD0761F480819181840FEC
:103B1000951F0296E90199838883828193819B8313
:103B20008A83E0E0F0E012968D919C9113970097C4
:103B300019F0FD01DC01F7CF8D919C9111979D014A
:103B40002E5F3F4F820F931F209197033091980370
:103B50002817390769F4309729F410929A031092C4
:103B6000990302C013821282B0939803A093970323
:103B7000DF91CF910895A0E0B0E0E1ECFDE10C947D
:103B8000F81BEC01009721F4CB010E949A1CB4C0F1
:103B9000FC01E60FF71F9C0122503109E217F307E1
:103BA00008F4A8C0D9010D911C91119706171707A9
:103BB000B0F00530110508F49BC0C80104978617C2
:103BC000970708F495C002501109061B170B0193C3
:103BD00011936D937C93CF010E94321D89C05B01CC
:103BE000A01AB10A4C01800E911EA0919903B091C8
:103BF0009A03612C712CE12CF12C109709F446C02A
:103C00008D919C911197A815B905B1F56C0142E011
:103C1000C40ED11CCA14DB0478F14C018A189B082D
:103C2000640142E0C40ED11C1296BC901297139608
:103C3000AC91B5E0CB16D10440F0B282A38391825F
:103C40008082D9016D937C9309C00E5F1F4F800F56
:103C5000911FF90191838083EB2DFA2FE114F10478
:103C600031F0D7011396FC93EE93129741C0F09375
:103C70009A03E09399033CC06816790608F43C0166
:103C80007D0112960D90BC91A02DB7CF8091970326
:103C90009091980388169906E1F466167706C8F4A1
:103CA0008091000190910101009741F48DB79EB77A
:103CB0004091040150910501841B950BE817F90709
:103CC000C8F4F0939803E0939703F901718360833C
:103CD0000FC0CB010E949A1C7C01009759F0A801EB
:103CE000BE010E94861ECE010E94321DC70104C083
:103CF000CE0102C080E090E0CDB7DEB7EEE00C94DC
:103D0000141C81E090E0F8940C949D1EFB01DC01F2
:103D100002C001900D9241505040D8F70895DC0147
:103D200001C06D9341505040E0F70895FB01DC0164
:103D300001900D920020E1F7089515E0CBE4D5E065
:103D400004C0FE010E94941C2196CC34D107C9F70F
:043D5000F894FFCF15
:103D540000009B03800000000000B9057605E31312
:103D6400B80509062106A00500000000B313861358
:103D7400E313B8057E136A135B1300000000E61317
:103D84007605E313E2134206B8056E124612621278
:103D940056127512B8059110FF066407A8078F1113
:103DA40072110511A610203330005072696E7469C7
:103DB4006E67206F6E2073637265656E0041542BCD
:103DC400524F4C45300041542B55554944307846A8
:103DD4004645300041542B434841523078464645CD
:103DE400310041542B4E414D45445649442D5445D0
:103DF4005354494E470041542B52455345540020D7
:103E04002036300054657374696E6720424C450057
:103E140041540041542B43574D4F44453D320041DA
:103E2400542B43575341505F4355523D2244564906
:103E3400442D54455354494E47222C22616161223A
:103E44002C352C300054455354494E472E2E2E2EDB
:0C3E54002E2E2E2E2E200025000D0A0020
:00000001FF
