:100000000C9447050C946F050C946F050C946F05C8
:100010000C946F050C946F050C946F050C946F0590
:100020000C946F050C946F050C946F050C946F0580
:100030000C946F050C946F050C946F050C946F0570
:100040000C949C100C946F050C94110D0C94EB0CFB
:100050000C946F050C946F050C946F050C946F0550
:100060000C940B0E0C946F05DB40A4A62EAFDA02A5
:1000700081DA1281DA02818F2000A1C8D300408D7D
:10008000AED580A800006000000000000000000065
:100090000000000000E00000000000000000000080
:1000A00000000001E000000000000000000000006F
:1000B000000001F00000000000000000000000004F
:1000C0000003F0000000000000000000000000003D
:1000D00007F0000000000000000000000000000722
:1000E000F8000000000000000000000000000FF811
:1000F00000000003C0007E000001E0007F0FF80058
:10010000000003C000FE000001E000FFEFF8000067
:100110000003C000FE000001E000FFFFF800000047
:1001200003C000F00000000F007FFE7FC00000034E
:10013000C000F00000000F003FFE7FF83FF1FBCF52
:10014000FCFEF3BC3DEFE01FFE7FFF7FFBFFDFFE09
:10015000FEFFBC3DEFE01FC6FFFF7FFBFFDFFEFEA3
:10016000FFBC3DEFE00FE3C7FE787BC3DE1EF0FF70
:10017000BC3DEF0007FF87FC787BC3DE1EF0F83C38
:100180003DEF0001FFFFF0007BC3C01EF0F03C3DDF
:10019000EF0001F37FE03FFBC3CFFEF0F03C3DEF0B
:1001A0000003E33F807FFBC3DFFEF0F03C3DEF0048
:1001B00007E73C00787BC3DE1EF0F03C3DEF000714
:1001C000FFBE00787BC3DE1EF0F03C3DEF0007FF72
:1001D000FE00787BC3DE1EF0F03C3DEF000FFFFE1B
:1001E000007FFBFFDFFEF0F03FFDEFE00FFFFF00C1
:1001F0007FFBFFDFFEF0F03FFDEFE00FF9FF003E79
:1002000079F9CF9EF0F01F3DE7E01FF1FF000000FD
:100210000000000000000000001F80FF007FFFFFC3
:10022000FFFFFFFFFFFFFFE01C007F007FFFFFFFDE
:10023000FEB46D888D18E000001F007FFFFFFFFEF9
:1002400095AD7DB577E000000F007FFFFFFFFEA5B5
:10025000AD9D8D19E0000006007FFFFFFFFEB5ADEC
:10026000EDB57EE00000000000018000000000000D
:1002700000000000038000000000000000000007F4
:10028000C000000000000000000007C000000000E7
:1002900000000000000FC00000000000000000008F
:1002A0001FE00000000000000000001FE000000050
:1002B0000000000000003FE000000000000000001F
:1002C000003FF00000000000000000007FF0000090
:1002D00000000000001FF87FF00000000000000098
:1002E0003FFE7FF0000000000000003FFF7FF000B5
:1002F0000000000000001FFFFBE000000000000005
:10030000000FFFF9FFC00000000000000FFFF9FF21
:10031000F800000000000007FFF1FFFF00000000F0
:10032000000003FC73FFFF80000000000001FE3F9F
:10033000FFFF80000000000000FF1E0FFF00000014
:10034000000000007FFE1FFC000000000000003FD6
:10035000FFFFF8000000000000000FDFFFE00000DA
:1003600000000000001F19FFC00000000000000096
:100370003F3CFF00000000000000007E7CF8000011
:100380000000000000007FFE7C0000000000000074
:1003900000FFFFFC0000000000000000FFFFFE0067
:1003A00000000000000000FFFFFE00000000000051
:1003B0000001FFEFFE0000000000000001FFCFFE83
:1003C0000000000000000003FF07FE000000000026
:1003D000000003FC07FE0000000000000003F00323
:1003E000FE00000000000000018000FE0000000090
:1003F0000000000000007E0000000000000000007F
:10040000003E000000000000000000000C000000A2
:10041000000000078000FC000003C000000007800F
:1004200001FC000003C0000000078001FC00000385
:10043000C0000000078001E00000001E000000076F
:100440008001E00000001E007FE3F79FF9FDE778E0
:100450007BDFC0FFF7FFBFFDFDFF787BDFC0FFF74D
:10046000FFBFFDFDFF787BDFC0F0F787BC3DE1FFFC
:10047000787BDE00F0F787BC3DE1F0787BDE0000A2
:10048000F787803DE1E0787BDE007FF7879FFDE125
:10049000E0787BDE00FFF787BFFDE1E0787BDE00E0
:1004A000F0F787BC3DE1E0787BDE00F0F787BC3DEC
:1004B000E1E0787BDE00F0F787BC3DE1E0787BDEB1
:1004C00000FFF7FFBFFDE1E07FFBDFC0FFF7FFBFED
:1004D000FDE1E07FFBDFC07CF3F39F3DE1E03E7B8D
:1004E000CFC00000000000000000000000FFFFFF80
:1004F000FFFFFFFFFFFFFFC0FFFFFFFFFD68DB11F6
:100500001A31C0FFFFFFFFFD2B5AFB6AEFC0FFFF50
:10051000FFFFFD4B5B3B1A33C0FFFFFFFFFD6B5B33
:10052000DB6AFDC0000000080002010000030407B0
:100530000000000000000000000103070F1F3F7FC4
:100540000080C0E0F0F8FCFE00000000003E5B4FC1
:100550005B3E3E6B4F6B3E1C3E7C3E1C183C7E3C23
:10056000181C577D571C1C5E7F5E1C00183C180031
:10057000FFE7C3E7FF0018241800FFE7DBE7FF30C1
:10058000483A060E2629792926407F050507407F2F
:1005900005253F5A3CE73C5A7F3E1C1C08081C1CA2
:1005A0003E7F14227F22145F5F005F5F06097F0198
:1005B0007F006689956A606060606094A2FFA29483
:1005C00008047E040810207E201008082A1C080851
:1005D0001C2A08081E101010100C1E0C1E0C30389F
:1005E0003E3830060E3E0E06000000000000005FA0
:1005F00000000007000700147F147F14242A7F2ABC
:10060000122313086462364956205000080703007D
:10061000001C2241000041221C002A1C7F1C2A08C9
:10062000083E08080080703000080808080800002C
:1006300060600020100804023E5149453E00427FA0
:10064000400072494949462141494D331814127FEF
:100650001027454545393C4A49493141211109078F
:100660003649494936464949291E00001400000010
:1006700040340000000814224114141414140041E2
:1006800022140802015909063E415D594E7C12119F
:10069000127C7F494949363E414141227F414141D7
:1006A0003E7F494949417F090909013E4141517352
:1006B0007F0808087F00417F41002040413F017FC3
:1006C000081422417F404040407F021C027F7F048B
:1006D00008107F3E4141413E7F090909063E4151D4
:1006E000215E7F09192946264949493203017F01C4
:1006F000033F4040403F1F2040201F3F4038403FC5
:10070000631408146303047804036159494D4300DA
:100710007F4141410204081020004141417F040211
:1007200001020440404040400003070800205454A8
:1007300078407F2844443838444444283844442886
:100740007F385454541800087E090218A4A49C78D9
:100750007F0804047800447D40002040403D007F35
:100760001028440000417F40007C047804787C0815
:100770000404783844444438FC18242418182424E9
:1007800018FC7C08040408485454542404043F44CE
:10079000243C4040207C1C2040201C3C4030403CFD
:1007A00044281028444C9090907C4464544C44005D
:1007B00008364100000077000000413608000201C1
:1007C0000204023C2623263C1EA1A161123A4040AD
:1007D000207A38545455592155557941225454782A
:1007E00042215554784020545579400C1E527212C3
:1007F000395555555939545454593955545458004C
:1008000000457C410002457D420001457C407D124F
:1008100011127DF0282528F07C54554500205454B1
:100820007C547C0A097F4932494949323A4444445C
:100830003A324A4848303A4141217A3A4240207897
:10084000009DA0A07D3D4242423D3D4040403D3C98
:1008500024FF2424487E4943662B2FFC2F2BFF09BD
:1008600029F620C0887E09032054547941000044B1
:100870007D413048484A32384040227A007A0A0A9C
:10088000727D0D19317D2629292F2826292929260F
:1008900030484D4020380808080808080808382F54
:1008A00010C8ACBA2F102834FA00007B00000814DE
:1008B0002A142222142A14085500550055AA55AAB4
:1008C00055AAFF55FF55FF000000FF00101010FF54
:1008D00000141414FF001010FF00FF1010F010F0AF
:1008E000141414FC001414F700FF0000FF00FF14A0
:1008F00014F404FC141417101F10101F101F1414EC
:10090000141F00101010F0000000001F1010101035
:100910001F10101010F010000000FF101010101029
:1009200010101010FF10000000FF140000FF00FF67
:1009300000001F10170000FC04F414141710171403
:1009400014F404F40000FF00F71414141414141425
:10095000F700F7141414171410101F101F14141498
:10096000F4141010F010F000001F101F0000001F02
:1009700014000000FC140000F010F01010FF10FF35
:10098000141414FF141010101F00000000F010FFCA
:10099000FFFFFFFFF0F0F0F0F0FFFFFF00000000AE
:1009A00000FFFF0F0F0F0F0F3844443844FC4A4A32
:1009B0004A347E02020606027E027E0263554941E7
:1009C000633844443C04407E201E2006027E02021E
:1009D00099A5E7A5991C2A492A1C4C7201724C3032
:1009E0004A4D4D303048784830BC625A463D3E4909
:1009F0004949007E0101017E2A2A2A2A2A44445FAD
:100A0000444440514A444040444A51400000FF01A0
:100A100003E080FF000008086B6B083612362436AE
:100A2000060F090F06000018180000001010003013
:100A300040FF0101001F01011E00191D1712003C9B
:100A40003C3C3C00000000000000000025002800A5
:100A50002B0000000000240027002A0004040404E6
:100A60000404040402020202020203030303030358
:100A70000102040810204080010204081020010235
:100A8000040810202200FF210000A91C591711247E
:100A90001FBECFEFD8E0DEBFCDBF23E0A0E0B2E0C5
:100AA00001C01D92A33CB207E1F712E0A0E0B1E063
:100AB000ECE6FFE302C005900D92A030B107D9F734
:100AC00015E0C6E4D5E004C02197FE010E94971D01
:100AD000C534D107C9F70E9478170C94A91F0C944C
:100AE00000000895CF92DF92EF92FF920F931F9331
:100AF000CF93DF936C017A018B01C0E0D0E0CE157B
:100B0000DF0581F0D8016D918D01D601ED91FC9149
:100B10000190F081E02DC6010995892B11F02196F5
:100B2000EECF7E01C701DF91CF911F910F91FF9012
:100B3000EF90DF90CF900895FC01538D448D252FC9
:100B400030E0842F90E0821B930B541710F0CF9667
:100B5000089501970895FC01918D828D981761F099
:100B6000828DDF01A80FB11D5D968C91928D9F5FE4
:100B70009F73928F90E008958FEF9FEF0895FC018F
:100B8000918D828D981731F0828DE80FF11D858D42
:100B900090E008958FEF9FEF0895FC01918D228DD5
:100BA000892F90E0805C9F4F821B91098F7399275A
:100BB00008958FEB92E00E94CD0521E0892B09F486
:100BC00020E0822F0895FC01848DDF01A80FB11D64
:100BD000A35ABF4F2C91848D90E001968F73992773
:100BE000848FA689B7892C93A089B1898C91837051
:100BF00080648C93938D848D981306C00288F3894A
:100C0000E02D80818F7D80830895EF92FF920F9376
:100C10001F93CF93DF93EC0181E0888F9B8D8C8DA8
:100C2000981305C0E889F989808185FD26C0F62ED4
:100C30000B8D10E00F5F1F4F0F731127E02E8C8D6F
:100C4000E8120CC00FB607FCFACFE889F989808159
:100C500085FFF5CFCE010E94E305F1CF8B8DFE011C
:100C6000E80FF11DE35AFF4FF0829FB7F8940B8F06
:100C7000EA89FB89808180620AC09FB7F894EE8977
:100C8000FF896083E889F98980818370806480832B
:100C90009FBF81E090E0DF91CF911F910F91FF9076
:100CA000EF900895CF93DF93EC01888D8823C9F0EE
:100CB000EA89FB89808185FD05C0A889B9898C9165
:100CC00086FD0FC00FB607FCF5CF808185FFF2CF00
:100CD000A889B9898C9185FFEDCFCE010E94E305EB
:100CE000E7CFDF91CF91089580E090E0892B29F044
:100CF0000E94D90581110C9400000895FC0177FD34
:100D0000B9C080859185681779070CF0B3C057FD8D
:100D1000B1C082859385481759070CF008958589DD
:100D2000823079F484819581DC01A61BB70BBD016B
:100D30006150710986819781DC01A41BB50BAD015F
:100D40000EC0833009F084C064277527CA01862746
:100D500097276827792746815781481B590B4150AF
:100D600051092130310531F048F12230310509F4C3
:100D70004AC00895CA0157FD07969C01A3E0359526
:100D80002795AA95E1F7A481B5812A9FC0012B9FE1
:100D9000900D3A9F900D1124680F791F068CF78DE6
:100DA000E02DE60FF71F4770552781E090E001C066
:100DB000880F4A95EAF79081892B48C0CA0157FDF0
:100DC00007969C0193E0359527959A95E1F7A481C4
:100DD000B5812A9FC0012B9F900D3A9F900D112441
:100DE000680F791F068CF78DE02DE60FF71F47700F
:100DF000552781E090E001C0880F4A95EAF7809579
:100E00009081892323C0CA0157FD07969C0183E086
:100E1000359527958A95E1F7A481B5812A9FC00170
:100E20002B9F900D3A9F900D1124680F791F068C0F
:100E3000F78DE02DE60FF71F4770552781E090E012
:100E400001C0880F4A95EAF7908189278083089529
:100E5000813009F086CF64277527462757276427F6
:100E6000752784819581DC01A61BB70BBD016150FC
:100E7000710977CF08950895FC016370658B8481B3
:100E8000958126813781613039F0633029F091876F
:100E900080873387228708953187208793878287C9
:100EA00008956F927F928F929F92AF92BF92CF924E
:100EB000DF92EF92FF920F931F93CF93DF93EC019A
:100EC0004B015A0169013801E881F9810284F385F7
:100ED000E02D0995E881F9810288F389E02D8701E9
:100EE0009601A501B401CE010995A501460D571D36
:100EF00041505109E881F9810288F389E02D96017A
:100F0000B401CE010995E881F9810088F189E02DCD
:100F10009301A501B401CE010995C80CD91CB601F5
:100F200061507109E881F9810088F189E02D930110
:100F3000A501CE010995E881F9810688F789E02DA0
:100F4000CE01DF91CF911F910F91FF90EF90DF9035
:100F5000CF90BF90AF909F908F907F906F900994AB
:100F60008F929F92AF92BF92CF92DF92EF92FF92B9
:100F70000F931F93CF93DF934C016B015A01E9014B
:100F8000DC01ED91FC916217730781F404171507DA
:100F900024F48B2D5801042F182F0A191B099801CE
:100FA0002F5F3F4F048CF58DE02D12C04017510785
:100FB00009F52617370724F48D2D6901C62FD82F80
:100FC0009E012C193D092F5F3F4F068CF78DE02DB8
:100FD0008701A501B601C4010995DF91CF911F9149
:100FE0000F91FF90EF90DF90CF90BF90AF909F90C8
:100FF0008F9008950284F385E02D0995D401ED9139
:10100000FC910488F589E02D9E01A501B601C4017B
:101010000995D401ED91FC910688F789E02DC40172
:10102000DF91CF911F910F91FF90EF90DF90CF90C4
:10103000BF90AF909F908F900994EF92FF920F9383
:101040001F93DC011A960D911C911B9718962D91F8
:101050003C911997ED91FC9100A0F1A1E02D7B014D
:1010600040E050E060E070E009951F910F91FF9023
:10107000EF9008954F925F926F927F928F929F921E
:10108000AF92BF92CF92DF92EF92FF920F931F9396
:10109000CF93DF936C012B015A0139014801DC0128
:1010A000ED91FC910284F385E02D0995E201640C39
:1010B000751CD601ED91FC91C615D7055CF400882E
:1010C000F189E02D87019401A501BE01C6010995B2
:1010D0002196EFCF0688F789E02DC601DF91CF91E9
:1010E0001F910F91FF90EF90DF90CF90BF90AF9046
:1010F0009F908F907F906F905F904F9009948F9208
:101100009F92AF92BF92CF92DF92EF92FF920F9396
:101110001F93CF93DF93EC015B014A016901E881E2
:10112000F9810284F385E02D099595012C0D3D1D73
:1011300021503109E881F9810488F589E02D780191
:101140008401A401B501CE010995E881F9810688E1
:10115000F789E02DCE01DF91CF911F910F91FF9084
:10116000EF90DF90CF90BF90AF909F908F900994B9
:101170008F929F92AF92BF92CF92DF92EF92FF92A7
:101180000F931F93CF93DF93EC015B014A01690139
:101190007801E881F9810284F385E02D0995C80C76
:1011A000D91C860101501109E881F9810488F5896B
:1011B000E02D9501A401B501CE010995E881F981E1
:1011C0000688F789E02DCE01DF91CF911F910F9115
:1011D000FF90EF90DF90CF90BF90AF909F908F9057
:1011E00009940895EF92FF920F931F93DC01ED9104
:1011F000FC9100A0F1A1E02D09951F910F91FF90A6
:10120000EF9008950F931F93DC01ED91FC91068CF4
:10121000F78DE02D09951F910F9108950F931F935E
:10122000DC01ED91FC91048CF58DE02D09951F9169
:101230000F910895DC01ED91FC910084F185E02D82
:1012400009942F923F924F925F926F927F928F926A
:101250009F92AF92BF92CF92DF92EF92FF920F9345
:101260001F93CF93DF9300D000D000D0CDB7DEB76F
:101270002C017E836D836A015901C801FC82EB82D7
:101280004801841A950A97FE03C0919481949108AD
:1012900035012D813E81621A730A77FE03C0719475
:1012A00061947108681479045CF43A2D2B2D5C016B
:1012B000832F922F3D812E81DE82CD82C32ED22EAE
:1012C000AD81BE81AA16BB065CF43C2D2D2D6C01B0
:1012D000832F922F3D812E81BE82AD82A32EB22E0E
:1012E00085012D813E81021B130B1C012C183D082A
:1012F00037FE03C0319421943108780117FF03C0F1
:101300003FEFE31AF30AF594E794C816D9062CF0D8
:101310008FEF9FEF9A83898304C0A1E0B0E0BA8386
:10132000A9832D813E81A216B30624F1D201ED914D
:10133000FC910484F585E02D2B813C8168147904AF
:1013400024F44D815E81B60103C0A6016D817E81CA
:10135000C2010995E218F308F7FE06C029813A8117
:10136000C20ED31EE00EF11E8D819E8101969E83DA
:101370008D83D7CF26960FB6F894DEBF0FBECDBFB4
:10138000DF91CF911F910F91FF90EF90DF90CF9061
:10139000BF90AF909F908F907F906F905F904F9095
:1013A0003F902F90089585ED8093BC008091BC0004
:1013B00084FDFCCF10929A02089540914002262F9E
:1013C00030E0240F311D21323105DCF420919A02E6
:1013D0002430C9F4FC0180E090E0861758F4309185
:1013E00040022191DC01A05EBD4FA30FB11D2C93E3
:1013F0000196F3CF80914002680F6093400280E035
:10140000089581E0089582E0089508950895E09197
:10141000680280916702E81730F4F0E0E050FE4F78
:10142000808190E008958FEF9FEF0895909168027A
:1014300080916702981750F4E92FF0E0E050FE4FDA
:10144000208130E09F5F9093680202C02FEF3FEF52
:10145000C90108958091670290E020916802821B83
:1014600091090895CF92DF92EF92FF920F931F930D
:10147000CF93DF937C01CB018A0120919B02222331
:1014800089F0EB016B01C40ED51ECC15DD0569F0AA
:101490006991D701ED91FC910190F081E02DC70198
:1014A0000995F3CF642F0E94DD09C801DF91CF9128
:1014B0001F910F91FF90EF90DF90CF900895CF9301
:1014C000DF931F92CDB7DEB7698320919B02222361
:1014D000D1F02091BE02203240F021E030E0FC014A
:1014E0003383228380E090E015C080919C02E82F36
:1014F000F0E0E356FD4F998190838F5F80939C02CB
:101500008093BE0205C061E0CE0101960E94DD0914
:1015100081E090E00F90DF91CF91089580E090E01E
:1015200008950F931F93CF93DF93EC0188819981E6
:10153000009729F02A813B812617370788F48B0111
:101540006F5F7F4F0E94BE1E009761F09983888372
:101550001B830A832C813D81232B11F4FC01108213
:1015600081E001C080E0DF91CF911F910F9108953C
:101570000F931F93CF93DF93DC015596EC91559712
:10158000E23071F0E330E9F0E13079F5FB011496D7
:101590000D90BC91A02DA41BB50BA21BB30B18C0C2
:1015A000EC01EC81FD81E61BF70BBF016150710975
:1015B000EE81FF81DF01A41BB50BAD01421B530B74
:1015C00014C0DA01EC01EE81FF81E61BF70B3197C5
:1015D000F7FD0DC0EC014E815F81E417F5073CF487
:1015E000AF01BD010E94641502C00E94E70FDF91A8
:1015F000CF911F910F9108950F931F93DC01559682
:10160000EC915597E23061F0E33009F1E13081F57A
:101610001496ED91FC911597E41BF50B319723C0BF
:10162000DC011496ED91FC911597DF01A61BB70B19
:10163000BD01DC011696ED91FC911797DF01A41B0B
:10164000B50BAD0141505109621B730B11C0FA017A
:10165000DC0116964D915C911797DA01A61BB70B2A
:10166000BD01621B730BAB01BF010E94E70F0CC0F1
:1016700057FD0AC0DC011696ED91FC9117974E17A5
:101680005F0714F40E9464151F910F910895AF92A3
:10169000BF92CF92EF92FF920F931F93CF93DF935E
:1016A000EC01262F888D998D009709F040C06A3093
:1016B00059F41D861C862C898E859F8538E0239FD2
:1016C000800D911D112441C06D3009F4AAC08E898E
:1016D0008823C1F03C898C859D8546E0349F800D30
:1016E000911D112448855985481759075CF41D86BA
:1016F0001C868E859F8548E0349F800D911D1124A6
:101700009F878E87EA88FB88088919894E855F85BF
:101710006C857D85CC88CE010E944A132C898C85EE
:101720009D8536E0239F800D911D112442C06A30B3
:1017300079F41D861C862C89FC013696E4918E85F1
:101740009F852E9F800D911D11249F878E8769C0D4
:101750006D3009F466C0FC0134963491631708F4C7
:1017600060C03196E491E61708F45BC0FC01329644
:1017700065917491422F50E0431B510937E0349F2B
:101780005001359FB00C1124A60EB71EF5013296FC
:1017900034913196E491332311F0E1110DC0F5013C
:1017A0003496E4912C898C859D85E29F800D911D56
:1017B00011249D878C8735C0F501359644915E894B
:1017C000552311F16C89E32FF0E0E40FF11D47FD83
:1017D000FA956E9FD0016F9FB00D11244C855D85E9
:1017E0004A0F5B1FE885F985E417F5076CF41D8641
:1017F0001C86FC013696E4918E859F856E9F800D38
:10180000911D11249F878E87EA88FB880889198992
:101810004E855F856C857D85CC88CE010E944A13FC
:10182000BECF81E090E0DF91CF911F910F91FF90AB
:10183000EF90CF90BF90AF900895EF92FF920F93EB
:101840001F93CF93DF936115710511F480E01CC0E5
:1018500041155105C1F07B01EC018C819D818A010C
:10186000080F191FB801CE010E94910A882371F355
:10187000288139818C819D81B701820F931F0E943D
:10188000A21F1D830C8381E0DF91CF911F910F91E7
:10189000FF90EF900895CF93DF93EC0188819981B9
:1018A000009711F00E94351E198218821D821C8239
:1018B0001B821A82DF91CF910895CF93DF93EC01C1
:1018C000FB0144815581608171810E941D0C811151
:1018D00003C0CE010E944B0CCE01DF91CF91089541
:1018E000EF92FF920F931F93CF93DF93EC017B0155
:1018F0008A01BA010E94910A811104C0CE010E949E
:101900004B0C07C01D830C83B701888199810E940D
:10191000A21FCE01DF91CF911F910F91FF90EF9009
:101920000895CF93DF93EC01FB018617970761F0D1
:10193000608171816115710529F0448155810E9492
:10194000700C02C00E944B0CCE01DF91CF91089524
:10195000FC01808191810C94351ECF93DF9300D0E0
:10196000CDB7DEB7FC01118210821382128215827C
:10197000148269831A82BE016F5F7F4FFB01019061
:101980000020E9F73197AF01461B570B0E94700CFE
:101990000F900F90DF91CF910895FC01118210827A
:1019A00013821282158214820C94910CFC01118214
:1019B000108213821282158214826115710551F012
:1019C000FB0101900020E9F73197AF01461B570B4F
:1019D0000C94700C08951F920F920FB60F92112461
:1019E0002F933F934F935F936F937F938F939F9327
:1019F000AF93BF93EF93FF938FEB92E00E94E305C9
:101A0000FF91EF91BF91AF919F918F917F916F91D6
:101A10005F914F913F912F910F900FBE0F901F90AC
:101A200018951F920F920FB60F9211242F938F9338
:101A30009F93EF93FF93E091CF02F091D0028081CA
:101A4000E091D502F091D60282FD12C09081809182
:101A5000D8028F5F8F732091D902821751F0E091E5
:101A6000D802F0E0E154FD4F958F8093D80201C079
:101A70008081FF91EF919F918F912F910F900FBED9
:101A80000F901F90189508958EBD00000DB407FEAD
:101A9000FDCF8EB508951F93CF93DF93FC01848D06
:101AA000958D009729F1162FEF0120A131E0309399
:101AB0009B022093BD0210929C021092BE02DC0198
:101AC000ED91FC910190F081E02D60E009958C8D05
:101AD0009D8DDC01ED91FC910190F081E02D612F55
:101AE00009958C8D9D8DDF91CF911F910C94FF10E6
:101AF000A4A5B5A59C9182A9809589238C93828DFC
:101B0000938D892B31F0862FDF91CF911F910C940B
:101B1000440D28E030E080E8A0A5B1A590A9462FAB
:101B2000482319F04C91942B03C04C919095942329
:101B30009C93A2A5B3A54C9191A9942B9C93A2A58B
:101B4000B3A54C9191A9909594239C93869521508F
:101B5000310911F7DF91CF911F9108958CBD9DBD83
:101B600008951F93CF93DF93EC01162F8C8D9D8DDD
:101B7000892BB1F02EA93FA948AD59AD60E072E1C3
:101B80008AE790E00E94751DDA01C9014097A1091A
:101B9000B109B695A795979587958093B8000FC022
:101BA0008A8D9B8D892B21F08CA99DA90E94AE0D59
:101BB000EEA5FFA590818BA98095892380831111C3
:101BC00002C066EA01C067EACE010E944B0D8C8D0F
:101BD0009D8D892BB1F02AAD3BAD4CAD5DAD60E084
:101BE00072E18AE790E00E94751DDA01C901409711
:101BF000A109B109B695A795979587958093B800E7
:101C000006C0EEA5FFA590818BA9892B8083DF916B
:101C1000CF911F9108951F920F920FB60F9211242A
:101C20002F933F934F935F936F937F938F939F93E4
:101C3000AF93BF93EF93FF938091B900887F803675
:101C400009F49CC068F5883209F45BC090F48031D7
:101C500009F454C038F4882309F4F6C0883009F434
:101C60004DC0F6C0883109F44CC0803209F45DC023
:101C7000EFC0803409F468C048F4803309F455C0DB
:101C8000883309F0E5C080939802D8C0803509F404
:101C90004FC0883509F45DC0883409F0D9C0D6C07A
:101CA000883909F4C7C0A8F4883709F467C038F444
:101CB000883609F463C0803709F460C0C9C0883829
:101CC00009F4B8C0803909F45FC0803809F0C0C099
:101CD0005BC0803B09F486C038F4803A09F466C0E2
:101CE000883A09F47FC0B4C0803C09F4A7C0883C9E
:101CF00009F4A4C0883B09F48AC0AAC08091750287
:101D000010C09091970280919602981770F5E0911B
:101D1000970281E08E0F80939702F0E0EA58FD4F22
:101D200080818093BB0085EC86C0809398028EC032
:101D3000E091970281E08E0F809397028091BB0023
:101D4000F0E0EA58FD4F80839091970280919602CF
:101D50006EC0E091970281E08E0F80939702809190
:101D6000BB00F0E0EA58FD4F808380919902811119
:101D70006DC081E08093740284EA61C083E0809347
:101D80009A0210926202CFCF80916202803208F0F4
:101D900051C0E091620281E08E0F809362028091D7
:101DA000BB00F0E0EE5BFD4F8083BDCF85EC809300
:101DB000BC0010929A0280916202803230F4E0916D
:101DC0006202F0E0EE5BFD4F10826091620270E013
:101DD000E0916302F091640282E492E0099510922E
:101DE000620236C084E080939A02109241021092FF
:101DF0004002E0916502F0916602099580914002EF
:101E0000811105C081E08093400210922002E09190
:101E1000410281E08E0F80934102F0E0E05EFD4FD1
:101E200080818093BB00909141028091400298177D
:101E300008F479CF85E88093BC000AC085EC8093D4
:101E4000BC0010929A0204C0109298020E94D3091A
:101E5000FF91EF91BF91AF919F918F917F916F9182
:101E60005F914F913F912F910F900FBE0F901F9058
:101E7000189590E0FC01EC5DFA4F2491FC01E059CB
:101E8000F54F3491FC01E45AF54FE491EE2309F447
:101E90003CC0222339F1233091F038F42130A9F0ED
:101EA000223001F584B58F7D12C0273091F02830A3
:101EB000A1F02430B9F4809180008F7D03C080911F
:101EC00080008F77809380000DC084B58F7784BDAC
:101ED00009C08091B0008F7703C08091B0008F7DE2
:101EE0008093B000F0E0EE0FFF1FE85BF54FA59187
:101EF000B4919FB7F894611104C08C913095382348
:101F000002C0EC913E2B3C939FBF08953FB7F894DD
:101F100080916C0290916D02A0916E02B0916F025F
:101F200026B5A89B05C02F3F19F00196A11DB11D34
:101F30003FBFBA2FA92F982F8827820F911DA11D6F
:101F4000B11DBC01CD0143E0660F771F881F991FAB
:101F50004A95D1F708958F929F92AF92BF92CF92F8
:101F6000DF92EF92FF926B017C010E94860F4B0182
:101F70005C01C114D104E104F104F1F00E94860F68
:101F8000DC01CB0188199909AA09BB09883E934055
:101F9000A105B10570F321E0C21AD108E108F108EA
:101FA00088EE880E83E0981EA11CB11CC114D104D8
:101FB000E104F10419F7DDCFFF90EF90DF90CF90AF
:101FC000BF90AF909F908F9008950E94841FEF92D2
:101FD000FF920F931F93CF93DF93EC0177FDA5C082
:101FE000EC80FD806E157F050CF09FC057FF04C08C
:101FF000240F351F40E050E08E819F81FA01E20FEF
:10200000F31F8E179F071CF49C01241B350B12161F
:1020100013060CF08AC0922F842F8695869586959C
:102020008E9DD0018F9DB00D11246A0F7B1FAE8D48
:10203000BF8DA60FB71F4770B1F188E0841B482FF2
:10204000682F70E0FB01E05CFA4FE491281798F4E8
:10205000621B71092FEF30E002C0359527956A9514
:10206000E2F7E2230130110549F078F00230110562
:1020700009F05BC00EC00130110519F48C91E82BFA
:102080000AC00130110508F049C0E0958C91E823A1
:1020900002C08C91E827EC93941708F446C02C8179
:1020A0003D81A20FB31FE92FE41BE830F8F00230A6
:1020B000110561F48E2F9C9190959C932C813D810C
:1020C000A20FB31F88508830B0F70FC081E0011510
:1020D000110509F480E081959E2F8C932C813D8120
:1020E000A20FB31F98509830C0F7E770EE23E9F0C5
:1020F000F0E0E85CFA4FE4910130110539F048F066
:102100000230110591F48C91E82706C08C91E82BE0
:1021100003C0E0958C91E823EC9307C002301105D1
:1021200009F4B7CFAE0DBF1DBECFDF91CF911F9188
:102130000F91FF90EF9008951F920F920FB60F929C
:1021400011242F933F938F939F93AF93BF938091CD
:10215000700290917102A0917202B091730230915D
:102160006B0226E0230F2D3720F40296A11DB11D2E
:1021700005C029E8230F0396A11DB11D20936B0212
:102180008093700290937102A0937202B0937302D5
:1021900080916C0290916D02A0916E02B0916F02DD
:1021A0000196A11DB11D80936C0290936D02A093C6
:1021B0006E02B0936F02BF91AF919F918F913F914B
:1021C0002F910F900FBE0F901F901895CF93DF9314
:1021D000FC01448155816081718184E793E00E9414
:1021E0007205EC0142E050E064EC71E084E793E0BA
:1021F0000E9472058C0F9D1FDF91CF910895309141
:10220000BE02313208F04BC080919A028111FCCF9E
:102210009091BD0222E020939A0221E0209399023E
:102220002FEF209398021092970230939602EDE9D7
:10223000F2E0A6E7B2E020E0321721F041914D93A1
:102240002F5FFACF1092750220917502990F922B91
:102250009093750290917402913061F4109274021F
:10226000909175029093BB009091BC0093FDF8CFC4
:1022700095EC01C095EE9093BC0090919A0292303B
:10228000E1F3909198029F3F79F08091980280321B
:1022900041F080919802803331F084E005C081E004
:1022A00003C082E001C083E010929C021092BE0243
:1022B00010929B020895DF92EF92FF920F931F936B
:1022C000CF93DF93D82ED92FC62F80919003909172
:1022D0009103009709F454C02091940331E03093A6
:1022E0009B022093BD0210929C021092BE02DC0160
:1022F000ED91FC910190F081E02D60E00995ED2CCD
:10230000FD2E11E0D1E08091900390919103CC23B8
:1023100071F11032C8F00E94FF1080919403D093A5
:102320009B028093BD0210929C021092BE0280918B
:10233000900390919103DC01ED91FC910190F0816B
:10234000E02D60E0099511E0809190039091910358
:10235000F7016491DC01ED91FC910190F081E02D99
:1023600009951F5FC150BFEFEB1AFB0ACCCFDF917D
:10237000CF911F910F91FF90EF90DF900C94FF1081
:10238000E091A003F091A10390818091A603809534
:10239000892380830D2D1D2FCC2309F439C0F8012A
:1023A000849120918E0330918F03232B31F00E9472
:1023B000440DC1500F5F1F4FEFCF28E030E040E8E1
:1023C000E0919C03F0919D039091A403582F542316
:1023D00019F05081952B03C05081909595239083DF
:1023E000E0919E03F0919F0350819091A503952B5E
:1023F0009083E0919E03F0919F0350819091A503FB
:10240000909595239083469521503109C9F6D1CFF7
:10241000DF91CF911F910F91FF90EF90DF90089582
:1024200020917A0330917B03C901079697FD0796A7
:1024300023E0959587952A95E1F7209178033091CF
:102440007903829FA001839F500D929F500D11240C
:1024500060E070E080919203909193030C94921F3E
:10246000CF93DF93009779F0FC0101900020E9F70A
:102470003197AF01481B590BBC018FEB92E00E94D2
:102480007205EC0102C0C0E0D0E042E050E064EC34
:1024900071E08FEB92E00E9472058C0F9D1FDF911F
:1024A000CF9108952FB7F8948091700290917102A6
:1024B000A0917202B09173022FBF8093C7029093D4
:1024C000C802A093C902B093CA028FEB92E00E94A7
:1024D000AB0597FF26C02FB7F894809170029091BA
:1024E0007102A0917202B09173022FBF4091C70296
:1024F0005091C8026091C9027091CA02841B950B69
:10250000A60BB70B4091C3025091C4026091C50263
:102510007091C60284179507A607B707B0F28FEF30
:102520009FEF089520916C0330916D0382179307FC
:1025300038F420916803309169032115310529F49D
:102540001092B20382EB93E00895820F931F0895D7
:102550003F924F925F926F927F928F929F92AF9233
:10256000BF92CF92DF92EF92FF920F931F93CF9380
:10257000DF9300D000D000D0CDB7DEB72C013B01F7
:102580004A015901C901079697FD07969C0193E0FE
:10259000359527959A95E1F73C832B83C12CD12C57
:1025A000E12CF12C312CC3018E0D9F1D9A83898360
:1025B000E016F106C4F51E821D822D813E812A158A
:1025C0003B054CF5C90187709927892B11F0330C15
:1025D0000EC0ED81FE81F7FD379683E0F595E79516
:1025E0008A95E1F7EC0DFD1DE80DF91D349037FEDD
:1025F0000CC021E030E049815A816D817E81640DFB
:10260000751D84E793E00E941A098D819E810196D1
:102610009E838D83D2CF9FEFE91AF90A2B813C81EB
:10262000C20ED31EC0CF26960FB6F894DEBF0FBEE3
:10263000CDBFDF91CF911F910F91FF90EF90DF9071
:10264000CF90BF90AF909F908F907F906F905F9052
:102650004F903F90089590E0FC01E059F54F249190
:10266000FC01E45AF54F8491882399F090E0880F9B
:10267000991FFC01EE5AF54FA591B491FC01E85B5E
:10268000F54F859194918FB7F894EC91E22BEC93F0
:102690008FBF08952F923F924F925F926F927F92D9
:1026A0008F929F92AF92BF92CF92DF92EF92FF9262
:1026B0000F931F93CF93DF93CDB7DEB76B970FB612
:1026C000F894DEBF0FBECDBF9B8F8A8F5B011A01CE
:1026D000D22E1F830E833701C982DC0158962D91BB
:1026E0003C9159972115310509F0E6C018968D9156
:1026F0009C911997681779070CF0CDC11A968D91A6
:102700009C911B97481759070CF0C5C18C2C912C34
:10271000FB0126E0C29EE00DF11D1124FB87EA8734
:102720001E161F060CF0B7C1A40183E0440F551F0D
:102730008A95E1F75D874C87CA01820D931D1816B3
:1027400019060CF0A8C157968C91811104C05FEA5C
:102750005D1508F4D394AA8DBB8DED91FC91119772
:102760000284F385E02DCD010995B5E0DB9EC00123
:102770001124F5013596FF87EE87BB82AA822501D9
:102780009C012A193B09398B288BA101485F5F4FB7
:102790005B8B4A8BE889F989E40DF51DE85BFA4FFC
:1027A0005491588761013D822C82888580FF13C037
:1027B000AA8DBB8DED91FC91B981B13031F40484C7
:1027C000F585E02D2E813F8116C00684F785E02D2A
:1027D000EE80FF801AC0EE81FF81E615F705F1F06B
:1027E000AA8DBB8DED91FC91B981B13051F4048477
:1027F000F585E02D9301A601B2018A8D9B8D099587
:102800000DC00684F785E02D7301840194014C818D
:102810005D816A817B818A8D9B8D0995E885E6952E
:10282000E887FFEFCF1ADF0A2C813D81280D391D83
:102830003D832C834A895B89C416D50609F0B5CF40
:102840005FEF451A550A8A819B81880D991D9B83EC
:102850008A83AE85BF854A165B0609F09BCFEE8161
:10286000FF81E615F70509F4F4C0EA8DFB8DA08120
:10287000B181F981F13079F4B5016B5F7F4F5096EA
:10288000ED91FC915197830128E030E0A1018A8D00
:102890009B8D0995DEC06A857B85681979091E962E
:1028A000ED91FC911F9773010C851D859401A10189
:1028B0008A8D9B8D0995CDC0F9013496E491DE1A7D
:1028C000F901329685919491B7E0DB9E800D911DC0
:1028D0001124F901259134913B8B2A8BFC01259120
:1028E00034912901FC013296C490319634913E878F
:1028F000329614913196D4904981423058F0612E2D
:10290000012E000C77088D2D0D2C000C990B99874A
:10291000888704C019861886612C712CAA8DBB8DFE
:10292000ED91FC9111970284F385E02DCD0109957D
:10293000B9818B2E912C689CC001699C900D789C6C
:10294000900D1124FC01EA0DFB1DFD87EC871A8216
:10295000712C612CE12F110FFF0B95012E0F3F1FE2
:102960003B872A87AC0CB11CA5014E0F5F1F5F8B04
:102970004E8BC1018D0D911DD7FC9A95998F888F33
:102980009E85691608F065C0862D90E048855985BA
:10299000480F591F489D9001499D300D589D300D9D
:1029A0001124D101A20FB31FB98BA88BEC85FD8533
:1029B000FD83EC83AA84BB84DA80FA85DF1A288D34
:1029C000398D280F391F3D8B2C8B8D2D8A0D4E890B
:1029D0005F89A416B506C1F1877041F4C201019662
:1029E000EA89FB89E40DF51D74902C0177FE21C066
:1029F000AA8DBB8DED91FC91B981B13061F4048455
:102A0000F585E02D2E813F814C895D89B5018A8D48
:102A10009B8D09950EC00684F785E02DEE80FF8022
:102A200084019401488959896C817D818A8D9B8DAF
:102A30000995770CEFEFAE1ABE0A2C813D81280D67
:102A4000391D3D832C83C1CF3A813C0D3A83639479
:102A500097CFAA8DBB8DED91FC9111970688F789D0
:102A6000E02DCD016B960FB6F894DEBF0FBECDBF43
:102A7000DF91CF911F910F91FF90EF90DF90CF905A
:102A8000BF90AF909F908F907F906F905F904F908E
:102A90003F902F9009946B960FB6F894DEBF0FBE4F
:102AA000CDBFDF91CF911F910F91FF90EF90DF90FD
:102AB000CF90BF90AF909F908F907F906F905F90DE
:102AC0004F903F902F9008950F931F93CF93DF93D4
:102AD00077FF04C0260F371F60E070E0DC0114961A
:102AE000CD91DC911597FB01E20FF31FCE17DF07A5
:102AF0001CF49E01261B370B121613060CF046C061
:102B0000FA0157FD3796DF01E3E0B595A795EA9501
:102B1000E1F7AC9FF001AD9FF00DBC9FF00D1124CB
:102B20006E0F7F1FDC015E96ED91FC915F97E60FC3
:102B3000F71F4770552781E090E001C0880F4A9544
:102B4000EAF7482F0130110539F078F0023011050D
:102B5000E9F42E0F3F1F13C02E0F3F1FE217F3079C
:102B6000A9F08081842B8193F9CF80952E0F3F1F90
:102B7000E217F30759F0908198239193F9CFE21768
:102B8000F30721F0808184278193F9CFDF91CF91E2
:102B90001F910F910895CF92DF92EF92FF920F93C2
:102BA0001F93CF93DF9300D000D000D0CDB7DEB716
:102BB0006C018B010E94101210928103109280030D
:102BC00010928303109282036CEE71E0CE010196A5
:102BD0000E94D60CB801CE0101960E945D0C8C01BA
:102BE00041E050E06EEF71E00E941D0C882309F473
:102BF0004DC1C8010E94E610CE0101960E94A80CAA
:102C0000EE24E394F12C07E010E020E830E047E008
:102C100050E060E070E084E793E00E94B00710921B
:102C20008103109280038AE090E090938303809365
:102C30008203C6010E94E610809190039091910357
:102C4000892BD1F02091AA033091AB034091AC03C2
:102C50005091AD0360E072E18AE790E00E94751D3B
:102C6000DA01C9014097A109B109B695A7959795D1
:102C700087958093B80016C080918E0390918F0342
:102C8000892B31F08091A8039091A9030E94AE0D89
:102C9000E091A203F091A30390818091A703809516
:102CA0008923808365E084E89AE00E945B1160914B
:102CB0007803615084E793E00E944B0D20917A03E2
:102CC00030917B03C901079697FD079633E09595F0
:102CD00087953A95E1F72091780330917903829FA7
:102CE0007001839FF00C929FF00C112400919203CD
:102CF000109193038091900390919103E00EF11E47
:102D0000009709F44EC02091940331E030939B0268
:102D10002093BD0210929C021092BE02DC01ED9144
:102D2000FC910190F081E02D60E40995DD24D394BD
:102D3000CC24C3948091900390919103E016F10606
:102D400069F1BFE1BD15D0F40E94FF10809194039A
:102D5000C0929B028093BD0210929C021092BE0210
:102D60008091900390919103DC01ED91FC91019091
:102D7000F081E02D60E40995DD24D39480919003E7
:102D800090919103F80161918F01DC01ED91FC912B
:102D90000190F081E02D0995D394CCCF0E94FF10D3
:102DA00043C0E091A003F091A10390818091A6031C
:102DB000892B8083E016F106B9F1F80181918F012A
:102DC00020918E0330918F03232B19F00E94440D24
:102DD000F1CF28E030E040E8E0919C03F0919D03C2
:102DE0009091A403582F542319F05081952B03C0C0
:102DF0005081909595239083E0919E03F0919F03DD
:102E000050819091A503952B9083E0919E03F091C2
:102E10009F0350819091A5039095952390834695AB
:102E200021503109C9F6C6CF80919003909191034A
:102E3000892BD1F02091AE033091AF034091B003C4
:102E40005091B10360E072E18AE790E00E94751D45
:102E5000DA01C9014097A109B109B695A7959795DF
:102E600087958093B80016C0E091A203F091A30368
:102E700090818091A703892B808380918E0390910C
:102E80008F03892B39F00E94430D04C0C8010E94B2
:102E90004B0CAFCE26960FB6F894DEBF0FBECDBF5B
:102EA000DF91CF911F910F91FF90EF90DF90CF9026
:102EB00008958CE593E00E94A80C82E693E00E94BE
:102EC000A80C88E693E00E94A80C8EE693E00E948E
:102ED000A80C8FE291E09093750380937403809126
:102EE000920390919303009711F00C94351E08956E
:102EF000CF93DF93CDB7DEB7E6970FB6F894DEBF7A
:102F00000FBECDBF789484B5826084BD84B58160E6
:102F100084BD85B5826085BD85B5816085BD8091A4
:102F20006E00816080936E0010928100809181001C
:102F30008260809381008091810081608093810014
:102F4000809180008160809380008091B1008460D6
:102F50008093B1008091B00081608093B000809137
:102F60007A00846080937A0080917A0082608093F6
:102F70007A0080917A008E7F80937A0080917A0027
:102F8000806880937A001092C100E091CF02F091A6
:102F9000D00282E08083E091CB02F091CC021082DB
:102FA000E091CD02F091CE0287E680831092D702A5
:102FB000E091D302F091D40286E08083E091D102C7
:102FC000F091D202808180618083E091D102F09102
:102FD000D202808188608083E091D102F091D20298
:102FE000808180688083E091D102F091D20280815B
:102FF0008F7D808340E050E066EC71E082E693E0F4
:103000000E94700C8091920390919303892B11F58B
:1030100020917A0330917B03C901079697FD0796AB
:1030200023E0959587952A95E1F7209178033091D3
:103030007903AC01429FC001439F900D529F900DB8
:1030400011240E949D1D9093930380939203892BDA
:1030500009F40FC10E94101220917A0330917B0372
:103060008091780390917903213231050CF44BC3A0
:10307000B9016054710977FF02C06F5F7F4F75958A
:1030800067958255910997FD019600E410E022E5CD
:1030900030E044E652E0959587950E94A81282E0C0
:1030A000809395038091900390919103892B09F46B
:1030B0003EC38CE3809394031092680210926702DF
:1030C00010929C021092BE0210929A0281E08093AC
:1030D00099021092740261E082E10E94390F61E06E
:1030E00083E10E94390F8091B9008E7F8093B900EF
:1030F0008091B9008D7F8093B90080E28093B80001
:1031000085E48093BC0085E09AE09093660280930A
:10311000650286E09AE09093640280936302809156
:103120009B0387FD1DC00E942B1361E080919B03D0
:103130000E94390F61E070E080E090E00E94AB0FE8
:1031400060E080919B030E94390F6AE070E080E0AC
:1031500090E00E94AB0F61E080919B030E94390FC9
:103160008091900390919103892B09F497C320914A
:10317000AA033091AB034091AC035091AD0360E0E2
:1031800072E18AE790E00E94751DDA01C90140975B
:10319000A109B109B695A795979587958093B80031
:1031A00064E080E890E00E945B1160917A036150D6
:1031B00084E793E00E944B0D64E08CE790E00E946E
:1031C0005B1180919503813009F07FC360E184E752
:1031D00093E00E944B0D64E088E790E00E945B1151
:1031E00080917803909179038038910509F080C32C
:1031F00080917A0390917B038032910509F067C337
:1032000064E084E790E00E945B1169ED84E793E05D
:103210000E944B0D80919503813009F085C362E2D5
:1032200084E793E00E944B0D66E088E690E00E9400
:103230005B118091900390919103892B09F476C3DF
:103240002091AE033091AF034091B0035091B10390
:1032500060E072E18AE790E00E94751DDA01C90121
:103260004097A109B109B695A79597958795809341
:10327000B8000E94101281E08093880321E030E0C2
:103280003093870320938603309385032093840330
:1032900080938B0383E190E00E949212FC01608195
:1032A000CE0101960E94AD0C82E190E00E94921244
:1032B000FC016081CE0107960E94AD0C8DE090E08C
:1032C0000E949212FC016081CE010D960E94AD0C0D
:1032D00089E090E00E949212FC016081CE01439649
:1032E0000E94AD0C85E090E00E949212FC0160818A
:1032F000CE0149960E94AD0C82E090E00E949212AD
:10330000FC016081CE014F960E94AD0C80E090E000
:103310000E949212FC016081CE018B960E94AD0C3E
:10332000BE01655D7F4FCE0185960E94CD0CBE012A
:10333000615E7F4FCE0185960E945D0CBE01675E87
:103340007F4F0E945D0CBE016D5E7F4F0E945D0C41
:10335000BE01635F7F4F0E945D0CBE01695F7F4FBE
:103360000E945D0CBE016F5F7F4F0E945D0CBC012F
:10337000CE01C1960E94CD0CCE0185960E94A80C6C
:10338000CE018B960E94A80CCE014F960E94A80CED
:10339000CE0149960E94A80CCE0143960E94A80C2B
:1033A000CE010D960E94A80CCE0107960E94A80C93
:1033B000CE0101960E94A80C67E571E0CE0101964E
:1033C0000E94D60C6BE571E0CE0107960E94D60CE8
:1033D000BE016F5F7F4FCE0107960E94CB15CE01D5
:1033E00007960E94A80CCE0101960E94A80CBB244F
:1033F000B39480916A0281117FC12091660330915C
:10340000670380917203909173032817390749F578
:10341000809162039091630360916E0370916F03DA
:10342000009719F061157105B9F46115710551F036
:10343000232B09F42FC1FB01808190E091958195A8
:1034400091090CC0009709F425C1232B09F422C16E
:10345000FC01808190E002C00E94991F892B09F431
:1034600019C180910001811123C06FE771E0CE0185
:1034700001960E94D60C63E871E0CE0107960E9487
:10348000D60CBE016F5F7F4FCE0107960E94CB1511
:10349000CE0107960E94A80CCE0101960E94A80CAE
:1034A00040E050E066EC71E082E693E00E94700C30
:1034B0008FEB92E00E94CD05181619060CF099CFFB
:1034C00066EC71E0CE0101960E94D60C0E94521269
:1034D00097FD0CC08F83188641E050E0BE01695F04
:1034E0007F4FCE0101960E941D0CF0CF80915C03AE
:1034F00090915D030097C9F069817A81611571052A
:1035000091F040915E0350915F032D813E814217FF
:10351000530748F00E94A21F8D819E819093610302
:103520008093600318C00E94351E89819A81909310
:103530005D0380935C038B819C8190935F038093F8
:103540005E038D819E8190936103809360031A8254
:1035500019821C821B821E821D82CE0101960E944E
:10356000A80C62E673E0CE0101960E94CD0C6CE5DA
:1035700073E0CE0101960E945D0CBC0182E693E0EF
:103580000E94910CCE0101960E94A80CC09062038B
:10359000D0906303C114D10409F445C000916603BF
:1035A0001091670301151105F1F176014701FFEF55
:1035B0008F1A9F0AF7018081082E000C990B0E9438
:1035C000321D892B11F07401F1CF015011090C0D3E
:1035D0001D1DF8018081082E000C990B0E94321DE0
:1035E000892B31F00E151F0518F001501109F1CF8C
:1035F000A8014F5F5F4F4E195F09509367034093D7
:103600006603CE14DF0420F4B701C6010E94891FAF
:10361000E0916203F09163038091660390916703E8
:10362000E80FF91F10826FE771E0CE0101960E944A
:10363000D60C6CE971E0CE010D960E94D60C62E6C4
:1036400073E0CE010D960E945D0CBC01CE01079681
:103650000E94CD0CBE016F5F7F4FCE0107960E9486
:10366000CB15CE0107960E94A80CCE010D960E94A4
:10367000A80CCE0101960E94A80C1092000184EAC9
:1036800091E00E94301260ED77E080E090E00E94CF
:10369000AB0FAFCE87EA91E00E9430126AEA71E088
:1036A000CE0101960E94D60C6EEA71E0CE010D9615
:1036B0000E94D60CBE016F5C7F4FCE010D960E941A
:1036C0005D0CBC01CE0107960E94CD0CBE016F5F60
:1036D0007F4FCE0107960E94CB15CE0107960E9420
:1036E000A80CCE010D960E94A80CCE0101960E9456
:1036F000A80CB0926A027DCECE01C1960E94A80CA1
:103700000E947406FDCFB9016052710977FF02C0B3
:103710006F5F7F4F759567958357910997FD019668
:1037200000E210E023E730E044E850E0B4CC8091C0
:1037300099030E942B1380919A030E942B1380916E
:103740009903082E000C990BFC01E45AF54FE49103
:10375000F0E0EE0FFF1FE85BF54F259134913093B9
:10376000A1032093A003FC01E059F54FE491E093FD
:10377000A60380919A03082E000C990BFC01E45AD1
:10378000F54FE491F0E0EE0FFF1FE85BF54FA591D8
:10379000B491B093A303A093A203FC01E059F54FA9
:1037A000E491E093A7038C91E82BEC9380918E0336
:1037B00090918F03892B89F11FB7F894809169024A
:1037C000811124C0E6E6FAE08491EAE7FAE09491F8
:1037D000E82FF0E0EE0FFF1FEE5AF54FA591B491E0
:1037E000EC91E92321F461E08AE00E94390F8AE03C
:1037F0000E942B138CB580618CBD8CB580648CBD10
:103800008DE00E942B138BE00E942B1380916902A4
:103810008F5F809369021FBF82CC809197030E94C3
:103820002B13809198030E942B1380919703082EED
:10383000000C990BFC01E45AF54FE491F0E0EE0F17
:10384000FF1FE85BF54F2591349130939D03209342
:103850009C03FC01E059F54FE491E093A4038091AF
:103860009803082E000C990BFC01E45AF54FE491E3
:10387000F0E0EE0FFF1FE85BF54FA591B491B09318
:103880009F03A0939E03FC01E059F54FE491E09360
:10389000A5038C91E095E823EC9341CC80918E03B5
:1038A00090918F03892B31F08091A8039091A90307
:1038B0000E94AE0DE091A203F091A303908180914C
:1038C000A7038095892380836BCC64E180CC80340E
:1038D000910509F09ACC63E081E790E00E945B11CA
:1038E00080919503813011F46FE919C06FEC17C016
:1038F0008036910509F089CC80917A0390917B0301
:10390000409709F082CC63E08EE690E00E945B1164
:1039100080919503813011F460E101C06FEA84E782
:1039200093E00E944B0D71CC61EF7ACCE091A20341
:10393000F091A30390818091A703892B80838091CC
:103940008E0390918F03892B09F493CC0E94430D31
:1039500090CCEFEBF2E01382128248EE53E060E08D
:1039600070E044835583668377838BE091E0918395
:10397000808385EC90E09587848784EC90E097873E
:10398000868780EC90E0918B808B81EC90E0938B2C
:10399000828B82EC90E0958B848B86EC90E0978B09
:1039A000868B118E128E138E148EA3EBB3E01396BA
:1039B0001C921E92129714964D935D936D937C9377
:1039C00017978DE191E011969C938E93E4E7F3E0D5
:1039D0001382128220E830E03583248380E290E075
:1039E000978386833187208793878287158A1586F8
:1039F00014861786168691E0948B2FEF3FEF338B5A
:103A0000228B318B208B968B178A118E108E2FE292
:103A100031E031832083138E128EB58FA48F178EE1
:103A2000168E8FEF83A384A385A386A387A380E547
:103A300084AB95AB67EC71E08EE693E00E94D60C08
:103A400063ED71E088E693E00E94D60C66EC71E0CD
:103A500082E693E00E94D60C66EC71E08CE593E080
:103A60000C94D60C91110C943B1D803219F08950A6
:103A70008550C8F708959927882708952F923F9277
:103A80004F925F926F927F928F929F92AF92BF926E
:103A9000CF92DF92EF92FF920F931F93CF93DF931A
:103AA000CDB7DEB7CA1BDB0B0FB6F894DEBF0FBE77
:103AB000CDBF09942A88398848885F846E847D84C4
:103AC0008C849B84AA84B984C884DF80EE80FD80C6
:103AD0000C811B81AA81B981CE0FD11D0FB6F8943C
:103AE000DEBF0FBECDBFED010895A1E21A2EAA1BC5
:103AF000BB1BFD010DC0AA1FBB1FEE1FFF1FA2179E
:103B0000B307E407F50720F0A21BB30BE40BF50B9A
:103B1000661F771F881F991F1A9469F76095709523
:103B2000809590959B01AC01BD01CF010895EE0FEA
:103B3000FF1F0590F491E02D09940F931F93CF93ED
:103B4000DF938230910510F482E090E0E091C103B0
:103B5000F091C20320E030E0A0E0B0E0309719F12E
:103B6000408151810281138148175907C8F0841799
:103B7000950769F4109731F012960C9312971396EB
:103B80001C9327C00093C1031093C20322C02115C8
:103B9000310519F04217530718F49A01BD01EF01DE
:103BA000DF01F801DBCF21153105F9F0281B390BB6
:103BB0002430310580F48A819B816115710521F0E3
:103BC000FB019383828304C09093C2038093C1035B
:103BD000FE01329644C0FE01E20FF31F81939193E0
:103BE00022503109398328833AC02091BF03309194
:103BF000C003232B41F42091030130910401309341
:103C0000C0032093BF0320910101309102012115CF
:103C1000310541F42DB73EB74091050150910601A1
:103C2000241B350BE091BF03F091C003E217F307AB
:103C3000A0F42E1B3F0B2817390778F0AC014E5F1C
:103C40005F4F2417350748F04E0F5F1F5093C00396
:103C50004093BF038193919302C0E0E0F0E0CF0175
:103C6000DF91CF911F910F910895CF93DF9300972C
:103C700009F481C0FC01329713821282A091C10322
:103C8000B091C203109781F420813181820F931F7C
:103C90002091BF033091C0032817390751F5F093E5
:103CA000C003E093BF0367C0ED0120E030E0CE1712
:103CB000DF0740F44A815B819E0141155105F1F017
:103CC000EA01F5CFD383C28340815181840F951FD0
:103CD000C817D90759F488819981840F951F0296D6
:103CE000918380838A819B8193838283211531050F
:103CF00029F4F093C203E093C1033DC0E901FB83C3
:103D0000EA8349915991C40FD51FEC17FD0761F45F
:103D100080819181840F951F0296E90199838883A0
:103D2000828193819B838A83E0E0F0E012968D91FB
:103D30009C911397009719F0FD01DC01F7CF8D914D
:103D40009C9111979D012E5F3F4F820F931F2091F1
:103D5000BF033091C0032817390769F4309729F45D
:103D60001092C2031092C10302C013821282B09358
:103D7000C003A093BF03DF91CF910895A0E0B0E00E
:103D8000E4ECFEE10C94421DEC01009721F4CB0120
:103D90000E949D1DB4C0FC01E60FF71F9C0122503C
:103DA0003109E217F30708F4A8C0D9010D911C915D
:103DB000119706171707B0F00530110508F49BC0DE
:103DC000C80104978617970708F495C00250110997
:103DD000061B170B019311936D937C93CF010E94E7
:103DE000351E89C05B01A01AB10A4C01800E911EDC
:103DF000A091C103B091C203612C712CE12CF12C74
:103E0000109709F446C08D919C911197A815B9059A
:103E1000B1F56C0142E0C40ED11CCA14DB0478F188
:103E20004C018A189B08640142E0C40ED11C129612
:103E3000BC9012971396AC91B5E0CB16D10440F02C
:103E4000B282A38391828082D9016D937C9309C051
:103E50000E5F1F4F800F911FF90191838083EB2D1F
:103E6000FA2FE114F10431F0D7011396FC93EE938D
:103E7000129741C0F093C203E093C1033CC068169F
:103E8000790608F43C017D0112960D90BC91A02D9D
:103E9000B7CF8091BF039091C00388169906E1F4D3
:103EA00066167706C8F4809101019091020100978F
:103EB00041F48DB79EB74091050150910601841BD6
:103EC000950BE817F907C8F4F093C003E093BF031C
:103ED000F901718360830FC0CB010E949D1D7C019D
:103EE000009759F0A801BE010E94891FCE010E94CF
:103EF000351EC70104C0CE0102C080E090E0CDB7FE
:103F0000DEB7EEE00C945E1D81E090E0F8940C9436
:103F1000A91FFB01DC0102C001900D9241505040ED
:103F2000D8F70895DC0101C06D9341505040E0F78F
:103F30000895FB01DC018D91019080190110D9F3E6
:103F4000990B0895FB01DC0101900D920020E1F72F
:103F5000089515E0C6E4D5E004C0FE010E94971D57
:0C3F60002196C734D107C9F7F894FFCFB1
:103F6C00010000C303800000000000050672059CE0
:103F7C00055206CD05AB05BF05000000005F0A32F7
:103F8C000A8E0AF1082A0A160A070A0000000047DE
:103F9C000B72058E0A71057E06F1081A09F2080EDD
:103FAC000902092109F1083C07B10DB80AFC0A3ACB
:103FBC00081D08B0075107202030004920686176A1
:103FCC006520636F6E666964656E7469616C206DE3
:103FDC006573736167652E2050617373203F0020F9
:103FEC0035300057726F6E672070617373776F7224
:103FFC00640A54727920616761696E005061737351
:10400C00203A20006B6F006F6B0031303000576529
:10401C006C6C20646F6E6521204D657373616765F0
:10402C00203A20000D0A0046756E57697468447674
:10403C004964005235617A7A62687A346266323346
:10404C0069736363627473313131310054303420DD
:10405C0044656661756C742E506173732E00250077
:107800000C94343C0C94513C0C94513C0C94513CE1
:107810000C94513C0C94513C0C94513C0C94513CB4
:107820000C94513C0C94513C0C94513C0C94513CA4
:107830000C94513C0C94513C0C94513C0C94513C94
:107840000C94513C0C94513C0C94513C0C94513C84
:107850000C94513C0C94513C0C94513C0C94513C74
:107860000C94513C0C94513C11241FBECFEFD8E036
:10787000DEBFCDBF11E0A0E0B1E0EAE8FFE702C063
:1078800005900D92A230B107D9F712E0A2E0B1E065
:1078900001C01D92AD30B107E1F70E942D3D0C945F
:1078A000C33F0C94003C982F95959595959595958B
:1078B000905D8F708A307CF0282F295A8091C0000B
:1078C00085FFFCCF9093C6008091C00085FFFCCF60
:1078D0002093C6000895282F205DF0CF982F809127
:1078E000C00085FFFCCF9093C6000895EF92FF92F1
:1078F0000F931F93EE24FF2487018091C00087FD22
:1079000017C00894E11CF11C011D111D81E2E8164D
:1079100081EAF80687E0080780E0180770F3E09135
:107920000401F091050109958091C00087FFE9CF1E
:107930008091C6001F910F91FF90EF9008950E94D3
:10794000763C982F8091C00085FFFCCF9093C600B5
:1079500091362CF490330CF09053892F089597555D
:10796000892F08951F930E949F3C182F0E949F3CCF
:107970001295107F810F1F9108951F93182F882350
:1079800021F00E94763C1150E1F71F9108951F935A
:10799000182F0E94763C803249F0809103018F5F5E
:1079A000809303018530C1F01F9108958091C0003C
:1079B00085FFFCCF84E18093C6008091C00085FFE5
:1079C000FCCF1093C6008091C00085FFFCCF80E102
:1079D0008093C6001F910895E0910401F091050184
:1079E00009951F9108950E94763C803241F0809164
:1079F00003018F5F80930301853081F008958091AA
:107A0000C00085FFFCCF84E18093C6008091C00058
:107A100085FFFCCF80E18093C6000895E0910401CA
:107A2000F09105010995089548EC50E08823A1F0F4
:107A30002D9A28EE33E0FA013197F1F721503040CA
:107A4000D1F72D9828EE33E0FA013197F1F7215064
:107A50003040D1F7815061F708953F924F925F9285
:107A60006F927F928F929F92AF92BF92CF92DF924E
:107A7000EF92FF920F931F93CF93DF93000082E06A
:107A80008093C00080E18093C4001092C50088E11B
:107A90008093C10086E08093C2005098589A259A3E
:107AA00081E00E94143D24E1F22E9EE1E92E85E959
:107AB000D82E0FE0C02E10E1B12EAA24A394B1E479
:107AC0009B2EA6E58A2EF2E57F2EE0E26E2E79E46B
:107AD000572E63E5462E50E5352E0E94763C8033C6
:107AE000B1F18133B9F1803409F46FC0813409F404
:107AF00076C0823409F485C0853409F488C08035A5
:107B000031F1823521F1813511F1853509F485C0D6
:107B1000863509F48DC0843609F496C0843709F49B
:107B200003C1853709F472C1863709F466C08091B4
:107B300003018F5F80930301853079F6E0910401A2
:107B4000F091050109950E94763C803351F60E9420
:107B5000F33CC3CF0E94763C803249F78091C0004D
:107B600085FFFCCFF092C6008091C00085FFFCCF5E
:107B70009092C6008091C00085FFFCCF8092C60025
:107B80008091C00085FFFCCF7092C6008091C0003C
:107B900085FFFCCF6092C6008091C00085FFFCCFBE
:107BA0005092C6008091C00085FFFCCF4092C60075
:107BB0008091C00085FFFCCF3092C6008091C0004C
:107BC00085FFFCCFB092C60088CF0E94763C8638F5
:107BD00008F4BDCF0E94763C0E94F33C7ECF0E9409
:107BE000763C803809F49CC0813809F40BC1823896
:107BF00009F430C1883909F48FC080E00E94C73C85
:107C00006CCF84E10E94BD3C0E94F33C66CF85E0CE
:107C10000E94BD3C0E94F33C60CF0E94763C809362
:107C200006010E94763C809307010E94F33C55CFE9
:107C30000E94763C803309F411C183E00E94BD3C70
:107C400080E00E94C73C49CF0E94763C80930902A5
:107C50000E94763C8093080280910C028E7F809374
:107C60000C020E94763C853409F409C18091080217
:107C700090910902892B89F000E010E00E94763C87
:107C8000F801E85FFE4F80830F5F1F4F809108026D
:107C9000909109020817190788F30E94763C8032F8
:107CA00009F045CF80910C0280FFF5C0609106017C
:107CB00070910701660F771F7093070160930601AB
:107CC000A0910802B09109021097C9F0E8E0F1E034
:107CD0009B01AD014E0F5F1FF999FECF32BD21BD53
:107CE000819180BDFA9AF99A2F5F3F4FE417F5070B
:107CF00099F76A0F7B1F70930701609306018091CB
:107D0000C00085FFFCCFF092C6008091C00085FFC7
:107D1000FCCFB092C600E1CE83E00E94C73CDDCE2E
:107D200082E00E94C73CD9CE0E94763C8093090233
:107D30000E94763C80930802809106019091070191
:107D4000880F991F90930701809306010E94763C4B
:107D5000853409F49AC080910C028E7F80930C02C6
:107D60000E94763C803209F0B8CE8091C00085FF39
:107D7000FCCFF092C600A0910802B09109021097C2
:107D8000C1F180910C02082F0170182F1695117007
:107D9000E0910601F0910701AF014F5F5F4FBA011B
:107DA00020E030E00023B1F4112339F49491809164
:107DB000C00085FFFCCF9093C6002F5F3F4FCB01E3
:107DC0000196FA012A173B0780F4BC014F5F5F4F11
:107DD000002351F3F999FECFF2BDE1BDF89A90B5B9
:107DE0008091C00085FFFCCFE6CF709307016093C0
:107DF00006018091C00085FDE5CE8091C00085FF21
:107E0000F8CFE0CE81E00E94C73C67CE0E94763C6E
:107E1000803209F08CCE8091C00085FFFCCFF092BB
:107E2000C6008091C00085FFFCCFE092C600809123
:107E3000C00085FFFCCFD092C6008091C00085FFB6
:107E4000FCCFC092C6008091C00085FFFCCFB092ED
:107E5000C60043CE80E10E94C73C3FCE0E94763CE4
:107E60000E94763C182F0E94763C112309F483C0AF
:107E7000113009F484C08FE00E94C73C2ECE80915F
:107E80000C02816080930C02F1CE80910C02816023
:107E900080930C0265CF809107018823880F880B9F
:107EA0008A2180930B028091060190910701880F2F
:107EB000991F90930701809306018091080280FF2B
:107EC00009C08091080290910902019690930902DD
:107ED00080930802F894F999FECF1127E0910601EA
:107EE000F0910701C8E0D1E0809108029091090269
:107EF000103091F40091570001700130D9F303E084
:107F000000935700E8950091570001700130D9F3B4
:107F100001E100935700E8950990199000915700EE
:107F200001700130D9F301E000935700E8951395F3
:107F3000103498F011270091570001700130D9F3E7
:107F400005E000935700E89500915700017001305B
:107F5000D9F301E100935700E8953296029709F0B2
:107F6000C7CF103011F00296E5CF11248091C000E8
:107F700085FFC5CEC8CE8EE10E94C73CAECD85E957
:0A7F80000E94C73CAACDF894FFCF81
:027F8A00800075
:040000030000780081
:00000001FF
