:020000040000FA
:100000000C9465010C948D010C948D010C945C078B
:100010000C945C070C945C070C948D010C948D017E
:100020000C948D010C948D010C948D010C948D0118
:100030000C948D010C948D010C948D010C948D0108
:100040000C9412070C948D010C94E0060C94BA06E3
:100050000C948D010C948D010C948D010C948D01E8
:100060000C9466070C948D01AED580A83FD3004058
:100070008D142002A1C8DA12817FD9F1DB40A4A639
:10008000AF00030C0F30333C3FC0C3CCCFF0F3FCC8
:10009000FF00000000250028002B000404040404D5
:1000A0000404040202020202020303030303030125
:1000B00002040810204080010204081020010204FC
:1000C00008102000000008000201000003040700DF
:1000D0000000000000000000000507206100000093
:1000E000000000005F00000007000700147F147F7D
:1000F00014242A7F2A122313086462364955225099
:100100000005030000001C2241000041221C0008E1
:100110002A1C2A0808083E08080050300000080879
:10012000080808006060000020100804023E5149E1
:10013000453E00427F400042615149462141454BC6
:10014000311814127F1027454545393C4A4949303A
:1001500001710905033649494936064949291E00F6
:1001600036360000005636000000081422411414F0
:10017000141414412214080002015109063249796D
:10018000413E7E1111117E7F494949363E41414130
:10019000227F4141221C7F494949417F09090101D0
:1001A0003E414151327F0808087F00417F410020D5
:1001B00040413F017F081422417F404040407F0280
:1001C00004027F7F0408107F3E4141413E7F0909C0
:1001D00009063E4151215E7F091929464649494990
:1001E0003101017F01013F4040403F1F2040201F5F
:1001F0007F2018207F6314081463030478040361CC
:100200005149454300007F4141020408102041410B
:100210007F0000040201020440404040400001020F
:10022000040020545454787F4844443838444444AB
:1002300020384444487F3854545418087E09010239
:10024000081454543C7F0804047800447D40002086
:1002500040443D00007F10284400417F40007C0462
:100260001804787C0804047838444444387C141416
:100270001408081414187C7C0804040848545454C6
:1002800020043F4440203C4040207C1C2040201C57
:100290003C4030403C44281028440C5050503C44D2
:1002A00064544C44000836410000007F00000041C7
:1002B00036080008082A1C08081C2A080800060935
:1002C0000906680019804000810811241FBECFEF85
:1002D000D8E0DEBFCDBF11E0A0E0B1E0E6ECF3E195
:1002E00002C005900D92A233B107D9F722E0A2E334
:1002F000B1E001C01D92A036B207E1F711E0C5E6FA
:10030000D1E004C02197FE010E94D609C436D1076E
:10031000C9F70E94BD080C94E1090C940000AF924B
:10032000BF92CF92DF92EF92FF920F931F93CF93E2
:10033000DF936C017B018B01040F151FEB015E0144
:10034000AE18BF08C017D10759F06991D601ED91D9
:10035000FC910190F081E02DC6010995892B79F778
:10036000C501DF91CF911F910F91FF90EF90DF902A
:10037000CF90BF90AF900895FC01538D448D252FF1
:1003800030E0842F90E0821B930B541710F0CF962F
:10039000089501970895FC01918D828D981761F061
:1003A000A28DAE0FBF2FB11D5D968C91928D9F5F78
:1003B0009F73928F90E008958FEF9FEF0895FC0157
:1003C000918D828D981731F0828DE80FF11D858D0A
:1003D00090E008958FEF9FEF0895FC01918D228D9D
:1003E000892F90E0805C9F4F821B91098F73992722
:1003F00008958EEA91E00E94ED0121E0892B09F435
:1004000020E0822F089580E090E0892B29F00E945F
:10041000F90181110C9400000895FC01A48DA80F2E
:10042000B92FB11DA35ABF4F2C91848D90E0019636
:100430008F739927848FA689B7892C93A089B18956
:100440008C91837080648C93938D848D981306C0F7
:100450000288F389E02D80818F7D80830895EF925B
:10046000FF920F931F93CF93DF93EC0181E0888F6E
:100470009B8D8C8D98131AC0E889F989808185FF3E
:1004800015C09FB7F894EE89FF896083E889F989E0
:1004900080818370806480839FBF81E090E0DF91E2
:1004A000CF911F910F91FF90EF900895F62E0B8D35
:1004B00010E00F5F1F4F0F731127E02E8C8D8E11F0
:1004C0000CC00FB607FCFACFE889F989808185FF57
:1004D000F5CFCE010E940D02F1CFEB8DEC0FFD2F79
:1004E000F11DE35AFF4FF0829FB7F8940B8FEA8912
:1004F000FB8980818062CFCFCF93DF93EC01888D21
:100500008823B9F0AA89BB89E889F9898C9185FD8E
:1005100003C0808186FD0DC00FB607FCF7CF8C911C
:1005200085FFF2CF808185FFEDCFCE010E940D02C5
:10053000E9CFDF91CF91089590E0FC01ED53FF4F9B
:100540002491FC01E155FF4F3491FC01E556FF4F2A
:10055000E491EE23C9F0222339F0233001F1A8F40D
:10056000213019F1223029F1F0E0EE0FFF1FEF5694
:10057000FF4FA591B4918FB7F894EC91611126C00B
:1005800030953E233C938FBF08952730A9F0283043
:10059000C9F0243049F7809180008F7D03C080919D
:1005A00080008F7780938000DFCF84B58F7784BD04
:1005B000DBCF84B58F7DFBCF8091B0008F778093A8
:1005C000B000D2CF8091B0008F7DF9CF3E2BDACF33
:1005D0003FB7F8948091AA019091AB01A091AC0132
:1005E000B091AD0126B5A89B05C02F3F19F001962B
:1005F000A11DB11D3FBFBA2FA92F982F8827BC017D
:10060000CD01620F711D811D911D43E0660F771FA3
:10061000881F991F4A95D1F708958F929F92AF92A4
:10062000BF92CF92DF92EF92FF920E94E8024B01BD
:100630005C0188EBC82E8BE0D82EE12CF12C0E94B7
:10064000E802681979098A099B09683E73408105A7
:100650009105A8F321E0C21AD108E108F10888EE5B
:10066000880E83E0981EA11CB11CC114D104E104C2
:10067000F10429F7FF90EF90DF90CF90BF90AF90FB
:100680009F908F900895CF93DF93EC018D85882301
:1006900029F081508D87DF91CF9108959C818E81C3
:1006A0009817C8F788896827E881F9810084F1855F
:1006B000E02D42E0CE0109958C818F5F8C83EBCFDA
:1006C000DC01ED91FC910084F185E02D40E009947E
:1006D000FC012781269526952695621738F46583B7
:1006E0002385620F6770606B0C94600308950F930D
:1006F0001F93CF93FC012681621798F4C62F8C01BB
:1007000064836085C60F6C2F6F700E9460036C2F2E
:1007100062956F706061C801CF911F910F910C9429
:100720006003CF911F910F910895CF92DF92EF92C6
:10073000FF920F931F93CF93DF93EC01F62EC42EFD
:10074000D22E1D868F81869586958695081710F086
:100750000FEF080F1D2D6F2DCE01011788F00E949D
:100760007703612FCE010E946803EF2CCE1430F086
:100770006889CE010E944303E394F8CF1F5FEBCF5B
:100780000E9477036D2DCE01DF91CF911F910F91C4
:10079000FF90EF90DF90CF900C9468032F923F92E0
:1007A0004F925F926F927F928F929F92AF92BF9281
:1007B000CF92DF92EF92FF920F931F93CF93DF932D
:1007C00000D000D000D0CDB7DEB7DC011E962D9151
:1007D0003C912115310509F459C19E838D83F9019E
:1007E0003296649031964491E42EF12CB7E0EB0EF2
:1007F000F11C53E0F594E7945A95E1F7E9823196BC
:1008000054913196E491651748F08E2F90E0FC01E9
:10081000E50FF11D6E171F060CF46EC06D3041F42C
:1008200060E08D819E810E94770381E090E030C17D
:100830006A3009F02BC160E08D819E810E947703B0
:10084000ED81FE8101890E9DE02C112465816E0DE4
:100850008485882349F027812695269526958E2D17
:10086000821B860F18162CF08D819E810E946803D2
:10087000DCCFAD81BE811B969C911B97890F877041
:100880001B968C931B972E1915962C9315971E96D5
:10089000ED91FC91309771F13396E491F0E0379649
:1008A00033E0F595E7953A95E1F70E9F002D112479
:1008B000EFEFE20F0E0FED81FE8146814150648122
:1008C000CF010E949503AD81BE811C968C911C972F
:1008D000813009F0AACF1B966C911B97660F660FAB
:1008E000660F6F731A966C931A976064CD010E941D
:1008F00060039BCF00E0DCCF89010A5F1F4F651BBF
:10090000ED81FE8171855189759F502D11245C8385
:10091000F90154912F5F3F4FF9012491352F223077
:10092000310508F075C06E9CC0016F9C900D1124BC
:10093000689FF001699FF00D11240E0F1F1F512CAD
:10094000AD81BE811496BC91BA83ED81FE81258074
:10095000F585FB83862C912CAA24A394B12C312CF1
:100960008981381608F090C0412CAD81BE81519626
:100970008C915197481608F080C0EB811D96EC933E
:10098000311002C0442079F0AD81BE811596DC9013
:100990001597D3946A81CD010E9477036D2D8D81C7
:1009A0009E810E946803D12CC12CC61408F058C047
:1009B000F801EC0DFD1D7490552061F0EA14FB0464
:1009C00049F4E72DF0E0052C02C0F595E7950A946F
:1009D000E2F77E2EED81FE818189823081F4442010
:1009E00009F43AC072948FE07822E72DF0E0EF57D7
:1009F000FF4F7490672D8D819E810E944303672D68
:100A00008D819E810E9443038FEFC81AD80ACDCFF3
:100A1000477028E0522E541A411101C0512CF801A0
:100A2000612C30E020E0661631F04491240F311D36
:100A300063943196F8CF600E712E711CF3016490AF
:100A4000E29EF001E39EF00DF29EF00D11248E0F58
:100A50009F1F080F191F74CFF72DFF707F2EC5CF72
:100A6000D12CAC81DA1639F060E08D819E810E9434
:100A70004303D394F6CF439478CF3394080D191DD4
:100A8000BFEFAB1ABB0A6CCF622DEECE90E080E0D8
:100A900026960FB6F894DEBF0FBECDBFDF91CF9183
:100AA0001F910F91FF90EF90DF90CF90BF90AF908C
:100AB0009F908F907F906F905F904F903F902F907E
:100AC00008950F93CF93DF93EC011B861A8660E4A1
:100AD0000E9460030F8106950695069501504E8190
:100AE000415020E060E0CE010E949503DF91CF915C
:100AF0000F910895FC016093BC008091BC0087FFBA
:100B0000FCCF9091B900987F90830895DF92EF9287
:100B1000FF920F931F93CF93DF93EC01D62EF42E09
:100B20008C89882351F0411108C084E98093BC006E
:100B30008091BC0084FDFCCF1C8A8E010E5E1F4F8D
:100B40008C8981111AC0EB8864EAC8010E947A0579
:100B50008A89883011F0803139F4EE0CE092BB00C4
:100B600064E8C8010E947A0580E0F11080E4809377
:100B7000BB0064E8C8010E947A05D092BB0064E81B
:100B8000C8010E947A0582E0F8120BC08C898F5F41
:100B90008C8BDF91CF911F910F91FF90EF90DF90A1
:100BA000089584E98093BC008091BC0084FDFCCF53
:100BB0001C8AEFCF089520915901260F3327331F48
:100BC00021323105ECF420917D01FC0190E080E0C0
:100BD000243069F082E00895A09159012191AC017F
:100BE000475C5E4FA40FB52FB11D2C93019686175D
:100BF00098F380915901680F6093590180E008953E
:100C000081E0089508958FEF9FEF08958FEF9FEF94
:100C100008958091320190E0919581959109089510
:100C2000CF93DF93CB01EA01642F0E94DB05CE0155
:100C3000DF91CF910895CF93DF931F92CDB7DEB7A9
:100C4000698361E0CE0101960E94DB0581E090E0BE
:100C50000F90DF91CF91089590E080E00895682F84
:100C600084E690E00C94C8090E94DC09FB01019025
:100C70000020E9F73197AF01461B570BDC01ED91DE
:100C8000FC910280F381E02D09941F93CF93DF93B1
:100C900085ED8093BC008091350190913601A09143
:100CA0003701B09138010796A11DB11D23E0B6951B
:100CB000A795979587952A95D1F72091BC0024FD9B
:100CC00003C010927D0152C0409135015091360110
:100CD0006091370170913801452B462B472B69F302
:100CE0000097A105B10541F02AE12A95F1F700C06E
:100CF0000197A109B109E1CF80913401C1E0C0930E
:100D00003301882399F1D091B8001091BA008091F5
:100D1000BC008A7B8093BC0060E082E10E949C0260
:100D200060E083E10E949C0210927D01C0937F01EC
:100D300010927E0161E082E10E949C0261E083E109
:100D40000E949C028091B9008E7F8093B9008091AF
:100D5000B9008D7F8093B90080E28093B80085E46C
:100D60008093BC001093BA00D093B800DF91CF916C
:100D70001F9108951F920F920FB60F9211242F9377
:100D80003F934F935F936F937F938F939F93AF9313
:100D9000BF93EF93FF938EEA91E00E940D02FF91C3
:100DA000EF91BF91AF919F918F917F916F915F91E3
:100DB0004F913F912F910F900FBE0F901F9018955C
:100DC0001F920F920FB60F9211242F938F939F9320
:100DD000EF93FF93E091BE01F091BF018081E0911C
:100DE000C401F091C50182FD1BC090818091C701B3
:100DF0008F5F8F732091C801821741F0E091C70186
:100E0000F0E0E255FE4F958F8093C701FF91EF917F
:100E10009F918F912F910F900FBE0F901F9018955B
:100E20008081F4CF1F920F920FB60F9211242F934F
:100E30003F938F939F93AF93BF938091A60190911F
:100E4000A701A091A801B091A9013091A50126E0C8
:100E5000230F2D3758F50296A11DB11D2093A50132
:100E60008093A6019093A701A093A801B093A90134
:100E70008091AA019091AB01A091AC01B091AD011C
:100E80000196A11DB11D8093AA019093AB01A0937F
:100E9000AC01B093AD01BF91AF919F918F913F9104
:100EA0002F910F900FBE0F901F90189529E8230FD8
:100EB0000396A11DB11DD2CF1F920F920FB60F92B4
:100EC00011240F900FBE0F901F9018951F920F9234
:100ED0000FB60F9211242F933F934F935F936F930D
:100EE0007F938F939F93AF93BF93EF93FF938091E3
:100EF000B900887F803609F44AC0F0F5883209F4D9
:100F0000A5C018F5803109F499C0B8F4882309F414
:100F1000F5C0883009F492C0FF91EF91BF91AF9175
:100F20009F918F917F916F915F914F913F912F9101
:100F30000F900FBE0F901F901895883109F486C04E
:100F4000803251F780937C0114C0803409F49BC037
:100F500040F48033B9F38833F9F680937C0185EC53
:100F6000AEC0803509F483C0883509F494C0883454
:100F700099F60E944506D0CF883909F48AC038F521
:100F8000883729F050F4883611F0803729F683E04D
:100F900080937D0110927B0155C0883809F479C097
:100FA000803919F0803809F0B7CF80917B01803209
:100FB00008F06FC0E0917B0181E08E0F80937B0190
:100FC0008091BB00F0E0E55AFE4F80833BC0803B40
:100FD00039F0D0F4803A09F477C0883A09F09CCF10
:100FE00084E080937D0110925A0110925901F0E043
:100FF000E0E009958091590181110FC081E0809353
:1010000059011092390109C0803C09F4A8CF883CED
:1010100009F4A5CF883B09F07FCFE0915A0181E028
:101020008E0F80935A01F0E0E75CFE4F8081809341
:10103000BB0090915A018091590129C08091A20171
:101040008093BB0085EC8093BC0066CF9091A1019A
:101050008091A001981758F5E091A10181E08E0FD1
:101060008093A101F0E0E058FE4F8081E9CFE0914C
:10107000A10181E08E0F8093A1018091BB00F0E07F
:10108000E058FE4F80839091A1018091A0019817B4
:10109000C8F285E8D8CFE091A10181E08E0F80935E
:1010A000A1018091BB00F0E0E058FE4F8083809169
:1010B0007F0181115ECF81E080937E0184EA80937D
:1010C000BC0010927D0128CF85EC8093BC0010926B
:1010D0007D0180917B01803230F4E0917B01F0E072
:1010E000E55AFE4F108260917B0170E08BE591E044
:1010F000F0E0E0E0099510927B010ECF10927C01A8
:1011000038CFEEEAF1E01382128288EE93E0A0E09D
:10111000B0E084839583A683B78384E091E09183D4
:10112000808385EC90E09587848784EC90E09787B6
:10113000868780EC90E0918B808B81EC90E0938BA4
:10114000828B82EC90E0958B848B86EC90E0978B81
:10115000868B118E128E138E148EEBE4F2E01382C6
:1011600012821486158617861686108A81E0818B76
:1011700086E191E0918380830895789484B58260BC
:1011800084BD84B5816084BD85B5826085BD85B52B
:10119000816085BD80916E00816080936E001092A9
:1011A0008100809181008260809381008091810024
:1011B00081608093810080918000816080938000B5
:1011C0008091B10084608093B1008091B000816013
:1011D0008093B00080917A00846080937A0080913F
:1011E0007A00826080937A0080917A008E7F80936B
:1011F0007A0080917A00806880937A001092C10012
:1012000010925F028CE380935E021092B90082E03C
:101210008093B80010924F0210925002E2ECF2E07C
:10122000E590F490E4ECF2E01491E5ECF2E0E49166
:10123000E0935102E6ECF2E0E491E0935202E7EC35
:10124000F2E0E491E0935302D0E0C0E0C11750F423
:10125000F701EC0FFD1F64918BE492E00E946003A4
:101260002196F4CF8BE492E00E946105E7EDF0E077
:10127000F0935A02E09359028491E8EDF0E0E49192
:10128000F82F319709F080C0109254028BE492E05D
:101290000E94610560E271E08BE492E00E943606F4
:1012A0006FE271E08BE492E00E943606E091BE01AD
:1012B000F091BF0182E08083E091BA01F091BB011F
:1012C0001082E091BC01F091BD0187E6808310920D
:1012D000C601E091C201F091C30186E08083E091F4
:1012E000C001F091C101808180618083E091C001E3
:1012F000F091C101808188608083E091C001F0910C
:10130000C101808180688083E091C001F091C101BA
:1013100080818F7D8083C0E0D0E06AE271E08EEA58
:1013200091E00E94360680E50E942F060E940D0380
:1013300081E40E942F060E940D0383E50E942F0680
:101340000E940D0383E50E942F060E940D0387E58E
:101350000E942F060E940D038FE40E942F060E9418
:101360000D0382E50E942F060E940D0384E40E9473
:101370002F060E940D03209781F20E94F901882315
:1013800061F20E940000C9CF81E0809354027ECFB9
:10139000262FF999FECF1FBA92BD81BD20BD0FB691
:1013A000F894FA9AF99A0FBE01960895EE0FFF1F6E
:1013B0000590F491E02D099481E090E0F8940C946C
:1013C000E109F894FFCF000000002F028F01BC015B
:1013D0007C02ED01CB01DF0100000000CE038F0194
:1013E0002C06DA05860548656C6C6F202E2E2E00C3
:0813F00048656C6C6F0D0A00EA
:107800000C94343C0C94513C0C94513C0C94513CE1
:107810000C94513C0C94513C0C94513C0C94513CB4
:107820000C94513C0C94513C0C94513C0C94513CA4
:107830000C94513C0C94513C0C94513C0C94513C94
:107840000C94513C0C94513C0C94513C0C94513C84
:107850000C94513C0C94513C0C94513C0C94513C74
:107860000C94513C0C94513C11241FBECFEFD8E036
:10787000DEBFCDBF11E0A0E0B1E0EAE8FFE702C063
:1078800005900D92A230B107D9F712E0A2E0B1E065
:1078900001C01D92AD30B107E1F70E942D3D0C945F
:1078A000C33F0C94003C982F95959595959595958B
:1078B000905D8F708A307CF0282F295A8091C0000B
:1078C00085FFFCCF9093C6008091C00085FFFCCF60
:1078D0002093C6000895282F205DF0CF982F809127
:1078E000C00085FFFCCF9093C6000895EF92FF92F1
:1078F0000F931F93EE24FF2487018091C00087FD22
:1079000017C00894E11CF11C011D111D81E2E8164D
:1079100081EAF80687E0080780E0180770F3E09135
:107920000401F091050109958091C00087FFE9CF1E
:107930008091C6001F910F91FF90EF9008950E94D3
:10794000763C982F8091C00085FFFCCF9093C600B5
:1079500091362CF490330CF09053892F089597555D
:10796000892F08951F930E949F3C182F0E949F3CCF
:107970001295107F810F1F9108951F93182F882350
:1079800021F00E94763C1150E1F71F9108951F935A
:10799000182F0E94763C803249F0809103018F5F5E
:1079A000809303018530C1F01F9108958091C0003C
:1079B00085FFFCCF84E18093C6008091C00085FFE5
:1079C000FCCF1093C6008091C00085FFFCCF80E102
:1079D0008093C6001F910895E0910401F091050184
:1079E00009951F9108950E94763C803241F0809164
:1079F00003018F5F80930301853081F008958091AA
:107A0000C00085FFFCCF84E18093C6008091C00058
:107A100085FFFCCF80E18093C6000895E0910401CA
:107A2000F09105010995089548EC50E08823A1F0F4
:107A30002D9A28EE33E0FA013197F1F721503040CA
:107A4000D1F72D9828EE33E0FA013197F1F7215064
:107A50003040D1F7815061F708953F924F925F9285
:107A60006F927F928F929F92AF92BF92CF92DF924E
:107A7000EF92FF920F931F93CF93DF93000082E06A
:107A80008093C00080E18093C4001092C50088E11B
:107A90008093C10086E08093C2005098589A259A3E
:107AA00081E00E94143D24E1F22E9EE1E92E85E959
:107AB000D82E0FE0C02E10E1B12EAA24A394B1E479
:107AC0009B2EA6E58A2EF2E57F2EE0E26E2E79E46B
:107AD000572E63E5462E50E5352E0E94763C8033C6
:107AE000B1F18133B9F1803409F46FC0813409F404
:107AF00076C0823409F485C0853409F488C08035A5
:107B000031F1823521F1813511F1853509F485C0D6
:107B1000863509F48DC0843609F496C0843709F49B
:107B200003C1853709F472C1863709F466C08091B4
:107B300003018F5F80930301853079F6E0910401A2
:107B4000F091050109950E94763C803351F60E9420
:107B5000F33CC3CF0E94763C803249F78091C0004D
:107B600085FFFCCFF092C6008091C00085FFFCCF5E
:107B70009092C6008091C00085FFFCCF8092C60025
:107B80008091C00085FFFCCF7092C6008091C0003C
:107B900085FFFCCF6092C6008091C00085FFFCCFBE
:107BA0005092C6008091C00085FFFCCF4092C60075
:107BB0008091C00085FFFCCF3092C6008091C0004C
:107BC00085FFFCCFB092C60088CF0E94763C8638F5
:107BD00008F4BDCF0E94763C0E94F33C7ECF0E9409
:107BE000763C803809F49CC0813809F40BC1823896
:107BF00009F430C1883909F48FC080E00E94C73C85
:107C00006CCF84E10E94BD3C0E94F33C66CF85E0CE
:107C10000E94BD3C0E94F33C60CF0E94763C809362
:107C200006010E94763C809307010E94F33C55CFE9
:107C30000E94763C803309F411C183E00E94BD3C70
:107C400080E00E94C73C49CF0E94763C80930902A5
:107C50000E94763C8093080280910C028E7F809374
:107C60000C020E94763C853409F409C18091080217
:107C700090910902892B89F000E010E00E94763C87
:107C8000F801E85FFE4F80830F5F1F4F809108026D
:107C9000909109020817190788F30E94763C8032F8
:107CA00009F045CF80910C0280FFF5C0609106017C
:107CB00070910701660F771F7093070160930601AB
:107CC000A0910802B09109021097C9F0E8E0F1E034
:107CD0009B01AD014E0F5F1FF999FECF32BD21BD53
:107CE000819180BDFA9AF99A2F5F3F4FE417F5070B
:107CF00099F76A0F7B1F70930701609306018091CB
:107D0000C00085FFFCCFF092C6008091C00085FFC7
:107D1000FCCFB092C600E1CE83E00E94C73CDDCE2E
:107D200082E00E94C73CD9CE0E94763C8093090233
:107D30000E94763C80930802809106019091070191
:107D4000880F991F90930701809306010E94763C4B
:107D5000853409F49AC080910C028E7F80930C02C6
:107D60000E94763C803209F0B8CE8091C00085FF39
:107D7000FCCFF092C600A0910802B09109021097C2
:107D8000C1F180910C02082F0170182F1695117007
:107D9000E0910601F0910701AF014F5F5F4FBA011B
:107DA00020E030E00023B1F4112339F49491809164
:107DB000C00085FFFCCF9093C6002F5F3F4FCB01E3
:107DC0000196FA012A173B0780F4BC014F5F5F4F11
:107DD000002351F3F999FECFF2BDE1BDF89A90B5B9
:107DE0008091C00085FFFCCFE6CF709307016093C0
:107DF00006018091C00085FDE5CE8091C00085FF21
:107E0000F8CFE0CE81E00E94C73C67CE0E94763C6E
:107E1000803209F08CCE8091C00085FFFCCFF092BB
:107E2000C6008091C00085FFFCCFE092C600809123
:107E3000C00085FFFCCFD092C6008091C00085FFB6
:107E4000FCCFC092C6008091C00085FFFCCFB092ED
:107E5000C60043CE80E10E94C73C3FCE0E94763CE4
:107E60000E94763C182F0E94763C112309F483C0AF
:107E7000113009F484C08FE00E94C73C2ECE80915F
:107E80000C02816080930C02F1CE80910C02816023
:107E900080930C0265CF809107018823880F880B9F
:107EA0008A2180930B028091060190910701880F2F
:107EB000991F90930701809306018091080280FF2B
:107EC00009C08091080290910902019690930902DD
:107ED00080930802F894F999FECF1127E0910601EA
:107EE000F0910701C8E0D1E0809108029091090269
:107EF000103091F40091570001700130D9F303E084
:107F000000935700E8950091570001700130D9F3B4
:107F100001E100935700E8950990199000915700EE
:107F200001700130D9F301E000935700E8951395F3
:107F3000103498F011270091570001700130D9F3E7
:107F400005E000935700E89500915700017001305B
:107F5000D9F301E100935700E8953296029709F0B2
:107F6000C7CF103011F00296E5CF11248091C000E8
:107F700085FFC5CEC8CE8EE10E94C73CAECD85E957
:0C7F80000E94C73CAACDF894FFCF8000FF
:00000001FF
